:100000000C9499070C94C1070C94C1070C94C10778
:100010000C94C1070C94C1070C94C1070C94C10740
:100020000C94C1070C94C1070C94C1070C94C10730
:100030000C94C1070C94C1070C94C1070C94C10720
:100040000C94A01A0C94C1070C94101B0C94EA1A7F
:100050000C94C1070C94C1070C94C1070C94C10700
:100060000C94421B0C94C1074E414E494E495459C1
:10007000494E46CDCCCC3D0AD7233C17B7D1387773
:10008000CC2B329595E6241FB14F0A000020410089
:1000900000C84200401C4620BCBE4CCA1B0E5AAED3
:1000A000C59D7400407A10F35A00A0724E180900E2
:1000B00010A5D4E80000E87648170000E40B5402CD
:1000C0000000CA9A3B000000E1F505000080969808
:1000D00000000040420F000000A086010000001058
:1000E0002700000000E8030000000064000000009A
:1000F000000A00000000000100000000002C76D87B
:1001000088DC674F0823DFC1DFAE59E1B1B796E560
:10011000E3E453C63AE651997696E8E6C28426EBC4
:10012000898C9B62ED407C6FFCEFBC9C9F40F2BAD7
:10013000A56FA5F490055A2AF75C936B6CF9676D6F
:10014000C11BFCE0E40D47FEF520E6B500D0ED90C4
:100150002E0300943577050080841E080000204E91
:100160000A000000C80C333333330F986E1283112A
:1001700041EF8D2114893BE65516CFFEE6DB18D101
:10018000844B381BF77C1D901DA4BBE424203284D3
:10019000725E228100C9F124ECA1E53D2700000038
:1001A00000060001000001050200FC01000301043B
:1001B00000FC020005050600FC060005050600FC23
:1001C0000A0005050600FC0E0005050600FC1200ED
:1001D00001010200FC130002050300FC15000205EA
:1001E0000300FC170003030400FD190003030400CF
:1001F000FD1B0001020200001C0004010500FE1DA1
:100200000001010200001E0005050600FC22000599
:10021000050600FC260001050200FC270005050676
:1002200000FC2B0005050600FC2F0005050600FC60
:10023000330005050600FC370005050600FC3B0001
:1002400005050600FC3F0005050600FC430005050A
:100250000600FC470001040200FD48000104020002
:10026000FD490003050400FC4B0004030500FD4D9F
:100270000003050400FC4F0005050600FC530005C3
:10028000050600FC570005050600FC5B0005050699
:1002900000FC5F0005050600FC630005050600FC88
:1002A000670005050600FC6B0005050600FC6F00F5
:1002B00005050600FC730005050600FC7700050532
:1002C0000600FC7B0005050600FC7F000505060016
:1002D000FC830005050600FC870005050600FC8B75
:1002E0000005050600FC8F0005050600FC930005CF
:1002F000050600FC970005050600FC9B00050506A9
:1003000000FC9F0005050600FCA30005050600FC97
:10031000A70005050600FCAB0005050600FCAF00C4
:1003200005050600FCB30005050600FCB700050541
:100330000600FCBB0005050600FCBF00020503002B
:10034000FCC10005050600FCC50002050300FCC752
:100350000003020400FCC8000501060001C90001F9
:10036000010200FCCA0004040500FDCC00040505E0
:1003700000FCCF0004040500FDD10004050500FCCD
:10038000D40004040500FDD60003050400FCD800D9
:1003900004050500FDDB0004050500FCDE0001048A
:1003A0000200FDDF0002050300FDE1000405050079
:1003B000FCE40001050200FCE50005040600FDE880
:1003C0000004040500FDEA0004040500FDEC00043F
:1003D000050500FDEF0004050500FDF2000404051D
:1003E00000FDF40004040500FDF60005050600FC10
:1003F000FA0004040500FDFC0004040500FDFE00F5
:1004000005040600FD010104040500FD03010405C7
:100410000500FD060104040500FD080103050400B4
:10042000FC0A0101050200FC0B0103050400FC0DA0
:100430000105030600FDE8A057D5F500FD3E5F80ED
:1004400088888880F4BF2E80806A409580AA805D6D
:1004500000C0F08008888800FC631F80F8F87F0FD8
:1004600080F87E1F808C7E1080FC3E1F80FC3F1F2A
:1004700080F8421080FC7F1F80FC7E1F8090B02A95
:1004800022F0F088A8F84E0200FD6F0F80FC7F1864
:1004900080F47D1F00FC210F80F4631F00FC3F0FE0
:1004A00080FC3F0800FC2F1F808C7F1880F9084FCC
:1004B0008078852F808DB1688084210F80FD6B5AF4
:1004C00080FC631880FC631F80FC7F0800FC633F96
:1004D00080FC7F2900FC3E1F80F90842008C631FCE
:1004E000808C62A200AD6B5F808A88A8808C5442A9
:1004F00000F87F0F80EAC082082080D5C054F880C1
:10050000F1FF8F99F0F88F1F99F0FF8F6BA4F99F7F
:10051000108F9990F055C08AF990F8FD6310F99901
:10052000F99FF99F80F99F20F888471F27C842004C
:10053000999F99978C6BF09669999F102E8F2B221B
:10054000F889A80FE03FF04008C004C004C004C010
:1005500004C004C004C004C004C004C004C004C07B
:1005600004C004C004C004C004C004C004C004E04B
:10057000047FF83FF03FF07FF8FFFCFFFCFFFCFF3B
:10058000FCFFFCFFFCFFFCFFFCFFFCFFFCFFFCFF93
:10059000FCFFFCFFFCFFFCFFFCFFFCFFFCFFFCFF83
:1005A000FC7FF83FF036049D0120007E000700002C
:1005B0000000003E5B4F5B3E3E6B4F6B3E1C3E7C43
:1005C0003E1C183C7E3C181C577D571C1C5E7F5EF1
:1005D0001C00183C1800FFE7C3E7FF0018241800B0
:1005E000FFE7DBE7FF30483A060E26297929264047
:1005F0007F050507407F05253F5A3CE73C5A7F3E73
:100600001C1C08081C1C3E7F14227F22145F5F0004
:100610005F5F06097F017F006689956A60606060A0
:100620006094A2FFA29408047E040810207E20108B
:1006300008082A1C08081C2A08081E101010100C94
:100640001E0C1E0C30383E3830060E3E0E060000E2
:1006500000000000005F00000007000700147F1486
:100660007F14242A7F2A12231308646236495620F5
:10067000500008070300001C2241000041221C001A
:100680002A1C7F1C2A08083E0808008070300008D9
:1006900008080808000060600020100804023E51AD
:1006A00049453E00427F400072494949462141493F
:1006B0004D331814127F1027454545393C4A4949A6
:1006C0003141211109073649494936464949291E10
:1006D00000001400000040340000000814224114FF
:1006E00014141414004122140802015909063E4151
:1006F0005D594E7C1211127C7F494949363E414179
:1007000041227F4141413E7F494949417F090909D1
:10071000013E414151737F0808087F00417F41003D
:100720002040413F017F081422417F404040407FEC
:10073000021C027F7F0408107F3E4141413E7F0939
:100740000909063E4151215E7F091929462649497A
:10075000493203017F01033F4040403F1F204020BA
:100760001F3F4038403F63140814630304780403B8
:100770006159494D43007F41414102040810200066
:100780004141417F040201020440404040400003D7
:1007900007080020545478407F28444438384444A3
:1007A0004428384444287F385454541800087E099B
:1007B0000218A4A49C787F0804047800447D4000BB
:1007C0002040403D007F1028440000417F40007CD5
:1007D000047804787C080404783844444438FC18CD
:1007E00024241818242418FC7C08040408485454B1
:1007F000542404043F44243C4040207C1C204020DE
:100800001C3C4030403C44281028444C9090907C44
:100810004464544C44000836410000007700000056
:100820004136080002010204023C2623263C1EA198
:10083000A161123A4040207A3854545559215555F7
:1008400079412254547842215554784020545579A6
:10085000400C1E5272123955555559395454545939
:1008600039555454580000457C410002457D4200F2
:1008700001457C407D1211127DF0282528F07C5422
:100880005545002054547C547C0A097F493249491B
:1008900049323A4444443A324A4848303A41412184
:1008A0007A3A42402078009DA0A07D3D4242423DE0
:1008B0003D4040403D3C24FF2424487E4943662B74
:1008C0002FFC2F2BFF0929F620C0887E0903205416
:1008D0005479410000447D413048484A3238404014
:1008E000227A007A0A0A727D0D19317D2629292F74
:1008F00028262929292630484D402038080808088C
:1009000008080808382F10C8ACBA2F102834FA008D
:10091000007B000008142A142222142A140855000F
:10092000550055AA55AA55AAFF55FF55FF000000CE
:10093000FF00101010FF00141414FF001010FF002F
:10094000FF1010F010F0141414FC001414F700FF42
:100950000000FF00FF1414F404FC141417101F10FF
:10096000101F101F1414141F00101010F0000000AE
:10097000001F101010101F10101010F010000000B9
:10098000FF101010101010101010FF10000000FFCA
:10099000140000FF00FF00001F10170000FC04F40B
:1009A00014141710171414F404F40000FF00F714C3
:1009B000141414141414F700F7141414171410104A
:1009C0001F101F141414F4141010F010F000001F66
:1009D000101F0000001F14000000FC140000F010A5
:1009E000F01010FF10FF141414FF141010101F004B
:1009F000000000F010FFFFFFFFFFF0F0F0F0F0FF4D
:100A0000FFFF0000000000FFFF0F0F0F0F0F384423
:100A1000443844FC4A4A4A347E02020606027E02F8
:100A20007E0263554941633844443C04407E201EA5
:100A30002006027E020299A5E7A5991C2A492A1CD4
:100A40004C7201724C304A4D4D303048784830BCC1
:100A5000625A463D3E494949007E0101017E2A2AEB
:100A60002A2A2A44445F444440514A444040444A6C
:100A700051400000FF0103E080FF000008086B6B9D
:100A8000083612362436060F090F06000018180023
:100A900000001010003040FF0101001F01011E0086
:100AA000191D1712003C3C3C3C00000000000001F6
:100AB00003070F1F3F7F0080C0E0F0F8FCFEDB4023
:100AC000A4A62EAF2000A1C8D300408DAED580A82B
:100AD0000000000000000000000000000000000016
:100AE0000000000000000000000000000000000006
:100AF00000000000000000000000000000000000F6
:100B000000000000000000000000000000000000E5
:100B100000000000000000000000000000000000D5
:100B200000000000000000000000000000000000C5
:100B300000000000000000000000000000000000B5
:100B400000000000000000000000000000000000A5
:100B50000000000000000000000000000000000095
:100B60000000000000000000000000000000000085
:100B70000000000000000000000000000000000075
:100B80000000000000000000000000000000000065
:100B90000000000000000000000000000000000055
:100BA0000000000000000000000000000000000045
:100BB0000000000000000000000000000000000035
:100BC0000000000000000000000000000000000025
:100BD0000000000000000000000000000000000015
:100BE0000000000000000000000000000000000005
:100BF0000000783F03E0000000000000000000005B
:100C0000000186C0CC1FFF00700703F83C0FC00036
:100C10000002311E31C000808818DC07C33030006C
:100C20000004FC7F87F3CE81242223F018C78800BC
:100C30000009FE7FCFFBDE81742F8FFCFE1FE400D6
:100C4000000BFF7FCFFFDE81742FCFFDFF1FF2006F
:100C50000013FE7FCFFF9E81744FC7F9EF9E7A008D
:100C60000017DEF3CF7F9E81745DC1E1E79E3A00FD
:100C700000179EF7DE7FBE81745DC1E1E79E3A00FA
:100C800000179EFF9E7FBC7E749DE1E1E79E7A0087
:100C90000017BCFF1EFF3C0074BCE1E1E79FF200BF
:100CA0000027FDFF1EFF3CFC74B8E1E1E79FE40074
:100CB000002FFDFFBCFF3CFC74BFF1E1E79EF40098
:100CC000002FFDE7BCFF7800733FF1E1E79E720063
:100CD000002F7DEF3FFFF9FE703FF1E1E79E7A00C4
:100CE000004F7BEF3FFFFA017F3871E1FF1E7A0072
:100CF000005F7BCF7FFFF2017F3871E4FF1E7A0037
:100D0000005E7BCC7FCFE4017F3264CA7E4C3A0028
:100D1000004C31887F03C80100050A1100A1820040
:100D20000021842300781000FFF8F1E0FF1E7C0012
:100D3000001E7BDCFF87E0000000000000000000D8
:100D400000000000000000000000000000000000A3
:100D50000000000000000000000000000000000093
:100D600000000000003004800000000000000000CF
:100D700000000000002A4491201585C000000000FA
:100D800000000000002A44AAA815448000000000CA
:100D9000000000000031878A28154C800000000008
:100DA00000000000002884BA301594800000000084
:100DB00000000000002A84AAA8151480000000008A
:100DC00000000000003104B928090C800000000078
:100DD000000000000000000003C000000000000050
:100DE0000000000000000000000000000000000003
:100DF00000000000000000000000000000000000F3
:100E000000000000000000000000000000000000E2
:100E100000000000000000000000000000000000D2
:100E200000000000000000000000000000000000C2
:100E300000000000000000000000000000000000B2
:100E400000000000000000000000000000000000A2
:100E50000000000000000000000000000000000092
:100E60000000000000000000000000000000000082
:100E70000000000000000000000000000000000072
:100E80000000000000000000000000000000000062
:100E90000000000000000000000000000000000052
:100EA0000000000000000000000000000000000042
:100EB0000000000000000000000000000000000032
:100EC0000000000000000000000000000000000022
:100ED00000000000240027002A0000000000250078
:100EE00028002B0000000000230026002900040435
:100EF00004040404040402020202020203030303C2
:100F0000030301020408102040800102040810209D
:100F10000102040810200000000800020100000384
:100F2000040700000000000000002200FF21721CE6
:100F3000B82111241FBECFEFD8E0DEBFCDBF23E024
:100F4000A2E7B1E001C01D92A234B207E1F711E0BF
:100F5000A0E0B1E0EEE9F5E502C005900D92A23700
:100F6000B107D9F717E0C8E9D7E004C02197FE011F
:100F70000E94A027C739D107C9F70E94061D0C940B
:100F8000C22A0C9400000895833081F028F4813047
:100F900099F08230A9F008958730A9F08830C9F01F
:100FA0008430B1F4809180008F7D03C080918000F7
:100FB0008F7780938000089584B58F7784BD0895DE
:100FC00084B58F7DFBCF8091B0008F778093B00088
:100FD00008958091B0008F7DF9CFCF93DF93282FB4
:100FE00030E0F901EA5EF04F8491F901EE5FF04FD5
:100FF000D491F901E251F14FC491CC23A1F08111B8
:101000000E94C407EC2FF0E0EE0FFF1FEC51F14FF0
:10101000A591B491EC91ED2381E090E009F480E09A
:10102000DF91CF91089580E090E0FACF1F93CF93A6
:10103000DF93282F30E0F901EA5EF04F8491F90147
:10104000EE5FF04FD491F901E251F14FC491CC23FE
:10105000A9F0162F81110E94C407EC2FF0E0EE0FCB
:10106000FF1FE652F14FA591B4918FB7F894EC9120
:10107000111108C0D095DE23DC938FBFDF91CF9193
:101080001F910895DE2BF8CFCF93DF9390E0FC0102
:10109000EE5FF04F24918251914FFC01849188239F
:1010A000D1F090E0880F991FFC01E053F14FA5911A
:1010B000B491FC01E652F14FC591D491623071F4C4
:1010C0009FB7F8943C91822F809583238C93E8817D
:1010D0002E2B28839FBFDF91CF9108958FB7F8946F
:1010E000EC912E2B2C938FBFF6CF3FB7F8948091C5
:1010F000390290913A02A0913B02B0913C0226B590
:10110000A89B05C02F3F19F00196A11DB11D3FBF3F
:10111000BA2FA92F982F8827BC01CD01620F711D0E
:10112000811D911D42E0660F771F881F991F4A9508
:10113000D1F708958F929F92AF92BF92CF92DF9294
:10114000EF92FF924B015C010E9475086B017C01DC
:101150000E9475086C197D098E099F09683E7340CD
:1011600081059105A8F321E0821A9108A108B10830
:1011700088EEC80E83E0D81EE11CF11C8114910496
:10118000A104B10429F7FF90EF90DF90CF90BF90BA
:10119000AF909F908F9008952FB7F894609135028B
:1011A0007091360280913702909138022FBF0895D6
:1011B000089508950895AF92BF92CF92DF92EF9273
:1011C000FF920F931F93CF93DF936C017B018B01F1
:1011D000040F151FEB015E01AE18BF08C017D10741
:1011E00059F06991D601ED91FC910190F081E02DCB
:1011F000C6010995892B79F7C501DF91CF911F9120
:101200000F91FF90EF90DF90CF90BF90AF90089537
:10121000FC01538D448D252F30E0842F90E0821BFC
:10122000930B541710F0CF96089501970895FC0181
:10123000918D828D981761F0A28DAE0FBF2FB11DD9
:101240005D968C91928D9F5F9F73928F90E0089531
:101250008FEF9FEF0895FC01918D828D981731F0EB
:10126000828DE80FF11D858D90E008958FEF9FEF3F
:101270000895FC01918D228D892F90E0805C9F4F15
:10128000821B91098F739927089581E492E00E944F
:10129000390921E0892B09F420E0822F089580E0AC
:1012A00090E0892B29F00E94450981110C940000DF
:1012B0000895FC01A48DA80FB92FB11DA35ABF4FEB
:1012C0002C91848D90E001968F739927848FA68945
:1012D000B7892C93A089B1898C91837080648C9399
:1012E000938D848D981306C00288F389E02D808148
:1012F0008F7D80830895EF92FF920F931F93CF937A
:10130000DF93EC0181E0888F9B8D8C8D98131AC040
:10131000E889F989808185FF15C09FB7F894EE8927
:10132000FF896083E889F989808183708064808384
:101330009FBF81E090E0DF91CF911F910F91FF90CF
:10134000EF900895F62E0B8D10E00F5F1F4F0F7377
:101350001127E02E8C8D8E110CC00FB607FCFACF32
:10136000E889F989808185FFF5CFCE010E9459096E
:10137000F1CFEB8DEC0FFD2FF11DE35AFF4FF08203
:101380009FB7F8940B8FEA89FB8980818062CFCF69
:10139000CF93DF93EC01888D8823B9F0AA89BB89AC
:1013A000E889F9898C9185FD03C0808186FD0DC097
:1013B0000FB607FCF7CF8C9185FFF2CF808185FFB8
:1013C000EDCFCE010E945909E9CFDF91CF91089569
:1013D000EF92FF920F931F93CF93DF93EC01EC807A
:1013E000FD806E157F050CF070C057FF04C0240F00
:1013F000351F50E040E08E819F81FA01E20FF31F1C
:101400008E179F071CF49C01241B350B1216130624
:101410000CF05BC0922F842F8695869586958E9DC5
:10142000D0018F9DB00D11246A0F7B1FAF8DB8A125
:10143000A60FB71F477049F188E0841B482F682F1B
:1014400070E0FB01EA54F54FE491281708F063C0FF
:10145000621B71092FEF30E002C0359527956A9520
:10146000E2F7E2230130110539F0B0F10230110545
:1014700061F58C91E82702C08C91E82BEC939417CE
:1014800020F12C813D81A20FB31FE92FE41BE8302E
:1014900078F00230110521F58E2F9C9190959C9348
:1014A0002C813D81A20FB31F88508830B0F7E770C0
:1014B000EE2359F0F0E0E255F54FE49101301105CB
:1014C000F9F010F10230110519F1DF91CF911F9160
:1014D0000F91FF90EF900895E0958C91E823CECF87
:1014E00081E00115110509F480E081959E2F8C9310
:1014F0002C813D81A20FB31F98509830C0F7D7CFF1
:101500008C91E82BEC93E1CFE0958C91E823FACF16
:101510008C91E827F7CF0130110509F4ADCFE0F247
:101520000230110509F4A5CFAE0DBF1DAECF0F934C
:101530001F93CF93DF9377FF04C0260F371F70E010
:1015400060E0DC011496CD91DC91FB01E20FF31F0A
:10155000CE17DF071CF49E01261B370B121613064D
:101560004CF5FA0157FD3796A3E0F595E795AA9556
:10157000E1F7EC9FD001ED9FB00DFC9FB00D112461
:101580006A0F7B1FDC015F96ED91FC91E60FF71F60
:101590004770552781E090E001C0880F4A95EAF72F
:1015A000482F0130110559F0A8F02E0F3F1F0230CF
:1015B0001105E1F0DF91CF911F910F9108952E0F4A
:1015C0003F1FE217F307B1F38191DF011197842BDD
:1015D0008C93F7CF80952E0F3F1FE217F30751F33F
:1015E0009191DF01119798239C93F7CFE217F307AE
:1015F00009F38191DF01119784278C93F7CF0F9323
:101600001F93FA01DC0156964C9156974230E9F04F
:101610004330A1F1413061F514964D915C91DA01AE
:10162000AE1BBF0BFD01E21BF30B77FD0BC0DC0112
:1016300016964D915C916417750724F4AB01BF01B8
:101640000E94970A1F910F91089514964D915C91F5
:10165000DA01A61BB70BBD0161507109DC011696BA
:101660004D915C91DA01AE1BBF0BFD01E21BF30B48
:1016700077FDE8CFAF010E94E809E4CF16964D91BF
:101680005C91DA01A61BB70BBD0161507109CDCF8A
:101690000F931F93FA01DC0156964C9156974230F6
:1016A000A9F0433091F1413019F514964D915C91B8
:1016B000DA01AE1BBF0BFD013197F7FD04C0AB0192
:1016C000BF010E94E8091F910F91089514964D9152
:1016D0005C91DA01A61BB70BBD01DC0116964D919A
:1016E0005C91DA01AE1BBF0BFD013197621B730BDE
:1016F000F7FDE9CFDC0116964D915C91E417F507F3
:1017000014F7AF010E94970ADECF16964D915C91B7
:10171000DA01A61BB70BBD01621B730BCECFFC0118
:1017200077FD64C080859185681779070CF05EC0ED
:1017300057FD5CC082859385481759070CF056C049
:1017400086898230B1F0833029F1813041F484817F
:101750009581841B950BAB01BC016150710921304F
:10176000310509F108F443C02230310509F463C0A2
:10177000089584819581DC01A61BB70BBD016150E2
:10178000710986819781DC01A41BB50BAD01415025
:101790005109E5CF86819781861B970BBA01AC0171
:1017A00041505109DCCFCA0157FD0796A3E095953A
:1017B0008795AA95E1F7A481B5818A9F90018B9FB7
:1017C000300D9A9F300D1124620F731F078CF0A10A
:1017D000E02DE60FF71F4770552721E030E001C0EC
:1017E000220F4A95EAF78081822B80830895CA01EF
:1017F00057FD079633E0959587953A95E1F7A481D3
:10180000B5818A9F90018B9F300D9A9F300D1124D6
:10181000620F731F078CF0A1E02DE60FF71F4770D2
:10182000552781E090E001C0880F4A95EAF780953E
:1018300090818923DACFCA0157FD079623E0959559
:1018400087952A95E1F7A481B5818A9F90018B9FA6
:10185000300D9A9F300D1124620F731F078CF0A179
:10186000E02DE60FF71F4770552721E030E001C05B
:10187000220F4A95EAF780818227B7CF08958EBD5F
:1018800000000DB407FEFDCF8EB508958CBD9DBD43
:1018900008950895FC016370668B8481958126818B
:1018A0003781613039F0633029F091878087338741
:1018B00022870895318720879387828708952F9202
:1018C0003F924F925F926F927F928F929F92AF92D0
:1018D000BF92CF92DF92EF92FF920F931F93CF931D
:1018E000DF93CDB7DEB76A970FB6F894DEBF0FBEB1
:1018F000CDBF9A8F898F7A8369834A01D22E188748
:101900000F833701BC2CDC0159962D913C915A97DD
:101910002115310509F015C118968D919C911997E3
:10192000681779070CF0D7C11A968D919C914817CA
:1019300059070CF0D0C14C2C512CB6E0CB9E600D59
:10194000711D11247C876B87161617060CF0C3C116
:10195000EA2DF0E0FA87E98793E0EE0FFF1F9A95F2
:10196000E1F7F88BEF87CF01840F951F1816190642
:101970000CF0B1C1A98DBA8D58968C91811104C01B
:10198000BFEABD1508F4D394A98DBA8DED91FC91F1
:1019900011970284F385E02DCD010995B5E0DB9E1A
:1019A000C0011124E981FA81FC83EB83312C212CC5
:1019B0009C0122553A4F388F2F8B4A2D50E05E8B79
:1019C0004D8BEF89F88DE20DF31D44919E828D823F
:1019D000D12CC12C69817A81620D731D7A8B698B40
:1019E000842F90E09C8B8B8BE98DFA8DA081B18147
:1019F00040FF82C0F1E0BF126FC0AF126DC01C96F5
:101A0000ED91FC912F813885A4014C0D5D1D6989F4
:101A10007A89898D9A8D0995EB89FC89F595E795E9
:101A20004E2F5FEFC51AD50A6D817E818D899E8903
:101A3000680F791F7E836D8398E0C916D10481F603
:101A4000AFEF2A1A3A0AEB81FC81E40DF51DFC8305
:101A5000EB83F5E02F16310409F0B3CF2F813885E1
:101A600026153705B9F0A98DBA8DED91FC91B1E03D
:101A7000BB1257C0AB1255C069817A816B5F7F4F33
:101A80000088F189E02D830128E030E0A401898DF0
:101A90009A8D0995A98DBA8DED91FC9111970688C3
:101AA000F789E02DCD016A960FB6F894DEBF0FBE20
:101AB000CDBFDF91CF911F910F91FF90EF90DF90FD
:101AC000CF90BF90AF909F908F907F906F905F90DE
:101AD0004F903F902F9009941E96ED91FC91EF80CE
:101AE000F88409851A8592014D815E816B817C8124
:101AF000898D9A8D099590CF2F81388526153705C8
:101B000009F48ACF31E0B31207C0A31205C01C96B6
:101B1000ED91FC91930178CF1E96ED91FC917301AC
:101B2000E0CF6B857C85641975090684F785E02D07
:101B300073010F8518899201A401898D9A8D0995E9
:101B4000A9CFF90134969491329745915491D91ABD
:101B5000B7E0DB9E400D511D1124F9012591349110
:101B60003C8B2B8BFA0125903490FA0132967490BD
:101B700031963491398B329664903196449041E09D
:101B80004C1518F04A1508F07FC0662D062C000C85
:101B9000770B7C836B83842D042C000C990B9E8324
:101BA0008D83A98DBA8DED91FC9111970284F385F7
:101BB000E02DCD010995512CD12CC12CEA2DF0E05E
:101BC000FA87E9872B2D30E03C872B87A401440D51
:101BD000511D47FC5A95588F4F8B69817A81660D4C
:101BE000711D67FC7A957E876D877989C71608F025
:101BF00051CF2C2D30E04D815E81420F531FA985BE
:101C0000BA854A9FC0014B9F900D5A9F900D112499
:101C1000FC01E80DF91DF88BEF87852D612C4F89AC
:101C2000588D420F531F5E8B4D8B671408F050C0C8
:101C300044244394480E877041F4C1010196EB8916
:101C4000FC89E20DF31DD4901C01D7FE19C0A98DAB
:101C5000BA8DED91FC91662D70E0B1E0BB1219C018
:101C6000AB1217C02D853E85620F731F0484F58566
:101C7000E02D2F8138854D895E89898D9A8D099552
:101C8000DD0C6394842DD1CF1E821D821C821B82A9
:101C900088CF4B815C81640F751FAB85BC856A9FC3
:101CA000C0016B9F900D7A9F900D112469817A81FC
:101CB000680F791F0684F785E02DEF80F884098589
:101CC0001A859D014F855889898D9A8D0995D8CFA0
:101CD000570CC3948ACF6A960FB6F894DEBF0FBE36
:101CE000CDBFDF91CF911F910F91FF90EF90DF90CB
:101CF000CF90BF90AF909F908F907F906F905F90AC
:101D00004F903F902F9008958F929F92AF92CF92D5
:101D1000EF92FF920F931F93CF93DF93EC01262F47
:101D2000898D9A8D009709F051C06A30D1F41D86D3
:101D30001C868D8948E0849F900111248E859F85A3
:101D4000820F931F9F878E8781E090E0DF91CF9174
:101D50001F910F91FF90EF90CF90AF909F908F9039
:101D600008956D3089F3CC88AD888F898823C1F0C0
:101D70008C859D8536E0C39E800D911D112448857C
:101D800059854817590764F44E855F851D861C8662
:101D900038E0A39EC0011124840F951F9F878E8772
:101DA000EA88FB88088919894E855F856C857D8561
:101DB000CE010E945F0C2C898C859D8546E0249F76
:101DC000800D911D11249D878C87BECF6A3069F4E8
:101DD0001D861C86FC013896E4912D898E859F8591
:101DE000E29F800D911D1124ADCF6D3009F4ACCF71
:101DF000FC0134963491631708F4A6CF3296E4912F
:101E0000E61708F4A1CFFC01329685909490462FF6
:101E1000431B342F47E0349F800C911C1124F401A4
:101E2000329634913196E4913323A9F1EE2399F15E
:101E3000CC88F4013596E491AD884F89442301F1B3
:101E40000E2E000CFF0BE30FF11DCE9EA001CF9EC6
:101E5000500D11246C857D85460F571F6885798547
:101E6000641775076CF44E855F851D861C86FC0122
:101E70003896E491AE9E400D511D11245F874E8728
:101E8000EA88FB88088919894E855F856C857D8580
:101E9000CE010E945F0CF4013496E4912C898C856C
:101EA0009D85E29F800D911D11248DCF6F927F92B1
:101EB0008F929F92AF92BF92CF92DF92EF92FF925A
:101EC0000F931F93CF93DF93EC016B015A013901FC
:101ED0004801E881F9810284F385E02D0995E881C4
:101EE000F9810288F389E02D87019301A501B601EC
:101EF000CE010995A501480D591D41505109E881B0
:101F0000F9810288F389E02D9301B601CE0109958C
:101F1000E881F9810088F189E02D9401A501B601DD
:101F2000CE010995C60CD71CB60161507109E88134
:101F3000F9810088F189E02D9401A501CE01099570
:101F4000E881F9810688F789E02DCE01DF91CF91F4
:101F50001F910F91FF90EF90DF90CF90BF90AF90C7
:101F60009F908F907F906F9009946F927F928F9245
:101F70009F92AF92BF92CF92DF92EF92FF920F9318
:101F80001F93CF93DF935C01EB016A014901380194
:101F90008701DC01ED91FC916217730719F5641656
:101FA00075062CF0962D872D3A01C92ED82E960154
:101FB000261937092F5F3F4F048CF58DE02DA301C3
:101FC000BE01C5010995DF91CF911F910F91FF903F
:101FD000EF90DF90CF90BF90AF909F908F907F90C9
:101FE0006F9008954615570591F42617370724F08A
:101FF000892D4B01C22FD82F9E01281939092F5F37
:102000003F4F068CF78DE02DA601B401DACF028494
:10201000F385E02D0995D501ED91FC910488F589B2
:10202000E02D83019401A601BE01C5010995D501EA
:10203000ED91FC910688F789E02DC501DF91CF91E4
:102040001F910F91FF90EF90DF90CF90BF90AF90D6
:102050009F908F907F906F900994EF92FF920F93D3
:102060001F93DC011A960D911C911B9718962D91C8
:102070003C911997ED91FC9100A0F1A1E02D7B011D
:1020800050E040E070E060E009951F910F91FF90F3
:10209000EF9008954F925F926F927F928F929F92EE
:1020A000AF92BF92CF92DF92EF92FF920F931F9366
:1020B000CF93DF936C012B015A0139014801DC01F8
:1020C000ED91FC910284F385E02D0995E201640C09
:1020D000751CD601ED91FC91C615D7055CF40088FE
:1020E000F189E02D87019401A501BE01C601099582
:1020F0002196EFCF0688F789E02DC601DF91CF91B9
:102100001F910F91FF90EF90DF90CF90BF90AF9015
:102110009F908F907F906F905F904F9009948F92D7
:102120009F92AF92BF92CF92DF92EF92FF920F9366
:102130001F93CF93DF93EC015B014A016901E881B2
:10214000F9810284F385E02D099595012C0D3D1D43
:1021500021503109E881F9810488F589E02D780161
:102160008401A401B501CE010995E881F9810688B1
:10217000F789E02DCE01DF91CF911F910F91FF9054
:10218000EF90DF90CF90BF90AF909F908F90099489
:102190008F929F92AF92BF92CF92DF92EF92FF9277
:1021A0000F931F93CF93DF93EC015B014A01690109
:1021B0007801E881F9810284F385E02D0995C80C46
:1021C000D91C860101501109E881F9810488F5893B
:1021D000E02D9501A401B501CE010995E881F981B1
:1021E0000688F789E02DCE01DF91CF911F910F91E5
:1021F000FF90EF90DF90CF90BF90AF909F908F9027
:102200000994EF92FF920F931F93DC01ED91FC91E3
:1022100000A0F1A1E02D09951F910F91FF90EF9083
:1022200008950F931F93DC01ED91FC91068CF78DBF
:10223000E02D09951F910F9108950F931F93DC01D5
:10224000ED91FC91048CF58DE02D09951F910F9176
:102250000895DC01ED91FC910084F185E02D099455
:102260003F924F925F926F927F928F929F92AF9226
:10227000BF92CF92DF92EF92FF920F931F93CF9373
:10228000DF935C017B014A016901390187E0680E37
:10229000711C93E0759467949A95E1F72B01400EB9
:1022A000511E10E000E0312CD0E0C0E0CE0187707C
:1022B0009927330C892B59F4FE0183E0F595E795B6
:1022C0008A95E1F7E00FF11FE80DF91D349037FE14
:1022D0000AC021E030E0A701B5016C0F7D1F8CEF33
:1022E00092E00E9429112196CC16DD06F9F68FEFB7
:1022F000E81AF80A060D171DE414F504A9F6DF9193
:10230000CF911F910F91FF90EF90DF90CF90BF90F2
:10231000AF909F908F907F906F905F904F903F9085
:1023200008952F923F924F925F926F927F928F9279
:102330009F92AF92BF92CF92DF92EF92FF920F9354
:102340001F93CF93DF9300D000D000D0CDB7DEB77E
:102350003C016A013E832D83FC82EB825801A41A62
:10236000B50AB7FE03C0B194A194B1088D809E80D8
:10237000861A970A97FE03C09194819491088A1453
:102380009B045CF0902F812F0D811E819D838E8395
:102390009C2D8D2D6B01692F782F0C151D055CF080
:1023A0009D818E817E836D83692F782F902F812F61
:1023B0008601C92ED82E1601201A310A2B012D8133
:1023C0003E81421A530A57FE03C05194419451086A
:1023D000710137FE03C03FEFE31AF30AF594E79467
:1023E0008D819E81861797075CF5A1E0B0E0BA83E6
:1023F000A983C016D1064CF1D301ED91FC91048460
:10240000F585E02D2B813C81A8016D817E818A14A8
:102410009B041CF04D815E81B801C3010995E4184D
:10242000F508F7FE0AC02D813E8189819A81280F27
:10243000391F3E832D83E20CF31C0F5F1F4FD9CF52
:102440002FEF3FEF3A832983D4CF26960FB6F89427
:10245000DEBF0FBECDBFDF91CF911F910F91FF90D7
:10246000EF90DF90CF90BF90AF909F908F907F9034
:102470006F905F904F903F902F9008952091D801DA
:10248000260F3327331F21323105ECF42091FC0154
:10249000FC0190E080E0243069F082E00895A09192
:1024A000D8012191AC0148545E4FA40FB52FB11D46
:1024B0002C930196861798F38091D801680F60934A
:1024C000D80180E0089581E008951092FC0181E038
:1024D0008093FE011092FD0161E082E10E941608E6
:1024E00061E083E10E941608E9EBF0E080818E7FD5
:1024F000808380818D7F808388E48093B80085E429
:102500008093BC000895CF93DF9391E09093B7013F
:102510008823B9F0C091B800D091BA008091BC0076
:102520008A7B8093BC0060E082E10E94160860E034
:1025300083E10E9416080E946512D093BA00C093EE
:10254000B800DF91CF910895E09128028091270291
:10255000E81730F4F0E0EE56FE4F808190E00895E9
:102560008FEF9FEF089590912802809127022FEF1F
:102570003FEF981748F4E92FF0E0EE56FE4F208128
:1025800030E09F5F90932802C9010895809127024F
:1025900090912802891B990B0895CF92DF92EF92B8
:1025A000FF920F931F93CF93DF937C01CB018A019E
:1025B00020914002222389F0EB016B01C40ED51E4D
:1025C000CC15DD0569F06991D701ED91FC91019081
:1025D000F081E02DC7010995F3CF642F0E943E12D0
:1025E000C801DF91CF911F910F91FF90EF90DF9085
:1025F000CF900895CF93DF931F92CDB7DEB7698355
:10260000209140022223F9F020913D02203258F01F
:1026100021E030E0FC013383228390E080E00F90E2
:10262000DF91CF91089580913E02E82FF0E0EE58BF
:10263000FE4F998190838F5F80933E0280933D028D
:1026400081E090E0ECCF61E0CE0101960E943E1265
:10265000F7CFCF92DF92EF92FF920F931F93CF931A
:10266000DF93D0913D0281E0D13208F09CC0C0914F
:102670003F020E9475086B017C018091FC01811171
:102680006CC082E08093FC0181E08093FE018FEFBB
:102690008093FB0110922002D0931F02A2E7B1E0C9
:1026A000EFEFF1E080E0D8138DC01092210280910D
:1026B0002102CC0FC82BC09321028091FD018130F3
:1026C00009F084C01092FD010E9475086B017C0125
:1026D000809121028093BB008091B3019091B4015D
:1026E000A091B501B091B601892B8A2B8B2BA1F05B
:1026F0000E9475080091B3011091B4012091B501B9
:102700003091B6016C197D098E099F0906171707CC
:102710002807390708F442C08091BC0083FDD8CF58
:1027200085EC8093BC000E9475086B017C01809150
:10273000FC01823009F44CC08091FB018F3F09F409
:1027400069C08091FB01803209F466C08091FB0171
:10275000803309F463C084E026C08091B301909176
:10276000B401A091B501B091B601892B8A2B8B2BB6
:1027700009F483CF0E9475080091B3011091B40150
:102780002091B5013091B6016C197D098E099F0920
:10279000061717072807390708F06FCF8091B20195
:1027A0000E94831285E010923E0210923D02109228
:1027B0004002DF91CF911F910F91FF90EF90DF903A
:1027C000CF9008959D9191938F5F6DCF85EEA9CFA6
:1027D0008091B3019091B401A091B501B091B6017F
:1027E000892B8A2B8B2B09F4A2CF0E9475080091AC
:1027F000B3011091B4012091B5013091B6016C196B
:102800007D098E099F09061717072807390708F061
:102810008ECFC4CF80E0C7CF82E0C5CF83E0C3CFE7
:10282000EF92FF920F931F93CF93DF937C01C62FFC
:102830008091190390911A03009709F459C02091CF
:102840001D0331E03093400220933F0210923E027C
:1028500010923D02DC01ED91FC910190F081E02DA0
:1028600060E009958701EE24E394F12CD1E0C1509A
:102870008091190390911A03CF3F91F1B0E2EB16CA
:10288000F104D8F00E9429138091190390911A0342
:1028900020911D03D093400220933F0210923E02EC
:1028A00010923D02DC01ED91FC910190F081E02D50
:1028B00060E00995EE24E394F12C80911903909146
:1028C0001A03F8016491DC01ED91FC910190F08113
:1028D000E02D0995BFEFEB1AFB0A0F5F1F4FC7CF23
:1028E000DF91CF911F910F91FF90EF900C942913DE
:1028F000E0912903F0912A03908180912F03809524
:10290000892380838701C15008F438C0F80184917D
:102910002091170330911803232B29F00E943F0CBC
:102920000F5F1F4FF0CF28E030E040E8E091250333
:10293000F091260390912D03582F5423D9F0508104
:10294000952B9083E0912703F0912803908150917B
:102950002E03952B9083E0912703F091280350815B
:1029600090912E039095952390834695215031099F
:10297000E9F6D6CF508190959523E3CFDF91CF91A3
:102980001F910F91FF90EF9008951F93CF93DF93C6
:10299000EC018D8D9E8D009721F1162F29A131E03C
:1029A0003093400220933F0210923E0210923D026B
:1029B000DC01ED91FC910190F081E02D60E0099542
:1029C0008D8D9E8DDC01ED91FC910190F081E02DCB
:1029D000612F09958D8D9E8DDF91CF911F910C9464
:1029E0002913ADA5BEA59C918BA9809589238C93B5
:1029F0008B8D9C8D892B31F0862FDF91CF911F918C
:102A00000C943F0C28E030E080E8A9A5BAA599A96C
:102A1000462F4823C1F04C91942B9C93ABA5BCA5A9
:102A20009C914AA9942B9C93ABA5BCA54C919AA9C7
:102A3000909594239C9386952150310931F7DF912D
:102A4000CF911F9108954C9190959423E6CFDF92FA
:102A5000EF92FF920F931F93CF93DF93809119030F
:102A600090911A03892B09F4A5C02091310330916C
:102A70003203409133035091340360E074E284EFF9
:102A800090E00E946A272051310941095109569569
:102A90004795379527952093B80064E08AE29FE038
:102AA0000E941014809100039091010380349105DD
:102AB00009F097C060E28CEF92E00E94C51460912B
:102AC0000003615E8CEF92E00E94C5142091020326
:102AD00030910303C901079697FD079633E095955A
:102AE00087953A95E1F72091000330910103829F89
:102AF0008001839F100D929F100D1124C0911B0324
:102B0000D0911C038091190390911A030C0F1D1F83
:102B1000009709F498C020911D0331E030934002E2
:102B200020933F0210923E0210923D02DC01ED9193
:102B3000FC910190F081E02D60E40995EE24E3948E
:102B4000F12CDD24D3948091190390911A030C1772
:102B50001D0709F44FC0B0E2EB16F104D8F00E9453
:102B600029138091190390911A0320911D03D0928B
:102B7000400220933F0210923E0210923D02DC017F
:102B8000ED91FC910190F081E02D60E40995EE2437
:102B9000E394F12C8091190390911A036991DC015F
:102BA000ED91FC910190F081E02D0995BFEFEB1ABA
:102BB000FB0AC9CF8091170390911803892B31F03C
:102BC00080913A0390913B030E94460CE0912B03C5
:102BD000F0912C039081809130038095892380832C
:102BE0005CCF60E08CEF92E00E94C514609100031E
:102BF000615068CF0E9429138091190390911A03A4
:102C0000892B09F461C0209135033091360340913E
:102C100037035091380360E074E284EF90E00E9443
:102C20006A27205131094109510956954795379531
:102C300027952093B800DF91CF911F910F91FF90BE
:102C4000EF90DF900895E0912903F0912A038081AD
:102C500090912F03892B80830C171D0769F28991AE
:102C60002091170330911803232B19F00E943F0C79
:102C7000F3CF28E030E040E8E0912503F09126030F
:102C800090912D03582F5423D9F05081952B908388
:102C9000E0912703F0912803908150912E03952B0A
:102CA0009083E0912703F0912803508190912E03A7
:102CB000909595239083469521503109E9F6CCCF24
:102CC000508190959523E3CFE0912B03F0912C0355
:102CD000808190913003892B8083ADCF1F93CF9358
:102CE000DF93EC01162F8D8D9E8D892BB1F12DA9CF
:102CF0003EA94FA958AD60E074E284EF90E00E94D5
:102D00006A27205131094109510956954795379550
:102D100027952093B80066EA111167EACE010E9458
:102D2000C5148D8D9E8D892B41F129AD3AAD4BADEA
:102D30005CAD60E074E284EF90E00E946A2720516D
:102D400031094109510956954795379527952093A3
:102D5000B800DF91CF911F9108958B8D9C8D892BA9
:102D600021F08EAD9FAD0E94460CEFA5F8A9908191
:102D70008CA9809589238083CECFEFA5F8A9808187
:102D80009CA9892B8083E5CF90E080E008958F9205
:102D90009F92AF92BF920F931F93CF93DF93CDB7C4
:102DA000DEB7A1970FB6F894DEBF0FBECDBF19A254
:102DB000423008F44AE08E010F5D1F4F842E912CA3
:102DC000B12CA12CA50194010E946A27E62FB9011C
:102DD000CA01EA3044F5E05DD801EE938D01232B62
:102DE000242B252B79F790E080E0109769F0FD0106
:102DF00001900020E9F73197AF014A1B5B0BBD0141
:102E000081E492E00E94DB08A1960FB6F894DEBF41
:102E10000FBECDBFDF91CF911F910F91BF90AF90AB
:102E20009F908F900895E95CD7CF20910203309155
:102E30000303C901079697FD079623E095958795AB
:102E40002A95E1F72091000330910103829FA001B0
:102E5000839F500D929F500D112470E060E080918F
:102E60001B0390911C030C94AB2A0E949D2A0F9384
:102E70001F93CF93DF938C01EB01FC018081918143
:102E80000097E1F06881798161157105A9F04281AF
:102E900053812C813D814217530770F00E94BB2A59
:102EA0008C819D81F801958384831D821C82DF9132
:102EB000CF911F910F9108950E9457298881998180
:102EC000F801918380838A819B81938382838C81A3
:102ED0009D8195838483198218821B821A82E5CF93
:102EE000CF93DF93EC0188819981009711F00E94C4
:102EF0005729198218821D821C821B821A82DF9137
:102F0000CF910895FC0180819181009711F00C947C
:102F1000572908950F931F93CF93DF93EC01888176
:102F20009981009759F02A813B812617370730F0A5
:102F300081E0DF91CF911F910F9108958B016F5F19
:102F40007F4F0E94E029009759F0998388831B8363
:102F50000A832C813D81232B59F7FC011082E8CF95
:102F600080E0E7CFEF92FF920F931F93CF93DF9311
:102F7000EC017B018A01BA010E948A1781110BC002
:102F8000CE010E947017CE01DF91CF911F910F915A
:102F9000FF90EF9008951D830C83B701888199817C
:102FA0000E94BB2AF0CFCF93DF93EC0182E0CA3EB0
:102FB000D80771F06091EA027091EB02611571051A
:102FC00059F04091EE025091EF02CE010E94B217EB
:102FD000CE01DF91CF910895CE010E947017F8CFF6
:102FE000FB0101900020E9F73197AF01461B570B19
:102FF0000C94B217DF92EF92FF920F931F93CF932F
:10300000DF93EC017B01198218821B821A821D82D8
:103010001C8250E040E061E771E00E94B217D701E6
:1030200014960D911C9101151105E1F00A3011055E
:1030300010F00AE010E0D701ED91FC911197E00F3C
:10304000F11FD08010826D917C91CE0161157105C8
:1030500091F00E94F017F70180819181080F191FEC
:10306000D801DC92CE01DF91CF911F910F91FF909B
:10307000EF90DF9008950E947017EDCF2F923F924E
:103080004F925F926F927F928F929F92AF92BF9278
:10309000CF92DF92EF92FF920F931F93CF93DF9324
:1030A000CDB7DEB72C970FB6F894DEBF0FBECDBFFD
:1030B0000E9415178091150390911603892B49F4EE
:1030C00080910A0390910B03069690930B038093D3
:1030D0000A0385EA95E09093160380931503EE2486
:1030E000E394F12C04E110E020E430E050E040E013
:1030F00070E060E08CEF92E00E944A1010920F03A3
:1031000010920E0310920D0310920C0381E0809335
:1031100010038093110302E010E010930903009361
:1031200008038AE090E090930B0380930A03609178
:103130000001603271F08CEF92E00E94840E1093D7
:1031400009030093080381E190E090930B038093BF
:103150000A0318861F821A8619861C861B86CE01D2
:1031600007960E94D3178B859C850B9790F0BE0124
:10317000695F7F4FCE0101960E94FA17BE016F5F13
:103180007F4FCE0107960E943717CE0101960E940D
:1031900082174B855C856F8178858CEF92E00E9469
:1031A000DB0881E090E090930F0380930E039093EF
:1031B0000D0380930C0397E0492E91E0592E20E2F5
:1031C000A22EB12CD12CC12C88248394912C1501D2
:1031D00088E0281A310887E0682E712CF12CE12C48
:1031E000C301059720912D0230912E0208E110E0D5
:1031F0002C153D0509F06CC020912B0230912C025A
:103200002E153F0509F064C02EE030E045E755E09B
:10321000B1010E94301110920F0310920E03109210
:103220000D0310920C037092090360920803B09290
:103230000B03A0920A0381E0809310038093110393
:10324000F201EE0DFF1D60818CEF92E00E94840E72
:1032500090920F0380920E0390920D0380920C03C4
:103260008FEFE81AF80A80E1680E711C84E0E81616
:10327000F10409F0B5CF8FEFC81AD80A8AE1A80E79
:10328000B11C84E0480E511C84E0C816D10409F03A
:103290009ECF0E942715CE0107960E9482172C967A
:1032A0000FB6F894DEBF0FBECDBFDF91CF911F9157
:1032B0000F91FF90EF90DF90CF90BF90AF909F90D5
:1032C0008F907F906F905F904F903F902F900895D8
:1032D0002EE030E045E455E0B1010E9430119092BB
:1032E0000F0380920E0390920D0380920C039BCFEC
:1032F00085ED8093BC008091B3019091B401A091C1
:10330000B501B091B6010796A11DB11D23E0B69598
:10331000A795979587952A95D1F72091BC0024FD14
:1033200003C01092FC0108954091B3015091B40183
:103330006091B5017091B601452B462B472B69F37F
:103340000097A105B10541F02AE22A95F1F700C0E6
:103350000197A109B109E1CF8091B2010C948312C8
:103360008F929F92AF92BF92CF92DF92EF92FF9295
:103370000F931F93CF93DF93CDB7DEB7E9970FB6C7
:10338000F894DEBF0FBECDBF8EED92E00E94D31742
:103390008091E4029091E502812C912C54010097D8
:1033A00021F00E94F1214B015C018091DE0290919D
:1033B000DF02C12CD12C7601009721F00E94F1216F
:1033C0006B017C01809100018D3209F46FC034F4EF
:1033D0008B3281F0C12CD12C760114C08F3209F4CC
:1033E0006CC08837B9F7A7019601C501B4010E94E6
:1033F000442606C0A7019601C501B4010E94A72773
:103400006B017C01C701B6010E9485284B015C015C
:103410000E94E5259B01AC01C701B6010E94DE2593
:103420001DAA1CAA1FAA1EAA19AE18AE811176C029
:103430002AE0AE014F5F5F4FC501B4010E94F52144
:10344000BE016F5F7F4FCE01C4960E94F017BE0190
:103450006C5C7F4F8AEE92E00E943717CE01C496D3
:103460000E9482178091EE029091EF020B9788F0F4
:103470006AEE72E0CE0101960E94FA17BE016F5FFC
:103480007F4F8AEE92E00E943717CE0101960E948C
:10349000821780E2809300011092290281E08093DC
:1034A0002A0284EE92E00E94D31725C0A70196015C
:1034B000C501B4010E94A627A3CF20E030E0A901F6
:1034C000C701B6010E94DE25882339F0A7019601C5
:1034D000C501B4010E94132893CF67E671E08AEE1C
:1034E00092E00E94F01780E280930001109229027E
:1034F00081E080932A02E9960FB6F894DEBF0FBEF2
:10350000CDBFDF91CF911F910F91FF90EF90DF9092
:10351000CF90BF90AF909F908F9008958E010F5FD6
:103520001F4F22E044E0C701B6010E94D32100975B
:1035300011F0BC0188CFCE01C4960E94701787CFCE
:103540001F920F920FB60F9211242F933F938F93D8
:103550009F93AF93BF938091350290913602A091D3
:103560003702B09138023091340223E0230F2D3717
:1035700058F50196A11DB11D2093340280933502A8
:1035800090933602A0933702B093380280913902AB
:1035900090913A02A0913B02B0913C020196A11D8C
:1035A000B11D8093390290933A02A0933B02B093ED
:1035B0003C02BF91AF919F918F913F912F910F90BE
:1035C0000FBE0F901F90189526E8230F0296A11D9D
:1035D000B11DD2CF1F920F920FB60F9211242F93CD
:1035E0003F934F935F936F937F938F939F93AF938B
:1035F000BF93EF93FF9381E492E00E945909FF91FA
:10360000EF91BF91AF919F918F917F916F915F915A
:103610004F913F912F910F900FBE0F901F901895D3
:103620001F920F920FB60F9211242F938F939F9397
:10363000EF93FF93E0915102F09152028081E0916B
:103640005702F091580282FD1BC0908180915A026E
:103650008F5F8F7320915B02821741F0E0915A02D5
:10366000F0E0EF5BFD4F958F80935A02FF91EF9151
:103670009F918F912F910F900FBE0F901F901895D3
:103680008081F4CF1F920F920FB60F9211242F93C7
:103690003F934F935F936F937F938F939F93AF93DA
:1036A000BF93EF93FF938091B900887F803609F430
:1036B0004AC0F0F5883209F4A7C018F5803109F442
:1036C0009BC0B8F4882309F4F9C0883009F494C089
:1036D000FF91EF91BF91AF919F918F917F916F91EA
:1036E0005F914F913F912F910F900FBE0F901F90C0
:1036F0001895883109F488C0803251F78093FB0116
:1037000014C0803409F49DC040F48033B9F3883389
:10371000F9F68093FB0185ECB0C0803509F485C0D3
:10372000883509F496C0883499F60E947819D0CF6C
:10373000883909F48CC038F5883729F050F4883678
:1037400011F0803729F683E08093FC011092FA0192
:1037500057C0883809F47BC0803919F0803809F0E7
:10376000B7CF8091FA01803208F071C0E091FA0180
:1037700081E08E0F8093FA018091BB00F0E0E65269
:10378000FE4F80833DC0803B39F0E0F4803A09F47D
:1037900079C0883A09F09CCF84E08093FC011092B4
:1037A000D9011092D801E0912502F09126020995E5
:1037B0008091D80181110FC081E08093D8011092CF
:1037C000B80109C0803C09F4A6CF883C09F4A3CF16
:1037D000883B09F07DCFE091D90181E08E0F809385
:1037E000D901F0E0E854FE4F80818093BB009091B6
:1037F000D9018091D80129C0809121028093BB001A
:1038000085EC8093BC0064CF9091200280911F02D0
:10381000981758F5E091200281E08E0F80932002E6
:10382000F0E0E150FE4F8081E9CFE091200281E09D
:103830008E0F809320028091BB00F0E0E150FE4F9C
:1038400080839091200280911F029817C8F285E82A
:10385000D8CFE091200281E08E0F809320028091EA
:10386000BB00F0E0E150FE4F80838091FE018111AA
:103870005CCF81E08093FD0184EA8093BC001092CC
:10388000FC0126CF85EC8093BC001092FC01809156
:10389000FA01803230F4E091FA01F0E0E652FE4F96
:1038A00010826091FA0170E0E0912302F09124020D
:1038B0008AED91E009951092FA010ACF1092FB016E
:1038C00034CFFC011182108213821282158214827D
:1038D000FB0101900020E9F73197AF01461B570B20
:1038E0000C94B217E1E4F2E01382128248EE53E046
:1038F00060E070E044835583668377838BE191E0D9
:103900009183808385EC90E09587848784EC90E0B8
:103910009787868780EC90E0918B808B81EC90E09C
:10392000938B828B82EC90E0958B848B86EC90E07D
:10393000978B868B118E128E138E148EA0EFB2E0B1
:1039400013961C921E92129714964D935D936D934D
:103950007C9317978DE291E011969C938E93ECEFF8
:10396000F2E01382128220E830E03583248380E481
:1039700090E0978386833187208793878287168A92
:10398000158614861786168681E0858B848B2FEF2B
:103990003FEF338B228B318B208B878B108E128ED7
:1039A000118E8FE391E091838083148E138EB68FF6
:1039B000A58F10A2178E8FEF84A385A386A387A35C
:1039C00080A780E89AE1A6E0B0E085AB96ABA7AB14
:1039D000B0AF80EA96E8A1E0B0E081AF92AFA3AFCC
:1039E000B4AF80E586AF17AE6DE671E08AEE92E087
:1039F0000E94611C61E771E084EE92E00E94611C0C
:103A000061E771E08EED92E00C94611CCF93DF933F
:103A1000CDB7DEB728970FB6F894DEBF0FBECDBF87
:103A2000789484B5826084BD84B5816084BD85B599
:103A3000826085BD85B5816085BD80916E008160A5
:103A400080936E001092810080918100826080934B
:103A5000810080918100816080938100809180004D
:103A60008160809380008091B10084608093B10078
:103A70008091B00081608093B00080917A00846072
:103A800080937A0080917A00826080937A0080919E
:103A90007A00816080937A0080917A0080688093B8
:103AA0007A001092C100E0915102F091520282E03E
:103AB0008083E0914D02F0914E021082E0914F021E
:103AC000F09150028FEC808310925902E0915502E0
:103AD000F091560286E08083E0915302F091540207
:103AE000808180618083E0915302F0915402808153
:103AF00088608083E0915302F09154028081806855
:103B00008083E0915302F091540280818F7D808305
:103B100062E088E00E94440862E08DE00E94440870
:103B200062E08CE00E94440862E089E00E94440860
:103B300062E08BE00E94440880911B0390911C037B
:103B4000892B11F52091020330910303C9010796D7
:103B500097FD079643E0959587954A95E1F7209163
:103B6000000330910103AC01429FC001439F900DBF
:103B7000529F900D11240E94BB2890931C038093A8
:103B80001B03892B09F469C20E94151782E08093F8
:103B90001E038091190390911A03892B09F458C1CF
:103BA0008CE380931D03109228021092270210923A
:103BB0003E0210923D020E94651288ED98E09093BB
:103BC00026028093250289ED98E090932402809349
:103BD00023028091240387FD1EC061E00E944408F7
:103BE00061E0809124030E94160861E070E080E0AB
:103BF00090E00E949A0860E0809124030E941608D9
:103C00006AE070E080E090E00E949A0861E08091B4
:103C100024030E9416088091190390911A03892B9E
:103C200009F4D5C12091310330913203409133031F
:103C30005091340360E074E284EF90E00E946A27C0
:103C400020513109410951095695479537952795D6
:103C50002093B80064E08CEC9AE00E94101460910C
:103C6000020361508CEF92E00E94C51464E088EC7E
:103C70009AE00E94101480911E0360E1813009F0E7
:103C800064E18CEF92E00E94C51464E084EC9AE059
:103C90000E9410148FE88093390380910003909163
:103CA00001038038910509F0A9C180910203909128
:103CB00003038034910509F0B1C180911E03813066
:103CC00009F0BFC18FE98093390312E16AED8CEFEF
:103CD00092E00E94C514612F8CEF92E00E94C514FF
:103CE00061E88CEF92E00E94C514609139038CEF7B
:103CF00092E00E94C51469ED8CEF92E00E94C51419
:103D000080911E0362E2813009F061EF8CEF92E056
:103D10000E94C51466E08EEB9AE00E941014809118
:103D2000190390911A03892B09F48DC12091350351
:103D300030913603409137035091380360E074E2CC
:103D400084EF90E00E946A2720513109410951090E
:103D500056954795379527952093B8000E941517DB
:103D600000E410E020E830E040ED5AE070E060E070
:103D700090E080E00E9430110E9427156CED75E004
:103D800080E090E00E949A080E9415170E94271573
:103D900063E08CEF92E00E944A0C0E9415170E948B
:103DA00027156CE070E08AEE92E00E948A176CE0C2
:103DB00070E084EE92E00E948A176CE070E08EED75
:103DC00092E00E948A170E943E1894E0A92EB12C1E
:103DD00020E0822E20E0922E01E030E2732E0E943D
:103DE000CC08C0903002D0903102E0903202F090C6
:103DF00033026C197D098E099F09633371058105B2
:103E0000910508F462C188E00E94ED07892B09F052
:103E100025C180912F02811121C100932F020E94A0
:103E2000CC086093300270933102809332029093F9
:103E3000330280912D0290912E020396B5010E94CB
:103E4000562790932E0280932D020E943E1822C185
:103E500061E0809122030E94440861E08091230385
:103E60000E94440880912203082E000C990BFC014B
:103E7000E251F14FE491F0E0EE0FFF1FE652F14FF7
:103E80002591349130932A0320932903FC01EE5F9E
:103E9000F04FE491E0932F0380912303082E000C50
:103EA000990BFC01E251F14FE491F0E0EE0FFF1F9E
:103EB000E652F14FA591B491B0932C03A0932B033C
:103EC000FC01EE5FF04FE491E09330038C91E82B1E
:103ED000EC938091170390911803892B09F434C057
:103EE0001FB7F89480912202811127C0E8EFFEE00D
:103EF0008491ECE0FFE09491E82FF0E0EE0FFF1FDB
:103F0000E053F14FA591B491EC91E92321F461E0E4
:103F10008AE00E94160861E08AE00E9444088CB59D
:103F200080618CBD8CB580648CBD61E08DE00E94A9
:103F3000440861E08BE00E944408809122028F5F78
:103F4000809322021FBF45CE61E0809120030E9432
:103F5000440861E0809121030E944408809120037D
:103F6000082E000C990BFC01E251F14FE491F0E0B6
:103F7000EE0FFF1FE652F14F259134913093260347
:103F800020932503FC01EE5FF04FE491E0932D03B5
:103F900080912103082E000C990BFC01E251F14F96
:103FA000E491F0E0EE0FFF1FE652F14FA591B491BE
:103FB000B0932803A0932703FC01EE5FF04FE49138
:103FC000E0932E038C91E095E823EC9302CE809150
:103FD000170390911803892B31F080913A03909147
:103FE0003B030E94460CE0912B03F0912C0390813F
:103FF000809130038095892380832CCE8036910573
:1040000089F48091020390910303409739F48091E1
:104010001E03813029F480E18093390312E056CEEB
:104020008FEAFACF80349105C9F78091020390910D
:104030000303809799F780911E03813011F480E18A
:1040400042CE8FEC40CEE0912B03F0912C03808187
:1040500090913003892B808381CEFFCF8DE00E9429
:10406000ED07892B29F480912F02882309F45CC085
:104070008CE00E94ED07892B09F468C089E00E945A
:10408000ED07892B09F47FC08BE00E94ED07892B97
:1040900009F48FC088E00E94ED070197B1F48DE02C
:1040A0000E94ED07019789F48CE00E94ED070197CB
:1040B00061F489E00E94ED07019739F48BE00E94DA
:1040C000ED07019711F410922F0288E00E94ED078E
:1040D0006C01990FEE08FF084AE0C701B601F7FE30
:1040E0000DC06DE281E492E00E947B09662777278C
:1040F000CB016C197D098E099F094AE00E94C71601
:1041000042E050E06FE671E081E492E00E94DB085B
:104110008114910409F463CE0E944509882309F4AF
:104120005ECE0E9400005BCE00932F020E94CC085E
:104130006093300270933102809332029093330285
:1041400080912D0290912E02019678CE80912F02BF
:10415000811194CF00932F020E94CC08609330020B
:1041600070933102809332029093330280912B023C
:1041700090912C020396B5010E94562790932C0231
:1041800080932B0262CE80912F0281117DCF00930C
:104190002F020E94CC08609330027093310280930A
:1041A00032029093330280912B0290912C0201965F
:1041B000E2CF80912F0281116DCF00932F020E94D8
:1041C000CC08609330027093310280933202909356
:1041D0003302E0912D02F0912E02EE0FFF1FEE0F41
:1041E000FF1FE95FFE4F80912B0290912C02E80F98
:1041F000F91F108180ED810F90912A02992309F413
:1042000099C08A3008F099C061E771E08AEE92E0C7
:104210000E94F01761E771E084EE92E00E94F017CF
:1042200061E771E08EED92E00E94F017709200015C
:104230001092290210922A02E090EE02F090EF0212
:10424000E114F10451F16DE671E08091EA02909180
:10425000EB020E94B22A892BD9F41A8219821C829D
:104260001B821E821D821F831886BE01695F7F4FDD
:10427000CE0101960E94F017BE016F5F7F4F8AEE5C
:1042800092E00E943717CE0101960E948217DDCD81
:104290005AE0E516F10408F0D8CD19831A828FEFA1
:1042A000E81AF80AB7018AEE92E00E948A1788237A
:1042B00009F4CBCD2091EA023091EB028091EE021D
:1042C0009091EF02BE016F5F7F4F820F931F0E949C
:1042D000BB2AF092EF02E092EE02B7CD812F8B7FE6
:1042E0008B3221F01D3211F01837C9F48091000192
:1042F000803231F080912902811102C00E94B019F0
:1043000084EE92E00E94D3171093000100932902DB
:104310006DE671E08AEE92E00E94F01726C01D3330
:1043200009F093CD80910001803209F48ECD0E9476
:10433000B0198BCD8A3008F47FCF133479F66DE64F
:1043400071E08AEE92E00E94F01761E771E084EE7E
:1043500092E00E94F01761E771E08EED92E00E941A
:10436000F017709200011092290210922A026DCD6E
:104370008EED92E00E94821784EE92E00E948217F6
:104380008AEE92E00E9482178FE391E09093FD0203
:104390008093FC0280911B0390911C03009711F005
:1043A0000C9457290895EF920F931F93CF93DF93A7
:1043B000E80134E047FD34E1042E000C550B57FFB3
:1043C00003C0519541955109E32E022F242FAE01D0
:1043D0000E942622CE01DF91CF911F910F91EF9085
:1043E0000895662777270C948523BB272A3051F43C
:1043F000992342F4BDE290958095709561957F4F29
:104400008F4F9F4F0C940522BB27FA01A62F6217EE
:10441000710581059105330B30FB66F0AA27660F05
:10442000771F881F991FAA1FA21710F0A21B639560
:104430003850A9F7A05DAA3308F0A95DA19336F71B
:10444000B111B1931082CA010C94CE25A9E0B0E05D
:10445000ECE2F2E20C9416276A01F22EB02E102F35
:10446000FBE3AF2EA01608F41BE31F5F012F27E02C
:10447000AE014F5F5F4F0E94D524BC018981982F08
:104480009970913009F43FC09BE2E1FC04C09E2D7D
:104490009170E0FC3AC05E2D5071E82FE87083FF08
:1044A00046C084E0911101C083E0EF2DE81B8F1519
:1044B00008F0E0E0D6018E2F20E2552351F1992338
:1044C00029F0D6019C93C60101966C0196012D5FDF
:1044D0003F4FE2FE24C08EE4D6018C9391E4119606
:1044E0009C93119712968C93D9018E2F90E2811193
:1044F0001BC0E20FF32FF11D10828EEF9FEF299664
:10450000ECE00C9432279DE2C6CF90E2C4CF2D930D
:1045100081508111FCCFCE0ED11CE0E0D0CF8EE6D1
:10452000D6018C9391E6DBCF9D938150E0CF482F4D
:10453000447082FF3DC084E0911101C083E08F157B
:1045400010F4EF2DE81BD6018E2F20E2552309F140
:10455000992329F0D6019C93C60101966C0196011E
:104560002D5F3F4FE2FE1BC089E4D6018C938EE4A1
:1045700011968C93119786E412968C93D9018E2F05
:1045800090E2882309F4B5CF9D938150FACF2D9303
:1045900081508111FCCFCE0ED11CE0E0D9CF89E64D
:1045A000D6018C938EE611968C93119786E6E4CF14
:1045B0009B0177FF02C030E020E0A1E0B0E0911164
:1045C00002C0B0E0A0E0F9013196AE0FBF1F8B2C06
:1045D000912CBB2009F461C05401EFEFAE1ABE0A62
:1045E000AA0DBB1DFA161B0619F014F04F2D4A1B1D
:1045F000511188C0E3FC59C07601A42FB0E2A1118B
:104600004FC0C40ED11C992309F45BC040E0D60111
:104610001196F60190836D01552309F448C0012FCE
:10462000060F9A81582F507184FF03C0913309F40B
:10463000015010160CF047C0093008F008E0EEE217
:10464000FE2E5B01A01AB108850191948194910816
:104650002F3F320729F4D601FC92F60131966F0103
:104660006217730794F1021713077CF5DB01A21B95
:10467000B30BAA24A394B12CAC0EBD1EAA0DBB1D76
:1046800011968C9121503109D601119628153905C2
:10469000F4F0F60180836D01DBCFB12CA12CA0CF0B
:1046A000F701B1937F01A150AACF9111B0CFD601EC
:1046B000942F50E302C05D9391509111FCCFC40E32
:1046C000D11C40E0ACCF01E0BACF80E3DBCF621772
:1046D000730731F4963388F4953311F4552369F058
:1046E000F6018083FD01842F90E2811108C0A40FA0
:1046F000B11D1C9290E080E002CF81E3F1CF919355
:104700008150F3CF911183CF8ACFB0E0A0E0EBE8E6
:10471000F3E20C9416275C017B016115710519F019
:10472000DB018D939C9385010F5F1F4FF501D081B5
:104730008D2F90E00E94AD256C01892BB9F5DD32FB
:10474000B9F50F5F1F4FD5011196DC91C1E05801FB
:10475000F1E0AF1AB10843E050E060E770E0C50156
:104760000E94B625892B69F5680182E0C80ED11C2C
:1047700045E050E06BE670E0C6010E94B625892B4B
:1047800021F4680197E0C90ED11CE114F10419F07D
:10479000D701CD92DC9260E070E080E89FEFC1111C
:1047A000FFC060E070E080E89FE7FAC05801BBCF2F
:1047B000DB3229F485010E5F1F4FF501D181C0E086
:1047C000C6CF43E050E068E670E0C5010E94B62520
:1047D000892BE9F0F80110E000E020E030E0A901C9
:1047E0005F01B0ED8B2E8D0E89E08815C8F19C2EEF
:1047F000689491F88C2F8870C2FF16C0811102C096
:104800000F5F1F4F3196D501DC91C92DE9CFE1141F
:10481000F10429F00E5F1F4FF7011183008360E060
:1048200070E080EC9FE7BCC0882311F001501109B3
:10483000A5E0B0E00E9405279B01AC01220F331FC9
:10484000441F551F280D311D411D511D283999E95F
:104850003907490799E15907A8F2C6609C2ED2CFC3
:10486000AEEF8A1206C0C3FD3CC09C2E689493F83C
:10487000C9CFDF7DD534A9F580818D3239F4C0618F
:10488000DF011296818162E070E006C0DF018B32A9
:10489000C1F3119661E070E080535D01A61AB70A7A
:1048A0008A30F8F4E0E8CE16ECE0DE065CF4B601FF
:1048B000660F771F660F771FC60ED71ECC0CDD1C48
:1048C000C80ED11C5D01FFEFAF1ABF0A8C91805357
:1048D0008A30A8F1C4FF03C0D194C194D1080C0D53
:1048E0001D1DC1FF09C0E114F10431F081E0A81AD7
:1048F000B108D701AD92BC92CA01B9010E94E3256B
:10490000C370C33009F490584B015C0120E030E0E3
:10491000A9010E94DE25882309F440C0CFE9D0E038
:1049200017FF05C0119501951109C7E8D0E06E0188
:10493000B8E1CB1AD10880E2E82EF12C0FC0D501E6
:10494000B1CFFE0125913591459154910E191F0962
:10495000C501B4010E9444264B015C01D501C4018C
:104960000E151F0574F72497F594E794CC16DD0611
:10497000A9F78A2F880F8B2F881F8F3F49F020E0DF
:1049800030E0A901C501B4010E94DE25811106C0F5
:1049900082E290E090933D0380933C03C501B40113
:1049A000CDB7DEB7ECE00C943227283008F027E0D2
:1049B0003327DA01990F311D87FD9160009661055B
:1049C000710539F432602E5F3D9330E32A95E1F7AB
:1049D00008959F3F30F080387105610509F03C5F14
:1049E0003C5F3D93913008F08068911DDF93CF9339
:1049F0001F930F93FF92EF92192F987F9695E92FAF
:104A000096959695E90FFF27E350FF4F9927332797
:104A1000EE24FF24A701E70105900894079428F4E9
:104A2000360FE71EF81E491F511D660F771F881F9E
:104A3000991F0694A1F70590079428F4E70EF81E35
:104A4000491F561FC11D770F881F991F661F0694A7
:104A5000A1F70590079428F4F80E491F561FC71FA9
:104A6000D11D880F991F661F771F0694A1F7059027
:104A7000079420F4490F561FC71FD81F990F661FB0
:104A8000771F881F0694A9F784911095177041F03D
:104A9000D695C79557954795F794E7941A95C1F71A
:104AA000E3EAF0E068941590159135916591959140
:104AB00005907FE27395E118F10A430B560BC90B81
:104AC000D009C0F7E10CF11E431F561FC91FD01DAE
:104AD0007EF4703311F48A95E6CFE894015030F0FB
:104AE000080F0AF40027021708F4202F2395022F3D
:104AF0007A3328F079E37D932A95E9F710C07D9306
:104B00002A9589F606949795679537951795179482
:104B1000E118F10A430B560BC90BD00998F0239505
:104B20007E9173957A3308F070E37C932013B8F785
:104B30007E9170617D9330F0839571E37D9370E396
:104B40002A95E1F71124EF90FF900F911F91CF91DB
:104B5000DF91992787FD9095089591110C94B126C6
:104B6000803219F089508550C8F70895FB01DC01A7
:104B70004150504088F08D9181341CF08B350CF4FD
:104B8000805E659161341CF06B350CF4605E861BB1
:104B9000611171F3990B0895881BFCCFDC01FC01B6
:104BA000672F71917723E1F7329704C07C916D9361
:104BB00070836291AE17BF07C8F308950E94202644
:104BC00008F481E00895E89409C097FB3EF49095BD
:104BD0008095709561957F4F8F4F9F4F9923A9F0D6
:104BE000F92F96E9BB279395F69587957795679565
:104BF000B795F111F8CFFAF4BB0F11F460FF1BC0A9
:104C00006F5F7F4F8F4F9F4F16C0882311F096E93B
:104C100011C0772321F09EE8872F762F05C06623E9
:104C200071F096E8862F70E060E02AF09A95660FA2
:104C3000771F881FDAF7880F9695879597F908955B
:104C4000990F0008550FAA0BE0E8FEEF161617069D
:104C5000E807F907C0F012161306E407F50798F005
:104C6000621B730B840B950B39F40A2661F0232B1E
:104C7000242B252B21F408950A2609F4A140A6959A
:104C80008FEF811D811D08950E9457260C94CB261D
:104C90000E94BD2638F00E94C42620F0952311F012
:104CA0000C94B4260C94BA2611240C94FF260E946E
:104CB000DC2670F3959FC1F3950F50E0551F629F5E
:104CC000F001729FBB27F00DB11D639FAA27F00D65
:104CD000B11DAA1F649F6627B00DA11D661F829F8C
:104CE0002227B00DA11D621F739FB00DA11D621F71
:104CF000839FA00D611D221F749F3327A00D611D8E
:104D0000231F849F600D211D822F762F6A2F11246F
:104D10009F5750409AF0F1F088234AF0EE0FFF1FA2
:104D2000BB1F661F771F881F91505040A9F79E3FF9
:104D3000510580F00C94B4260C94FF265F3FE4F3F9
:104D4000983ED4F3869577956795B795F795E7954F
:104D50009F5FC1F7FE2B880F911D9695879597F958
:104D6000089599278827089597F99F6780E870E04C
:104D700060E008959FEF80EC089500240A941616D1
:104D8000170618060906089500240A941216130639
:104D9000140605060895092E0394000C11F48823C7
:104DA00052F0BB0F40F4BF2B11F460FF04C06F5FE3
:104DB0007F4F8F4F9F4F089557FD9058440F551FB9
:104DC00059F05F3F71F04795880F97FB991F61F08D
:104DD0009F3F79F087950895121613061406551F04
:104DE000F2CF4695F1DF08C0161617061806991F70
:104DF000F1CF86957105610508940895E894BB2765
:104E000066277727CB0197F908950E944727A59F2A
:104E1000900DB49F900DA49F800D911D11240895B5
:104E20002F923F924F925F926F927F928F929F92BA
:104E3000AF92BF92CF92DF92EF92FF920F931F93A8
:104E4000CF93DF93CDB7DEB7CA1BDB0B0FB6F89459
:104E5000DEBF0FBECDBF09942A88398848885F8499
:104E60006E847D848C849B84AA84B984C884DF800A
:104E7000EE80FD800C811B81AA81B981CE0FD11DEE
:104E80000FB6F894DEBF0FBECDBFED010895A29F0F
:104E9000B001B39FC001A39F700D811D1124911D0E
:104EA000B29F700D811D1124911D089597FB072E4F
:104EB00016F4009407D077FD09D00E948C2707FCD8
:104EC00005D03EF4909581959F4F0895709561951A
:104ED0007F4F0895A1E21A2EAA1BBB1BFD010DC036
:104EE000AA1FBB1FEE1FFF1FA217B307E407F5079A
:104EF00020F0A21BB30BE40BF50B661F771F881F76
:104F0000991F1A9469F760957095809590959B010B
:104F1000AC01BD01CF010895AA1BBB1B51E107C025
:104F2000AA1FBB1FA617B70710F0A61BB70B881F39
:104F3000991F5A95A9F780959095BC01CD010895C8
:104F4000EE0FFF1F0590F491E02D09945058BB27F8
:104F5000AA270E94BE270C94CB260E94BD2638F0BB
:104F60000E94C42620F039F49F3F19F426F40C94D3
:104F7000BA260EF4E095E7FB0C94B426E92F0E94C4
:104F8000DC2658F3BA17620773078407950720F0E9
:104F900079F4A6F50C94FE260EF4E0950B2EBA2FAC
:104FA000A02D0B01B90190010C01CA01A00111242F
:104FB000FF27591B99F0593F50F4503E68F11A16DB
:104FC000F040A22F232F342F4427585FF3CF46956C
:104FD00037952795A795F0405395C9F77EF41F168E
:104FE000BA0B620B730B840BBAF09150A1F0FF0F58
:104FF000BB1F661F771F881FC2F70EC0BA0F621F44
:10500000731F841F48F4879577956795B795F79533
:105010009E3F08F0B0CF9395880F08F09927EE0FC8
:105020009795879508950E9427280C94CB260E9477
:10503000C42658F00E94BD2640F029F45F3F29F0B5
:105040000C94B42651110C94FF260C94BA260E949D
:10505000DC2668F39923B1F3552391F3951B550B87
:10506000BB27AA2762177307840738F09F5F5F4F3B
:10507000220F331F441FAA1FA9F335D00E2E3AF07A
:10508000E0E832D091505040E695001CCAF72BD092
:10509000FE2F29D0660F771F881FBB1F26173707E3
:1050A0004807AB07B0E809F0BB0B802DBF01FF2715
:1050B00093585F4F3AF09E3F510578F00C94B42618
:1050C0000C94FF265F3FE4F3983ED4F386957795E2
:1050D0006795B795F7959F5FC9F7880F911D9695CE
:1050E000879597F90895E1E0660F771F881FBB1F2A
:1050F000621773078407BA0720F0621B730B840BD7
:10510000BA0BEE1F88F7E09508950E948C286894EA
:10511000B1110C94FF2608950E94E42688F09F5751
:1051200098F0B92F9927B751B0F0E1F0660F771FCB
:10513000881F991F1AF0BA95C9F714C0B13091F0C1
:105140000E94FE26B1E008950C94FE26672F782F6A
:105150008827B85F39F0B93FCCF386957795679586
:10516000B395D9F73EF490958095709561957F4FF2
:105170008F4F9F4F08950F931F93CF93DF938230EC
:10518000910510F482E090E0E0914003F09141033A
:1051900030E020E0B0E0A0E0309799F4211531052F
:1051A00009F44AC0281B390B24303105D8F58A810F
:1051B0009B816115710589F1FB0193838283FE0157
:1051C00011C0408151810281138148175907E0F0D5
:1051D0004817590799F4109761F012960C9312979B
:1051E00013961C933296CF01DF91CF911F910F91AF
:1051F00008950093400310934103F4CF2115310526
:1052000051F04217530738F0A901DB019A01BD01A3
:10521000DF01F801C1CFEF01F9CF909341038093F3
:105220004003CDCFFE01E20FF31F819391932250F3
:10523000310939832883D7CF20913E0330913F0332
:10524000232B41F4209103013091040130933F035B
:1052500020933E0320910101309102012115310577
:1052600041F42DB73EB74091050150910601241B32
:10527000350BE0913E03F0913F03E217F307A0F4F2
:105280002E1B3F0B2817390778F0AC014E5F5F4F9C
:105290002417350748F04E0F5F1F50933F0340938C
:1052A0003E03819391939FCFF0E0E0E09CCFCF93BA
:1052B000DF930097E9F0FC01329713821282A091EC
:1052C0004003B0914103ED0130E020E01097A1F4DC
:1052D00020813181820F931F20913E0330913F0343
:1052E0002817390709F061C0F0933F03E0933E03AC
:1052F000DF91CF910895EA01CE17DF07E8F54A81E3
:105300005B819E0141155105B1F7E901FB83EA83F9
:1053100049915991C40FD51FEC17FD0761F48081A5
:1053200091810296840F951FE90199838883828178
:1053300093819B838A83F0E0E0E012968D919C91AB
:1053400013970097B9F52D913C911197CD010296D5
:10535000820F931F20913E0330913F032817390796
:1053600039F6309751F51092410310924003B093F3
:105370003F03A0933E03BCCFD383C28340815181BE
:10538000840F951FC817D90761F44E5F5F4F88815E
:105390009981480F591F518340838A819B81938350
:1053A00082832115310509F0B0CFF0934103E093DA
:1053B00040039ECFFD01DC01C0CF13821282D7CF04
:1053C000B0E0A0E0E6EEF9E20C9412278C01009721
:1053D00051F4CB010E94BB288C01C801CDB7DEB7C8
:1053E000E0E10C942E27FC01E60FF71F9C012250F0
:1053F0003109E217F30708F49DC0D901CD91DC9182
:105400001197C617D70798F0C530D10530F3CE01F4
:1054100004978617970708F3C61BD70B2297C193EB
:10542000D1936D937C93CF010E945729D6CF5B0116
:10543000AC1ABD0A4C018C0E9D1EA0914003B09188
:105440004103512C412CF12CE12C109731F5809126
:105450003E0390913F038815990509F05CC04616FC
:10546000570608F058C08091010190910201009701
:1054700041F48DB79EB74091050150910601841B00
:10548000950BE817F90708F055C0F0933F03E09338
:105490003E03F90171836083A0CF8D919C91119798
:1054A00012966C90129713967C901397A815B905D5
:1054B00059F56C0142E0C40ED11CCA14DB0420F182
:1054C000AC014A195B09DA011296159780F06282E5
:1054D000738251834083D9016D937C93E114F1046D
:1054E00071F0D7011396FC93EE93129776CF229624
:1054F0008C0F9D1FF90191838083F301EFCFF0930F
:105500004103E093400369CF4816590608F42C0183
:105510007D01D3019ACFCB010E94BB287C0100976B
:1055200049F0AE01B8010E94A22AC8010E94572981
:10553000870153CF10E000E050CF81E090E0F89475
:105540000C94C22AFB01DC0102C001900D92415073
:105550005040D8F70895DC0101C06D934150504090
:10556000E0F70895FB01DC018D9101908019011095
:10557000D9F3990B0895FB01DC0101900D920020F5
:10558000E1F7089517E0C8E9D7E004C0FE010E94E2
:0E559000A0272196C939D107C9F7F894FFCF9B
:10559E00200000420380003738392F3435367831F9
:1055AE0032332D43303D2B000000007B09DB080811
:1055BE0009C809390917092B0900000000FA12CD94
:1055CE0012C416C307C612B312A412000000008440
:1055DE000EDB08C416DA088F0BC307291101111D43
:1055EE001111119111C3074A0C6E16FF0A480B4A8E
:1055FE00102D10B50F560F4572726F720030000DE0
:02560E000A0090
:00000001FF
