:100000000C94BC0A0C94E40A0C94E40A0C94E40AE0
:100010000C94E40A0C94E40A0C94E40A0C94001F77
:100020000C94E40A0C94E40A0C94E40A0C94E40A98
:100030000C94E40A0C94E40A0C94E40A0C94E40A88
:100040000C94B61E0C94E40A0C94E40A0C94E40A92
:100050000C94E40A0C94E40A0C94E40A0C94E40A68
:100060000C945C1F0C94E40A0000000000000000E7
:1000700007FC000000001FFF000000001FFF8000C1
:1000800000003FFFE00000007FFFF0000000FFFFE6
:10009000F8000001FFFFFC0000037C7FFE0000026F
:1000A000F9FFFE00000CF3FFFF00001FF47FFF804C
:1000B000007FF07FFFC000FFF8FFFFC003FFFFFFDE
:1000C000FFC00FFFFFFFFFE01FE7FFE0FFE03FDFA4
:1000D000FFDEFFF07FBFFFBF7FF07F7FFE77BFF8BF
:1000E0007F7FF9F7BFFC3FFFE7EFBFFE5FFE1FDF3B
:1000F000BFFF67F1FF3FBFFF380FFCFFBFFF1FFFD0
:10010000F3FF3FFF0FFFCFFEEFFF00383FF957FF30
:100110000783FFEAABFF01FFFE1555FF00FFF00A62
:10012000AAFF003FC005555F00000002AAAF000013
:100130000005555700000002AAAB0000000155550C
:1001400000000000AAAA00000000555500000000B1
:100150000AAA000000000155000000000000000095
:1001600007FC000000001FFF000000001FFF8000D0
:1001700000003FFFE00000007FFFF0000000FFFFF5
:10018000F8000001FFFFFC0000037C7FFE0000027E
:10019000F9FFFE00000CF3FFFF00001FF47FFF805B
:1001A000007FF07FFFC000FFF8FFFFC003FFFFFFED
:1001B000FFC00FFFFFFFFFE01FE7FFE0FFE03FDFB3
:1001C000FFDEFFF07FBFFFBF7FF07F7FFE77BFF8CE
:1001D0007F7FF9F7BFFC3FFFE7EFBFFE5FFE1F1F0A
:1001E000BFFF67F1F91FBFFF380FE83FBFFF1FFFD9
:1001F000E17F3FFF0EFE41FEEFFF04D40BFD57FFF2
:1002000000D40FFAABFF00609FF555FF0075FFCAE1
:10021000AAFF003FFF05555F001FFC02AAAF0007C1
:10022000C001555700000000AAAB000000001555A2
:10023000000000000AAA00000000055500000000B0
:1002400002AA0000000001550000000000000000AC
:1002500007FC000000001FFF000000001FFF8000DF
:1002600000003FFFE00000007FFFF0000000FFFF04
:10027000F8000001FFFFFC0000037C7FFE0000028D
:10028000F9FFFE00000CF3FFFF00001FF47FFF806A
:10029000007FF07FFFC000FFF8FFFFC003FFFFFFFC
:1002A000FFC00FFFFFFFFFE01FE7FFE0FFE03FDFC2
:1002B000FFDEFFF07FBFFFBF7FF07F7FFE77BFF8DD
:1002C0007F7FF9F7BFFC3FFFE7EFBFFE5FFE1F1F19
:1002D000BFFF67F1F91FBFFF380FE83FBFFF1FFFE8
:1002E000E03FBFFF0EFE40BF6FFF045400FF57FF0B
:1002F000001001FEABFF001801FD55FF001805FAC4
:10030000AAFF001D27F1555F000F7FE0AAAF00078D
:10031000FF8055570003FE002AAB0001F000155581
:10032000000000000AAA00000000055500000000BF
:1003300002AA0000000001550000000000000000BB
:1003400000000000000000000000000000000000AD
:10035000000000000000000000000000000000009D
:10036000000000000000000000000000000000008D
:10037000000000000000000000000000000000007D
:10038000000000000000000000000000000000006D
:100390000000000603E00000000F8FD80000001DE1
:1003A000FFFC0000003FFEFE0000001BFFFF0000FE
:1003B0000007FFFFC00000005FFDF00000003C1ED2
:1003C000FE0000007A2F0000000000000000000086
:1003D000000000000000000000000000000000001D
:1003E000000000000000000000000000000000000D
:1003F00000000000000000000000000000000000FD
:1004000000000000000000000000000000000000EC
:1004100000000000000000000000000000000000DC
:100420000000000603E00000000F8FF80000001D30
:10043000FFEC0000003FFFFE0000001BFEFF00007D
:100440000007FFFFC00000005BFDF00000003C1F44
:10045000FE000000180C000000000000000000007A
:10046000000000000000000000000000000000008C
:10047000000000000000000000000000000000007C
:10048000000000000000000000000000000000006C
:10049000000000000000000000000000000000005C
:1004A000000000000000000000000000000000004C
:1004B0000000000603E00000000F8FF80000001DA0
:1004C000FFFC0000003FFFDE0000001BFFFF0000FC
:1004D0000007FEFFC00000007BEFF00000003C1FA3
:1004E000FE0000005E3D0000000000000000000073
:1004F00000000000000000000000000000000000FC
:1005000000000000000000000000000000000000EB
:1005100000000000000000000000000000000000DB
:1005200000000000000000000000000000000000CB
:1005300000000000000000000000000000000000BB
:100540000000000007C0600000001BF1F000000088
:100550003FFFB80000007F7FFC000000FFFFD800D5
:100560000003FFFFE000000FBFFA0000007F783CAF
:1005700000000000F45E0000000000000000000029
:10058000000000000000000000000000000000006B
:10059000000000000000000000000000000000005B
:1005A000000000000000000000000000000000004B
:1005B000000000000000000000000000000000003B
:1005C000000000000000000000000000000000002B
:1005D0000000000007C0600000001FF1F0000000F4
:1005E00037FFB80000007FFFFC000000FF7FD8004D
:1005F0000003FFFFE000000FBFDA0000007FF83CBF
:1006000000000000301800000000000000000000A2
:1006100000000000000000000000000000000000DA
:1006200000000000000000000000000000000000CA
:1006300000000000000000000000000000000000BA
:1006400000000000000000000000000000000000AA
:10065000000000000000000000000000000000009A
:100660000000000007C0600000001FF1F000000063
:100670003FFFB80000007BFFFC000000FFFFD80038
:100680000003FF7FE000000FF7DE0000007FF83C72
:1006900000000000BC7A000000000000003E5B4F3C
:1006A0005B3E3E6B4F6B3E1C3E7C3E1C183C7E3CD2
:1006B000181C577D571C1C5E7F5E1C00183C1800E0
:1006C000FFE7C3E7FF0018241800FFE7DBE7FF3070
:1006D000483A060E2629792926407F050507407FDE
:1006E00005253F5A3CE73C5A7F3E1C1C08081C1C51
:1006F0003E7F14227F22145F5F005F5F06097F0147
:100700007F006689956A606060606094A2FFA29431
:1007100008047E040810207E201008082A1C0808FF
:100720001C2A08081E101010100C1E0C1E0C30384D
:100730003E3830060E3E0E06000000000000005F4E
:1007400000000007000700147F147F14242A7F2A6A
:10075000122313086462364956205000080703002C
:10076000001C2241000041221C002A1C7F1C2A0878
:10077000083E0808008070300008080808080000DB
:1007800060600020100804023E5149453E00427F4F
:10079000400072494949462141494D331814127F9E
:1007A0001027454545393C4A49493141211109073E
:1007B0003649494936464949291E000014000000BF
:1007C0004034000000081422411414141414004191
:1007D00022140802015909063E415D594E7C12114E
:1007E000127C7F494949363E414141227F41414186
:1007F0003E7F494949417F090909013E4141517301
:100800007F0808087F00417F41002040413F017F71
:10081000081422417F404040407F021C027F7F0439
:1008200008107F3E4141413E7F090909063E415182
:10083000215E7F09192946264949493203017F0172
:10084000033F4040403F1F2040201F3F4038403F73
:10085000631408146303047804036159494D430089
:100860007F4141410204081020004141417F0402C0
:100870000102044040404040000307080020545457
:1008800078407F2844443838444444283844442835
:100890007F385454541800087E090218A4A49C7888
:1008A0007F0804047800447D40002040403D007FE4
:1008B0001028440000417F40007C047804787C08C4
:1008C0000404783844444438FC1824241818242498
:1008D00018FC7C08040408485454542404043F447D
:1008E000243C4040207C1C2040201C3C4030403CAC
:1008F00044281028444C9090907C4464544C44000C
:10090000083641000000770000004136080002016F
:100910000204023C2623263C1EA1A161123A40405B
:10092000207A3854545559215555794122545478D8
:1009300042215554784020545579400C1E52721271
:1009400039555555593954545459395554545800FA
:1009500000457C410002457D420001457C407D12FE
:1009600011127DF0282528F07C5455450020545460
:100970007C547C0A097F4932494949323A4444440B
:100980003A324A4848303A4141217A3A4240207846
:10099000009DA0A07D3D4242423D3D4040403D3C47
:1009A00024FF2424487E4943662B2FFC2F2BFF096C
:1009B00029F620C0887E0903205454794100004460
:1009C0007D413048484A32384040227A007A0A0A4B
:1009D000727D0D19317D2629292F282629292926BE
:1009E00030484D4020380808080808080808382F03
:1009F00010C8ACBA2F102834FA00007B000008148D
:100A00002A142222142A14085500550055AA55AA62
:100A100055AAFF55FF55FF000000FF00101010FF02
:100A200000141414FF001010FF00FF1010F010F05D
:100A3000141414FC001414F700FF0000FF00FF144E
:100A400014F404FC141417101F10101F101F14149A
:100A5000141F00101010F0000000001F10101010E4
:100A60001F10101010F010000000FF1010101010D8
:100A700010101010FF10000000FF140000FF00FF16
:100A800000001F10170000FC04F4141417101714B2
:100A900014F404F40000FF00F714141414141414D4
:100AA000F700F7141414171410101F101F14141447
:100AB000F4141010F010F000001F101F0000001FB1
:100AC00014000000FC140000F010F01010FF10FFE4
:100AD000141414FF141010101F00000000F010FF79
:100AE000FFFFFFFFF0F0F0F0F0FFFFFF000000005D
:100AF00000FFFF0F0F0F0F0F3844443844FC4A4AE1
:100B00004A347E02020606027E027E026355494195
:100B1000633844443C04407E201E2006027E0202CC
:100B200099A5E7A5991C2A492A1C4C7201724C30E0
:100B30004A4D4D303048784830BC625A463D3E49B7
:100B40004949007E0101017E2A2A2A2A2A44445F5B
:100B5000444440514A444040444A51400000FF014F
:100B600003E080FF000008086B6B0836123624365D
:100B7000060F090F060000181800000010100030C2
:100B800040FF0101001F01011E00191D1712003C4A
:100B90003C3C3C0000000000000103070F1F3F7FAA
:100BA0000080C0E0F0F8FCFEDB40A4A62EAF2000E1
:100BB000A1C8D300408DAED580A800000000000081
:100BC000000F8000000000000000001FFF00000078
:100BD000000000000039FFE0000000000000003BC2
:100BE000FFF8000000000000003FE1FC00000000F2
:100BF0000000007FFE3E000000000000005EC1DE3D
:100C0000000000000000007D802F000000000000B8
:100C1000003A001F0000000000000000001F00005C
:100C2000000000000000001F0000000000000000A5
:100C3000001F0000000000000000003F0000000056
:100C40000000000000FE000000000000000001FAAB
:100C50000000000000001F8007F4000000000000FA
:100C6000F5E01FE8000000000007AABC7FD00000EC
:100C70000000003D555FFFA00000000000EAAAAFA1
:100C8000FF400000000003D555FFFE80000000007B
:100C900007ABAEBFFD00000000001F5FDFFFFA00E2
:100CA000000000003FEEFB6FF40000000000FFFFBB
:100CB000FFFFE80000000001FFF7FFFFD000000089
:100CC0000007FFFFFFFFA0000000001FFFFFFFFD68
:100CD000C000000000FFDFFFFEFE800000001FFFDD
:100CE000EFEFFF7F00000003FFFF9FDFFFBF00006B
:100CF00000FFFFFC1FA1FC7F80000FFFFFE01FB083
:100D000003BF80001FFF80000FC0000000007E00B6
:100D10000000000000000000700000000000000063
:100D20000000E0000000000000000000C000000023
:100D3000000000000000C8000000000000000000EB
:100D40007000000000000000000000000000000033
:100D50000039C00000000039C00000000039C000A8
:100D6000000000380000000000380000000007B953
:100D7000CE780FC00FF9CFFC1FE01FF9CFFE3FF078
:100D80003C79CF1E38783839CE0E70383839CE0ECF
:100D900070383839CE0E70383839CE0E7038383950
:100DA000CE0E70383C79CE0E78701FF9CE0E3FF023
:100DB0000FF9CE0E1FE0000000000000000200103E
:100DC000001025375390E1B8292251D09390192271
:100DD00052509210112373D0F1980000000080004F
:100DE000000000000000206A616B6F626465736937
:100DF000676E2070726573656E7473005065742041
:100E0000646965642E2E2E0A0A507265737320621F
:100E10007574746F6E20310A746F2072657374611B
:100E200072740053434F52453A004E45572048498B
:100E30002D53434F5245210047414D45204F5645C4
:100E4000520021006F6666006F6E0020792E002030
:100E5000740067657420736D6172746572007768E1
:100E6000656E206865616C746820697320626164D6
:100E7000006B656570206974206865616C746879C1
:100E80000067657420736F6D652072657374006907
:100E90006E6372656173652068617070696E6573F9
:100EA000730021000FE0003FF80031FE006E7F006C
:100EB000D17F80A0BF80A0BFC0A0BFC0D13FC0AEC7
:100EC000FFE0D1FFE0EFFFE077FFF07BFFD03DFFD9
:100ED000781EF9FE0F67FF077FFF039FFC03C3F92E
:100EE00001F8C300FF1E001FFE0001FC0001F0001E
:100EF00007E0000FE03F1FC000DF800020000FD799
:100F0000F03FFFFC7FFFFE78FFFEF07FFFE07FFFFA
:100F1000E0FFFFF1FFFFFFFFFFFFFFFFFFFFFFFF0E
:100F2000FFFF7FFFFE7FFFFE3FFFFC1FFFF80FFF6D
:100F3000F007C3E08088018102E027100BF01C0855
:100F40007A005A007A005A005041555345440070C7
:100F500074733A20006C766C3A20000000000000A8
:100F6000000200000400000000000000000000007B
:100F7000000000000000000000000000100500005C
:100F8000150000000000000000000000400000000C
:100F900000000000000000002815000055000000BF
:100FA0000000000000000000000000000000000041
:100FB00000000000545540005540000000000000B3
:100FC000008000000100000200000000000000009E
:100FD00054150440150000000000000002A00000AD
:100FE00001100008000000000100000028842440D7
:100FF0000400000000000440008200000110000412
:10100000400000000100022000000041001000002C
:101010000000044000888240910424411000000038
:1010200001000000000000000000000000000000BF
:1010300010444411041011040100000001000000DC
:10104000000000000000001000000002000000048A
:1010500000000210008000000800040000000000F2
:101060004000000400080020000100000100000012
:101070000000080001000000008080000889C048CE
:101080005C50849C4850228880442240842E214910
:1010900024A4B114000800520034006940F080001C
:1010A000001E002F005E805FC0B7C0FFEEBB55AAD8
:1010B000110000000000000000000000000000001F
:1010C0000000000000000000000000000000000020
:1010D0000000000000000000000000000000000010
:1010E0000000000000000000000000000000000000
:1010F00000000000000000000000000000000000F0
:101100000000000000000000000000000007C060B8
:101110000000001FF1F00000003BFFB80000007F5E
:10112000DFFC000000FFFFD8000003FFFFE000002D
:101130000FFFFE0000007DF81F00000003C00780C5
:10114000000040000000000000000000000000005F
:101150000400E000000000000000000000000000AB
:101160000E01F00000000000000000000000000080
:101170001F03F80300000000000001000000000051
:101180003F07740780100000800006800000000008
:10119000D50EC20DC0280101C1001F400000000192
:1011A000281D131B60540383A38036200000000613
:1011B000D03A41B430E2CCF757C0D8100000001943
:1011C0002068844919A1365D2AA1A010000000E61C
:1011D00040D210A40C808C1A1557408800001F388C
:1011E000804908000602C024180B80050B8CE02300
:1011F00000A0200011000048848402205DF300CD8F
:10120000C05000040401440000080000300407102E
:101210002000000000040000000008000040400022
:1012200010400200000000008100000001110100D8
:10123000000000000040000000000080800000204E
:1012400002047018006EFB7CEEFFFFFDFF6FFB38A1
:10125000EE07705200666F6F64000000000000002F
:101260006170706C65000000000000737465616B54
:10127000000000000000776174657200000000004B
:10128000000000000000000000000000000000005E
:10129000000000000000000000000000000000004E
:1012A0000000000000000000000000000067616D09
:1012B00065000000000000000000000000000000C9
:1012C000000000000000000000000000000000001E
:1012D000000000000000000000000000000000000E
:1012E00000000000000000000000000000000000FE
:1012F00000000000000000000000000000000000EE
:101300000000000000736C656570000000000000C4
:1013100000000000000000000000000000000000CD
:1013200000000000000000000000000000000000BD
:1013300000000000000000000000000000000000AD
:10134000000000000000000000000000000000009D
:1013500000000000000000000000000000636C6559
:10136000616E0000000000000000000000000000AE
:10137000000000000000000000000000000000006D
:10138000000000000000000000000000000000005D
:10139000000000000000000000000000000000004D
:1013A000000000000000000000000000000000003D
:1013B0000000000000646F63746F720000000000A2
:1013C000000000000000000000000000000000001D
:1013D000000000000000000000000000000000000D
:1013E00000000000000000000000000000000000FD
:1013F00000000000000000000000000000000000ED
:10140000000000000000000000000000006469739C
:101410006369706C696E65000000000000000000E8
:1014200000000000000000000000000000000000BC
:1014300000000000000000000000000000000000AC
:10144000000000000000000000000000000000009C
:10145000000000000000000000000000000000008C
:10146000000000000073746174730000000000004D
:1014700068756E67657200000000006861707069D1
:101480006E65737300006865616C7468000000002D
:10149000006469736369706C696E6500776569677C
:1014A0006874000000000061676500000000000033
:1014B00000000000000000000000000000736574E0
:1014C00074696E6773000000736F756E64000000CE
:1014D000000000000000000000000000000000000C
:1014E00000000000000000000000000000000000FC
:1014F00000000000000000000000000000000000EC
:1015000000000000000000000000000000000000DB
:10151000000000000000000000240027002A000056
:10152000000000230026002900000000080002013E
:10153000000003040700000000000000002200FF7C
:10154000210102040810204080010204081020013B
:10155000020408102000000000250028002B0004D1
:10156000040404040404040202020202020303034A
:10157000030303027B207B3611241FBECFEFD8E08C
:10158000DEBFCDBF11E0A0E0B1E0E2E9F6E702C0C6
:1015900005900D92AE38B107D9F723E0AEE8B1E07F
:1015A00001C01D92AC30B207E1F71AE0CBEBDAE0F4
:1015B00004C02197FE010E94C237CA3BD107C9F778
:1015C0000E94E2200C943C3B0C9400000895833070
:1015D00081F028F4813099F08230A9F008958730A5
:1015E000A9F08830C9F08430B1F4809180008F7DFB
:1015F00003C0809180008F7780938000089584B528
:101600008F7784BD089584B58F7DFBCF8091B00026
:101610008F778093B00008958091B0008F7DF9CFCF
:10162000CF93DF93282F30E0F901E75DFA4E8491E4
:10163000F901EF5BFA4ED491F901E15AFA4EC491E7
:10164000CC23A1F081110E94E70AEC2FF0E0EE0F0D
:10165000FF1FE15EFA4EA591B491EC91ED2381E07C
:1016600090E009F480E0DF91CF91089580E090E070
:10167000FACF1F93CF93DF93282F30E0F901E75D76
:10168000FA4E8491F901EF5BFA4ED491F901E15AD7
:10169000FA4EC491CC23A9F0162F81110E94E70ABB
:1016A000EC2FF0E0EE0FFF1FEB5AFA4EA591B4912C
:1016B0008FB7F894EC91111108C0D095DE23DC931C
:1016C0008FBFDF91CF911F910895DE2BF8CFCF937D
:1016D000DF9390E0FC01EF5BFA4E2491815A9A4E21
:1016E000FC0184918823D1F090E0880F991FFC01C0
:1016F000EB5EFA4EA591B491FC01EB5AFA4EC591FE
:10170000D49161110EC09FB7F8948C91E22FE095AF
:101710008E238C932881E223E8839FBFDF91CF91B2
:1017200008958FB7F894EC91E22BEC938FBFF6CF2E
:101730004F925F926F927F928F929F92AF92BF92E1
:10174000CF92DF92EF92FF920F931F93CF93DF938D
:1017500000D000D01F92CDB7DEB78C0149835A83E9
:101760006B837C83809122018D30C9F08F3F09F417
:10177000B2C00F900F900F900F900F90DF91CF910C
:101780001F910F91FF90EF90DF90CF90BF90AF909F
:101790009F908F907F906F905F904F900895E3E7B8
:1017A000F5E124912D8327FDE4CF61E08DE00E94D7
:1017B000670B9D814801B12CA12C992301F1F12CDB
:1017C000E12C2D81223009F03AC14801570160E92E
:1017D00070ED83E090E0A70198010E94373769011E
:1017E0007A0181E0C81AD108E108F10883E09FEF8F
:1017F000C916D104E104F10409F00CF465C060E0FD
:1018000072E18AE790E0A50194010E94373729012F
:101810003A0168E478EE81E090E0A50194010E942D
:10182000373769017A0181E0C81AD108E108F10867
:101830009D81992309F464C1923009F06BC184E061
:101840002FEFC216D104E104F104F1F1ECF164E2EE
:1018500074EF80E090E0A50194010E9437376901A0
:101860007A0181E0C81AD108E108F10885E02FEF7C
:10187000C216D104E104F10439F130F162E17AE7F2
:1018800080E090E0A50194010E94373769017A0158
:1018900081E0C81AD108E108F10886E09FEFC91677
:1018A000D104E104F10481F07CF0730162012AE0CB
:1018B000F594E794D794C7942A95D1F791E0C91A83
:1018C000D108E108F10887E09091B100987F892B59
:1018D0008093B1008DC08DE080932201E3E7F5E1B4
:1018E00084918D838F3F09F444CF813029F158F0E2
:1018F000823009F43FC08D8187FD3BCF61E08DE0F0
:101900000E94670B5CCF14BC15BC84B5826084BD9B
:1019100085B5816085BDECE6F5E1E491F0E0EE0F80
:10192000FF1FEB5AFA4E85919491EEE4F5E1E491B4
:10193000E093AB021D8239CF10928000109281009B
:101940008091810088608093810080918100816016
:1019500080938100ECE6F5E1E491F0E0EE0FFF1FEB
:10196000EB5AFA4E85919491EEE4F5E1E491E0931F
:10197000AA021BCF1092B0001092B1008091B0006B
:1019800082608093B0008091B10081608093B1004B
:10199000ECE6F5E1E491F0E0EE0FFF1FEB5AFA4EB2
:1019A000859194919093A9028093A802EEE4F5E1C9
:1019B000E491E093A702F9CE62E17AE780E090E05B
:1019C000A50194010E94373769017A0191E0C91A93
:1019D000D108E108F1082FEFC216D104E104F104A7
:1019E00011F00CF07DC094E085B5887F892B85BD12
:1019F000D801AA0FBB1F29813A814B815C810E94CB
:101A0000563728EE33E040E050E00E9469378D8180
:101A1000813009F443C0823009F452C08111A9CE4B
:101A2000C7BC2093B4023093B5024093B6025093E2
:101A3000B70280916E00826080936E009ACE60E063
:101A400072E18AE790E0A70198010E943737DA0136
:101A5000C9010197A109B109009721E0A207B105C9
:101A600064F46C0191E02D81213011F680918100A8
:101A7000887F892B80938100BBCF68E478EE81E07A
:101A800090E0A70198010E94373769017A0181E04F
:101A9000C81AD108E108F10893E0E5CFD092890097
:101AA000C09288002093B0023093B1024093B202FA
:101AB0005093B30280916F00826080936F0059CE83
:101AC000C092B3002093AC023093AD024093AE02BB
:101AD0005093AF028091700082608093700049CE75
:101AE000730162019AE0F594E794D794C7949A95AC
:101AF000D1F721E0C21AD108E108F10895E074CFCE
:101B00009FEFC916D104E104F10411F00CF054CF99
:101B100093E06ACF84E0ABCE3FB7F89480919F0208
:101B20009091A002A091A102B091A20226B5A89B1B
:101B300005C02F3F19F00196A11DB11D3FBFBA2F5F
:101B4000A92F982F8827BC01CD01620F711D811D1F
:101B5000911D42E0660F771F881F991F4A95D1F7A4
:101B600008958F929F92AF92BF92CF92DF92EF92A1
:101B7000FF924B015C010E948C0D6B017C010E9465
:101B80008C0D6C197D098E099F09683E7340810593
:101B90009105A8F321E0821A9108A108B10888EE06
:101BA000C80E83E0D81EE11CF11C81149104A1042D
:101BB000B10429F7FF90EF90DF90CF90BF90AF90E6
:101BC0009F908F9008950895089590912201891310
:101BD0000BC0E3E7F5E1E4919FEF90932201E13040
:101BE00049F028F0E23061F060E00C94390B10927B
:101BF0006E00FACF90916F009D7F90936F00F4CFAD
:101C0000909170009D7F9093700091E09093B00050
:101C10009091B100987F94609093B1001092B300BE
:101C2000E3CFAF92BF92CF92DF92EF92FF920F93EA
:101C30001F93CF93DF936C017B018B01040F151F62
:101C4000EB015E01AE18BF08C017D10759F06991CA
:101C5000D601ED91FC910190F081E02DC60109952E
:101C6000892B79F7C501DF91CF911F910F91FF90DB
:101C7000EF90DF90CF90BF90AF900895EF92FF92DA
:101C80000F931F93CF93DF93EC01EC80FD806E15D3
:101C90007F050CF070C057FF04C0240F351F50E0C3
:101CA00040E08E819F81FA01E20FF31F8E179F079C
:101CB0001CF49C01241B350B121613060CF05BC0A0
:101CC000922F842F8695869586958E9DD0018F9D27
:101CD000B00D11246A0F7B1FAF8DB8A1A60FB71FDF
:101CE000477049F188E0841B482F682F70E0FB01A2
:101CF000E056F44FE491281708F063C0621B7109A5
:101D00002FEF30E002C0359527956A95E2F7E22380
:101D10000130110539F0B0F10230110561F58C91F7
:101D2000E82702C08C91E82BEC93941720F12C81CA
:101D30003D81A20FB31FE92FE41BE83078F0023099
:101D4000110521F58E2F9C9190959C932C813D81BE
:101D5000A20FB31F88508830B0F7E770EE2359F018
:101D6000F0E0E856F44FE49101301105F9F010F17C
:101D70000230110519F1DF91CF911F910F91FF9062
:101D8000EF900895E0958C91E823CECF81E0011586
:101D9000110509F480E081959E2F8C932C813D8163
:101DA000A20FB31F98509830C0F7D7CF8C91E82B73
:101DB000EC93E1CFE0958C91E823FACF8C91E82762
:101DC000F7CF0130110509F4ADCFE0F20230110573
:101DD00009F4A5CFAE0DBF1DAECF0F931F93CF93C8
:101DE000DF9377FF04C0260F371F70E060E0DC014F
:101DF0001496CD91DC91FB01E20FF31FCE17DF07A4
:101E00001CF49E01261B370B121613064CF5FA0123
:101E100057FD3796A3E0F595E795AA95E1F7EC9F76
:101E2000D001ED9FB00DFC9FB00D11246A0F7B1FF8
:101E3000DC015F96ED91FC91E60FF71F4770552787
:101E400081E090E001C0880F4A95EAF7482F013001
:101E5000110559F0A8F02E0F3F1F02301105E1F0D7
:101E6000DF91CF911F910F9108952E0F3F1FE21721
:101E7000F307B1F38191DF011197842B8C93F7CF96
:101E800080952E0F3F1FE217F30751F39191DF0169
:101E9000119798239C93F7CFE217F30709F38191E9
:101EA000DF01119784278C93F7CF0F931F93FA01CB
:101EB000DC0156964C9156974230E9F04330A1F13F
:101EC000413061F514964D915C91DA01AE1BBF0B68
:101ED000FD01E21BF30B77FD0BC0DC0116964D9163
:101EE0005C916417750724F4AB01BF010E94ED0EED
:101EF0001F910F91089514964D915C91DA01A61BE4
:101F0000B70BBD0161507109DC0116964D915C91D2
:101F1000DA01AE1BBF0BFD01E21BF30B77FDE8CF2F
:101F2000AF010E943E0EE4CF16964D915C91DA010E
:101F3000A61BB70BBD0161507109CDCF0F931F9345
:101F4000FA01DC0156964C9156974230A9F0433085
:101F500091F1413019F514964D915C91DA01AE1B67
:101F6000BF0BFD013197F7FD04C0AB01BF010E941B
:101F70003E0E1F910F91089514964D915C91DA01D8
:101F8000A61BB70BBD01DC0116964D915C91DA01E1
:101F9000AE1BBF0BFD013197621B730BF7FDE9CF41
:101FA000DC0116964D915C91E417F50714F7AF012B
:101FB0000E94ED0EDECF16964D915C91DA01A61BC4
:101FC000B70BBD01621B730BCECFFC0177FD64C064
:101FD00080859185681779070CF05EC057FD5CC05D
:101FE00082859385481759070CF056C08689823040
:101FF000B1F0833029F1813041F484819581841BD3
:10200000950BAB01BC01615071092130310509F11B
:1020100008F443C02230310509F463C00895848177
:102020009581DC01A61BB70BBD016150710986814A
:102030009781DC01A41BB50BAD0141505109E5CFDF
:1020400086819781861B970BBA01AC0141505109DB
:10205000DCCFCA0157FD0796A3E095958795AA9511
:10206000E1F7A481B5818A9F90018B9F300D9A9FE3
:10207000300D1124620F731F078CF0A1E02DE60FC5
:10208000F71F4770552721E030E001C0220F4A9525
:10209000EAF78081822B80830895CA0157FD079655
:1020A00033E0959587953A95E1F7A481B5818A9FAC
:1020B00090018B9F300D9A9F300D1124620F731F7A
:1020C000078CF0A1E02DE60FF71F4770552781E040
:1020D00090E001C0880F4A95EAF7809590818923A6
:1020E000DACFCA0157FD079623E0959587952A9583
:1020F000E1F7A481B5818A9F90018B9F300D9A9F53
:10210000300D1124620F731F078CF0A1E02DE60F34
:10211000F71F4770552721E030E001C0220F4A9594
:10212000EAF780818227B7CF08958EBD00000DB4F5
:1021300007FEFDCF8EB508958CBD9DBD0895089511
:10214000FC016370668B84819581268137816130C3
:1021500039F0633029F0918780873387228708958B
:10216000318720879387828708952F923F924F92DD
:102170005F926F927F928F929F92AF92BF92CF9217
:10218000DF92EF92FF920F931F93CF93DF93CDB720
:10219000DEB76A970FB6F894DEBF0FBECDBF9A8F39
:1021A000898F7A8369834A01D22E18870F8337017A
:1021B000BC2CDC0159962D913C915A972115310583
:1021C00009F015C118968D919C9119976817790798
:1021D0000CF0D7C11A968D919C91481759070CF0B5
:1021E000D0C14C2C512CB6E0CB9E600D711D11243A
:1021F0007C876B87161617060CF0C3C1EA2DF0E03A
:10220000FA87E98793E0EE0FFF1F9A95E1F7F88BC5
:10221000EF87CF01840F951F181619060CF0B1C176
:10222000A98DBA8D58968C91811104C0BFEABD1555
:1022300008F4D394A98DBA8DED91FC911197028485
:10224000F385E02DCD010995B5E0DB9EC001112499
:10225000E981FA81FC83EB83312C212C9C012856E7
:10226000394F388F2F8B4A2D50E05E8B4D8BEF8985
:10227000F88DE20DF31D44919E828D82D12CC12CEC
:1022800069817A81620D731D7A8B698B842F90E04E
:102290009C8B8B8BE98DFA8DA081B18140FF82C030
:1022A000F1E0BF126FC0AF126DC01C96ED91FC91B2
:1022B0002F813885A4014C0D5D1D69897A89898D2E
:1022C0009A8D0995EB89FC89F595E7954E2F5FEF7F
:1022D000C51AD50A6D817E818D899E89680F791F07
:1022E0007E836D8398E0C916D10481F6AFEF2A1A78
:1022F0003A0AEB81FC81E40DF51DFC83EB83F5E0EC
:102300002F16310409F0B3CF2F81388526153705F4
:10231000B9F0A98DBA8DED91FC91B1E0BB1257C017
:10232000AB1255C069817A816B5F7F4F0088F1895C
:10233000E02D830128E030E0A401898D9A8D099574
:10234000A98DBA8DED91FC9111970688F789E02D42
:10235000CD016A960FB6F894DEBF0FBECDBFDF91F8
:10236000CF911F910F91FF90EF90DF90CF90BF9092
:10237000AF909F908F907F906F905F904F903F9025
:102380002F9009941E96ED91FC91EF80F8840985B9
:102390001A8592014D815E816B817C81898D9A8D38
:1023A000099590CF2F8138852615370509F48ACFF6
:1023B00031E0B31207C0A31205C01C96ED91FC9149
:1023C000930178CF1E96ED91FC917301E0CF6B8560
:1023D0007C85641975090684F785E02D73010F85E6
:1023E00018899201A401898D9A8D0995A9CFF901C7
:1023F00034969491329745915491D91AB7E0DB9E67
:10240000400D511D1124F901259134913C8B2B8BEA
:10241000FA0125903490FA013296749031963491F5
:10242000398B329664903196449041E04C1518F007
:102430004A1508F07FC0662D062C000C770B7C83B4
:102440006B83842D042C000C990B9E838D83A98DA6
:10245000BA8DED91FC9111970284F385E02DCD01A9
:102460000995512CD12CC12CEA2DF0E0FA87E9878F
:102470002B2D30E03C872B87A401440D511D47FCD8
:102480005A95588F4F8B69817A81660D711D67FC53
:102490007A957E876D877989C71608F051CF2C2DE4
:1024A00030E04D815E81420F531FA985BA854A9F56
:1024B000C0014B9F900D5A9F900D1124FC01E80D17
:1024C000F91DF88BEF87852D612C4F89588D420FB0
:1024D000531F5E8B4D8B671408F050C04424439407
:1024E000480E877041F4C1010196EB89FC89E20D29
:1024F000F31DD4901C01D7FE19C0A98DBA8DED91A2
:10250000FC91662D70E0B1E0BB1219C0AB1217C090
:102510002D853E85620F731F0484F585E02D2F8184
:1025200038854D895E89898D9A8D0995DD0C639476
:10253000842DD1CF1E821D821C821B8288CF4B81AD
:102540005C81640F751FAB85BC856A9FC0016B9F62
:10255000900D7A9F900D112469817A81680F791FFF
:102560000684F785E02DEF80F88409851A859D01A2
:102570004F855889898D9A8D0995D8CF570CC3946A
:102580008ACF6A960FB6F894DEBF0FBECDBFDF913B
:10259000CF911F910F91FF90EF90DF90CF90BF9060
:1025A000AF909F908F907F906F905F904F903F90F3
:1025B0002F9008958F929F92AF92CF92EF92FF92B9
:1025C0000F931F93CF93DF93EC01262F898D9A8D64
:1025D000009709F051C06A30D1F41D861C868D89A0
:1025E00048E0849F900111248E859F85820F931F60
:1025F0009F878E8781E090E0DF91CF911F910F91AF
:10260000FF90EF90CF90AF909F908F9008956D3096
:1026100089F3CC88AD888F898823C1F08C859D850E
:1026200036E0C39E800D911D1124488559854817B9
:10263000590764F44E855F851D861C8638E0A39E8D
:10264000C0011124840F951F9F878E87EA88FB881D
:10265000088919894E855F856C857D85CE010E942C
:10266000B5102C898C859D8546E0249F800D911D99
:1026700011249D878C87BECF6A3069F41D861C8625
:10268000FC013896E4912D898E859F85E29F800D0F
:10269000911D1124ADCF6D3009F4ACCFFC013496FF
:1026A0003491631708F4A6CF3296E491E61708F444
:1026B000A1CFFC01329685909490462F431B342F76
:1026C00047E0349F800C911C1124F4013296349120
:1026D0003196E4913323A9F1EE2399F1CC88F401EA
:1026E0003596E491AD884F89442301F10E2E000CFC
:1026F000FF0BE30FF11DCE9EA001CF9E500D1124C4
:102700006C857D85460F571F688579856417750729
:102710006CF44E855F851D861C86FC013896E4911D
:10272000AE9E400D511D11245F874E87EA88FB88BD
:10273000088919894E855F856C857D85CE010E944B
:10274000B510F4013496E4912C898C859D85E29F27
:10275000800D911D11248DCF0F931F93CF93DF9385
:102760008C01D0E0C0E0F801EC0FFD1F64916623FE
:1027700041F088EC92E00E94DA12892B11F0219648
:10278000F2CFCE01DF91CF911F910F9108956F92FB
:102790007F928F929F92AF92BF92CF92DF92EF92F1
:1027A000FF920F931F93CF93DF93EC016B015A01BC
:1027B00039014801E881F9810284F385E02D09950A
:1027C000E881F9810288F389E02D87019301A50151
:1027D000B601CE010995A501480D591D4150510979
:1027E000E881F9810288F389E02D9301B601CE01D9
:1027F0000995E881F9810088F189E02D9401A5010E
:10280000B601CE010995C60CD71CB60161507109FD
:10281000E881F9810088F189E02D9401A501CE01BC
:102820000995E881F9810688F789E02DCE01DF91CD
:10283000CF911F910F91FF90EF90DF90CF90BF90BD
:10284000AF909F908F907F906F9009946F927F923E
:102850008F929F92AF92BF92CF92DF92EF92FF92B0
:102860000F931F93CF93DF935C01EB016A01490142
:1028700038018701DC01ED91FC916217730719F5AE
:10288000641675062CF0962D872D3A01C92ED82E88
:102890009601261937092F5F3F4F048CF58DE02DE7
:1028A000A301BE01C5010995DF91CF911F910F9141
:1028B000FF90EF90DF90CF90BF90AF909F908F9060
:1028C0007F906F9008954615570591F426173707A6
:1028D00024F0892D4B01C22FD82F9E0128193909C8
:1028E0002F5F3F4F068CF78DE02DA601B401DACFA4
:1028F0000284F385E02D0995D501ED91FC910488C2
:10290000F589E02D83019401A601BE01C501099559
:10291000D501ED91FC910688F789E02DC501DF9185
:10292000CF911F910F91FF90EF90DF90CF90BF90CC
:10293000AF909F908F907F906F900994EF92FF924D
:102940000F931F93DC011A960D911C911B971896FB
:102950002D913C911997ED91FC9100A0F1A1E02DF2
:102960007B0150E040E070E060E009951F910F911D
:10297000FF90EF9008954F925F926F927F928F92A7
:102980009F92AF92BF92CF92DF92EF92FF920F93FE
:102990001F93CF93DF936C012B015A01390148013A
:1029A000DC01ED91FC910284F385E02D0995E201B3
:1029B000640C751CD601ED91FC91C615D7055CF42D
:1029C0000088F189E02D87019401A501BE01C601AF
:1029D00009952196EFCF0688F789E02DC601DF9192
:1029E000CF911F910F91FF90EF90DF90CF90BF900C
:1029F000AF909F908F907F906F905F904F900994D1
:102A00008F929F92AF92BF92CF92DF92EF92FF92FE
:102A10000F931F93CF93DF93EC015B014A01690190
:102A2000E881F9810284F385E02D099595012C0D4B
:102A30003D1D21503109E881F9810488F589E02D97
:102A400078018401A401B501CE010995E881F981DD
:102A50000688F789E02DCE01DF91CF911F910F916C
:102A6000FF90EF90DF90CF90BF90AF909F908F90AE
:102A700009948F929F92AF92BF92CF92DF92EF9282
:102A8000FF920F931F93CF93DF93EC015B014A01F9
:102A900069017801E881F9810284F385E02D0995C7
:102AA000C80CD91C860101501109E881F9810488FC
:102AB000F589E02D9501A401B501CE010995E881C4
:102AC000F9810688F789E02DCE01DF91CF911F9122
:102AD0000F91FF90EF90DF90CF90BF90AF909F90BD
:102AE0008F900994EF92FF920F931F93DC01ED9169
:102AF000FC9100A0F1A1E02D09951F910F91FF908D
:102B0000EF9008950F931F93DC01ED91FC91068CDB
:102B1000F78DE02D09951F910F9108950F931F9345
:102B2000DC01ED91FC91048CF58DE02D09951F9150
:102B30000F9108952F923F924F925F926F927F92E2
:102B40008F929F92AF92BF92CF92DF92EF92FF92BD
:102B50000F931F93CF93DF93CDB7DEB728970FB6B0
:102B6000F894DEBF0FBECDBF3C017E836D835887D6
:102B70004F8369019A01220F331F2F5F3F4FAB0133
:102B80008F819885481B590B8601B30188EC92E030
:102B90000E948E1581E090E02C012F813885421A29
:102BA000530AC9019195819591099C01220F331F08
:102BB0003C832B832F80388481E090E09A83898343
:102BC000F12CE12C57FC0DC08F81988501979887D7
:102BD0008F832B813C812E5F3F4F3C832B83420EA2
:102BE000531E3FEFE31AF30A89819A8102969A8372
:102BF0008983480E591E2F8138852E153F050CF408
:102C000066C04901880C991C3FEF831A930A86011C
:102C10009401AD80BE808F819885A81AB90AA5015C
:102C2000B3016E0D7F1D88EC92E00E948E15940119
:102C3000A501B3016E197F0988EC92E00E948E1500
:102C40002F8138852215330519F1AA24A394B12CBC
:102C5000AE18BF088D819E81A80EB91EB301620D0A
:102C6000731D860189809A8092E0891A91089401E7
:102C7000A50188EC92E00E948E15B30162197309D8
:102C80009401A50188EC92E00E948E152F80388473
:102C90002F813885E216F3060CF494CF28960FB6F0
:102CA000F894DEBF0FBECDBFDF91CF911F910F9182
:102CB000FF90EF90DF90CF90BF90AF909F908F905C
:102CC0007F906F905F904F903F902F9008952F814D
:102CD00038852215330509F0B8CFE0CFDC01ED913E
:102CE000FC910084F185E02D09943F924F925F9210
:102CF0006F927F928F929F92AF92BF92CF92DF920C
:102D0000EF92FF920F931F93CF93DF935C017B01B0
:102D10004A016901390187E0680E711C93E07594DE
:102D200067949A95E1F72B01400E511E10E000E0E8
:102D3000312CD0E0C0E0CE0187709927330C892B6D
:102D400059F4FE0183E0F595E7958A95E1F7E00FE8
:102D5000F11FE80DF91D349037FE0AC021E030E084
:102D6000A701B5016C0F7D1F88EC92E00E946E16E2
:102D70002196CC16DD06F9F68FEFE81AF80A060D53
:102D8000171DE414F504A9F6DF91CF911F910F915F
:102D9000FF90EF90DF90CF90BF90AF909F908F907B
:102DA0007F906F905F904F903F9008952F923F9249
:102DB0004F925F926F927F928F929F92AF92BF924B
:102DC000CF92DF92EF92FF920F931F93CF93DF93F7
:102DD000EC0181E090E07C01EC1AFD0A6624772486
:102DE0006C1A7D0A660C771CAE01495C5F4F21E0CE
:102DF00030E060E570E088EC92E00E946E1647E3F8
:102E000050E04C1B5D0B21E030E060E570E088ECA9
:102E100092E00E946E16BE01605B7F4F21E030E0C1
:102E200047E350E088EC92E00E946E1660E570E0A7
:102E30006C1B7D0B21E030E047E350E088EC92E032
:102E40000E946E1644244394512C10E000E040E5AB
:102E5000242E312CF7FC06C0219782E0680E711CED
:102E6000E60CF71C0F5F1F4F82E0480E511CE40C6C
:102E7000F51C480180E5880E911C21E030E06E01D0
:102E800087E3C80ED11CA601B40188EC92E00E9431
:102E90006E165101A01AB10A21E030E0A601B50179
:102EA00088EC92E00E946E1621E030E087E3C82EA5
:102EB000D12CCC1ADD0AA601B40188EC92E00E9464
:102EC0006E1621E030E0A601B50188EC92E00E9488
:102ED0006E16680187E3C80ED11C21E030E0A60120
:102EE0005E0180E5A80EB11CB50188EC92E00E945D
:102EF0006E1621E030E0A6016101CC1ADD0AB601B0
:102F000088EC92E00E946E1697E3892E912C801A2D
:102F1000910A21E030E0A401B50188EC92E00E9422
:102F20006E1621E030E0A401B60188EC92E00E9428
:102F30006E160C171D070CF48DCFDF91CF911F91EA
:102F40000F91FF90EF90DF90CF90BF90AF909F9048
:102F50008F907F906F905F904F903F902F9008954B
:102F60002F923F924F925F926F927F928F929F9299
:102F7000AF92BF92CF92DF92EF92FF920F931F9387
:102F8000CF93DF9300D000D000D0CDB7DEB73C01A7
:102F90006A013E832D83FC82EB825801A41AB50A94
:102FA000B7FE03C0B194A194B1088D809E80861AAB
:102FB000970A97FE03C09194819491088A149B0408
:102FC0005CF0902F812F0D811E819D838E839C2D1F
:102FD0008D2D6B01692F782F0C151D055CF09D81DF
:102FE0008E817E836D83692F782F902F812F8601AC
:102FF000C92ED82E1601201A310A2B012D813E81AF
:10300000421A530A57FE03C051944194510871016A
:1030100037FE03C03FEFE31AF30AF594E7948D817E
:103020009E81861797075CF5A1E0B0E0BA83A9837B
:10303000C016D1064CF1D301ED91FC910484F585C5
:10304000E02D2B813C81A8016D817E818A149B0437
:103050001CF04D815E81B801C3010995E418F508A3
:10306000F7FE0AC02D813E8189819A81280F391F80
:103070003E832D83E20CF31C0F5F1F4FD9CF2FEF40
:103080003FEF3A832983D4CF26960FB6F894DEBF5C
:103090000FBECDBFDF91CF911F910F91FF90EF90A9
:1030A000DF90CF90BF90AF909F908F907F906F9068
:1030B0005F904F903F902F90089508952091F401D4
:1030C000260F3327331F21323105ECF420911802EB
:1030D000FC0190E080E0243069F082E00895A09146
:1030E000F4012191AC014C525E4FA40FB52FB11DDC
:1030F0002C930196861798F38091F401680F6093E2
:10310000F40180E0089581E008951092180281E0B2
:1031100080931A021092190261E082E10E94390B39
:1031200061E083E10E94390BE9EBF0E080818E7F62
:10313000808380818D7F808388E48093B80085E4DC
:103140008093BC000895CF93DF9391E09093D301D7
:103150008823B9F0C091B800D091BA008091BC002A
:103160008A7B8093BC0060E082E10E94390B60E0C2
:1031700083E10E94390B0E948518D093BA00C09356
:10318000B800DF91CF910895E0914402809143020D
:10319000E81730F4F0E0E255FE4F808190E00895AA
:1031A0008FEF9FEF089590914402809143022FEF9B
:1031B0003FEF981748F4E92FF0E0E255FE4F2081E9
:1031C00030E09F5F90934402C901089580914302CB
:1031D00090914402891B990B0895CF92DF92EF9250
:1031E000FF920F931F93CF93DF937C01CB018A0152
:1031F0002091A602222389F0EB016B01C40ED51E9B
:10320000CC15DD0569F06991D701ED91FC91019034
:10321000F081E02DC7010995F3CF642F0E945E185D
:10322000C801DF91CF911F910F91FF90EF90DF9038
:10323000CF900895CF93DF931F92CDB7DEB7698308
:103240002091A6022223F9F02091A302203258F007
:1032500021E030E0FC013383228390E080E00F9096
:10326000DF91CF9108958091A402E82FF0E0E2571A
:10327000FE4F998190838F5F8093A4028093A30275
:1032800081E090E0ECCF61E0CE0101960E945E18F3
:10329000F7CFCF92DF92EF92FF920F931F93CF93CE
:1032A000DF93D091A30281E0D13208F09CC0C0919D
:1032B000A5020E948C0D6B017C0180911802811186
:1032C0006CC082E08093180281E080931A028FEF35
:1032D0008093170210923C02D0933B02AEE8B1E01B
:1032E000EBE1F2E080E0D8138DC010923D028091B6
:1032F0003D02CC0FC82BC0933D0280911902813052
:1033000009F084C0109219020E948C0D6B017C019F
:1033100080913D028093BB008091CF019091D001BC
:10332000A091D101B091D201892B8A2B8B2BA1F0D6
:103330000E948C0D0091CF011091D0012091D101FC
:103340003091D2016C197D098E099F090617170764
:103350002807390708F442C08091BC0083FDD8CF0C
:1033600085EC8093BC000E948C0D6B017C018091E8
:103370001802823009F44CC0809117028F3F09F483
:1033800069C080911702803209F466C080911702EB
:10339000803309F463C084E026C08091CF0190910E
:1033A000D001A091D101B091D201892B8A2B8B2B16
:1033B00009F483CF0E948C0D0091CF011091D001B0
:1033C0002091D1013091D2016C197D098E099F099C
:1033D000061717072807390708F06FCF8091CE012D
:1033E0000E94A31885E01092A4021092A3021092EA
:1033F000A602DF91CF911F910F91FF90EF90DF9088
:10340000CF9008959D9191938F5F6DCF85EEA9CF59
:103410008091CF019091D001A091D101B091D201C2
:10342000892B8A2B8B2B09F4A2CF0E948C0D009143
:10343000CF011091D0012091D1013091D2016C19AE
:103440007D098E099F09061717072807390708F015
:103450008ECFC4CF80E0C7CF82E0C5CF83E0C3CF9B
:10346000EF92FF920F931F93CF93DF937C01C62FB0
:103470008091E5029091E602009709F459C02091ED
:10348000E90231E03093A6022093A5021092A40233
:103490001092A302DC01ED91FC910190F081E02DEE
:1034A00060E009958701EE24E394F12CD1E0C1504E
:1034B0008091E5029091E602CF3F91F1B0E2EB16E8
:1034C000F104D8F00E9449198091E5029091E6023A
:1034D0002091E902D093A6022093A5021092A402A3
:1034E0001092A302DC01ED91FC910190F081E02D9E
:1034F00060E00995EE24E394F12C8091E50290912F
:10350000E602F8016491DC01ED91FC910190F081FB
:10351000E02D0995BFEFEB1AFB0A0F5F1F4FC7CFD6
:10352000DF91CF911F910F91FF90EF900C9449196B
:10353000E091F502F091F60290818091FB02809576
:10354000892380838701C15008F438C0F801849131
:103550002091E3023091E402232B29F00E94951080
:103560000F5F1F4FF0CF28E030E040E8E091F1021C
:10357000F091F2029091F902582F5423D9F0508122
:10358000952B9083E091F302F091F4029081509199
:10359000FA02952B9083E091F302F091F4025081AE
:1035A0009091FA0290959523908346952150310988
:1035B000E9F6D6CF508190959523E3CFDF91CF9157
:1035C0001F910F91FF90EF9008951F93CF93DF937A
:1035D000EC018D8D9E8D009721F1162F29A131E0F0
:1035E0003093A6022093A5021092A4021092A30287
:1035F000DC01ED91FC910190F081E02D60E00995F6
:103600008D8D9E8DDC01ED91FC910190F081E02D7E
:10361000612F09958D8D9E8DDF91CF911F910C9417
:103620004919ADA5BEA59C918BA9809589238C9342
:103630008B8D9C8D892B31F0862FDF91CF911F913F
:103640000C94951028E030E080E8A9A5BAA599A9C6
:10365000462F4823C1F04C91942B9C93ABA5BCA55D
:103660009C914AA9942B9C93ABA5BCA54C919AA97B
:10367000909594239C9386952150310931F7DF91E1
:10368000CF911F9108954C9190959423E6CFDF92AE
:10369000EF92FF920F931F93CF93DF938091E502F8
:1036A0009091E602892B09F4A5C02091FD0230918A
:1036B000FE024091FF025091000360E074E284EF4B
:1036C00090E00E946937205131094109510956950E
:1036D0004795379527952093B80064E08DE395E1F1
:1036E0000E94301A8091CC029091CD0280349105D5
:1036F00009F097C060E288EC92E00E94E51A6091C0
:10370000CC02615E88EC92E00E94E51A2091CE0224
:103710003091CF02C901079697FD079633E0959542
:1037200087953A95E1F72091CC023091CD02829FA6
:103730008001839F100D929F100D1124C091E7020C
:10374000D091E8028091E5029091E6020C0F1D1FD6
:10375000009709F498C02091E90231E03093A60265
:103760002093A5021092A4021092A302DC01ED9115
:10377000FC910190F081E02D60E40995EE24E39442
:10378000F12CDD24D3948091E5029091E6020C1790
:103790001D0709F44FC0B0E2EB16F104D8F00E9407
:1037A00049198091E5029091E6022091E902D092B8
:1037B000A6022093A5021092A4021092A302DC019B
:1037C000ED91FC910190F081E02D60E40995EE24EB
:1037D000E394F12C8091E5029091E6026991DC017D
:1037E000ED91FC910190F081E02D0995BFEFEB1A6E
:1037F000FB0AC9CF8091E3029091E402892B31F05A
:1038000080910603909107030E949C10E091F702BB
:10381000F091F80290818091FC0280958923808349
:103820005CCF60E088EC92E00E94E51A6091CC02E7
:10383000615068CF0E9449198091E5029091E6029B
:10384000892B09F461C0209101033091020340915A
:1038500003035091040360E074E284EF90E00E945F
:1038600069372051310941095109569547953795D6
:1038700027952093B800DF91CF911F910F91FF9072
:10388000EF90DF900895E091F502F091F6028081CB
:103890009091FB02892B80830C171D0769F2899197
:1038A0002091E3023091E402232B19F00E9495103D
:1038B000F3CF28E030E040E8E091F102F091F2022D
:1038C0009091F902582F5423D9F05081952B908371
:1038D000E091F302F091F40290815091FA02952B5D
:1038E0009083E091F302F091F40250819091FA02FA
:1038F000909595239083469521503109E9F6CCCFD8
:10390000508190959523E3CFE091F702F091F80272
:1039100080819091FC02892B8083ADCF1F93CF9340
:10392000DF93EC01162F8D8D9E8D892BB1F12DA982
:103930003EA94FA958AD60E074E284EF90E00E9488
:1039400069372051310941095109569547953795F5
:1039500027952093B80066EA111167EACE010E940C
:10396000E51A8D8D9E8D892B41F129AD3AAD4BAD78
:103970005CAD60E074E284EF90E00E946937205112
:103980003109410951095695479537952795209357
:10399000B800DF91CF911F9108958B8D9C8D892B5D
:1039A00021F08EAD9FAD0E949C10EFA5F8A99081EB
:1039B0008CA9809589238083CECFEFA5F8A980813B
:1039C0009CA9892B8083E5CF90E080E0089531E0C9
:1039D00020E08091840290918502181619060CF05F
:1039E00030E0832F922F20918602309187021216A9
:1039F00013060CF401962091880230918902121668
:103A000013060CF401960895EF92FF920F931F9303
:103A100020E030E040E452E40E94993920E030E0B8
:103A200048EC52E40E943A380E94AC38EE24E39409
:103A3000F12C03E010E09B0143E150E068E470E00A
:103A400088EC92E00E94BB141F910F91FF90EF90C1
:103A500008952091CE023091CF02C901079697FDBB
:103A6000079623E0959587952A95E1F72091CC025A
:103A70003091CD02829FA001839F500D929F500DE7
:103A8000112470E060E08091E7029091E8020C94CC
:103A9000353BFC0101900020E9F73197AF01481B4D
:103AA000590BBC0188EC92E00C94110ECF93DF937C
:103AB0000E94AC13EC018FE791E00E94491D8C0F2E
:103AC0009D1FDF91CF9108958F929F92AF92BF92E9
:103AD0000F931F93CF93DF93CDB7DEB7A1970FB6A8
:103AE000F894DEBF0FBECDBF19A2423008F44AE001
:103AF0008E010F5D1F4F842E912CB12CA12CA5019E
:103B000094010E946937E62FB901CA01EA30F4F442
:103B1000E05DD801EE938D01232B242B252B79F723
:103B200090E080E0109719F0CD010E94491DA19608
:103B30000FB6F894DEBF0FBECDBFDF91CF911F91BE
:103B40000F91BF90AF909F908F900895E95CE1CF67
:103B5000CF92DF92EF92FF92CF93DF936B017C01C4
:103B60006DE288EC92E00E94DA12EC01662777277A
:103B7000CB016C197D098E099F094AE00E94641DE2
:103B80008C0F9D1FDF91CF91FF90EF90DF90CF9032
:103B90000895BC01990F880B990B97FD0C94A81DF3
:103BA0004AE00C94641D8F929F92AF92BF92CF9285
:103BB000DF92EF92FF92CF93DF936B017C01AC0118
:103BC0009B010E94063A882371F082E891E0DF9120
:103BD000CF91FF90EF90DF90CF90BF90AF909F90EC
:103BE0008F900C94491D46015701E894B7F82FEFC8
:103BF0003FEF4FE75FE7C501B4010E94063A81112C
:103C00000DC02FEF3FEF4FE75FE7C501B4010E9402
:103C1000353818161CF486E891E0D9CF2FEF3FEF26
:103C20004FE75FE4C701B6010E94943918161CF4EF
:103C30008AE891E0CCCF2FEF3FEF4FE75FECC70171
:103C4000B6010E94353887FDF3CF20E030E0A901AE
:103C5000C701B6010E943538D0E0C0E087FF0AC036
:103C60006DE288EC92E00E94DA12EC01F7FAF0942F
:103C7000F7F8F0942DEC3CEC4CE45DE3C701B601A1
:103C80000E94C9374B015C010E94B3386B017C0173
:103C90000E94E2389B01AC01C501B4010E94C83703
:103CA0004B015C014AE0C701B6010E94641DC80FC8
:103CB000D91F6EE288EC92E00E94DA12C80FD91F79
:103CC00020E030E040E251E4C501B4010E9499399E
:103CD0000E94B33890E080E04AE00E94641D8C0F9F
:103CE0009D1FDF91CF91FF90EF90DF90CF90BF901D
:103CF000AF909F908F9008950E94303B85ED809308
:103D0000BC008091CF019091D001A091D101B091E0
:103D1000D2010796A11DB11D23E0B695A7959795F1
:103D200087952A95D1F72091BC0024FD03C01092FD
:103D3000180208954091CF015091D0016091D101B6
:103D40007091D201452B462B472B69F30097A105B3
:103D5000B10541F02AE22A95F1F700C00197A109C7
:103D6000B109E1CF8091CE010C94A3181F920F925C
:103D70000FB60F9211242F933F938F939F93AF937E
:103D8000BF9380919B0290919C02A0919D02B09163
:103D90009E0230919A0223E0230F2D3758F50196A9
:103DA000A11DB11D20939A0280939B0290939C02C7
:103DB000A0939D02B0939E0280919F029091A002D9
:103DC000A091A102B091A2020196A11DB11D809304
:103DD0009F029093A002A093A102B093A202BF9170
:103DE000AF919F918F913F912F910F900FBE0F90A8
:103DF0001F90189526E8230F0296A11DB11DD2CF62
:103E00001F920F920FB60F9211242F933F934F934F
:103E10005F936F937F938F939F93AF93BF93EF9332
:103E2000FF938091AC029091AD02A091AE02B0914F
:103E3000AF02892B8A2B8B2BD1F19091A702E091B5
:103E4000A802F091A9028081892780838091AC0229
:103E50009091AD02A091AE02B091AF021816190672
:103E60001A061B069CF48091AC029091AD02A091C1
:103E7000AE02B091AF020197A109B1098093AC02E3
:103E80009093AD02A093AE02B093AF02FF91EF9179
:103E9000BF91AF919F918F917F916F915F914F9162
:103EA0003F912F910F900FBE0F901F90189580910A
:103EB00022010E94E50DEACF1F920F920FB60F92DA
:103EC00011242F933F934F935F936F937F938F931F
:103ED0009F93AF93BF93EF93FF938091B900887F37
:103EE000803609F44AC0F0F5883209F4A7C018F505
:103EF000803109F49BC0B8F4882309F4F9C08830F4
:103F000009F494C0FF91EF91BF91AF919F918F9170
:103F10007F916F915F914F913F912F910F900FBEC5
:103F20000F901F901895883109F488C0803251F79E
:103F30008093170214C0803409F49DC040F480338C
:103F4000B9F38833F9F68093170285ECB0C0803559
:103F500009F485C0883509F496C0883499F60E9422
:103F60007E1ED0CF883909F48CC038F5883729F007
:103F700050F4883611F0803729F683E080931802D8
:103F80001092160257C0883809F47BC0803919F0A6
:103F9000803809F0B7CF80911602803208F071C0E6
:103FA000E091160281E08E0F809316028091BB0093
:103FB000F0E0EA50FE4F80833DC0803B39F0E0F4F2
:103FC000803A09F479C0883A09F09CCF84E0809364
:103FD00018021092F5011092F401E0914102F09163
:103FE000420209958091F40181110FC081E0809314
:103FF000F4011092D40109C0803C09F4A6CF883C9A
:1040000009F4A3CF883B09F07DCFE091F50181E071
:104010008E0F8093F501F0E0EC52FE4F808180938B
:10402000BB009091F5018091F40129C080913D027F
:104030008093BB0085EC8093BC0064CF90913C02E0
:1040400080913B02981758F5E0913C0281E08E0F79
:1040500080933C02F0E0E55EFD4F8081E9CFE09186
:104060003C0281E08E0F80933C028091BB00F0E027
:10407000E55EFD4F808390913C0280913B02981752
:10408000C8F285E8D8CFE0913C0281E08E0F8093A2
:104090003C028091BB00F0E0E55EFD4F80838091A3
:1040A0001A0281115CCF81E08093190284EA809327
:1040B000BC001092180226CF85EC8093BC001092B1
:1040C000180280911602803230F4E0911602F0E07E
:1040D000EA50FE4F10826091160270E0E0913F02BC
:1040E000F091400286EF91E00995109216020ACFF6
:1040F0001092170234CFACEBB2E013961C921E92D2
:10410000129748EE53E060E070E014964D935D9393
:104110006D937C93179785E491E011969C938E9311
:10412000E8ECF2E01382128220E830E03583248349
:1041300080E490E097838683318720879387828706
:10414000168A158614861786168681E0858B848BE1
:104150002FEF3FEF338B228B318B208B878B108E91
:10416000128E118E87E591E091838083148E138ED9
:10417000B68FA58F10A2178E8FEF84A385A386A379
:1041800087A380A780E89AE1A6E0B0E085AB96AB74
:10419000A7ABB0AF80EA96E8A1E0B0E081AF92AF04
:1041A000A3AFB4AF80E586AF17AE80E090E0A0E2A9
:1041B000B3E48093B8029093B902A093BA02B0938B
:1041C000BB020895CF93DF93CDB7DEB766970FB6E6
:1041D000F894DEBF0FBECDBF789484B5826084BDF5
:1041E00084B5816084BD85B5826085BD85B58160FB
:1041F00085BD80916E00816080936E001092810079
:104200008091810082608093810080918100816033
:1042100080938100809180008160809380008091F4
:10422000B10084608093B1008091B0008160809380
:10423000B00080917A00846080937A0080917A0047
:10424000826080937A0080917A00816080937A0006
:1042500080917A00806880937A001092C10060E0BB
:1042600087E00E94670B60E089E00E94670B60E0D6
:104270008CE00E94670B61E087E00E94390B61E0EF
:1042800089E00E94390B61E08CE00E94390B61E00B
:104290008DE00E94670B61E08DE00E94670B80E477
:1042A00080937C0080917A00806480937A00809172
:1042B0007A0086FDFCCF6091780070917900072E1E
:1042C000000C880B990B611571058105910511F0A2
:1042D0000E9425378091E7029091E802892B09F42A
:1042E00088C00E94291D82E08093EA028091E50245
:1042F0009091E602892B09F00DC561E08091EE02F4
:104300000E94670B61E08091EF020E94670B809131
:10431000EE02082E000C990BFC01E15AFA4EE491D2
:10432000F0E0EE0FFF1FEB5AFA4E259134913093D7
:10433000F6022093F502FC01EF5BFA4EE491E09364
:10434000FB028091EF02082E000C990BFC01E15A50
:10435000FA4EE491F0E0EE0FFF1FEB5AFA4EA591F2
:10436000B491B093F802A093F702FC01EF5BFA4E10
:10437000E491E093FC028C91E82BEC938091E302B2
:104380009091E402892B09F4A4C51FB7F894809199
:104390003E02811127C0E9E6F5E18491EBE4F5E105
:1043A0009491E82FF0E0EE0FFF1FEB5EFA4EA5911F
:1043B000B491EC91E92321F461E08AE00E94390B89
:1043C00061E08AE00E94670B8CB580618CBD8CB582
:1043D00080648CBD61E08DE00E94670B61E08BE042
:1043E0000E94670B80913E028F5F80933E021FBF49
:1043F000AAC42091CE023091CF02C901079697FD41
:10440000079643E0959587954A95E1F72091CC0270
:104410003091CD02AC01429FC001439F900D529F4D
:10442000900D11240E940B3A9093E8028093E702CA
:10443000892B09F056CF0E94291D81E090E09093CE
:10444000DB028093DA029093D9028093D80286EE41
:104450009DE00E94AC130AE110E020E330E04AE462
:104460005DE068E170E08FE090E00E94751608E280
:1044700010E020E530E04AEB5BE068E170E080E3CB
:1044800090E00E9475160E94471B48EC50E060E0E7
:1044900070E084EF91E00E94980B68EC70E080E09F
:1044A00090E00E94B10D48EC50E060E070E088EED2
:1044B00093E00E94980B60E971E080E090E00E9438
:1044C000B10D48EC50E060E070E08CEB92E00E94AF
:1044D000980B68EC70E080E090E00E94B10D48EC31
:1044E00050E060E070E08CE494E00E94980B68E992
:1044F00078E080E090E00E94B10D0E94291D53E019
:10450000452E512C612C712C87E00E94100B90934A
:1045100099028093980289E00E94100B9093970271
:10452000809396028CE00E94100B909395028093EA
:1045300094028091930281110C94173660911E01B0
:1045400070911F01809120019091210180908E0235
:1045500090908F02A0909002B0909102C0901A01AA
:10456000D0901B01E0901C01F0901D01209192025F
:10457000222309F437C527E137EB41E558E30E94D0
:10458000C83760931E0170931F01809320019093A0
:10459000210127E137EB41E558E3C501B4010E9451
:1045A000C93760938E0270938F028093900290932C
:1045B000910227E137EB41ED58E3C701B6010E94B4
:1045C000C8376B017C0120E030E0A9010E949439DA
:1045D000181644F4C0921A01D0921B01E0921C01FB
:1045E000F0921D010E94E71CBC01990F880B990BEA
:1045F0000E94E43827E137EB41ED58E30E949939F6
:1046000027E137EB41E558E30E94C9379B01AC0134
:104610006091160170911701809118019091190114
:104620000E94C83760931601709317018093180198
:104630009093190127E137EB41ED58E360911201A6
:104640007091130180911401909115010E94C83757
:104650006B017C0120E030E0A9010E94943918161A
:1046600044F4C0921201D0921301E0921401F0922E
:1046700015012CEA35EC47E256E360918A0270910D
:104680008B0280918C0290918D020E94C9376093B9
:104690008A0270938B0280938C0290938D0220E0AB
:1046A00030E040E251E460918E0270918F0280917F
:1046B0009002909191020E94943987FD69C00E94F6
:1046C000E71CBC01990F880B990B0E94E43860939A
:1046D0008E0270938F028093900290939102C0900B
:1046E000D002D090D10250E2C50ED11C0D2C000C8E
:1046F000EE08FF0885E1C816D104E104F1040CF4CA
:10470000D5C40E94D636A70196012451310941092A
:1047100051090E9437376B017C01A4E1CA0ED11CFC
:10472000E11CF11C80908E0290908F02A09090026C
:10473000B090910220E030E0A901C501B4010E94CF
:10474000943920E030E040E05FE387FDB5C4C50167
:10475000B4010E94C9370E94AC38660F771F6C57AE
:104760007D4FFB01D182C08280911101882341F0ED
:1047700042E350E060E070E088EC90E00E94980B2B
:1047800010928E0210928F0210929002109291025B
:10479000C0901E01D0901F01E0902001F0902101F7
:1047A0002DE73FEF4FE951E4C701B6010E9494396C
:1047B000181654F423E830E040EA51E4C701B6018A
:1047C0000E94353887FD3CC080901A0190901B01F3
:1047D000A0901C01B0901D0127E93FEF4FE951E483
:1047E000C501B4010E949439181654F429E630E04A
:1047F00040EA51E4C501B4010E94353887FD20C06C
:104800008090160190901701A0901801B0901901A6
:104810002CEC3FEF4FE951E4C501B4010E949439FB
:104820001816D4F424E330E040EA51E4C501B401A1
:104830000E94353887FF10C080911101882361F0F4
:1048400080911101882341F042E350E060E070E084
:1048500088EC90E00E94980B20E030E040EA51E4C0
:10486000C701B6010E94353818162CF50E94E71CC6
:104870001816190604F120E030E040EA51E4609196
:104880001A0170911B0180911C0190911D010E94E1
:104890003538181684F420E030E040EA51E46091A5
:1048A00016017091170180911801909119010E94D1
:1048B000353818161CF081E08093830220E030E048
:1048C00040EA51E4C701B6010E949439181654F524
:1048D0000E94E71C892B31F520E030E040EA51E4EA
:1048E00060911A0170911B0180911C0190911D0132
:1048F0000E9494391816B4F420E030E040EA51E404
:104900006091160170911701809118019091190121
:104910000E949439181634F41092830260E08DE0FE
:104920000E94390B20E030E0A901C701B6010E94C6
:1049300035381816F4F420E030E0A9016091160132
:104940007091170180911801909119010E943538DA
:1049500018167CF420E030E0A90160911A017091F2
:104960001B0180911C0190911D010E943538181681
:104970005CF181E08093930280911101882321F101
:1049800044EF51E060E070E084EF91E00E94980B0A
:1049900066E272E080E090E00E94B10D44EF51E0E9
:1049A00060E070E080E991E00E94980B66E272E0BE
:1049B00080E090E00E94B10D48E552E060E070E0D8
:1049C0008CE291E00E94980B0E94291D1092D50262
:1049D0001092D4021092D7021092D60280919802BF
:1049E00090919902892BE1F480918202882309F445
:1049F00068C380918102811113C08091800281116E
:104A00000FC080911101882341F042E350E060E043
:104A100070E088EC90E00E94980B81E08093810226
:104A20008091960290919702892B09F580918202DC
:104A3000882309F4B8C380917902811118C080914C
:104A4000800291E089278093800280911101882360
:104A500041F040E550E060E070E088E592E00E94BF
:104A6000980B6CE370E080E090E00E94B10D8091C3
:104A7000940290919502892B09F058C08091110100
:104A8000882341F040E550E060E070E088EE93E07C
:104A90000E94980B80918202811105C08091790259
:104AA000882309F4EDC310927602109275021092D9
:104AB0007402109273021092720281E0809371026C
:104AC00010920E0110920D0120E030E040EA51EC0E
:104AD0002093090130930A0140930B0150930C017C
:104AE0001092700210926F0210926E0210926D027C
:104AF0001092810210926C0210926B028093080156
:104B00001092820210926A02109269021092680258
:104B1000109279021092670210926602109280023F
:104B20006CE370E080E090E00E94B10D2DEC3CEC75
:104B30004CEC5DE3609104017091050180910601E8
:104B4000909107010E94C9376B017C01C09204015A
:104B5000D0920501E0920601F09207016091D00227
:104B60007091D1026A5F7F4F072E000C880B990B62
:104B70000E94E4389B01AC01C701B6010E94943940
:104B8000181694F480E090E0A0ECB0EC809304015F
:104B900090930501A0930601B093070180916502EF
:104BA00091E089278093650280919202882319F011
:104BB00081E080936502609104017091050180910C
:104BC0000601909107010E94AC38CB01209165024B
:104BD000211183C321E030E043E050E066E070E063
:104BE0000E949A152AE939E949E95EE36091B80221
:104BF0007091B9028091BA029091BB020E94C837AD
:104C00006093B8027093B9028093BA029093BB028A
:104C100020E030E040E052EC0E94353887FF14C0BD
:104C20006091D0027091D102605E7F4F072E000C20
:104C3000880B990B0E94E4386093B8027093B90214
:104C40008093BA029093BB026091B8027091B9024E
:104C50008091BA029091BB020E94AC38CB0105E072
:104C600010E020E230E041E452E165E070E00E94B3
:104C7000751600E110E020E830E041E451E167E022
:104C800070E090E080E00E94751680918202882397
:104C900011F40C94A72FE0906902F0906A02C7010A
:104CA0006AE070E00E949A37072E000C880B990B7F
:104CB0000E94E43820E030E040E05FE3B7EFEB161D
:104CC000BFEFFB060CF497C30E94C9370E94AC38B3
:104CD0008B017093670260936602809179029091D4
:104CE000810291118BC38111E2C4809180028111F4
:104CF000DEC4809175029091760220917202222387
:104D000009F451C5019708F4B8C3909376028093D3
:104D10007502B9C38CE38093E902109244021092A9
:104D200043021092A4021092A3020E94851883EEFF
:104D30009DE0909342028093410284EE9DE0909327
:104D4000400280933F028091F00287FD1EC061E027
:104D50000E94670B61E08091F0020E94390B61E0D4
:104D600070E080E090E00E94B10D60E08091F00280
:104D70000E94390B6AE070E080E090E00E94B10D83
:104D800061E08091F0020E94390B8091E5029091E0
:104D9000E602892B09F4E0C02091FD023091FE0269
:104DA0004091FF025091000360E074E284EF90E0D4
:104DB0000E9469372051310941095109569547959B
:104DC000379527952093B80064E086EB9BE00E941E
:104DD000301A6091CE02615088EC92E00E94E51A90
:104DE00064E082EB9BE00E94301A8091EA0260E16D
:104DF000813009F064E188EC92E00E94E51A64E0F9
:104E00008EEA9BE00E94301A8FE880930503809120
:104E1000CC029091CD028038910509F0B4C0809108
:104E2000CE029091CF028034910509F0BCC08091F0
:104E3000EA02813009F0CAC08FE98093050312E1CC
:104E40006AED88EC92E00E94E51A612F88EC92E00E
:104E50000E94E51A61E888EC92E00E94E51A6091F0
:104E6000050388EC92E00E94E51A69ED88EC92E077
:104E70000E94E51A8091EA0262E2813009F061EF56
:104E800088EC92E00E94E51A66E088EA9BE00E94C6
:104E9000301A8091E5029091E602892B09F498C0BE
:104EA00020910103309102034091030350910403C8
:104EB00060E074E284EF90E00E946937205131098C
:104EC0004109510956954795379527952093B80084
:104ED000B2CA61E08091EC020E94670B61E08091B0
:104EE000ED020E94670B8091EC02082E000C990BDA
:104EF000FC01E15AFA4EE491F0E0EE0FFF1FEB5A8D
:104F0000FA4E259134913093F2022093F102FC0184
:104F1000EF5BFA4EE491E093F9028091ED02082EE6
:104F2000000C990BFC01E15AFA4EE491F0E0EE0F0F
:104F3000FF1FEB5AFA4EA591B491B093F402A093DF
:104F4000F302FC01EF5BFA4EE491E093FA028C91DC
:104F5000E095E823EC93F7CE8091E3029091E40290
:104F6000892B31F080910603909107030E949C10D9
:104F7000E091F702F091F80290818091FC02809517
:104F80008923808321CF8036910589F48091CE02D8
:104F90009091CF02409739F48091EA02813029F450
:104FA00080E18093050312E04BCF8FEAFACF803483
:104FB0009105C9F78091CE029091CF02809799F721
:104FC0008091EA02813011F480E137CF8FEC35CF48
:104FD000E091F702F091F80280819091FC02892B18
:104FE000808329CA2FE632E143E859E30E94C8379B
:104FF00060931E0170931F01809320019093210103
:105000002FE632E143E859E3C501B4010E94C937F4
:1050100060938E0270938F0280939002909391021E
:1050200027E137EB41E559E3C701B6010E94C837D4
:105030006B017C0120E030E0A9010E949439181630
:1050400044F4C0921A01D0921B01E0921C01F0922C
:105050001D010E94E71CBC01990F880B990B0E944F
:10506000E43827E137EB41ED58E30E94993927E115
:1050700037EB41ED58E30E94C9379B01AC016091C9
:1050800016017091170180911801909119010E94E9
:10509000C83760931601709317018093180190939D
:1050A000190127E137EB41E559E3C8CA44E1C42EB1
:1050B000D12CE12CF12C36CBC501B4010E94C837AC
:1050C0004ACB80911101882341F040E550E060E037
:1050D00070E08CE291E00E94980B80917F02811138
:1050E0000AC081E080937F026CE370E080E090E092
:1050F0000E94B10D95CC80917C0290917D0220910F
:105100007E02222309F120910F01309110012F5FBF
:105110003F4F4BE0429FF001439FF00D112468E5A3
:10512000689FA001699F500D1124E40FF51FEB5AF1
:10513000FD4E45915491452B11F421E030E0309320
:10514000100120930F0117C08730910531F510929F
:105150007D0210927C0280917C0290917D0228E574
:10516000289FF001299FF00D1124E05AFD4E259152
:105170003491232B11F7019644E6489F9001499FF3
:10518000300D112480910F0190911001820F931F17
:1051900090937B0280937A02A7CF019690937D0231
:1051A00080937C02D8CF80911101882341F040E5A3
:1051B00050E060E070E088E592E00E94980B8091FA
:1051C0007F02882309F440C040910F0150911001E3
:1051D00020917C0230917D0268E5629FC001639F4F
:1051E000900D1124805A9D4EFC014130510511F45F
:1051F0000C94503665917491672B71F0F9013196DA
:10520000A4E6AE9FB001AF9F700D1124640F751F0F
:105210007093780260937702FC0185919491892BB9
:1052200009F41FCC2F5F3F4F64E6629FC001639F6C
:10523000900D1124480F591F50937B0240937A021E
:1052400081E080937E020DCC81E080937F02809389
:105250007E0281E090E09093100180930F0186E040
:1052600090E090937D0280937C028DEB92E090938E
:1052700078028093770290937B0280937A02F1CB3D
:1052800080917E02811115C010927F0210927D02E2
:1052900010927C0210927B0210927A021092780295
:1052A0001092770281E090E09093100180930F01BB
:1052B00037CC10927E0220917C0230917D022F5FCC
:1052C0003F4F44E6429FC001439F900D1124019639
:1052D00090937B0280937A02E1CF21E030E043E0BB
:1052E00050E066E070E00E949A1520E030E040E077
:1052F00050E4609104017091050180910601909144
:1053000007010E94C8370E94AC38CB0130E020E092
:1053100043E050E066E070E00E949A15C090B80249
:10532000D090B902E090BA02F090BB0220E030E0E9
:10533000A901C701B6010E94943920E030E040E0A5
:105340005FE387FD40C0C701B6010E94C9370E94D4
:10535000AC3825E030E040E050E00E9437370DE403
:1053600012E025E6E22E22E0F22E672B682B692B55
:1053700079F58090D0029090D102092C000CAA08F7
:10538000BB0860E070E0CB01181419041A041B0478
:1053900034F40E94D636A50194010E943737D80113
:1053A0006D937C930E94D6362AE030E040E050E0D6
:1053B0000E943737F801738362830C5F1F4FE0163A
:1053C000F106B9F60FCCC701B6010E94C837BFCFAE
:1053D000D80112964D915C9113976D917C9121E0CB
:1053E00030E088EC92E00E94E50F0C5F1F4FE01662
:1053F000F10671F7F7CB0E94C83768CC811157C10D
:1054000080918002811171CC80916B0290916C022D
:1054100020910801222369F00196800F911F90933B
:105420006C0280936B020C970CF45FCC1092080115
:105430005CCC0197801B910B90936C0280936B0264
:10544000181619060CF451CC81E0809308011092D3
:10545000810280911101882341F042E350E060E035
:1054600070E084E690E00E94980BEFEFEE1AFE0ADF
:10547000F0926A02E092690238CC109276021092A1
:1054800075021092720280917302909174020296DA
:10549000909374028093730280916F0290917002D6
:1054A00004969093700280936F0220E030E040E811
:1054B0005FE36091090170910A0180910B01909165
:1054C0000C010E94C9376B017C01B801012E000C50
:1054D000880B990B0E94E4389B01AC01C701B6010F
:1054E0000E94C9376093090170930A0180930B01F0
:1054F00090930C0120914B0230914C022E5F3F4F54
:10550000200F311F30934C0220934B0260914902CF
:1055100070914A026E5F7F4F060F171F10934A0269
:1055200000934902809181028111C1C08091D00213
:105530009091D10240916E02442349F0AC01421B8C
:10554000530B9A01245131092B31310558F0209128
:105550006D02222309F4ABC0801B910B44974B973B
:1055600008F0A5C081E080937902809381028EEFDC
:105570009FEF90936C0280936B02809111018823BE
:1055800021F148E250E060E070E084EF91E00E9499
:10559000980B62E370E080E090E00E94B10D48E279
:1055A00050E060E070E08EE591E00E94980B62E3CD
:1055B00070E080E090E00E94B10D4CE350E060E0CC
:1055C00070E088EC90E00E94980B009169021091C5
:1055D0006A028091470290914802801791073CF43B
:1055E000109348020093470281E08093680220E014
:1055F00030E040E751E460911A0170911B01809105
:105600001C0190911D010E94C9376B017C0120E0B3
:1056100030E048EC52E40E94353887FFD3C0C09296
:105620001A01D0921B01E0921C01F0921D0120E0B2
:1056300030E040E85FE360911601709117018091BE
:105640001801909119010E94C83760931601709358
:1056500017018093180190931901B801110F880B5D
:10566000990B0E94E4382AE037ED43E25BE30E94A5
:1056700099399B01AC016091000170910101809109
:105680000201909103010E94C8376B017C0120E068
:1056900030E040EA50E40E949439181644F4C09275
:1056A0000001D0920101E0920201F09203016091A9
:1056B000D0027091D10280917302909174026817A8
:1056C000790721F4109274021092730280916F0294
:1056D000909170026817790721F41092700210926D
:1056E0006F02072E000C880B990B0E94E438209162
:1056F000090130910A0140910B0150910C010E9467
:10570000353881110CC080E090E0A0E0B3EC8093CC
:10571000090190930A01A0930B01B0930C018091B1
:105720008102882309F45BC080916B0290916C0226
:105730006AE170E0681B790B08E110E020E330E0DB
:1057400041EB50E18AE090E00E947516F12CE12CCB
:105750008091D0029091D1029C0197FF02C02D5FF1
:105760003F4F35952795359527952E153F050CF418
:1057700047C0C701B3E0880F991FBA95E1F7E091E0
:105780007302F091740206E010E028E030E04BEA8A
:1057900050E162E370E08E1B9F0B0E9475169FEF35
:1057A000E91AF90AD5CF01968330910509F0ADCAFF
:1057B00082E090E0909376028093750281E080937E
:1057C000720261CE80E090E0A8ECB2E480931A010E
:1057D00090931B01A0931C01B0931D0128CFE09171
:1057E0007502F0917602EE0FFF1FEB5CFE4F4081D9
:1057F000518108E110E020E330E06AE170E0A2CFDF
:1058000020914B0230914C022F503109821793079F
:1058100034F410924C0210924B0210926E0280915E
:105820006E0281111DC00E94D63629E030E040E0B2
:1058300050E00E943737672B682B692B69F4809101
:10584000490290914A0289973CF081E080936E0270
:1058500010924C0210924B0280916E028823A1F0AC
:105860008091D0029091D102E0914B02F0914C02D4
:1058700006E010E020E130E04FE950E16CE270E03A
:105880008E1B9F0B0E9475168091490290914A02CF
:105890000F972091D0023091D1022817390734F4A4
:1058A00010924A021092490210926D0280916D028C
:1058B00081111DC00E94D63629E030E040E050E062
:1058C0000E943737672B682B692B69F480914B0254
:1058D00090914C0289973CF081E080936D02109288
:1058E0004A021092490280916D028823A1F08091B2
:1058F000D0029091D102E0914902F0914A0206E073
:1059000010E020E130E043E950E16CE270E08E1BF2
:105910009F0B0E947516F12CE12CD12CC12C80918B
:10592000D0029091D10297FD0F96A4E095958795AE
:10593000AA95E1F78C159D05CCF080916F029091AE
:10594000700208E010E020E230E043E750E16CE351
:1059500070E0D701A81BB90BCD010E947516BFEFEF
:10596000CB1ADB0AE0E2EE0EF11CD9CF60910901FF
:1059700070910A0180910B0190910C0190580E9446
:10598000AC38CB0104E110E020E730E04BE55FE00C
:1059900067E170E00E9475168091790281113BC029
:1059A0001092D5021092D402F8E3EF2EF12CF0926F
:1059B000D702E092D60201E010E01093DB020093E0
:1059C000DA021093D9020093D80285E59FE00E9485
:1059D000AC1380916602909167020E94C91D80E419
:1059E00090E09093D5028093D402F092D702E09297
:1059F000D6021093DB020093DA021093D9020093CF
:105A0000D8028FE49FE00E94AC13809169029091CC
:105A10006A020E94C91D80918002882309F456C041
:105A2000C090B802D090B902E090BA02F090BB02E8
:105A300020E030E0A901C701B6010E94943920E0BE
:105A400030E040E05FE387FD7DC2C701B6010E9400
:105A5000C9370E94AC3860957095809590956170BB
:105A6000A9F1F12CE12C0FE010E020E530E04BE053
:105A700050E068E170E088EC92E00E94BB14EE24F4
:105A8000E394F12C0DE010E02EE430E04CE050E027
:105A900069E170E088EC92E00E94BB148FE290E034
:105AA0009093D5028093D4028FE090E09093D70238
:105AB0008093D6021092DB021092DA021092D90281
:105AC0001092D80288E49FE00E94561D80917F02C8
:105AD000882309F4EFC0809182028111EBC02091EC
