:100000000C9478090C94A0090C94A0090C94A009F4
:100010000C94A0090C94A0090C94A0090C9424132E
:100020000C94A0090C94A0090C94A0090C94A009AC
:100030000C94A0090C94A0090C94A0090C94A0099C
:100040000C9482120C94A0090C94F2120C94CC1211
:100050000C94A0090C94A0090C94A0090C94A0097C
:100060000C94C0130C94A009084AD73B3BCE016EF8
:1000700084BCBFFDC12F3D6C74319ABD56833DDAFF
:100080003D00C77F11BED9E4BB4C3E916BAAAABE0E
:10009000000000803F05A84CCDB2D44EB93836A937
:1000A000020C50B9918688083CA6AAAA2ABE000074
:1000B00000803F0000000000000000000000000081
:1000C000000000000000000000018000062669F624
:1000D000F666E6EFF692198996E6E6E99999F00058
:1000E000024183CF092999881999999888921A8F82
:1000F000D9999849999910000427E56F09222FEEA4
:10010000167FE89EE8F21C89B9E9E649996660061F
:100110000427E7EF092491191919999889929A8966
:10012000998B91496F968020042187EF067F61E6C5
:100130001669E6EF869269F996879E466996F440BD
:10014000F24180E08040201008040201000000001D
:10015000000000000000000000000000000088888F
:100160000000222200008A8A000022220000AAAA9F
:100170001010AAAA0000AAAA0101AAAA4444AAAA85
:100180005555AAAA4444AAAA1555AAAA5555AAAAD9
:100190005555BBBB5555AAEA5555BBBB5555FFFF39
:1001A0005555FBFB5555FFFF5555BBBF5757FFFF37
:1001B000DDDDFFFF7775FFFFDDDDFFFFFFFFFFFFE9
:1001C000FFFFFFFFFFFFFFFFFFFFFFFFDB40A4A6D6
:1001D0002EAFDA12812000A1C8D300408DAED580A9
:1001E000A850524553532046495245000000000094
:1001F0000000000000400800010420080112000077
:100200001000000040000040008000500028110253
:100210004000A0005000280A026001A00050002CFD
:100220000A0241E1B0F05078280A066220A1B850D5
:10023000C82C04024A31B088D0882804066221A163
:100240008850886C14024331B08A528A2880064252
:1002500031A8C8D0882C42866B29A5A8D4EAAC5016
:10026000426365B4DA52D96C422653B1B1D8D4DABC
:100270006D48866B75B5DA52FC6D6B566BA1B0FBA1
:10028000DAD96C694653EDBDFA76FAEF6CB26FEBD2
:10029000F4FDDDFD6CE74E77EBBFFED6FBEEF1E63D
:1002A00059EFBCF2D6FBEFF4F6F3B7FFFB5CFFEFC0
:1002B000D67A6BBFBE88D2DFEFDCD64B7FFFCA7029
:1002C0009FEFDECE4BDFBFEB76FFEFDFD677FFFF92
:1002D000FE56FFFFDFC2DFFFFFFEFBDFEFCF764FF3
:1002E000FFBFFBDFFFE7EF527FFF9FFFFFFFDFDF77
:1002F0007EFFFFCFFFFFFFBFCE627FFFFFFFDFFF6D
:100300007FFEFE7FFFE3FF8FFF7FEE7E7FFFC1FF5B
:1003100007FC1FDF7EFFFF807C01F00FFDFE7FFFEB
:10032000003801E007FD7E7FFC00100040033FFE27
:100330007FF8000000000013FEFFF0000000000046
:10034000037E7FC0000000000003FE7F80000000ED
:10035000000003FE7F00000000000007FEFC00001C
:100360000000000003FEF800000000000001FE7025
:1003700000000000000000FE20000000000000005F
:100380003F00000000000000001E00000000000010
:1003900000000C1010106E2A2028289B28202021F5
:1003A0005720202067202029207320202089242402
:1003B00024242424242424242424242424242424FD
:1003C00024242424242020202020202037373737BD
:1003D0003737373737372020202037373737373709
:1003E00037373737202020203737373737373737F9
:1003F0003737202020202020191919191919191907
:10040000191919191919191955203A3A3A202020A1
:100410002020202033333333202020202020202090
:1004200020262626202020202020201616161616EC
:1004300020202020202020202016161616161620F8
:100440002020202020202020151515151515151FFA
:10045000F83FFC7FFE7FFE7FFE7FFE7FFE7FFE7FFC
:10046000FE7FFE7FFE7FFE7FFE7FFE7FFE3FFC0065
:100470000000000000000000000FFC1FFC3FFC3FDC
:10048000FC3FFC3FFC3FFC07FC03F8000000001FA2
:10049000F83FFC7FFE7FFE77EE3FFC5FFA2FF653BE
:1004A000CC3E7E5E7C381E581C3E7E5E7E2EFC005E
:1004B0000000000000000000000FFC17FC226C365A
:1004C000443FFC1FFC2BFC055402A8000000001F49
:1004D000400FF03FF81FFC7FFD7FFC7FFDFFFEFF1C
:1004E000FFFFFFFFFEFFFE3FFE17F807F401E000ED
:1004F0000001400AB00ED0006853B40F48277817A7
:10050000A827F021D602F8204806200100000000AC
:10051000000000000000000003C0000003C0000055
:1005200007E0000007E0000003E0000107F18000A1
:10053000DFFE00003FFE00007FFF0001FFFF8000A4
:10054000FFFF8001FFFF8003CFF1C001C7F1C001B1
:1005500087F1C0030FF980030FFB80018FFF800339
:100560009F7900001F7C00000F7800000F780000CA
:100570000730000007380000073000000730000097
:1005800003780000073000000F800000000000002A
:100590000000000003C0000007C0000007E00000EA
:1005A00007C0000107E100008FFA0000FFFE000015
:1005B0003FFE00017FFF8000FFFF0001FFFF80037F
:1005C000CFFBC00387F1C003CFF3C001CFF18000A0
:1005D000CFF100000FFB80001E7800000E780000B5
:1005E0001E7800000F7000000F78000007700000F8
:1005F00007700000073800000330000003200000EF
:1006000007300000057000000078000000000000C6
:100610000000000000000000000E0000001F0000AD
:10062000001F0000033F8000013F000001FF300079
:1006300003FFC00003FFC00003FF800007FFE000CE
:1006400007FFC00005FFE00000FCE00001FCE00047
:1006500001FC700003FC380003FE700007FC000082
:10066000079E00000FBC00000F3E0000079C00002A
:10067000039C000003B800000398000001980000EC
:10068000021C000000360000000000000000000016
:10069000000000000000000000000000000000005A
:1006A000000000000020000000380000001F0000D3
:1006B000001F4000003E800001FF800003FF80001B
:1006C00007FFE0000EFFC0000CFF80001FFE0000CF
:1006D00013FC000007FE00001FFF00003F9F00000A
:1006E0003E0F00007C0F0000780F000078078000AC
:1006F0007807400038078000300700003001000113
:10070000F0000001B0000000000000000000000048
:1007100000000000000000000000000000000000D9
:1007200000000000000000000000000000000000C9
:1007300000000000000000000000000000000000B9
:1007400000000000000000000000000000000000A9
:10075000000000000000000000000000011C00007C
:10076000013E000003FF00000FFFE0013FFFC0015A
:10077000FFFFC019FFFFE87FFFFFFE3FFFFFFE1FE7
:10078000C207E01F0001E00E000040000000000072
:100790000000000000000000018000000280000056
:1007A0000740000002800000010000010FB30000BC
:1007B000D04E0000798C00001C1900018A20000036
:1007C000000000000003000200000003020000001F
:1007D0000000400208008000000100018E3000008F
:1007E000041000000C2000000000000000000000C9
:1007F00000100000060000000000000000200000C3
:1008000001000000022000000500000000000000C0
:1008100000000000018000000240000003E0000032
:100820000400000001A1800180130000F38A000091
:1008300009940000883880000000000002230000B6
:10084000000040018000800000010000E280000004
:10085000000000000C200000043000000220000016
:100860000040000000000000010000000220000025
:100870000600000000000000000000000200000070
:100880000000000000A00000004800000000000080
:10089000000000000000000000040000000A00004A
:1008A000001F0000022A80000105000001AE2000A8
:1008B0000124400002AC80000286000003202000DA
:1008C000043040000C000000000040000020200028
:1008D000000000000008200001000000021A0000D3
:1008E000001C000000380000040000000298000016
:1008F00000180000000000000000000000000000E0
:1009000000000000003600000000000000000000B1
:1009100000000000000000000000000000200000B7
:10092000000000000000000000040000000A0000B9
:10093000000840000000800001D6800002BF800057
:100940000661A0000CE880000C1000001A220000D4
:1009500012400000060C0000040D00003A030000E5
:1009600010020000600A0000500400002003000094
:100970000004000020000000000000002000000033
:100980000000000040000000000000000000000027
:100990000000000000000000000000000000000057
:1009A0000000000000000000000000000000000047
:1009B0000000000000000000000000000000000037
:1009C0000000000000000000000000000000000027
:1009D00000000000000000000000000002240000F1
:1009E00001080000011800000141400233B68001F7
:1009F0009C040008FA02080500010C2783A22A00C3
:100A000004000002000000000000000000000000E0
:100A10000020000000D8000001C400000204000013
:100A20000202000002EA000004D1000009888000F0
:100A3000190000000DC280002981C0000BA2200017
:100A4000314040002300C00013004000720200004B
:100A500049004001E0A82007F100300BB9E0E807A9
:100A60005C03FC07EFFFEE07757FD21BBBFFB211E3
:100A7000577D6432AFFFE8135F75D033FFFB9817E3
:100A8000D7E5001B8FB230037D58106FBFEC2000FC
:100A90000070000001FC000003FE000007FE0000E3
:100AA00007FF000007FF00000FFF80001FFFC000CE
:100AB0003FFF80003FFFC0007FFFE0007FFFF000AE
:100AC0007FFFE0007FFFE0007FFFE000FFFFC0004E
:100AD000FFFFE003FFFFF00FFFFFF81FFFFFFC1F0A
:100AE000FFFFFE1FFFFFFF1FFFFFFF3FFFFFFF3F57
:100AF000FFFFFE7FFFFFFC7FFFFFF87FFFFFFC7F14
:100B0000FFFFF87FFFFFF87FFFFFF8FFFFFFF00018
:100B10000000001800000C0002770001670001E5EA
:100B20008001E3C002A2C00782E01F41F99D807CE2
:100B30003E005E76006A3800362F805C36007E3FCD
:100B4000005810003C8800000000005B5D007B7DC9
:100B5000008487848F8E8E00000000250028002BE3
:100B60000000000000240027002A000000000023ED
:100B70000026002900040404040404040402020200
:100B800002020203030303030301020408102040CE
:100B90008001020408102001020408102000000057
:100BA000080002010000030407000000000000002C
:100BB000008383828E8A898684FFFFFFFFFFFFFF09
:100BC000FFFFFFFFFFFFFFFFFFFFFFFFFFFFFFFF35
:100BD000FFFFFFFFFFFFFFFFFFFFFFFFFFFFFFFF25
:100BE000FFFFFFFFFFFFFFFFFFFFFFFFFFFFFFFF15
:100BF000FFFFFFFFFFFFFFFFFFFFFFFFFFFFFFFF05
:100C0000FFFFFFFFFFFFFFF00000000000FFFFFFFE
:100C1000FFFFFFFFFFFFFFFFFFFFFFFF0000FFFFE2
:100C2000FFFFFFFFFFFFFFF00000000200FFFFFFDC
:100C3000FFFFFFFFFFFFFFFFFFFFFFFF0000FFFFC2
:100C4000FFFF0000000000F00000000000F000FFC7
:100C5000FFFFFFFFFFFFFFFFFFFFFFFF00000FFF92
:100C6000FFFF00000000005000002000000080FF97
:100C7000FFFFFFFFFFFFFFFFFFFFFFFF00000FFF72
:100C8000FFFF0000000000F00000000000F000FF87
:100C9000FFFFFFFFFFFFFFFFFFFFFFFFFFFFFFFF64
:100CA000FFFF000FFFFFFFF00000000000FFFFFF4D
:100CB000FFFFFFFFFFFFFFFFFFFFFFFF0000000040
:100CC0000FFF000FFFFFFFF00000000000FFFFFF1D
:100CD000FFFFFFFFFFFFFFFFFFFFFFFF0000000020
:100CE0000FFF000FFFFFFFFFFFFF4FFFFFFFFFFFA3
:100CF000FFFFFFFFFFFFFFFFFFFFFFFF0000000000
:100D00000F0000002FFFFFFFFFF000FFFFFFFFFFBE
:100D1000FFFFFFFFFFFFFFFFFFFFFFFF00002000BF
:100D2000040002000FFFFFFFFFF000FFFFFFFFFFC7
:100D3000FFFFFFFFFFFFFFFFFFFFFFFF00000000BF
:100D40000F0000000FFFFFFFFFF000FFFFFFFFFF9E
:100D5000FFFFFFFFFFFFFFFFFFFFFFFF000020007F
:100D60000FFFFFFFFFFFFFFFFFF000FFFFFFFFFF91
:100D7000FFFFFFFFFFFFFFFFFFF000FF000000008D
:100D80000FFFFFFFFFFFFFFFFFF000FFFFFFFFFF71
:100D9000FFFFFFFFFFFFFFFFFFF090FFFFFF4FFF91
:100DA000FFFFFFFFFFFFFFFFFFF000FFFFFFFFFF61
:100DB000FFFFFFFFFFFFFFFFFFF000FFFFF000FF5F
:100DC000FFFFFFFFFFFFF000F2000009FFFFFFFF42
:100DD000FFFFFFFFFFFFFFFFFFFF4FFFFFF000FFE1
:100DE000FFFFFFFFFFFFF00FFFF000FFFFFFFFFF20
:100DF000FFFFFFFFFFFFFFFFFFF000FFFFF000FF1F
:100E0000FFFFFFFFFFFFF00FFFF000FFFFFFFFFFFF
:100E1000FFFFFFFFFFFFFFFFFFF000F000F000FF0C
:100E2000FFFFFFFFFFFFF00FFFF000FFFFFFFFFFDF
:100E3000FFFFFFFFFFFFFFFFFFF0004000F000FF9C
:100E4000FFFFFFFFFFFFFFFFFFF000FFFFFFFFFFC0
:100E5000FFFFFFFFFFFFFFFFFFF000F000F000FFCC
:100E6000FFFFFFFFFFFFFFFFFFF000FFFFFFFFFFA0
:100E7000FFFFFFFFFFFFFFFFFFF000FFFFFF4FFF40
:100E8000FFFFFFFFFFFFFFFFFFFF5FFFFFFFFFFF12
:100E9000FFFFFFFFFFFFFFFFFFF020FF000000004C
:100EA0000FFFFFFFFFFFFFFFFF00000FFFFFFFFF30
:100EB000FFFFFFFF00000000FFF000FF0000000048
:100EC0000FFFFFFFFFFFF000000000000000FFFF2A
:100ED000FFFFFFFF00000000FFF000FF0002000026
:100EE0000FFFFFFFFFFFF000000000000000FFFF0A
:100EF000FFFFFFFF00000000FFF0000F00000000F8
:100F00000FFFFFFFFFFFF0002000000020000F0098
:100F10000000000F00000000FFF00005000090003E
:100F20000FFFFFFFFFFFF0000000000000000400C3
:100F30000020000400002000FFF0000F000000006F
:100F40000FFFFFFFFFFFF0000000000000000F0098
:100F50000000000F00000000FFF000FF0000020092
:100F60000FFFFFFFFFFFF000000000000000FFFF89
:100F70000000FFFF00000000FFF000FF0000000085
:100F80000FFFFFFFFFFFF000000000000000FFFF69
:100F9000F00FFFFF00000800FFF000FF000000005E
:100FA0000FFFFFFFFFFFFFFFFF00000FFFFFFFFF2F
:100FB000F00FFFFF00000000FFF000FFFFFF5FFFEA
:100FC000FFFFFFFFFFFFFFFFFFFF4FFFFFFFFFFFE1
:100FD000F00FFFFFFFFFFFFFFFF000FFFFF000FF3C
:100FE000FFFFFFFFFFFFFFFFFFF000FFFFFFFFFF1F
:100FF000F00FFFFFFFFFFFFFFFF202FFFFF000FF18
:10100000FFFFFFFFFFFFFFFFFFF000FFFFFFFFFFFE
:10101000F00FFFFFFFFFFFFFFFF000F000F000FF09
:10102000FFFFFFFFFFFFFFFFFFF020FFFFFFFFFFBE
:10103000F00FFFFFFFFFFFFFFFF0004080F000FF19
:10104000FFFFFFFFFFFFFFFFFFF000FFFFFFFFFFBE
:10105000F00FFFFFFFFFFFFFFFF000F000F000FFC9
:10106000FFFFFFFFFFFFFFFFFFF000FFFFFFFFFF9E
:10107000F00FFF0F0F0F0FFFFFF000FFFFF000FF5B
:10108000FFFFFFFFFFFFFFFFFFF000FFFFFFFFFF7E
:10109000F000F000000000FFFFF000FFFFF000FF95
:1010A000FFFFFFFFFFFFFFFFFFF000FFFFFFFFFF5E
:1010B000F0004000020090FFFFF000000000000080
:1010C000000FF000000FFFFFFFF000FFFFFFFFFF2A
:1010D000F000F000000000FFFFF000020000000040
:1010E0002000500020007FFFFFF000FFFFFFFFFF08
:1010F000FFFFFF0F0F0F0FFFFFF0000000000000C9
:10110000000FF000000FFFFFFFF000FFFFFFFFFFE9
:10111000FFFFFFFFFFFFFFFFFFFFFFFFFFFFFFFFDF
:10112000FFFFFFFFFFFFFFFFFFF000FFFFFFFFFFDD
:10113000FFFFFFFFFFFFFFFFFFFFFFFFFFFFFFF0CE
:101140000F00F00FFFFFFFFFFFFF5FFFFFFFFFFF3D
:10115000FFFFFFFFFFFFFFFFFFFFFFFFFFFFF000AD
:101160000F00F0FFFFFFFF0000F000F0000FFFFF97
:10117000FFFFFFFFFFFFFFFFFFFFFFFFFFFFFFF08E
:101180000000FFFFFFFFFF0100400040000FFFFFD6
:10119000FFFFFFFFFFFFFFFFFFFFFFFFFFFFFFFF5F
:1011A000FFFFFFFFFFFFFF0000F000F0000FFFFF59
:1011B000FFFFFFFFFFFFFFFFFFFFFFFFFFFFFFFF3F
:1011C00000FFFFFFFFFFFFFFFFF000FFFFFFFFFF3C
:1011D000FFFFFFFFFFFFFFFFFFFFFFFFFFFFFFFF1F
:1011E00000FFFFFFFFFFFF0000F000F0000FFFFF18
:1011F000FFFFFFFFFFFFFFFFFFFFFFFFFFFFFFFFFF
:10120000FFFFFFFFFFFFFF0000400040000FFFFF58
:10121000FFFFFFFFFFFFFFFFFFFFFFFFFFFFFFFFDE
:10122000FFFFFFFFFFFFFF0000F000F0000FFFFFD8
:10123000FFFFFFFFFFFFFFFFFFFFFFFFFFFFFFFFBE
:10124000FFFFFFFFFFFFFFFFFFF000FFFFFFFFFFBC
:10125000FFFFFFFFFFFFFFFFFFFFFFFFFFFFFFFF9E
:10126000FFFFFFFFFFFFFF0000000000000FFFFF78
:10127000FFFFFFFFFFFFFFFFFFFFFFFFFFFFFFFF7E
:10128000FFFFFFFFFFFFFF0000000000290FFFFF2F
:10129000FFFFFFFFFFFFFFFFFFFFFFFFFFFFFFFF5E
:1012A000FFFFFFFFFFFFFF0000000000000FFFFF38
:1012B000FFFFFFFFFFFFFFFFFFFFFFFFFFFFFFFF3E
:1012C000FFFFFFFFFFFFFFFFFFFFFFFFFFFFFFFF2E
:1012D000FFFFFFFFFFFFFFFFFF2200FF21000001D4
:1012E00003070F1F3F7F0080C0E0F0F8FCFE912253
:1012F00011241FBECFEFD8E0DEBFCDBF11E0A0E0CC
:10130000B1E0E4E2FEE402C005900D92A834B1071A
:10131000D9F728E0A8E4B1E001C01D92A734B207D4
:10132000E1F719E0C8E7D9E004C02197FE010E9467
:101330006523C737D107C9F70E9439140C941027C9
:101340000C9400003F924F925F926F927F928F9227
:101350009F92AF92BF92CF92DF92EF92FF920F9344
:101360001F93CF93DF9300D000D0CDB7DEB75C835F
:101370004B83290147E0440E511CA3E05594479448
:10138000AA95E1F73B01600E711E10E000E0912C80
:10139000CC24C394D12C6615770509F456C0AB0153
:1013A000E3E055954795EA95E1F75695542F442784
:1013B00057954795FB01E770FF27D60102C0AA0F9A
:1013C000BB1FEA95E2F73A2E8A2E8094B0E0A0E0A7
:1013D000FA01E80FF91FFA83E9835D01F7E0AF2214
:1013E000BB24990CAB2869F4FD0143E0F595E79522
:1013F0004A95E1F7E00FF11F4B815C81E40FF51F87
:10140000949097FE17C05C01AA0EBB1E50E8A5166B
:10141000B10480F46034710568F4E981FA81EA0F5F
:10142000FB1FEC5BFB4FB08041E0E416F10459F484
:10143000B328B08211962A173B0779F66F5F7F4F6A
:10144000040D151DA8CFB820F4CF0F900F900F906A
:101450000F90DF91CF911F910F91FF90EF90DF9050
:10146000CF90BF90AF909F908F907F906F905F9044
:101470004F903F900895CF93DF93FC018038910502
:1014800008F05FC0CB01840F951F8134910524F0D3
:1014900040E450E0461B570B141615060CF051C0E3
:1014A000942F262F26952695269580E8289FD001F3
:1014B0001124AE0FBF1FAC5BBB4F6770E9F088E033
:1014C000861B682F282F30E0F901EA51FD4EE49188
:1014D000481750F4241B350B4FEF50E002C05595D0
:1014E00047952A95E2F7E423E0958C91E823EC9365
:1014F000961738F1A058BF4FE92FE61BE830B8F037
:10150000ED018E2F1882C058DF4F88508830D0F7F9
:1015100088EF8E0F86958695869590E00196969534
:10152000982F882797958795A80FB91FE770EE2306
:1015300041F0F0E0E252FD4EE491E0958C91E82319
:10154000EC93DF91CF9108950F931F93CF93DF9387
:10155000EC01122F1D861C8620E4129FC00111246D
:10156000842B24E0880F991F2A95E1F7862B998315
:101570008883642F70E090E080E00E94FC2420E0EB
:1015800030E040E05FE30E946C236A837B838C83BE
:101590009D83612F70E090E080E00E94FC2420E0B9
:1015A00030E040E05FE30E946C236E837F83888796
:1015B00099871A860B87CE01DF91CF911F910F91EA
:1015C0000895E8E3F0E0E61BF10926E0EE0FFF1FC7
:1015D0002A95E1F7E80FF11DF7FD3196F595E795AE
:1015E000E754F44FE491F0E080FF0AC080E09F01EF
:1015F00002C0359527958A95E2F7C9018F70089545
:1016000084E0F5CFBC0180E090E04EE050914304CF
:10161000951760F5292F30E0811110C0429FF0012D
:10162000439FF00D1124E954FC4F0190F081E02D0F
:10163000E617F707C9F4515050934304429FD00175
:10164000439FB00D1124A954BC4F2F5F3F4F429FC1
:10165000F001439FF00D1124E954FC4F842F0190B9
:101660000D928A95E1F781E09F5FD0CF0895FC014C
:10167000538D448D252F30E0842F90E0821B930BF7
:10168000541710F0CF96089501970895FC01918D9D
:10169000828D981761F0A28DAE0FBF2FB11D5D96A0
:1016A0008C91928D9F5F9F73928F90E008958FEF42
:1016B0009FEF0895FC01918D828D981731F0828DF6
:1016C000E80FF11D858D90E008958FEF9FEF08954D
:1016D000FC01918D228D892F90E0805C9F4F821BB1
:1016E00091098F7399270895FC01A48DA80FB92F34
:1016F000B11DA35ABF4F2C91848D90E001968F733A
:101700009927848FA689B7892C93A089B1898C9158
:10171000837080648C93938D848D981306C00288A7
:10172000F389E02D80818F7D80830895EF92FF9271
:101730000F931F93CF93DF93EC0181E0888F9B8DF4
:101740008C8D98131AC0E889F989808185FF15C0AE
:101750009FB7F894EE89FF896083E889F9898081D1
:101760008370806480839FBF81E090E0DF91CF91A0
:101770001F910F91FF90EF900895F62E0B8D10E0C2
:101780000F5F1F4F0F731127E02E8C8D8E110CC031
:101790000FB607FCFACFE889F989808185FFF5CF7C
:1017A000CE010E94740BF1CFEB8DEC0FFD2FF11DDC
:1017B000E35AFF4FF0829FB7F8940B8FEA89FB89B9
:1017C00080818062CFCFCF93DF93EC01888D882317
:1017D000B9F0AA89BB89E889F9898C9185FD03C094
:1017E000808186FD0DC00FB607FCF7CF8C9185FF79
:1017F000F2CF808185FFEDCFCE010E94740BE9CF3F
:10180000DF91CF91089585EA92E00E94680B21E074
:10181000892B09F420E0822F089580E090E0892B45
:1018200029F00E94030C81110C940000089590E0AF
:10183000FC01E356F44F2491FC01E757F44F349137
:10184000FC01EB58F44FE491EE23C1F1222339F06F
:101850002330E9F090F4213001F1223011F1F0E071
:10186000EE0FFF1FE559F44FA591B491EC91E323DE
:1018700081E090E029F580E008952730A9F0283034
:10188000C9F0243061F7809180008F7D03C0809182
:1018900080008F7780938000E2CF84B58F7784BDFE
:1018A000DECF84B58F7DFBCF8091B0008F778093A2
:1018B000B000D5CF8091B0008F7DF9CF80E090E06F
:1018C0000895CF93DF9390E0FC01E757F44F249104
:1018D0008B58944FFC0184918823D1F090E0880FBD
:1018E000991FFC01EF59F44FA591B491FC01E95AFD
:1018F000F44FC591D491623071F49FB7F8943C9144
:10190000822F809583238C93E8812E2B28839FBF81
:10191000DF91CF9108958FB7F894EC912E2B2C93F3
:101920008FBFF6CF3FB7F8948091AF039091B0038B
:10193000A091B103B091B20326B5A89B05C02F3F7B
:1019400019F00196A11DB11D3FBFBA2FA92F982FE5
:101950008827BC01CD01620F711D811D911D42E0E0
:10196000660F771F881F991F4A95D1F708958F92A8
:101970009F92AF92BF92CF92DF92EF92FF924B0174
:101980005C010E94920C6B017C010E94920C6C190C
:101990007D098E099F09683E734081059105A8F372
:1019A00021E0821A9108A108B10888EEC80E83E0F0
:1019B000D81EE11CF11C81149104A104B10429F783
:1019C000FF90EF90DF90CF90BF90AF909F908F905F
:1019D00008952FB7F8946091AB037091AC03809198
:1019E000AD039091AE032FBF0895AF92BF92CF92F7
:1019F000DF92EF92FF920F931F93CF93DF936C01CF
:101A00007B018B01040F151FEB015E01AE18BF08AF
:101A1000C017D10759F06991D601ED91FC91019061
:101A2000F081E02DC6010995892B79F7C501DF9179
:101A3000CF911F910F91FF90EF90DF90CF90BF90CB
:101A4000AF900895E62FEE0FEE7083FB662760F9E6
:101A5000E62B483008F047E04295407FE40FF0E085
:101A6000E45BFE4F94918770E82FF0E0EC5BFE4F53
:101A7000E491E92381E009F480E008954F925F92B8
:101A80006F927F928F929F92AF92BF92CF92DF928E
:101A9000EF92FF920F931F93CF93DF93CDB7DEB7F3
:101AA00068970FB6F894DEBF0FBECDBF7C0108E883
:101AB00013E0D8012D913D914D915C91FC01608125
:101AC0007181828193810E946B23698B7A8B8B8BCE
:101AD0009C8BD80114962D913D914D915C91179757
:101AE000F70164817581868197810E946B236D8BDC
:101AF0007E8B8F8B988FD80150968D919D910D90F4
:101B0000BC91A02D89879A87AB87BC87F801448454
:101B100055846684778480849184A284B384848984
:101B20009589A689B7898D879E87AF87B88BA301D2
:101B3000920169857A858B859C850E9421266B019F
:101B40007C012D853E854F855889C501B4010E94D1
:101B500021269B01AC01C701B6010E946B239B01AA
:101B6000AC0160E070E080E89FE30E9454246B01C8
:101B70007C0129893A894B895C89C301B2010E94A1
:101B800021262B013C012D893E894F89588DC501A5
:101B9000B4010E9421269B01AC01C301B2010E9445
:101BA0006B23A70196010E942126162FAB01BC01D1
:101BB00049835A836B837C836D857E858F85988965
:101BC000905829893A894B895C890E9421264B01CA
:101BD0005C012D893E894F89588D69857A858B8571
:101BE0009C850E9421269B01AC01C501B4010E9485
:101BF0006C23A70196010E942126E62F462F572F1E
:101C0000BC014D835E836F837887212F3A814B819E
:101C10005C816E2F7E818F81988568960FB6F894CF
:101C2000DEBF0FBECDBFDF91CF911F910F91FF900F
:101C3000EF90DF90CF90BF90AF909F908F907F906C
:101C40006F905F904F90089587FD2EC067FD2CC068
:101C5000E62F062E000CFF0B98E3211101C090E443
:101C60009E171F0609F104F1262F25952595259528
:101C700050E8250390011124F901E80FF11D87FDBB
:101C8000FA95CF01E091A603F091A703E80FF91FA1
:101C90002081677081E090E001C0880F6A95EAF7C3
:101CA000442319F0822B8083089580958223FBCFF3
:101CB0001F93CF93DF93182FC0E0C038C1F0D0E05E
:101CC000112341F0173058F020E040E06D2F8C2FA9
:101CD0000E94240EDF5FD03499F7CF5FEECF412F03
:101CE0006D2F8C2F0E94220D8823A1F3EDCFDF9161
:101CF000CF911F9108959F92AF92BF92CF92DF92A2
:101D0000EF92FF920F931F93CF93DF93C82EB62EBF
:101D1000C0E0EC2FF0E0EA5EFE4F8081841721F0F6
:101D2000882311F0CF5FF5CF94E4E92E91E0F92EEE
:101D3000C0FF04C088E4E82E81E0F82EC695D0E00C
:101D4000CC54DF4FD12CFE01A49010E000E09B2C7E
:101D50009D0CF701E00FF11FE491EA2139F020E03A
:101D600041E0692D8C2D800F0E94240E0F5F1F4FC4
:101D70000430110571F7D3946896F6E0DF12E3CFD3
:101D8000DF91CF911F910F91FF90EF90DF90CF9057
:101D9000BF90AF909F900895EF92FF920F931F9383
:101DA000CF93DF93062F7A01C82F10E0D4E0D20F33
:101DB000C7FD0DC0F701E10FF11D4491442339F037
:101DC000602F8C2F0E947B0E1F5FCD0FF1CFDF9114
:101DD000CF911F910F91FF90EF9008952F923F9216
:101DE0004F925F926F927F928F929F92AF92BF922B
:101DF000CF92DF92EF92FF920F931F93CF93DF93D7
:101E0000CDB7DEB761970FB6F894DEBF0FBECDBF7A
:101E1000D82E762E5F834E8339872887A5019401BB
:101E200060E070E080E89FE30E9454241B012C01D5
:101E300020E030E040E85FE30E944A246624639497
:101E400087FD05C0C201B1010E94CD24662E2EE39C
:101E50008FE190E02D1544F08D2DD7FC80E0082E09
:101E6000000C990B959587958A5B9C4FDC016C91D2
:101E700070E090E080E00E94FE241B012C0120E035
:101E800030E040EA51E4C501B4010E9421269B01E3
:101E9000AC01C201B1010E944A2487FDC0C0B70154
:101EA0000F2C000C880B990B0E94FE24A5019401B5
:101EB0000E9454240E94CD246D83280183E0559410
:101EC00047948A95E1F7E49CC001E59C900DF49C51
:101ED000900D1124C89E1001C99E300C1124F72CBE
:101EE000E72D072C000CFF0BFB87EA87C801110FB9
:101EF000AA0BBB0B8C879D87AE87BF87AD2D0D2CA2
:101F0000000CBB0BB98BA88B6F2D6719BD816B17AC
:101F100008F085C070E08A859B85860F971FC8975B
:101F200008F07BC0072E000C880B990B0E94FE2442
:101F3000A50194010E9421260E94CD24649DC00128
:101F4000659D900D1124FC01E20DF31DFB83EA83D6
:101F5000CD2CC1946C857D858E859F850E94FE2445
:101F6000A50194010E9454240E94CD246C8310E0AA
:101F7000FC811F1708F051C0612F70E08889998992
:101F8000860F971F8038910508F044C0072E000C7B
:101F9000880B990B0E94FE24A50194010E94212622
:101FA0000E94CD24E62FE695E695E6958A819B81F1
:101FB0008E0F911DE885F985E80FF91F2491677050
:101FC00070E06C5B7E4FFB013491E32FE22311F153
:101FD0002E813F81820F931FFC018491FB0164914C
:101FE000E62FE823F1E0F983E11101C01982012F06
:101FF0000D0D802F8C0D861568F4E12C6E2D6F0D64
:1020000021E04981802F0E94240EE3946E10F6CFC8
:102010000F5FEFCF160DC618ABCFF60C75CF6196DC
:102020000FB6F894DEBF0FBECDBFDF91CF911F91E9
:102030000F91FF90EF90DF90CF90BF90AF909F9067
:102040008F907F906F905F904F903F902F9008956A
:102050008DE00E94170C21E0892B09F020E0822FEF
:1020600008959091BC0090FDFCCF9A012E5F3F4FE8
:102070003093A1022093A00298E7909348018093A7
:102080004901FB01AAE4B1E0460F571FE417F50729
:1020900019F081918D93FACF85EA8093BC00089561
:1020A000EF92FF920F931F93CF93DF93CDB7DEB7DD
:1020B0009C01EDB6FEB6062F10E08DB79EB7801BD3
:1020C000910B0FB6F8949EBF0FBE8DBF0196A8016D
:1020D000B9010E94BE22A801BC0180E00E9431101B
:1020E0000FB6F894FEBE0FBEEDBEDF91CF911F91EB
:1020F0000F91FF90EF900895CF93DF931F92CDB78C
:10210000DEB765E089ED92E10E9450108FE7898388
:1021100041E050E0BE016F5F7F4F80E00E943110D0
:1021200046E551E064E474E080E40E94311046E545
:1021300051E06AE975E080E40E94311044E551E025
:1021400060EF76E080E40E9431100F90DF91CF9134
:102150000895FF920F931F93CF93DF9300D000D089
:10216000CDB7DEB7F82E862F4AE0BE016F5F7F4FF6
:1021700090E00E94C7228E010F5F1F4FF80141912E
:102180008F01442349F06AE38F2D0E947B0EF5E016
:10219000FF0E80E88F1590F70F900F900F900F9023
:1021A000DF91CF911F910F91FF900895CF93DF930F
:1021B000CCE0D0E046E050E06AE370E0CE010E945F
:1021C0003B0A2196CB31D105A9F7C2E3D0E046E026
:1021D00050E06AE370E0CE010E943B0A2196C733CB
:1021E000D105A9F76091A4038CE00E94A910609129
:1021F000A50382E3DF91CF910C94A9108F929F9257
:10220000AF92BF92CF92DF92EF92FF92CF93DF9384
:10221000EC017B01FB012081318142815381688186
:1022200079818A819B810E946B234B015C01F701BC
:1022300024813581468157816C817D818E819F818A
:102240000E946B236B017C01A5019401C501B401BF
:102250000E9421264B015C01A7019601C701B6012E
:102260000E9421269B01AC01C501B4010E946C2390
:102270000E949C2620E030E040EA51E40E942126A2
:102280000E94CD24862FDF91CF91FF90EF90DF90B9
:10229000CF90BF90AF909F908F9008952F923F92D4
:1022A0004F925F926F927F928F929F92AF92BF9266
:1022B000CF92DF92EF92FF920F931F93CF93DF9312
:1022C000CDB7DEB72C970FB6F894DEBF0FBECDBFEB
:1022D0001C014A015B01280139011E2DFC012081EE
:1022E000318142815381CB01B4010E946C230E9451
:1022F000C62469877A878B879C87F985F03408F034
:102300004AC0F1012481358146815781C301B20160
:102310000E946C230E94C6246B01F8E3F617D8F1E3
:1023200089850E94E10A8F30B1F581EB9BE09093A3
:10233000B6038093B50388E08093B40381E0809373
:10234000B30396E0CC0CDD1C9A95E1F709851A855C
:1023500011270C291D2924E0000F111F2A95E1F7F0
:102360000F60C8012C960FB6F894DEBF0FBECDBF2C
:10237000DF91CF911F910F91FF90EF90DF90CF9061
:10238000BF90AF909F908F907F906F905F904F9095
:102390003F902F90089511114EC0D12C8EE0C82E81
:1023A00080914304D81608F046C02D2D30E0DC9C07
:1023B000C001112487549C4F28163906D1F1C29EC2
:1023C000C001C39E900D11249C0129543C4F7901FA
:1023D000F90100811181802F8F70823051F5828543
:1023E0008550823030F1A50194016281738184812E
:1023F00095810E946B2369837A838B839C83A301DD
:102400009201F70166817781808591850E946B2317
:102410006D837E838F839887BE016F5F7F4FC1017D
:102420000E94FE10843028F4F7019485891708F47F
:1024300098CFD394B5CF10E000E093CF4F925F9246
:102440006F927F928F929F92AF92BF92CF92DF92C4
:10245000EF92FF920F931F93CF93DF93EC012A012A
:102460003B014801590100E010E098010E944E1123
:102470006C019501840140E050E0BA01CE010E9458
:102480004E118C01CD2809F5A30192016881798153
:102490008A819B810E946C23688379838A839B83D2
:1024A000012B11F181E090E0DF91CF911F910F910D
:1024B000FF90EF90DF90CF90BF90AF909F908F9064
:1024C0007F906F905F904F900895892B59F7A501E9
:1024D00094016C817D818E819F810E946C236C832D
:1024E0007D838E839F83DECFA50194016C817D81E6
:1024F0008E819F810E946C236C837D838E839F835A
:1025000080E0D1CF1F920F920FB60F9211242F931C
:102510003F938F939F93AF93BF938091AB03909121
:10252000AC03A091AD03B091AE033091AA0323E0B8
:10253000230F2D3758F50196A11DB11D2093AA0335
:102540008093AB039093AC03A093AD03B093AE0321
:102550008091AF039091B003A091B103B091B20309
:102560000196A11DB11D8093AF039093B003A0937A
:10257000B103B093B203BF91AF919F918F913F91FF
:102580002F910F900FBE0F901F90189526E8230FE4
:102590000296A11DB11DD2CF1F920F920FB60F92BE
:1025A00011242F933F934F935F936F937F938F9358
:1025B0009F93AF93BF93EF93FF9385EA92E00E94BE
:1025C000740BFF91EF91BF91AF919F918F917F918C
:1025D0006F915F914F913F912F910F900FBE0F9090
:1025E0001F9018951F920F920FB60F9211242F93E0
:1025F0008F939F93EF93FF93E091B502F091B60212
:102600008081E091BB02F091BC0282FD1BC09081F1
:102610008091BE028F5F8F732091BF02821741F0BD
:10262000E091BE02F0E0EB55FD4F958F8093BE0226
:10263000FF91EF919F918F912F910F900FBE0F906F
:102640001F9018958081F4CF1F920F920FB60F92B2
:102650001124EF92FF920F931F932F933F934F9369
:102660005F936F937F938F939F93AF93BF93CF931A
:10267000EF93FF938091B303882309F464C08091A2
:10268000A402E1E0E80FE093A4029091B40389175B
:1026900008F06FC02091B5033091B603E20FF32F1D
:1026A000F11D24910CE3209F9001112450E040E0A3
:1026B0006EE570E382E190E00E94322344275527C3
:1026C00060E072E18AE790E00E941023C1E0E1E05F
:1026D000F0E02115310511E041075105A8F0C2E0F5
:1026E000E8E0F0E02115310588E04807510560F089
:1026F000C4E0E0E0F1E02115310500E440075105B8
:1027000018F4C3E0E0E4F0E0BF0176956795790145
:102710008A01E60EF71E011D111DC801B7019F01B8
:1027200050E040E00E9410232150310980E4809362
:102730008000C860C093810080E88093820030935D
:10274000890020938800FF91EF91CF91BF91AF91C5
:102750009F918F917F916F915F914F913F912F91B9
:102760001F910F91FF90EF900F900FBE0F901F9051
:1027700018951092A402109280001092B303E3CF38
:102780001F920F920FB60F9211242F933F938F93A6
:102790009F93EF93FF938091B900883259F020F511
:1027A000803121F0883131F0883019F51092A30280
:1027B0001092A2028091A2029091A3022091A00205
:1027C0003091A1028217930728F59C012F5F3F4F9C
:1027D0003093A3022093A202885B9E4FFC0180816C
:1027E0008093BB0085E836C0803439F130F48833FB
:1027F000F1F18091B90084E02DC0803569F0883511
:10280000C1F78091BB00E091A202F091A302E85BC6
:10281000FE4F808384E91EC08091A2029091A302A2
:102820009C012F5F3F4F3093A3022093A20220917F
:10283000BB00885B9E4FFC0120838091A002909199
:10284000A10201972091A2023091A3022817390713
:1028500048F685EC8093BC00FF91EF919F918F919A
:102860003F912F910F900FBE0F901F90189585EA02
:10287000F1CFCF93DF93CDB7DEB7C654D1090FB6F2
:10288000F894DEBF0FBECDBF789484B5826084BD5E
:1028900084B5816084BD85B5826085BD85B5816064
:1028A00085BD80916E00816080936E0010928100E2
:1028B000809181008260809381008091810081609D
:1028C000809381008091800081608093800080915E
:1028D000B10084608093B1008091B00081608093EA
:1028E000B00080917A00846080937A0080917A00B1
:1028F000826080937A0080917A00816080937A0070
:1029000080917A00806880937A001092C100E4E49C
:10291000F4E080E094E0DF019C011D922150304002
:10292000E1F782E0809345088CE3809344088CE0D3
:102930008093B8008FEF8093BB0084E08093BC004D
:1029400064E08DED91E00E9450108FE38C8B41E0AC
:1029500050E0BE016C5E7F4F80E00E94311064E069
:1029600089ED91E00E94501080914508813009F076
:1029700095C080E18B8B41E050E0BE016D5E7F4FE2
:1029800080E00E94311064E085ED91E00E945010DB
:1029900063E082ED91E00E94501080914508813003
:1029A00009F07EC08FE9898B41E050E0BE016F5E87
:1029B0007F4F80E00E94311089ED8A8B41E050E02A
:1029C000BE016E5E7F4F80E00E943110809145080D
:1029D000813009F067C082E2888B41E050E0BE019F
:1029E000605F7F4F80E00E94311066E08CEC91E0E8
:1029F0000E94501084E494E09093A7038093A60370
:102A000040E450E06FEF70E086E493E00E94092715
:102A100062E088E00E94610C62E08BE00E94610C41
:102A200062E082E00E94610C62E08CE00E94610C36
:102A300062E08DE00E94610C61E089E00E94610C1F
:102A400082E08093B00097E09093B1009FE690936E
:102A5000B300809370008091A903882329F181300D
:102A600009F44EC010E0812F0E94580E0E947C1085
:102A700068E270E080E090E00E94B70C1F5F1830C1
:102A800091F71092A80380E090E0892B21F30E9437
:102A9000030C882301F30E940000DDCF84E16ACF9C
:102AA0008FEC81CF81EF98CFEE24E394F12C0FE2ED
:102AB00010E028E430E04CEE51E065E070E08CE19D
:102AC00090E00E94A20968EE73E080E090E00E942E
:102AD000B70C21E041EE51E063E387E20E94CC0EA7
:102AE0000E947C1011E08091A8038111BBCF0E944D
:102AF00028108823C1F31093A9031093A803F3CFE0
:102B000008E310E0093308F039C2602F812F0E94DA
:102B1000E10A813009F032C2E0EAF3E086E0DF0149
:102B20001D928A95E9F7612F70E090E080E00E94A5
:102B3000FC2420E030E040E05FE30E946C236093DF
:102B400088037093890380938A0390938B03602F8B
:102B500070E090E080E00E94FC2420E030E040E063
:102B60005FE30E946C2360938C0370938D038093CA
:102B70008E0390938F0380E090E0A0E8BFE3809302
:102B8000900390939103A0939203B09393031092B8
:102B9000940310929503109296031092970310924B
:102BA00098031092990310929A0310929B0383EC5E
:102BB00095EFA8E2BFEB80939C0390939D03A093B5
:102BC0009E03B0939F0384E68093A403B7E0B8AF5D
:102BD0001FA61CAE1BAE0E94E90CC0904203D09011
:102BE0004303E0904403F09045036C197D098E097E
:102BF0009F090E94FC2425E535E545E852E40E9442
:102C00004A2487FDE8CF0E94E90C6C197D098E09E2
:102C10009F090E94FC2425E535E545E852E40E9421
:102C200054246093000170930101809302019093FA
:102C300003010E94E90C6093420370934303809365
:102C4000440390934503E091A603F091A70380E825
:102C500093E0DF019C011D9221503040E1F780910B
:102C6000A403882309F457C382E00E94170C892B20
:102C700009F08AC1C090A003D090A103E090A20304
:102C8000F090A303A70196016DEC7CEC8CE49EE32D
:102C90000E946B232DEC3CEC4CEC5EE30E94212661
:102CA000A70196010E946C236B017C01C092A003D6
:102CB000D092A103E092A203F092A30320E030E0BF
:102CC000A9010E94142618160CF081C120E030E002
:102CD00040EA50E4C701B6010E94212668AB79ABF7
:102CE0008AAB9BAB8BE00E94170C892B09F077C154
:102CF0002FE832EC45EF5DE3609100017091010136
:102D000080910201909103010E9421266B017C01B8
:102D10008090900390909103A0909203B0909303C1
:102D20000E944F242B013C01409194035091950344
:102D300060919603709197034BA35CA36DA37EA350
:102D4000C701B6010E948E266BA77CA78DA79EA700
:102D5000A3019201C501B4010E9421266FA378A7A7
:102D600089A79AA72BA53CA54DA55EA56BA17CA123
:102D70008DA19EA10E9421269B01AC016FA178A587
:102D800089A59AA50E946C23609390037093910388
:102D90008093920390939303C701B60190580E94C9
:102DA0008E266FA378A789A79AA79B01AC01C501BE
:102DB000B4010E9421266B017C012BA13CA14DA1F5
:102DC0005EA1C301B2010E9421269B01AC01C70193
:102DD000B6010E946C2360939403709395038093D3
:102DE0009603909397038090980390909903A090F6
:102DF0009A03B0909B03C0909C03D0909D03E090F9
:102E00009E03F0909F03A5019401C301B2010E94AB
:102E100021266BA37CA38DA39EA3A70196016BA57E
:102E20007CA58DA59EA50E9421269B01AC016BA1CE
:102E30007CA18DA19EA10E946C2360939803709346
:102E4000990380939A0390939B03A50194016FA12A
:102E500078A589A59AA50E9421264B015C01A701AE
:102E60009601C301B2010E9421269B01AC01C5015C
:102E7000B4010E946C2360939C0370939D03809324
:102E80009E0390939F030E94E90C0E94FC242AE079
:102E900037ED43EA5BE30E9421260E948E2620E064
:102EA00030E0A9010E94142618160CF04DC10E94B2
:102EB000E90C0E94FC242AE037ED43EA5BE30E9420
:102EC00021260E948E2620E030E040EC50E40E9453
:102ED00021269B01AC0168A979A98AA99BA90E9416
:102EE00021266BA77CA78DA79EA72DEC3CEC4CEB75
:102EF00050E40E9414261816ACF48091B30381119B
:102F000011C05CAD552309F42DC184E59BE090937D
:102F1000B6038093B50383E08093B40381E080938C
:102F2000B3031CAE7FA5733108F42BC171507FA78A
:102F3000C090A003D090A103E090A203F090A3035F
:102F400020E030E0A901C701B6010E94142618163E
:102F50000CF00FC226EA3BE944E45BE3C701B6018B
:102F60000E94142618160CF40EC21092A0031092A0
:102F7000A1031092A2031092A30338C21F5F103462
:102F800009F0C0CD0150BDCD8CE00E94170C892BFB
:102F900079F4C090A003D090A103E090A203F09038
:102FA000A303A70196016DEC7CEC8CE49EEB70CE44
:102FB00020E030E040E05FE36091A0037091A10366
:102FC0008091A2039091A3030E9421266DCEC70198
:102FD000B601905820E030E040EA50E47DCE88E031
:102FE0000E94170C892B09F04ECF2FE832EC45EFE9
:102FF0005DE3609100017091010180910201909167
:1030000003010E9421264B015C01C0909003D090E7
:103010009103E0909203F09093030E944F246BA3DE
:103020007CA38DA39EA34090940350909503609041
:10303000960370909703C501B4010E948E266BA77A
:103040007CA78DA79EA72BA13CA14DA15EA1C70186
:10305000B6010E9421264B015C012BA53CA54DA584
:103060005EA5C301B2010E9421269B01AC01C501EE
:10307000B4010E946B23609390037093910380933B
:103080009203909393032BA53CA54DA55EA5C70184
:10309000B6010E9421266B017C01A30192016BA164
:1030A0007CA18DA19EA10E9421269B01AC01C7019C
:1030B000B6010E946C2360939403709395038093F0
:1030C0009603909397038090980390909903A09013
:1030D0009A03B0909B03C0909C03D0909D03E09016
:1030E0009E03F0909F03A50194016BA17CA18DA18B
:1030F0009EA10E9421262B013C01A70196016BA5F0
:103100007CA58DA59EA50E9421269B01AC01C30133
:10311000B2010E946B23609398037093990380938C
:103120009A0390939B03A50194016BA57CA58DA5A3
:103130009EA50E9421264B015C01A70196016BA16F
:103140007CA18DA19EA18FCE0E94E90C0E94FC243F
:103150002AE037ED43EA5BE30E9421260E948E2697
:103160009058B1CE81E59BE09093B6038093B50370
:1031700083E08093B40381E08093B30361E06CAF9C
:10318000D1CE8FA5823119F08E5F8FA7D1CE9BADA6
:1031900091110C9405220E9428108BAF882309F40A
:1031A000C7CE83E993E09093B6038093B5038BE198
:1031B0008093B40381E08093B303A12C6EE0B62E1C
:1031C00074E0972E80914304A81608F0CFC00A2D12
:1031D00010E0B09EF001B19EF00D1124E954FC4FB7
:1031E00080818F70823051F582858550823030F138
:1031F000AB9CC001112487549C4F0E943E0D298333
:103200003A834B835C836D837E838F839887C980E9
:10321000DA80EB80FC8020E030E0A901C701B60134
:103220000E941426181664F020E030E040EA51ECC9
:10323000C701B6010E941426181664F0A394C2CFE9
:1032400020E030E040EA51E4C701B6010E944A2480
:1032500087FFF4CF20E030E0A9016D817E818F816E
:1032600098850E94142618164CF720E030E0A9013A
:10327000C701B6010E941426181624F0F7FAF0943C
:10328000F7F8F094B09EF001B19EF00D1124E954CE
:10329000FC4F648570E090E080E00E94FE24A7016E
:1032A00096010E9421269B01AC0160E070E080E75E
:1032B00091E40E94542420E030E040EA50E40E946F
:1032C00054246B017C0120E030E040E751E40E948F
:1032D00014261816F4F0C701B6010E94CD24662307
:1032E00009F4ACCFB09EF001B19EF00D1124E95469
:1032F000FC4F8385861B990B97FD80E08387B09EEA
:10330000F001B19EF00D1124E954FC4F9286958690
:1033100095CF6FE0E7CF20E030E040E251EC6BA5C5
:103320007CA58DA59EA50E9414261816ACF420E05D
:1033300030E040E85FE36BA57CA58DA59EA50E94CB
:103340006B236BA77CA78DA79EA7AFA5A23008F41F
:10335000EFCDA250AFA7ECCD0E9428108823A9F38F
:103360001092A90381E08093A803EFCFB6E1BFA735
:10337000DFCD26EA3BE944E45BEBC701B6010E94DE
:103380004A2487FFF2CD8090000190900101A09027
:103390000201B09003012091940330919503409174
:1033A000960350919703C701B6010E942126A501FB
:1033B00094010E9421262B013C0120919003309121
:1033C00091034091920350919303C701B6010E946B
:1033D0002126A50194010E942126AB01BC01E12C0C
:1033E0009301820188E893E00E941E121BA25EE016
:1033F000352E2224239400914304EBA1E01708F01A
:10340000D4C16E2E712CE39D7001112497012754B5
:103410003C4F38A72FA3B90188E893E00E94FE1023
:10342000F701E954FC4F84879585992311F0915059
:103430009587893C60F0369CF001379CF00D112493
:10344000E954FC4F808191810E94020BD4CF369CBD
:103450009001379C300D1124A90149545C4F6A0139
:10346000DA011A962C911A97263021F4BBA1BF5F7E
:10347000BBA3C1CFFA0190819F70983009F460C15D
:1034800030F49230C9F0FBA1FF5FFBA3B4CF9930B9
:1034900009F474C19A30B9F7823008F011C18091F3
:1034A000A403843108F484E184518093A40320921E
:1034B00087030E94D610BFCF1B969C911B9791113A
:1034C0000AC0253001F385E01A968C931A97E6E03E
:1034D0001D96EC93D8CF243061F41D968C911D97E6
:1034E0008111D1CF1A962C921A9788E21D968C934F
:1034F000CACF223039F485858111C5CF228688E272
:103500008587C1CF99EF980F369CF001379CF00D5D
:103510001124E954FC4F993408F0B0C0213021F057
:10352000228624E12587AFCF1585111131C0868011
:103530009780A084B184C280D380E480F5800A3073
:1035400008F0BAC7C501B4010E94CD24562EC701A8
:10355000B6010E94CD24462E30E4539EC0011124B2
:10356000842944E0880F991F4A95E1F78A6027EB88
:1035700033E0011709F44EC7225F3F4FF9013E9730
:10358000408151814817590709F496C71F5FF1CF51
:10359000C0908C03D0908D03E0908E03F0908F0349
:1035A00086809780A084B184A5019401C701B601EB
:1035B0000E9414262AE037ED43EA5CE318167CF0FB
:1035C000A5019401C701B6010E944A242AE037ED03
:1035D00043EA5CEB87FD03C020E030E0A901C09026
:1035E0000001D0900101E0900201F0900301C701B9
:1035F000B6010E9421266CAB7DAB8EAB9FAB809059
:10360000880390908903A0908A03B0908B03369C26
:10361000F001379CF00D1124E954FC4F4280538097
:1036200064807580A3019201C501B4010E94142633
:103630002AE037ED43EA5CE318167CF0A30192011F
:10364000C501B4010E944A242AE037ED43EA5CEB4D
:1036500087FD03C020E030E0A901C701B6010E9448
:103660002126AB01BC01EE24E3940CA91DA92EA9CF
:103670003FA98FA198A50E941E1205CF8730F0F4B4
:10368000233021F083E082878AE03ACF858581115B
:10369000FACE8091A403883008F488E088508093A3
:1036A000A403369CF001379CF00D1124E954FC4F23
:1036B0003586209287030E94D610E5CE1286E3CE8F
:1036C0001B966C9170E090E080E00E94FC2420E06A
:1036D00030E044E352E40E9454242BED3FE049E4FF
:1036E00050E40E9421262B013C010E948E264B01B2
:1036F0005C01C301B2010E944F242B013C012DEC5F
:103700003CEC4CE45EE3C501B4010E9421264B0170
:103710005C012DEC3CEC4CE45EE3C301B2010E9481
:103720002126AB01BC01EE24E394950184018FA115
:1037300098A50E941E12892B09F4A5CEF60182CE0F
:10374000863008F0A0CE28E034E03093B603209312
:10375000B50335E43093B4032092B303E6E01A9640
:10376000EC938091A403833308F082E38E5C809312
:10377000A4030E94D6102092870385CE863008F0DD
:1037800082CE2EEA33E03093B6032093B5033AE5B8
:103790003093B4032092B303E6E01A96EC93809141
:1037A000A5038F5F8093A503E4CF1BA22BA1622FFB
:1037B00070E090E080E00E94FC249B01AC010E943C
:1037C0006C2320E030E040E05CE30E94212620E012
:1037D00030E040E85FE30E946B236B017C012091A5
:1037E00098033091990340919A0350919B030E9452
:1037F00021262091900330919103409192035091A2
:1038000093030E946C2321966CAF7DAF8EAF9FAF68
:10381000219720919C0330919D0340919E035091EC
:103820009F03C701B6010E94212620919403309185
:10383000950340919603509197030E946C2325961F
:103840006CAF7DAF8EAF9FAF2597C0908803D090AF
:103850008903E0908A03F0908B03C701B6010E94B0
:10386000CD24262E80908C0390908D03A0908E0303
:10387000B0908F03C501B4010E94CD24362EC982B9
:10388000DA82EB82FC828D829E82AF82B88621969C
:103890002CAD3DAD4EAD5FAD219760E070E080E8AE
:1038A0009FE30E9454246FA378A789A79AA720E0DA
:1038B00030E0A9010E94142618164CF04FA158A51B
:1038C00069A57AA570584FA358A769A77AA7259626
:1038D0002CAD3DAD4EAD5FAD259760E070E080E86A
:1038E0009FE30E9454246CAB7DAB8EAB9FAB20E07A
:1038F00030E0A9010E94142618164CF06CA97DA98D
:103900008EA99FA990586CAB7DAB8EAB9FAB622DFF
:1039100070E090E080E00E94FE242B013C0120E05A
:1039200030E0A90121966CAD7DAD8EAD9FAD2197A4
:103930000E944A2487FF5DC1A3019201C701B6011D
:103940000E946B232FA138A549A55AA50E942126C4
:103950006B017C017FEF26967FAF2697632D70E089
:1039600090E080E00E94FE242B013C0120E030E04A
:10397000A90125966CAD7DAD8EAD9FAD25970E94BA
:103980004A2487FF4FC1A3019201C501B4010E94DF
:103990006B232CA93DA94EA95FA90E9421262B01CA
:1039A0003C0188248A94A9ACBAAC3CE0932EA701D0
:1039B0009601C301B2010E94142618160CF052C1E0
:1039C0002FA138A549A55AA5C701B6010E946C23AD
:1039D0006B017C0126969FAD2697290E10E0AFE380
:1039E000A21508F480C1B8E3B31508F47CC1632DB7
:1039F000822D0E94E10A082F8F3009F040C1111179
:103A00008EC1622D70E090E080E00E94FE24209143
:103A100088033091890340918A0350918B030E945F
:103A20006B236B017C0161E070E026963FAD269729
:103A3000631B710937FD739575956795072E000C0B
:103A4000880B990B0E94FE249B01AC01C701B601B3
:103A50000E946C2321962CAD3DAD4EAD5FAD2197FC
:103A60000E9454246B017C0120E030E040E85FE3D9
:103A70000E944A2487FF06C0C12CD12C00E8E02E0A
:103A80000FE3F02E20E030E040EA51E4C701B60138
:103A90000E9421264B015C0120E030E04FE753E417
:103AA0000E944A246FEF87FF04C0C501B4010E9441
:103AB000CD24EBA1E695F0E0EA5BFC4F6083110FAB
:103AC00008E0011B20E030E040E451E4C701B6010A
:103AD0000E94542420E030E040E051E40E9421267E
:103AE0000E94C624061BA70196016BA57CA58DA587
:103AF0009EA50E9454244B015C01A701960160E041
:103B000070E080E692E40E9454240E94CD246695E1
:103B100070E090E080E00E94FE246B017C01AC012B
:103B20009B01C501B4010E946C2320E030E040EE0F
:103B300051E40E946C230E94C624162FA70196010F
:103B4000C501B4010E946B2320E030E040EE51E457
:103B50000E946C230E94C624A12E61170CF4A62E8D
:103B6000A7FCA12CF12E16170CF4F62E47E34F15E7
:103B700014F417E3F12E9BA093949394EBA01A2DC9
:103B8000B12CCE2CD12CF1160CF4F6C0512F57705D
:103B900027965FAF279780E0002341F081E0073050
:103BA00028F4402F612F8E2D0E94220D90E0279641
:103BB0000FAC279702C0880F991F0A94E2F7B82A22
:103BC00027966FAD2797673091F4E12FE695E6953C
:103BD000E69570E8E79FC0011124E091A603F091FB
:103BE000A703E80FF91FEC0DFD1DB082B12C1F5F7C
:103BF000CACF20E030E040E85FE3C301B2010E9499
:103C00006C23A70196010E946B232FA138A549A51B
:103C10005AA50E9421266B017C0181E026968FAF78
:103C200026979CCE20E030E040E85FE3C301B2017C
:103C30000E946C23A50194010E946B232CA93DA92D
:103C40004EA95FA90E9421262B013C018824839460
:103C5000AACEBAAEA9AE9A94992009F4A6C0A9AC8E
:103C6000BAACA5CE2CA93DA94EA95FA9C301B2014A
:103C70000E946C232B013C01380C11E0B0CE823045
:103C800011F003FFE8CFBE016F5F7F4F88E893E03C
:103C90000E94FE10883CF8F6E0E43E9EC00111242C
:103CA000822924E0880F991F2A95E1F79C01202B97
:103CB0003AAF29AF2A153B0571F21091430427EB67
:103CC00033E080E0181709F404C4225F3F4FF90184
:103CD0003E974081518169AD7AAD6417750709F44B
:103CE000B8CF8F5FEFCF00E0CCCFBEE0B19FC00177
:103CF0001124FC01E954FC4F5F0100E0232D422D0B
:103D000069E0FFC3FEE0F19FC00111249C0129542A
:103D10003C4F590100E0232D422D68E0F2C3632D92
:103D200070E090E080E00E94FE2420918C033091AE
:103D30008D0340918E0350918F030E946B236B0182
:103D40007C0161E070E06819710987FC73957595D5
:103D50006795072E000C880B990B0E94FE249B018F
:103D6000AC01C701B6010E946C2325962CAD3DAD78
:103D70004EAD5FAD259774CE27968FAD27978730D0
:103D800089F01150169516951695A0E81A9FC00156
:103D90001124E091A603F091A703E80FF91FEE0D9F
:103DA000F11DB082E3949E10EACEBBA1BE5FBBA31F
:103DB000B03809F0FBCC80914304E0E0AAE0EA2EA1
:103DC0000DE010E0C82ED12CBEE0FB2E823018F49E
:103DD000EE2309F44BC08E9DC0011124B8010E944E
:103DE000FC22862F69506230E8F18823E9F190E0E7
:103DF000E0E0B601681B7109292F30E0261737076C
:103E00002CF7F29EA001F39E500D112449545C4FF3
:103E1000280FF29E9001112429543C4FDA011C9680
:103E2000BC90D9011C96FC91BF16D0F4EEE0BE2EDA
:103E3000FA01DE01119601900D92BA94E1F7FEE0CD
:103E4000BF2EF901DA0101900D92BA94E1F74EE02C
:103E5000FE013196D90101900D924A95E1F7E1E01A
:103E60009F5FCACF8BE0C3CF81E0C1CF312C5EE032
:103E7000252E80914304381608F090C1C32CD12C14
:103E80002C9CC0012D9C900D1124FC01E954FC4F89
:103E90007F011285163009F45CC087549C4F0E9444
:103EA0003E0D29833A834B835C836D837E838F83AE
:103EB00098878D809E80AF80B8842DEC3CEC4CECD4
:103EC0005DE3C501B4010E944A2418160CF041C0FC
:103ED00020E030E040E051E4C501B4010E94142626
:103EE0001816BCF1A501940169817A818B819C81AE
:103EF0000E94542420E030E040E85FE30E946C23FD
:103F000020E030E040E852E40E9421260E94C624CE
:103F10002B01CB01805C9F4F81309140D0F4A501F3
:103F200094016BA57CA58DA59EA50E94542420E03C
:103F300030E040EE51E40E946C230E94C624062F1C
:103F4000D7018C918F70883009F4B4C020F482308E
:103F5000D1F133948ECF893009F4EAC08A30C9F7A1
:103F6000A501940160E070E080E091E40E94542497
:103F70006B017C01602F000F770B880B990B0E945F
:103F8000FE24A70196010E946B230E94C6246BA306
:103F9000B201550C880B990B0E94FE24A7019601D3
:103FA0000E946B230E94C624862FC12C30E1E32E91
:103FB000F12C00E110E02FEC34E04FEE54E06BA167
:103FC0000E94EE0EC6CF113009F04DC00E94E90CE0
:103FD00024EF31E040E050E00E941023C90162E08C
:103FE00070E00E94FC22182F602F000F770B880BC7
:103FF000990B0E94FE246B017C01A501940160E0F5
:1040000070E080E091E40E9454249B01AC01C70160
:10401000B6010E946B230E94C624D62EB201550C15
:10402000880B990B0E94FE242B013C01A5019401F1
:1040300060E070E080E891E40E9454249B01AC01B0
:10404000C301B2010E946B230E94C624862FC12E99
:1040500040E2E42EF12C00E210E02FE035E04FE8E2
:1040600057E06D2DADCF123009F4BECF1430F1F012
:10407000133071F42C9CF0012D9CF00D1124E954A7
:10408000FC4F858512E08B3008F0AECF11E0ACCF4D
:10409000153071F42C9CF0012D9CF00D1124E95485
:1040A000FC4F858514E0882309F49ECF13E09CCF54
:1040B00010E09ACF602F000F770B880B990B0E94AE
:1040C000FE246B017C01A501940160E070E080EAB0
:1040D00090E40E9454249B01AC01C701B6010E94E8
:1040E0006C230E94C624D62EB201550C880B990B66
:1040F0000E94FE242B013C01A501940160E070E0C8
:1041000080E091E40E9454249B01AC01C301B20100
:104110000E946B230E94C624862FC12C20E1E22E30
:10412000F12C00E110E02FE434E04FE854E099CFA7
:10413000602F000F770B880B990B0E94FE246B01F8
:104140007C01A501940160E070E080EA90E40E94A7
:1041500054249B01AC01C701B6010E946C230E944C
:10416000C624D62EB201550C880B990B0E94FE2452
:104170002B013C01A501940160E070E080E091E436
:104180000E9454249B01AC01C301B2010E946B2325
:104190000E94C624862FCC24C394C0CF0E94E90C71
:1041A0000E94FC242AE037ED43EA5BE30E942126CB
:1041B0000E948E2620E030E040E251E40E94212659
:1041C00028A939A94AA95BA90E94212620E030E04C
:1041D00040E452E40E946C230E94C624A62E68E3A9
:1041E00070E0BFA56B1B7109072E000C880B990BA3
:1041F0000E94FE246B017C010E94E90C0E94FC24B9
:104200002AE037ED43EA5BE30E9421260E944F2417
:1042100020E030E0A9010E94142618160CF0B0C06E
:104220000E94E90C0E94FC242AE037ED43EA5BE39C
:104230000E9421260E944F2420E030E040E051E41B
:104240000E9421269B01AC0168A979A98AA99BA992
:104250000E942126A70196010E946C230E94C62479
:10426000D62E862E660F99080A2C000CBB08EFA5E7
:10427000E53180F0EE24E394F12C04E110E028E134
:1042800030E04FE05BE0B4016B507109C501069668
:104290000E94A209F7E1C4018096FD1514F488E399
:1042A00090E06C01C818D908D7FE02C0D12CC12CEF
:1042B000F12CE12C860120E230E04FE85AE0B40115
:1042C000C5010E94A209EE24E394F12C20E230E023
:1042D0004FE05AE0B401C5010E94A20928AD222393
:1042E00009F45CC0822F0E94580E38AD315038AFAF
:1042F000311110C020E04EE45BE06AE382E00E94EE
:10430000CC0E20E04BE45BE06AE388E20E94CC0E36
:104310000E94D6109091870380918603992309F417
:104320006CC021E08227809386039150909387038D
:1043300080918603882309F466C087EA8F8741E06D
:1043400050E0BE01615F7F4F80E00E9431100E940B
:104350007C1088E00E94170C892B51F48BE00E949E
:10436000170C892B29F41092A90381E08093A803EC
:104370008091A803882311F40C94EB150C9432154A
:104380000E94E90C0E94FC242AE037ED43EA5BE33B
:104390000E9421260E944F2490584ECF0AE310E03D
:1043A00046E050E06AE370E0C8010E943B0A0F5FFC
:1043B0001F4F00381105A1F725E535E545E852E422
:1043C00060910001709101018091020190910301BF
:1043D0000E9421269B01AC0160E070E08AE794E432
:1043E0000E9454240E94C62482E70E94A910609172
:1043F000430482E50E94A9108DCF882309F498CF49
:104400001092860395CF86EA99CF0E9428108BAF31
:104410000C949817209188033091890340918A0366
:1044200050918B03C701B6010E946B236B017C0185
:1044300020918C0330918D0340918E0350918F0316
:10444000C501B4010E946B23A70196010E94EB23D2
:104450002BED3FE049E450E40E94542420E030E09A
:1044600044E352E40E94212620E030E044E352E499
:104470000E946C230E94C624AB0177FF03C0AB01EE
:10448000465A5F4F319E90011124B90169547C4F07
:104490007B01042F252D442D6AE0CE0145960E9414
:1044A000A40AFE017596D701832D01900D928A957D
:1044B000E1F71F5F10934304369CF001379CF00D29
:1044C0001124E954FC4F82E0828776E075870C94D2
:1044D000431A1A3008F0BFCB083009F413CC093066
:1044E00009F403CC023009F0B6CB7EE0719FC00125
:1044F0001124DC01A954BC4F5D0104E6232D422D9B
:1045000062E0CE0145960E94A40AFE017596D5018F
:104510008EE001900D928A95E1F71F5F109343049E
:104520009ACBE5EAF2E01382128288EE93E0A0E0F3
:10453000B0E084839583A683B78388E091E091837C
:10454000808385EC90E09587848784EC90E0978762
:10455000868780EC90E0918B808B81EC90E0938B50
:10456000828B82EC90E0958B848B86EC90E0978B2D
:10457000868B118E128E138E148E0895FB01DC0132
:1045800002C005900D9241505040D8F70895BB27C6
:104590004A3031F4992322F4BDE2909581959F4FE2
:1045A0000C94D322BB27FB015527AA27880F991FFC
:1045B000AA1FA41710F0A41B83955051B9F7A05D52
:1045C000AA3308F0A95DA193009779F7B111B193CF
:1045D0001192CB010C94EC22DC01FC01672F71914C
:1045E0007723E1F7329704C07C916D9370836291D9
:1045F000AE17BF07C8F3089597FB072E16F4009473
:1046000007D077FD09D00E94512307FC05D03EF466
:10461000909581959F4F0895709561957F4F08956E
:10462000A1E21A2EAA1BBB1BFD010DC0AA1FBB1FB6
:10463000EE1FFF1FA217B307E407F50720F0A21B28
:10464000B30BE40BF50B661F771F881F991F1A9495
:1046500069F760957095809590959B01AC01BD01BF
:10466000CF010895052E97FB1EF400940E94492364
:1046700057FD07D00E94102307FC03D04EF40C9482
:10468000492350954095309521953F4F4F4F5F4FAF
:10469000089590958095709561957F4F8F4F9F4FAE
:1046A0000895AA1BBB1B51E107C0AA1FBB1FA61779
:1046B000B70710F0A61BB70B881F991F5A95A9F7CB
:1046C00080959095BC01CD010895EE0FFF1F0590D8
:1046D000F491E02D09945058BB27AA270E94832308
:1046E0000C94C6250E948D2538F00E94942520F058
:1046F00039F49F3F19F426F40C9463250EF4E095E9
:10470000E7FB0C945D25E92F0E94EB2558F3BA17BF
:10471000620773078407950720F079F4A6F50C94D7
:104720000D260EF4E0950B2EBA2FA02D0B01B9012A
:1047300090010C01CA01A0011124FF27591B99F017
:10474000593F50F4503E68F11A16F040A22F232F23
:10475000342F4427585FF3CF469537952795A79573
:10476000F0405395C9F77EF41F16BA0B620B730B1A
:10477000840BBAF09150A1F0FF0FBB1F661F771F8B
:10478000881FC2F70EC0BA0F621F731F841F48F440
:10479000879577956795B795F7959E3F08F0B0CFC9
:1047A0009395880F08F09927EE0F979587950895B0
:1047B0000E948D2560F080E891E009F49EEF0E9450
:1047C000942528F040E851E071F45EEF0CC00C94A1
:1047D00063250C940D26E92FE0780E94EB2540F329
:1047E000092E052AB1F3261737074807590738F06D
:1047F0000E2E07F8E02569F0E025E0640AC0EF63BB
:1048000007F8009407FADB01B9019D01DC01CA0138
:10481000AD01EF930E946B240E94C6250E941B24C9
:104820005F91552339F02BED3FE049E450FD49EC11
:104830000C946C230895DF93DD27B92FBF7740E8F0
:104840005FE31616170648075B0718F4D92F0E9476
:1048500019269F938F937F936F930E94DC26E8E63F
:10486000F0E00E9466250E94C6252F913F914F914E
:104870005F910E943426DD2351F09058A2EA2AED80
:104880003FE049EC5FE3D0785D270E948323DF910E
:104890000C94C6250E94392508F481E008950E94F1
:1048A0009D25E3950C94D7250E9468240C94C62579
:1048B0000E94942558F00E948D2540F029F45F3F16
:1048C00029F00C945D2551110C940E260C9463254F
:1048D0000E94EB2568F39923B1F3552391F3951BBF
:1048E000550BBB27AA2762177307840738F09F5F11
:1048F0005F4F220F331F441FAA1FA9F335D00E2E7E
:104900003AF0E0E832D091505040E695001CCAF7EA
:104910002BD0FE2F29D0660F771F881FBB1F2617AD
:1049200037074807AB07B0E809F0BB0B802DBF0184
:10493000FF2793585F4F3AF09E3F510578F00C9453
:104940005D250C940E265F3FE4F3983ED4F38695E4
:1049500077956795B795F7959F5FC9F7880F911D74
:104960009695879597F90895E1E0660F771F881F60
:10497000BB1F621773078407BA0720F0621B730B13
:10498000840BBA0BEE1F88F7E09508950E94CD24A2
:104990006894B1110C940E2608950E94F32588F0B6
:1049A0009F5798F0B92F9927B751B0F0E1F0660FF3
:1049B000771F881F991F1AF0BA95C9F714C0B13034
:1049C00091F00E940D26B1E008950C940D26672FFA
:1049D000782F8827B85F39F0B93FCCF38695779563
:1049E0006795B395D9F73EF490958095709561954C
:1049F0007F4F8F4F9F4F0895E89409C097FB3EF477
:104A000090958095709561957F4F8F4F9F4F99231B
:104A1000A9F0F92F96E9BB279395F6958795779599
:104A20006795B795F111F8CFFAF4BB0F11F460FF59
:104A30001BC06F5F7F4F8F4F9F4F16C0882311F0B1
:104A400096E911C0772321F09EE8872F762F05C0C5
:104A5000662371F096E8862F70E060E02AF09A9560
:104A6000660F771F881FDAF7880F9695879597F955
:104A70000895990F0008550FAA0BE0E8FEEF1616EF
:104A80001706E807F907C0F012161306E407F50742
:104A900098F0621B730B840B950B39F40A2661F0B6
:104AA000232B242B252B21F408950A2609F4A14059
:104AB000A6958FEF811D811D089597F99F6780E866
:104AC00070E060E008959FEF80EC0895DF93CF934E
:104AD0001F930F93FF92EF92DF927B018C016894FA
:104AE00006C0DA2EEF010E943426FE01E894A5915B
:104AF0002591359145915591A6F3EF010E948323AD
:104B0000FE019701A801DA9469F7DF90EF90FF901A
:104B10000F911F91CF91DF91089500240A941616EA
:104B2000170618060906089500240A94121613069B
:104B30001406050608950C9463250E94F325D8F306
:104B4000E894E0E0BB279F57F0F02AED3FE049EC06
:104B500006C0EE0FBB0F661F771F881F28F0B23A02
:104B600062077307840728F0B25A620B730B840B39
:104B7000E3959A9572F7803830F49A95BB0F661FCB
:104B8000771F881FD2F790480C94E226092E0394D1
:104B9000000C11F4882352F0BB0F40F4BF2B11F42A
:104BA00060FF04C06F5F7F4F8F4F9F4F0895EF935B
:104BB000E0FF07C0A2EA2AED3FE049EC5FEB0E946C
:104BC00083230E94C6250F90039401FC9058E5E9C9
:104BD000F0E00C94F52657FD9058440F551F59F0FE
:104BE0005F3F71F04795880F97FB991F61F09F3FDA
:104BF00079F087950895121613061406551FF2CF03
:104C00004695F1DF08C0161617061806991FF1CF52
:104C100086957105610508940895E894BB27662779
:104C20007727CB0197F908950E94392508F48FEF73
:104C300008959B01AC0160E070E080E89FE30C9474
:104C400054240E9434260C94C6250E948D2538F0E9
:104C50000E94942520F0952311F00C945D250C946E
:104C6000632511240C940E260E94EB2570F3959F6A
:104C7000C1F3950F50E0551F629FF001729FBB2753
:104C8000F00DB11D639FAA27F00DB11DAA1F649FEF
:104C90006627B00DA11D661F829F2227B00DA11DA2
:104CA000621F739FB00DA11D621F839FA00D611D28
:104CB000221F749F3327A00D611D231F849F600D49
:104CC000211D822F762F6A2F11249F5750409AF072
:104CD000F1F088234AF0EE0FFF1FBB1F661F771FFE
:104CE000881F91505040A9F79E3F510580F00C94C9
:104CF0005D250C940E265F3FE4F3983ED4F3869531
:104D000077956795B795F795E7959F5FC1F7FE2B68
:104D1000880F911D9695879597F908959F930E9406
:104D20009D250F9007FCEE5F0C94D72519F416F41F
:104D30000C9463250C94E0260E94F325B8F3992384
:104D4000C9F3B6F39F57550B87FF0E94EE26002448
:104D5000A0E640EA900180585695979528F4805C2B
:104D6000660F771F881F20F026173707480730F493
:104D7000621B730B840B202931294A2BA6951794AB
:104D80000794202531254A2758F7660F771F881F7B
:104D900020F026173707480730F4620B730B840B9B
:104DA000200D311D411DA09581F7B901842F915827
:104DB000880F9695879508959B01AC010C94212648
:104DC0009F3F31F0915020F4879577956795B7957F
:104DD000880F911D9695879597F9089591505040A9
:104DE000660F771F881FD2F708959F938F937F9345
:104DF0006F93FF93EF939B01AC010E942126EF91EB
:104E0000FF910E9466252F913F914F915F910C94E5
:104E10002126DC0101C06D9341505040E0F7089518
:044E2000F894FFCF34
:104E24000000803F00000000960BF50C370BE30BED
:104E3400680B460B5A0B2030313233343536373851
:104E4400394142434445464748494A4B4C4D4E4FED
:104E5400505152535455565758595A2E2C2D5F2899
:084E6400297B7D5B5D2300004A
:00000001FF
