:100000000C940E080C9436080C9436080C943608A0
:100010000C9436080C9436080C9436080C94360868
:100020000C9436080C9436080C9436080C94360858
:100030000C9436080C9436080C9436080C94360848
:100040000C94B4170C9436080C9436080C943608AB
:100050000C9436080C9436080C9436080C94360828
:100060000C94FE170C94360800000000003E5B4F15
:100070005B3E3E6B4F6B3E1C3E7C3E1C183C7E3C08
:10008000181C577D571C1C5E7F5E1C00183C180016
:10009000FFE7C3E7FF0018241800FFE7DBE7FF30A6
:1000A000483A060E2629792926407F050507407F14
:1000B00005253F5A3CE73C5A7F3E1C1C08081C1C87
:1000C0003E7F14227F22145F5F005F5F06097F017D
:1000D0007F006689956A606060606094A2FFA29468
:1000E00008047E040810207E201008082A1C080836
:1000F0001C2A08081E101010100C1E0C1E0C303884
:100100003E3830060E3E0E06000000000000005F84
:1001100000000007000700147F147F14242A7F2AA0
:100120001223130864623649562050000807030062
:10013000001C2241000041221C002A1C7F1C2A08AE
:10014000083E080800807030000808080808000011
:1001500060600020100804023E5149453E00427F85
:10016000400072494949462141494D331814127FD4
:100170001027454545393C4A494931412111090774
:100180003649494936464949291E000014000000F5
:1001900040340000000814224114141414140041C7
:1001A00022140802015909063E415D594E7C121184
:1001B000127C7F494949363E414141227F414141BC
:1001C0003E7F494949417F090909013E4141517337
:1001D0007F0808087F00417F41002040413F017FA8
:1001E000081422417F404040407F021C027F7F0470
:1001F00008107F3E4141413E7F090909063E4151B9
:10020000215E7F09192946264949493203017F01A8
:10021000033F4040403F1F2040201F3F4038403FA9
:10022000631408146303047804036159494D4300BF
:100230007F4141410204081020004141417F0402F6
:10024000010204404040404000030708002054548D
:1002500078407F284444383844444428384444286B
:100260007F385454541800087E090218A4A49C78BE
:100270007F0804047800447D40002040403D007F1A
:100280001028440000417F40007C047804787C08FA
:100290000404783844444438FC18242418182424CE
:1002A00018FC7C08040408485454542404043F44B3
:1002B000243C4040207C1C2040201C3C4030403CE2
:1002C00044281028444C9090907C4464544C440042
:1002D00008364100000077000000413608000201A6
:1002E0000204023C2623263C1EA1A161123A404092
:1002F000207A38545455592155557941225454780F
:1003000042215554784020545579400C1E527212A7
:100310003955555559395454545939555454580030
:1003200000457C410002457D420001457C407D1234
:1003300011127DF0282528F07C5455450020545496
:100340007C547C0A097F4932494949323A44444441
:100350003A324A4848303A4141217A3A424020787C
:10036000009DA0A07D3D4242423D3D4040403D3C7D
:1003700024FF2424487E4943662B2FFC2F2BFF09A2
:1003800029F620C0887E0903205454794100004496
:100390007D413048484A32384040227A007A0A0A81
:1003A000727D0D19317D2629292F282629292926F4
:1003B00030484D4020380808080808080808382F39
:1003C00010C8ACBA2F102834FA00007B00000814C3
:1003D0002A142222142A14085500550055AA55AA99
:1003E00055AAFF55FF55FF000000FF00101010FF39
:1003F00000141414FF001010FF00FF1010F010F094
:10040000141414FC001414F700FF0000FF00FF1484
:1004100014F404FC141417101F10101F101F1414D0
:10042000141F00101010F0000000001F101010101A
:100430001F10101010F010000000FF10101010100E
:1004400010101010FF10000000FF140000FF00FF4C
:1004500000001F10170000FC04F4141417101714E8
:1004600014F404F40000FF00F7141414141414140A
:10047000F700F7141414171410101F101F1414147D
:10048000F4141010F010F000001F101F0000001FE7
:1004900014000000FC140000F010F01010FF10FF1A
:1004A000141414FF141010101F00000000F010FFAF
:1004B000FFFFFFFFF0F0F0F0F0FFFFFF0000000093
:1004C00000FFFF0F0F0F0F0F3844443844FC4A4A17
:1004D0004A347E02020606027E027E0263554941CC
:1004E000633844443C04407E201E2006027E020203
:1004F00099A5E7A5991C2A492A1C4C7201724C3017
:100500004A4D4D303048784830BC625A463D3E49ED
:100510004949007E0101017E2A2A2A2A2A44445F91
:10052000444440514A444040444A51400000FF0185
:1005300003E080FF000008086B6B08361236243693
:10054000060F090F060000181800000010100030F8
:1005500040FF0101001F01011E00191D1712003C80
:100560003C3C3C0000000000000103070F1F3F7FE0
:100570000080C0E0F0F8FCFEDB40A4A62EAF200017
:10058000A1C8D300408DAED580A8000000000000B7
:10059000000000000000000000000000000000005B
:1005A000000000000000000000000000000000004B
:1005B000000000000000000000000000000000003B
:1005C000000000000000000000000000000000002B
:1005D0000000000000000000000003FFBE007000EB
:1005E00000000000000000000000040041008F80B7
:1005F00000000000000000000000097F1D012047EE
:10060000FE0000000000000000000AB00D015F289D
:10061000017FFC7C000000000000094015012F92C2
:10062000FC8002820000000000000AFE29015785BC
:100630007E37993A00000000000009FF11012942AD
:10064000CFDBA87A0000000000000A802D0250A134
:1006500007A1D072000000000000099F14DCA8422E
:1006600087D1A8E40000000000000AA08E205C21D1
:100670005FB1D1C80000000000000BA05F8E3FD02A
:10068000FE578F9000000000000009A047FFDFF92F
:100690007C3F0720000000000000042033FFBCFC6A
:1006A000F05C4E40000000007F0003C008001C1EEC
:1006B000E731A6400000007F8080000007FFC1CE28
:1006C00068B22C3E0001F0803E40000000003E2059
:1006D00028B42C0101FE093C7F2000000000001F0F
:1006E0008884217D3E00E6581FA000000000000025
:1006F000707818BCC0BFE0A00FA000000000000090
:100700000000057E1861C1401F20000000000000AD
:10071000000008CE38C382807E4000000000000048
:1007200000000B5812FE0501F880000000000000D8
:10073000000008FE317C028FE30000000000000092
:100740000000090712BE0DFF8C0000000000000031
:100750000000128E710FC7FE300000000000000084
:1007600000001578630387F0C0000000000000005F
:10077000000016F3087830070000000000000000B9
:10078000000011C4F787CFF800000000000000004F
:1007900000000C1800000000000000000000000035
:1007A000000003E000000000000000000000000066
:1007B0000000000000000000000000000000000039
:1007C0000000000000000000000000000000000029
:1007D000000000000000000000000007FFC7DF9FCE
:1007E00080FFF81F9FC73F9FC0000006798FD9196F
:1007F000001B1819030DB30300000007DF0E0FCF15
:10080000C013180FC21DBE02000000061B8CE0C002
:10081000C0331800C61FF7060000000618CF8F8FE0
:100820008031F00F8618F186000000000000000003
:1008300000000000000000000000000000000000B8
:1008400000000000000000000000000000000000A8
:100850000000000000000000000000000000000098
:10086000000FF80000000000000000000000000081
:100870000030040000000000000000000000000044
:100880000047F2000000000000000000000000002F
:100890000198890000000000000000000000000036
:1008A00002210480000000000000000000000000A1
:1008B00004C10A80000000000000000000000000E9
:1008C00005210A8000000000000000000000000078
:1008D0000510824000000000000000000000000041
:1008E00005087F200000000000000000000000005C
:1008F000048880A00000000000000000000000004C
:1009000002797F20000000000000000000000000CD
:1009100001208140000000000000000000000000F5
:1009200000987E4000000000000000000000000071
:100930000047808000000000000000000000000070
:1009400000303F0000000000000000000000000038
:10095000000FC000000000000000000000000000C8
:100960000000000000000000000000000000000087
:100970000000000000000000000000000000000077
:100980000000000000000000000000000000000067
:10099000FFFFFC80000480000480002C98741C98E9
:1009A000742C98741C98742C98741C98742C987FD0
:1009B0009CFFFFFC34003030FFF030E83030E8704E
:1009C00030E8B030E87030E8B030E87030E8B0308F
:1009D000E87030E8B030E87030E8B030E87030E807
:1009E000B030E87030E8B030E87030E8B030E8702F
:1009F00030E8B030E87030E8B030E87030E8B0305F
:100A0000E87030E8B030E87030E8B030E87030E8D6
:100A1000B030E87030E8B030E87030E8B030E870FE
:100A200030E8B030E87030E8B030E87030E8B0302E
:100A3000E87030E8B030E87030E8B030E87030E8A6
:100A4000B030E87030E8B030E87030E87030E8B0CE
:100A500030E87030E8B030E87030E8B030E870303E
:100A6000E8B030E87030E8B030E87030E8B030E836
:100A70007030E8B030E87030E8B030E87030E8B09E
:100A800030E87030E8B030E87030E8B030E870300E
:100A9000E8B030E87030E8B030E87030E8B030E806
:100AA0007030E8B030E87030E8B030E87030E8B06E
:100AB00030E87030E8B030E87030E8B030E87030DE
:100AC000E8B030E87030E8B030E87030E8B030E8D6
:100AD0007030E8B030E87030E83030FFF03400308B
:100AE000FFFFFC987F9C98742C98741C98742C9829
:100AF000741C98742C98741C80002C800004800056
:100B000004FFFFFC00000000000003F8000C44009C
:100B1000108200608500908500884100843F8044F9
:100B200040403CBF801040800C3F0003C0003FFFAE
:100B3000FFFFFFFF00400000000000808000738F77
:100B400079E04080004B5F63804080006B1C186040
:100B5000408380730F7BE040844060000000408849
:100B60002060200000408820007BC000408C600096
:100B7000266000408BA000266000408820003BC01B
:100B8000004084400000000040838000800200405C
:100B900080001EEF7B8040800038896A0040800022
:100BA0000E8F62004080003C6B618040400000007E
:100BB0000000803FFFFFFFFFFF000000000000007B
:100BC0000000000000000000000000000000000025
:100BD0000000000000000000000000000000000015
:100BE000FFE01FF80FE0000000000000000000031D
:100BF000001020043010000000000000001FFE0C58
:100C00007FC84FF247CC3F80000000000020011158
:100C1000F7E49BF99FE2407F0000000001CFFD67F1
:100C2000C7F4AFDC3FF99F0080000000061C008F76
:100C300007F294FFFF7C07FE4000000008E0F83E4A
:100C400003FAABBFFE1E0AFF40000000138FF83FFF
:100C5000FFF99597FC2B05F320000000267EF8FF96
:100C6000FFFC2B8FF99606FE100000004C41E1FFBF
:100C7000FFFC1587F24B80EFD00000009C03C7F00B
:100C800000FC2BA7F424C340D0000001280F07E785
:100C9000FCFE17B00417E0600C00000151FE67C8AD
:100CA000027CC7AFF817E1D1A20000012BFC9190A4
:100CB000013933A00011E477FA00000097E10C201D
:100CC00000820820000C2B3FFA0000004C0E03C0ED
:100CD000007C07C00003888712000000203000005D
:100CE0000000000000007070040000001F400000C1
:100CF000003E03FFFFC0000C78000000037E00F8F8
:100D00000041040000201FFC800000001C01C304FF
:100D1000009489FFFF9020004000000021FC247413
:100D2000012A53FFFFC84FFF200000004AFF95F241
:100D3000025767FFFFE897FF9000000095FFC9B9D1
:100D400004AB07FFFFE8A7FFC80000012A0EE15D22
:100D500009570BF000089F816400000250E570A95C
:100D60000AAE15300008B300B4000004AB12F05A0C
:100D7000095C2AFFFFE4AF01740000055215F03250
:100D800012B915FFFFF49302B4000004B412B05A74
:100D90001572ABBFFFF4AF1D640000094415F039B4
:100DA00022E496FFFFC497FEC800000AA81270480C
:100DB000CDE8AFF000088CFE100000094825F03E99
:100DC0009FC892E7FC08AFFE20000004A84EF6760C
:100DD0003F90ADC8080495F718000005649FE53FF3
:100DE000FFA09791F2F2A72BC4000004B33FC8BF45
:100DF000FFA0AB9E05F92E05F2000002707F90AFB8
:100E0000FF2097C0FFF806F279000002FFFF309B39
:100E1000FE40AAFFFFF27E88FC8000023FFE405D9C
:100E2000FC8095FFFFE51E867E8000019FFC804FC1
:100E3000F9004ADFFE0966813C8000004FF100277F
:100E4000C20025DE00F13C8099000000200600135E
:100E50009C0013FCFF008100420000001FF8000806
:100E60002000080100007E003C0000000000000798
:100E7000C00007FE000000000000000000000000AD
:100E80000000000000000000000000000000000062
:100E90000000000000000000000000000000000052
:100EA0000000000000000000000000000000000042
:100EB00000000000000000000000000001FFF1F74A
:100EC000E7E03D8FF60FEFC000000000019E63F6E3
:100ED0004640358F360198C00000000001F7C383FB
:100EE000F3F0018FE00118C0000000000186E33834
:100EF0003030019B000318C000000000018633E37E
:100F0000E3E000F300030F80000000000000000099
:100F100000000000000000000000000000000000D1
:100F20003F36F8FE00000000000000000000000056
:100F30007F1C3018000000000000000000000000CE
:100F4000701C3018000000000000000000000000CD
:100F5000673E30300000000000000000000000008C
:100F60007C667C30000000000000000000000000F3
:100F70000000000000000000000000000000000071
:100F80000000000000000000000000000000000061
:100F90000000000000000000000000000000000051
:100FA0000000000000000000000000000000000041
:100FB000000000000000000000000000000024000D
:100FC00027002A0000000000250028002B00000058
:100FD000000023002600290004040404040404047F
:100FE00002020202020203030303030301020408D4
:100FF0001020408001020408102001020408102083
:1010000000000008000201000003040700000000C7
:10101000000000002200FF211D190B1E11241FBE1D
:10102000CFEFD8E0DEBFCDBF11E0A0E0B1E0E2EB52
:10103000F2E402C005900D92A635B107D9F722E07F
:10104000A6E5B1E001C01D92A139B207E1F718E0B1
:10105000CDE0D8E004C02197FE010E94211FCC30D2
:10106000D107C9F70E9478190C944C210C94000008
:101070000895833081F028F4813099F08230A9F00E
:1010800008958730A9F08830C9F08430B1F4809198
:1010900080008F7D03C0809180008F7780938000D7
:1010A000089584B58F7784BD089584B58F7DFBCF77
:1010B0008091B0008F778093B00008958091B00048
:1010C0008F7DF9CFCF93DF93282F30E0F901E050E7
:1010D000F04F8491F901E451F04FD491F901E852B5
:1010E000F04FC491CC23A1F081110E943908EC2F5C
:1010F000F0E0EE0FFF1FE253F04FA591B491EC9199
:10110000ED2381E090E009F480E0DF91CF91089534
:1011100080E090E0FACF1F93CF93DF93282F30E049
:10112000F901E050F04F8491F901E451F04FD4916E
:10113000F901E852F04FC491CC23A9F0162F811188
:101140000E943908EC2FF0E0EE0FFF1FEC53F04F38
:10115000A591B4918FB7F894EC91111108C0D09576
:10116000DE23DC938FBFDF91CF911F910895DE2B9B
:10117000F8CFCF93DF9390E0FC01E451F04F24913E
:101180008852904FFC0184918823D1F090E0880F21
:10119000991FFC01E654F04FA591B491FC01EC536A
:1011A000F04FC591D491623071F49FB7F8943C919F
:1011B000822F809583238C93E8812E2B28839FBFD9
:1011C000DF91CF9108958FB7F894EC912E2B2C934B
:1011D0008FBFF6CF3FB7F8948091390290913A02D1
:1011E000A0913B02B0913C0226B5A89B05C02F3FC1
:1011F00019F00196A11DB11D3FBFBA2FA92F982F3D
:101200008827BC01CD01620F711D811D911D42E037
:10121000660F771F881F991F4A95D1F708958F92FF
:101220009F92AF92BF92CF92DF92EF92FF924B01CB
:101230005C010E94EA086B017C010E94EA086C19BB
:101240007D098E099F09683E734081059105A8F3C9
:1012500021E0821A9108A108B10888EEC80E83E047
:10126000D81EE11CF11C81149104A104B10429F7DA
:10127000FF90EF90DF90CF90BF90AF909F908F90B6
:1012800008952FB7F89460913502709136028091DD
:101290003702909138022FBF089508950895AF92B4
:1012A000BF92CF92DF92EF92FF920F931F93CF9353
:1012B000DF936C017B018B01040F151FEB015E01B5
:1012C000AE18BF08C017D10759F06991D601ED914A
:1012D000FC910190F081E02DC6010995892B79F7E9
:1012E000C501DF91CF911F910F91FF90EF90DF909B
:1012F000CF90BF90AF900895EF92FF920F931F93FE
:10130000CF93DF93EC01EC80FD806E157F050CF030
:1013100070C057FF04C0240F351F50E040E08E819D
:101320009F81FA01E20FF31F8E179F071CF49C01A7
:10133000241B350B121613060CF05BC0922F842F62
:101340008695869586958E9DD0018F9DB00D112432
:101350006A0F7B1FAF8DB8A1A60FB71F477049F169
:1013600088E0841B482F682F70E0FB01E059FA4F9A
:10137000E491281708F063C0621B71092FEF30E079
:1013800002C0359527956A95E2F7E22301301105F1
:1013900039F0B0F10230110561F58C91E82702C0F7
:1013A0008C91E82BEC93941720F12C813D81A20FB6
:1013B000B31FE92FE41BE83078F00230110521F566
:1013C0008E2F9C9190959C932C813D81A20FB31FF1
:1013D00088508830B0F7E770EE2359F0F0E0E85914
:1013E000FA4FE49101301105F9F010F102301105C6
:1013F00019F1DF91CF911F910F91FF90EF90089518
:10140000E0958C91E823CECF81E00115110509F418
:1014100080E081959E2F8C932C813D81A20FB31F7C
:1014200098509830C0F7D7CF8C91E82BEC93E1CF50
:10143000E0958C91E823FACF8C91E827F7CF013023
:10144000110509F4ADCFE0F20230110509F4A5CF82
:10145000AE0DBF1DAECF0F931F93CF93DF9377FFDA
:1014600004C0260F371F70E060E0DC011496CD91B8
:10147000DC91FB01E20FF31FCE17DF071CF49E0186
:10148000261B370B121613064CF5FA0157FD37963B
:10149000A3E0F595E795AA95E1F7EC9FD001ED9FC4
:1014A000B00DFC9FB00D11246A0F7B1FDC015F960D
:1014B000ED91FC91E60FF71F4770552781E090E012
:1014C00001C0880F4A95EAF7482F0130110559F0FD
:1014D000A8F02E0F3F1F02301105E1F0DF91CF91F0
:1014E0001F910F9108952E0F3F1FE217F307B1F3DD
:1014F0008191DF011197842B8C93F7CF80952E0F6C
:101500003F1FE217F30751F39191DF0111979823E1
:101510009C93F7CFE217F30709F38191DF0111974D
:1015200084278C93F7CF0F931F93FA01DC01569613
:101530004C9156974230E9F04330A1F1413061F5CA
:1015400014964D915C91DA01AE1BBF0BFD01E21BBD
:10155000F30B77FD0BC0DC0116964D915C9164177F
:10156000750724F4AB01BF010E942B0A1F910F9154
:10157000089514964D915C91DA01A61BB70BBD013D
:1015800061507109DC0116964D915C91DA01AE1B38
:10159000BF0BFD01E21BF30B77FDE8CFAF010E940B
:1015A0007C09E4CF16964D915C91DA01A61BB70B2E
:1015B000BD0161507109CDCF0F931F93FA01DC017A
:1015C00056964C9156974230A9F0433091F14130F4
:1015D00019F514964D915C91DA01AE1BBF0BFD011C
:1015E0003197F7FD04C0AB01BF010E947C091F9138
:1015F0000F91089514964D915C91DA01A61BB70BDB
:10160000BD01DC0116964D915C91DA01AE1BBF0B5A
:10161000FD013197621B730BF7FDE9CFDC011696D4
:101620004D915C91E417F50714F7AF010E942B0A66
:10163000DECF16964D915C91DA01A61BB70BBD016A
:10164000621B730BCECFFC0177FD64C08085918552
:10165000681779070CF05EC057FD5CC082859385E2
:10166000481759070CF056C086898230B1F0833094
:1016700029F1813041F484819581841B950BAB0164
:10168000BC01615071092130310509F108F443C0F2
:101690002230310509F463C0089584819581DC010D
:1016A000A61BB70BBD016150710986819781DC01D2
:1016B000A41BB50BAD0141505109E5CF868197813F
:1016C000861B970BBA01AC0141505109DCCFCA010E
:1016D00057FD0796A3E095958795AA95E1F7A48114
:1016E000B5818A9F90018B9F300D9A9F300D1124F8
:1016F000620F731F078CF0A1E02DE60FF71F4770F4
:10170000552721E030E001C0220F4A95EAF7808199
:10171000822B80830895CA0157FD079633E0959583
:1017200087953A95E1F7A481B5818A9F90018B9FB7
:10173000300D9A9F300D1124620F731F078CF0A19A
:10174000E02DE60FF71F4770552781E090E001C0BC
:10175000880F4A95EAF7809590818923DACFCA01EC
:1017600057FD079623E0959587952A95E1F7A48183
:10177000B5818A9F90018B9F300D9A9F300D112467
:10178000620F731F078CF0A1E02DE60FF71F477063
:10179000552721E030E001C0220F4A95EAF7808109
:1017A0008227B7CF08958EBD00000DB407FEFDCF90
:1017B0008EB508958CBD9DBD08950895FC0163709C
:1017C000668B8481958126813781613039F0633061
:1017D00029F0918780873387228708953187208772
:1017E0009387828708952F923F924F925F926F92D4
:1017F0007F928F929F92AF92BF92CF92DF92EF92A1
:10180000FF920F931F93CF93DF93CDB7DEB76A9705
:101810000FB6F894DEBF0FBECDBF9A8F898F7A8343
:1018200069834A01D22E18870F833701BC2CDC0153
:1018300059962D913C915A972115310509F015C102
:1018400018968D919C911997681779070CF0D7C15C
:101850001A968D919C91481759070CF0D0C14C2CC9
:10186000512CB6E0CB9E600D711D11247C876B87D7
:10187000161617060CF0C3C1EA2DF0E0FA87E987C7
:1018800093E0EE0FFF1F9A95E1F7F88BEF87CF01FA
:10189000840F951F181619060CF0B1C1A98DBA8DC9
:1018A00058968C91811104C0BFEABD1508F4D394F9
:1018B000A98DBA8DED91FC9111970284F385E02DED
:1018C000CD010995B5E0DB9EC0011124E981FA81C3
:1018D000FC83EB83312C212C9C0128593F4F388FFE
:1018E0002F8B4A2D50E05E8B4D8BEF89F88DE20DEA
:1018F000F31D44919E828D82D12CC12C69817A8105
:10190000620D731D7A8B698B842F90E09C8B8B8B7F
:10191000E98DFA8DA081B18140FF82C0F1E0BF1254
:101920006FC0AF126DC01C96ED91FC912F81388570
:10193000A4014C0D5D1D69897A89898D9A8D09955F
:10194000EB89FC89F595E7954E2F5FEFC51AD50A0F
:101950006D817E818D899E89680F791F7E836D835D
:1019600098E0C916D10481F6AFEF2A1A3A0AEB8142
:10197000FC81E40DF51DFC83EB83F5E02F163104AB
:1019800009F0B3CF2F81388526153705B9F0A98D19
:10199000BA8DED91FC91B1E0BB1257C0AB1255C0AE
:1019A00069817A816B5F7F4F0088F189E02D830127
:1019B00028E030E0A401898D9A8D0995A98DBA8D12
:1019C000ED91FC9111970688F789E02DCD016A967B
:1019D0000FB6F894DEBF0FBECDBFDF91CF911F9140
:1019E0000F91FF90EF90DF90CF90BF90AF909F90BE
:1019F0008F907F906F905F904F903F902F900994C1
:101A00001E96ED91FC91EF80F88409851A8592016C
:101A10004D815E816B817C81898D9A8D099590CFF6
:101A20002F8138852615370509F48ACF31E0B312A6
:101A300007C0A31205C01C96ED91FC91930178CFCD
:101A40001E96ED91FC917301E0CF6B857C85641946
:101A500075090684F785E02D73010F8518899201B9
:101A6000A401898D9A8D0995A9CFF9013496949195
:101A7000329745915491D91AB7E0DB9E400D511D24
:101A80001124F901259134913C8B2B8BFA0125907F
:101A90003490FA013296749031963491398B3296A3
:101AA00064903196449041E04C1518F04A1508F0C6
:101AB0007FC0662D062C000C770B7C836B83842DF6
:101AC000042C000C990B9E838D83A98DBA8DED910A
:101AD000FC9111970284F385E02DCD010995512CDD
:101AE000D12CC12CEA2DF0E0FA87E9872B2D30E0CC
:101AF0003C872B87A401440D511D47FC5A95588FF4
:101B00004F8B69817A81660D711D67FC7A957E879E
:101B10006D877989C71608F051CF2C2D30E04D81A3
:101B20005E81420F531FA985BA854A9FC0014B9F12
:101B3000900D5A9F900D1124FC01E80DF91DF88BB2
:101B4000EF87852D612C4F89588D420F531F5E8B77
:101B50004D8B671408F050C044244394480E87709E
:101B600041F4C1010196EB89FC89E20DF31DD4908B
:101B70001C01D7FE19C0A98DBA8DED91FC91662D7F
:101B800070E0B1E0BB1219C0AB1217C02D853E85C5
:101B9000620F731F0484F585E02D2F8138854D89F0
:101BA0005E89898D9A8D0995DD0C6394842DD1CF42
:101BB0001E821D821C821B8288CF4B815C81640F38
:101BC000751FAB85BC856A9FC0016B9F900D7A9F86
:101BD000900D112469817A81680F791F0684F78539
:101BE000E02DEF80F88409851A859D014F8558897D
:101BF000898D9A8D0995D8CF570CC3948ACF6A9650
:101C00000FB6F894DEBF0FBECDBFDF91CF911F910D
:101C10000F91FF90EF90DF90CF90BF90AF909F908B
:101C20008F907F906F905F904F903F902F9008958E
:101C30008F929F92AF92CF92EF92FF920F931F934A
:101C4000CF93DF93EC01262F898D9A8D009709F0B1
:101C500051C06A30D1F41D861C868D8948E0849F6E
:101C6000900111248E859F85820F931F9F878E87F9
:101C700081E090E0DF91CF911F910F91FF90EF9065
:101C8000CF90AF909F908F9008956D3089F3CC885E
:101C9000AD888F898823C1F08C859D8536E0C39EF1
:101CA000800D911D1124488559854817590764F402
:101CB0004E855F851D861C8638E0A39EC0011124D9
:101CC000840F951F9F878E87EA88FB88088919896A
:101CD0004E855F856C857D85CE010E94F30B2C8936
:101CE0008C859D8546E0249F800D911D11249D8744
:101CF0008C87BECF6A3069F41D861C86FC0138963D
:101D0000E4912D898E859F85E29F800D911D112480
:101D1000ADCF6D3009F4ACCFFC013496349163172C
:101D200008F4A6CF3296E491E61708F4A1CFFC019F
:101D3000329685909490462F431B342F47E0349F72
:101D4000800C911C1124F401329634913196E49167
:101D50003323A9F1EE2399F1CC88F4013596E4916F
:101D6000AD884F89442301F10E2E000CFF0BE30FC9
:101D7000F11DCE9EA001CF9E500D11246C857D8556
:101D8000460F571F68857985641775076CF44E8573
:101D90005F851D861C86FC013896E491AE9E400D41
:101DA000511D11245F874E87EA88FB8808891989AD
:101DB0004E855F856C857D85CE010E94F30BF40115
:101DC0003496E4912C898C859D85E29F800D911D30
:101DD00011248DCF6F927F928F929F92AF92BF927C
:101DE000CF92DF92EF92FF920F931F93CF93DF93E7
:101DF000EC016B015A0139014801E881F981028443
:101E0000F385E02D0995E881F9810288F389E02DB9
:101E100087019301A501B601CE010995A501480DE1
:101E2000591D41505109E881F9810288F389E02D5B
:101E30009301B601CE010995E881F9810088F18905
:101E4000E02D9401A501B601CE010995C60CD71C61
:101E5000B60161507109E881F9810088F189E02DAE
:101E60009401A501CE010995E881F9810688F789D9
:101E7000E02DCE01DF91CF911F910F91FF90EF9058
:101E8000DF90CF90BF90AF909F908F907F906F909A
:101E900009946F927F928F929F92AF92BF92CF924E
:101EA000DF92EF92FF920F931F93CF93DF935C012A
:101EB000EB016A01490138018701DC01ED91FC91D8
:101EC0006217730719F5641675062CF0962D872D89
:101ED0003A01C92ED82E9601261937092F5F3F4F98
:101EE000048CF58DE02DA301BE01C5010995DF919C
:101EF000CF911F910F91FF90EF90DF90CF90BF9007
:101F0000AF909F908F907F906F90089546155705E2
:101F100091F42617370724F0892D4B01C22FD82FB3
:101F20009E01281939092F5F3F4F068CF78DE02D50
:101F3000A601B401DACF0284F385E02D0995D5011D
:101F4000ED91FC910488F589E02D83019401A601AF
:101F5000BE01C5010995D501ED91FC910688F7896F
:101F6000E02DC501DF91CF911F910F91FF90EF9070
:101F7000DF90CF90BF90AF909F908F907F906F90A9
:101F80000994EF92FF920F931F93DC011A960D9123
:101F90001C911B9718962D913C911997ED91FC91EE
:101FA00000A0F1A1E02D7B0150E040E070E060E096
:101FB00009951F910F91FF90EF9008954F925F92B6
:101FC0006F927F928F929F92AF92BF92CF92DF9249
:101FD000EF92FF920F931F93CF93DF936C012B012E
:101FE0005A0139014801DC01ED91FC910284F3852D
:101FF000E02D0995E201640C751CD601ED91FC9170
:10200000C615D7055CF40088F189E02D870194019D
:10201000A501BE01C60109952196EFCF0688F78973
:10202000E02DC601DF91CF911F910F91FF90EF90AE
:10203000DF90CF90BF90AF909F908F907F906F90E8
:102040005F904F9009948F929F92AF92BF92CF92E0
:10205000DF92EF92FF920F931F93CF93DF93EC01E8
:102060005B014A016901E881F9810284F385E02D71
:10207000099595012C0D3D1D21503109E881F9810B
:102080000488F589E02D78018401A401B501CE0111
:102090000995E881F9810688F789E02DCE01DF9165
:1020A000CF911F910F91FF90EF90DF90CF90BF9055
:1020B000AF909F908F9009948F929F92AF92BF9212
:1020C000CF92DF92EF92FF920F931F93CF93DF9304
:1020D000EC015B014A0169017801E881F981028420
:1020E000F385E02D0995C80CD91C86010150110912
:1020F000E881F9810488F589E02D9501A401B501F5
:10210000CE010995E881F9810688F789E02DCE0195
:10211000DF91CF911F910F91FF90EF90DF90CF90C3
:10212000BF90AF909F908F900994EF92FF920F9382
:102130001F93DC01ED91FC9100A0F1A1E02D099528
:102140001F910F91FF90EF9008950F931F93DC0163
:10215000ED91FC91068CF78DE02D09951F910F9163
:1021600008950F931F93DC01ED91FC91048CF58D84
:10217000E02D09951F910F910895DC01ED91FC91DF
:102180000084F185E02D09943F924F925F926F9207
:102190007F928F929F92AF92BF92CF92DF92EF92F7
:1021A000FF920F931F93CF93DF935C017B014A0152
:1021B0006901390187E0680E711C93E0759467949A
:1021C0009A95E1F72B01400E511E10E000E0312CF2
:1021D000D0E0C0E0CE0187709927330C892B59F4E9
:1021E000FE0183E0F595E7958A95E1F7E00FF11F91
:1021F000E80DF91D349037FE0AC021E030E0A70158
:10220000B5016C0F7D1F8DE492E00E94BD102196F8
:10221000CC16DD06F9F68FEFE81AF80A060D171D41
:10222000E414F504A9F6DF91CF911F910F91FF906F
:10223000EF90DF90CF90BF90AF909F908F907F9066
:102240006F905F904F903F9008952F923F924F92E2
:102250005F926F927F928F929F92AF92BF92CF9236
:10226000DF92EF92FF920F931F93CF93DF9300D0F3
:1022700000D000D0CDB7DEB73C016A013E832D838C
:10228000FC82EB825801A41AB50AB7FE03C0B194D0
:10229000A194B1088D809E80861A970A97FE03C08C
:1022A0009194819491088A149B045CF0902F812F63
:1022B0000D811E819D838E839C2D8D2D6B01692F39
:1022C000782F0C151D055CF09D818E817E836D83BA
:1022D000692F782F902F812F8601C92ED82E1601B5
:1022E000201A310A2B012D813E81421A530A57FED2
:1022F00003C0519441945108710137FE03C03FEF70
:10230000E31AF30AF594E7948D819E818617970767
:102310005CF5A1E0B0E0BA83A983C016D1064CF108
:10232000D301ED91FC910484F585E02D2B813C8156
:10233000A8016D817E818A149B041CF04D815E8111
:10234000B801C3010995E418F508F7FE0AC02D810C
:102350003E8189819A81280F391F3E832D83E20CAB
:10236000F31C0F5F1F4FD9CF2FEF3FEF3A83298325
:10237000D4CF26960FB6F894DEBF0FBECDBFDF9147
:10238000CF911F910F91FF90EF90DF90CF90BF9072
:10239000AF909F908F907F906F905F904F903F9005
:1023A0002F90089508952091BE01260F3327331FE3
:1023B00021323105ECF42091E201FC0190E080E053
:1023C000243069F082E00895A091BE012191AC0112
:1023D00042565E4FA40FB52FB11D2C930196861760
:1023E00098F38091BE01680F6093BE0180E008956C
:1023F00081E008951092E20181E08093E40110925F
:10240000E30161E082E10E948B0861E083E10E94C8
:102410008B08E9EBF0E080818E7F808380818D7F67
:10242000808388E48093B80085E48093BC0008959D
:10243000CF93DF9391E090939D018823B9F0C091F1
:10244000B800D091BA008091BC008A7B8093BC0018
:1024500060E082E10E948B0860E083E10E948B08CB
:102460000E94FA11D093BA00C093B800DF91CF91C7
:102470000895E0910E0280910D02E81730F4F0E02B
:10248000E858FE4F808190E008958FEF9FEF089508
:1024900090910E0280910D022FEF3FEF981748F4B4
:1024A000E92FF0E0E858FE4F208130E09F5F9093E5
:1024B0000E02C901089580910D0290910E02891BB0
:1024C000990B0895CF92DF92EF92FF920F931F9393
:1024D000CF93DF937C01CB018A012091400222231C
:1024E00089F0EB016B01C40ED51ECC15DD0569F03A
:1024F0006991D701ED91FC910190F081E02DC70128
:102500000995F3CF642F0E94D311C801DF91CF91B9
:102510001F910F91FF90EF90DF90CF900895CF9390
:10252000DF931F92CDB7DEB769832091400222234B
:10253000F9F020913D02203258F021E030E0FC011A
:102540003383228390E080E00F90DF91CF91089554
:1025500080913E02E82FF0E0E85AFE4F9981908387
:102560008F5F80933E0280933D0281E090E0ECCF4C
:1025700061E0CE0101960E94D311F7CFCF92DF9296
:10258000EF92FF920F931F93CF93DF93D0913D0271
:1025900081E0D13208F09CC0C0913F020E94EA085D
:1025A0006B017C018091E20181116CC082E080931B
:1025B000E20181E08093E4018FEF8093E1011092CA
:1025C0000602D0930502A8E5B1E0E5EEF1E080E077
:1025D000D8138DC01092070280910702CC0FC82B30
:1025E000C09307028091E301813009F084C010920A
:1025F000E3010E94EA086B017C018091070280934D
:10260000BB008091990190919A01A0919B01B0919A
:102610009C01892B8A2B8B2BA1F00E94EA08009148
:10262000990110919A0120919B0130919C016C19A4
:102630007D098E099F09061717072807390708F42F
:1026400042C08091BC0083FDD8CF85EC8093BC0054
:102650000E94EA086B017C018091E201823009F45A
:102660004CC08091E1018F3F09F469C08091E10184
:10267000803209F466C08091E101803309F463C0BF
:1026800084E026C08091990190919A01A0919B01CC
:10269000B0919C01892B8A2B8B2B09F483CF0E944C
:1026A000EA080091990110919A0120919B013091C3
:1026B0009C016C197D098E099F09061717072807C9
:1026C000390708F06FCF809198010E94181285E0B9
:1026D00010923E0210923D0210924002DF91CF9183
:1026E0001F910F91FF90EF90DF90CF9008959D91F3
:1026F00091938F5F6DCF85EEA9CF809199019091D5
:102700009A01A0919B01B0919C01892B8A2B8B2B64
:1027100009F4A2CF0E94EA080091990110919A0150
:1027200020919B0130919C016C197D098E099F09B4
:10273000061717072807390708F08ECFC4CF80E0A7
:10274000C7CF82E0C5CF83E0C3CFEF92FF920F9354
:102750001F93CF93DF937C01C62F80916A029091E3
:102760006B02009709F459C020916E0231E030935A
:10277000400220933F0210923E0210923D02DC0183
:10278000ED91FC910190F081E02D60E009958701C9
:10279000EE24E394F12CD1E0C15080916A02909133
:1027A0006B02CF3F91F1B0E2EB16F104D8F00E943A
:1027B000BE1280916A0290916B0220916E02D093BA
:1027C000400220933F0210923E0210923D02DC0133
:1027D000ED91FC910190F081E02D60E00995EE24EF
:1027E000E394F12C80916A0290916B02F80164915C
:1027F000DC01ED91FC910190F081E02D0995BFEF96
:10280000EB1AFB0A0F5F1F4FC7CFDF91CF911F91CC
:102810000F91FF90EF900C94BE12E0917A02F0912C
:102820007B0290818091800280958923808387013B
:10283000C15008F438C0F8018491209168023091A9
:102840006902232B29F00E94D30B0F5F1F4FF0CF9B
:1028500028E030E040E8E0917602F0917702909134
:102860007E02582F5423D9F05081952B9083E0910C
:102870007802F0917902908150917F02952B90839C
:10288000E0917802F0917902508190917F029095C9
:1028900095239083469521503109E9F6D6CF508192
:1028A00090959523E3CFDF91CF911F910F91FF90EA
:1028B000EF9008951F93CF93DF93EC018D8D9E8D44
:1028C000009721F1162F29A131E030934002209387
:1028D0003F0210923E0210923D02DC01ED91FC910C
:1028E0000190F081E02D60E009958D8D9E8DDC01D9
:1028F000ED91FC910190F081E02D612F09958D8D76
:102900009E8DDF91CF911F910C94BE12ADA5BEA5F7
:102910009C918BA9809589238C938B8D9C8D892B81
:1029200031F0862FDF91CF911F910C94D30B28E0CB
:1029300030E080E8A9A5BAA599A9462F4823C1F09F
:102940004C91942B9C93ABA5BCA59C914AA9942B2C
:102950009C93ABA5BCA54C919AA9909594239C936C
:1029600086952150310931F7DF91CF911F9108955C
:102970004C9190959423E6CFDF92EF92FF920F93C4
:102980001F93CF93DF9380916A0290916B02892B02
:1029900009F4A5C020918202309183024091840203
:1029A0005091850260E074E284EF90E00E94F01E96
:1029B0002051310941095109569547953795279579
:1029C0002093B80064E084E190E10E94A513809117
:1029D0005102909152028034910509F097C060E253
:1029E0008DE492E00E945A1460915102615E8DE480
:1029F00092E00E945A142091530230915402C9016E
:102A0000079697FD079633E0959587953A95E1F7F8
:102A10002091510230915202829F8001839F100DBC
:102A2000929F100D1124C0916C02D0916D02809183
:102A30006A0290916B020C0F1D1F009709F498C059
:102A400020916E0231E03093400220933F021092B9
:102A50003E0210923D02DC01ED91FC910190F0816B
:102A6000E02D60E40995EE24E394F12CDD24D39469
:102A700080916A0290916B020C171D0709F44FC0F8
:102A8000B0E2EB16F104D8F00E94BE1280916A0207
:102A900090916B0220916E02D092400220933F02EF
:102AA00010923E0210923D02DC01ED91FC910190EA
:102AB000F081E02D60E40995EE24E394F12C8091FF
:102AC0006A0290916B026991DC01ED91FC91019099
:102AD000F081E02D0995BFEFEB1AFB0AC9CF809179
:102AE000680290916902892B31F080918B0290915C
:102AF0008C020E94DA0BE0917C02F0917D029081C1
:102B0000809181028095892380835CCF60E08DE491
:102B100092E00E945A1460915102615068CF0E9465
:102B2000BE1280916A0290916B02892B09F461C0F8
:102B3000209186023091870240918802509189024B
:102B400060E074E284EF90E00E94F01E20513109B1
:102B50004109510956954795379527952093B80017
:102B6000DF91CF911F910F91FF90EF90DF9008952B
:102B7000E0917A02F0917B02808190918002892B12
:102B800080830C171D0769F28991209168023091AA
:102B90006902232B19F00E94D30BF3CF28E030E019
:102BA00040E8E0917602F091770290917E02582FF2
:102BB0005423D9F05081952B9083E0917802F091C5
:102BC0007902908150917F02952B9083E091780259
:102BD000F0917902508190917F0290959523908396
:102BE000469521503109E9F6CCCF50819095952337
:102BF000E3CFE0917C02F0917D028081909181028F
:102C0000892B8083ADCF1F93CF93DF93EC01162FD9
:102C10008D8D9E8D892BB1F12DA93EA94FA958AD5F
:102C200060E074E284EF90E00E94F01E20513109D0
:102C30004109510956954795379527952093B80036
:102C400066EA111167EACE010E945A148D8D9E8D9D
:102C5000892B41F129AD3AAD4BAD5CAD60E074E23A
:102C600084EF90E00E94F01E205131094109510982
:102C700056954795379527952093B800DF91CF91CA
:102C80001F9108958B8D9C8D892B21F08EAD9FAD6A
:102C90000E94DA0BEFA5F8A990818CA98095892371
:102CA0008083CECFEFA5F8A980819CA9892B808352
:102CB000E5CF90E080E008952091530230915402D6
:102CC000C901079697FD079623E0959587952A9564
:102CD000E1F72091510230915202829FA001839F1F
:102CE000500D929F500D112470E060E080916C02B5
:102CF00090916D020C9445218F929F92AF92BF925A
:102D00000F931F93CF93DF93CDB7DEB7A1970FB685
:102D1000F894DEBF0FBECDBF19A2423008F44AE0DE
:102D20008E010F5D1F4F842E912CB12CA12CA5017B
:102D300094010E94F01EE62FB901CA01EA3044F561
:102D4000E05DD801EE938D01232B242B252B79F701
:102D500090E080E0109769F0FD0101900020E9F714
:102D60003197AF014A1B5B0BBD018DE492E00E94DD
:102D70004F09A1960FB6F894DEBF0FBECDBFDF910D
:102D8000CF911F910F91BF90AF909F908F9008951A
:102D9000E95CD7CFCF92DF92EF92FF92CF93DF9390
:102DA0006C01990FEE08FF08F7FE19C06DE28DE483
:102DB00092E00E94180EEC0166277727CB016C1970
:102DC0007D098E099F094AE00E947C168C0F9D1F89
:102DD000DF91CF91FF90EF90DF90CF9008954AE080
:102DE000C701B601DF91CF91FF90EF90DF90CF90B8
:102DF0000C947C168F929F92AF92BF92EF92FF92AB
:102E00000F931F93CF93DF9380E290E090932D0276
:102E100080932C0210921502109216021092170243
:102E20001092180210923202109231021092330264
:102E300010922E020E9441096093190270931A02A7
:102E400080931B0290931C0281E190E090935701C4
:102E500080935601CDE1D2E084E9E82EF12C10E018
:102E600000E093E3892E912CA12CB12CF982E88209
:102E700001151105E9F48091560190915701909345
:102E8000200280931F021C820F5F1F4F86E4E80E12
:102E9000F11C25960330110549F7DF91CF911F9161
:102EA0000F91FF90EF90BF90AF909F908F900895FB
:102EB0000E94661EA50194010E94BE1EDC01CB018A
:102EC0004997A109B1092091560130915701820F0C
:102ED000931F8431910514F083E190E08F309105C8
:102EE00014F48FE090E09B838A8390935701809342
:102EF0005601C9CF0E94402185ED8093BC0080918E
:102F0000990190919A01A0919B01B0919C01079623
:102F1000A11DB11D23E0B695A795979587952A9594
:102F2000D1F72091BC0024FD03C01092E201089566
:102F30004091990150919A0160919B0170919C017F
:102F4000452B462B472B69F30097A105B10541F0AE
:102F50002AE22A95F1F700C00197A109B109E1CF52
:102F6000809198010C9418121F920F920FB60F9235
:102F700011242F933F938F939F93AF93BF9380918F
:102F8000350290913602A0913702B091380230910B
:102F9000340223E0230F2D3758F50196A11DB11DF2
:102FA000209334028093350290933602A093370227
:102FB000B09338028091390290913A02A0913B027D
:102FC000B0913C020196A11DB11D809339029093EE
:102FD0003A02A0933B02B0933C02BF91AF919F9104
:102FE0008F913F912F910F900FBE0F901F901895CA
:102FF00026E8230F0296A11DB11DD2CF1F920F927A
:103000000FB60F9211242F933F934F935F936F93BB
:103010007F938F939F93AF93BF93EF93FF93809191
:10302000B900887F803609F44AC0F0F5883209F487
:10303000A7C018F5803109F49BC0B8F4882309F4BF
:10304000F9C0883009F494C0FF91EF91BF91AF911E
:103050009F918F917F916F915F914F913F912F91B0
:103060000F900FBE0F901F901895883109F488C0FB
:10307000803251F78093E10114C0803409F49DC07F
:1030800040F48033B9F38833F9F68093E10185EC9D
:10309000B0C0803509F485C0883509F496C08834FD
:1030A00099F60E947C17D0CF883909F48CC038F586
:1030B000883729F050F4883611F0803729F683E0FC
:1030C0008093E2011092E00157C0883809F47BC078
:1030D000803919F0803809F0B7CF8091E001803253
:1030E00008F071C0E091E00181E08E0F8093E00173
:1030F0008091BB00F0E0E054FE4F80833DC0803BF8
:1031000039F0E0F4803A09F479C0883A09F09CCFAC
:1031100084E08093E2011092BF011092BE01E09121
:103120000B02F0910C0209958091BE0181110FC034
:1031300081E08093BE0110929E0109C0803C09F499
:10314000A6CF883C09F4A3CF883B09F07DCFE0915E
:10315000BF0181E08E0F8093BF01F0E0E256FE4F89
:1031600080818093BB009091BF018091BE0129C0F6
:10317000809107028093BB0085EC8093BC0064CFF4
:103180009091060280910502981758F5E091060289
:1031900081E08E0F80930602F0E0EB51FE4F8081BC
:1031A000E9CFE091060281E08E0F809306028091C4
:1031B000BB00F0E0EB51FE4F8083909106028091BE
:1031C00005029817C8F285E8D8CFE091060281E0A1
:1031D0008E0F809306028091BB00F0E0EB51FE4F12
:1031E00080838091E40181115CCF81E08093E301D1
:1031F00084EA8093BC001092E20126CF85EC809394
:10320000BC001092E2018091E001803230F4E09144
:10321000E001F0E0E054FE4F10826091E00170E0C8
:10322000E0910902F0910A0280EC91E00995109278
:10323000E0010ACF1092E10134CFA1E4B2E013968D
:103240001C921E92129748EE53E060E070E01496D4
:103250004D935D936D937C93179781E191E0119667
:103260009C938E93EDE4F2E01382128220E830E02A
:103270003583248380E490E0978386833187208799
:1032800093878287168A158614861786168681E0AC
:10329000858B848B2FEF3FEF338B228B318B208BF1
:1032A000878B108E128E118E83E291E09183808342
:1032B000148E138EB68FA58F10A2178E8FEF84A356
:1032C00085A386A387A380A780E89AE1A6E0B0E063
:1032D00085AB96ABA7ABB0AF80EA96E8A1E0B0E0D3
:1032E00081AF92AFA3AFB4AF80E586AF17AE0895BC
:1032F000789484B5826084BD84B5816084BD85B5D1
:10330000826085BD85B5816085BD80916E008160DC
:1033100080936E0010928100809181008260809382
:103320008100809181008160809381008091800084
:103330008160809380008091B10084608093B100AF
:103340008091B00081608093B00080917A008460A9
:1033500080937A0080917A00826080937A008091D5
:103360007A00816080937A0080917A0080688093EF
:103370007A001092C10062E089E00E94B90862E020
:103380008AE00E94B90862E08BE00E94B90880914F
:103390006C0290916D02892B09F488C00E945C1622
:1033A00082E080936F0280916A0290916B02892B78
:1033B00009F0DEC161E0809173020E94B90861E00A
:1033C000809174020E94B90880917302082E000C4B
:1033D000990BFC01E852F04FE491F0E0EE0FFF1F73
:1033E000EC53F04F2591349130937B0220937A0275
:1033F000FC01E451F04FE491E0938002809174026B
:10340000082E000C990BFC01E852F04FE491F0E01B
:10341000EE0FFF1FEC53F04FA591B491B0937D02D6
:10342000A0937C02FC01E451F04FE491E09381020F
:103430008C91E82BEC938091680290916902892B22
:1034400009F42AC2CFB7F89480910802811127C0ED
:10345000E2EEFFE08491E6EFFFE09491E82FF0E0E8
:10346000EE0FFF1FE654F04FA591B491EC91E923C4
:1034700021F461E08AE00E948B0861E08AE00E940A
:10348000B9088CB580618CBD8CB580648CBD61E061
:103490008DE00E94B90861E08BE00E94B90880913C
:1034A00008028F5F80930802CFBF7BC12091530237
:1034B00030915402C901079697FD079623E0959530
:1034C00087952A95E1F72091510230915202AC0183
:1034D000429FC001439F900D529F900D11240E9466
:1034E0001B2090936D0280936C02892B09F056CFBC
:1034F00080E480937C0080917A00806480937A00DD
:1035000080917A0086FDFCCF6091780070917900FF
:10351000072E000C880B990B61157105810591052B
:1035200011F00E94B51E0E945C1600E410E020E835
:1035300030E04AE855E070E060E090E080E00E9412
:10354000C4100E94BC1468E97AE380E090E00E9415
:103550000F090E94FA1643E3442E512C612C712C62
:10356000C12CD12C50E8E52E50ECF52E8824839404
:10357000912C89E00E946208EC0111E0892B09F48A
:1035800010E0109302018AE00E94620831E0009787
:1035900009F430E020910101222321F021E0CD2B1C
:1035A00009F020E020931402C0910001CC2321F007
:1035B000C1E0892B09F0C0E0C0930F021093010114
:1035C0003093000180913302882309F439C2222309
:1035D00009F47CC20E94FA1680913302811176C2EE
:1035E00080912E02882309F471C20E944109009142
:1035F000190210911A0220911B0230911C02601BCB
:10360000710B820B930B6E3171058105910508F4E6
:103610005DC20E9441096093190270931A0280935F
:103620001B0290931C0220E030E040E05FE36091D9
:1036300015027091160280911702909118020E9453
:10364000281F6093150270931602809317029093BF
:1036500018020E94941F20912C0230912D02C90162
:10366000860F971F90932D0280932C02C59708F028
:103670006BC0CDE1D2E09CE2292E92E0392E25E00C
:10368000A22EBB24B3948881998102979983888361
:103690008A3E9F4F0CF043C080911D0290911E0204
:1036A000209122023091230210E000E0821793075C
:1036B0001CF4C90101E010E020912702309128029A
:1036C000821793071CF4C90102E010E08A5B9F4F48
:1036D000998388830E94661EA30192010E94BE1EE8
:1036E000AB01BC014951510961097109A09EF0016A
:1036F000A19EF00D1124E35EFD4F82819381BC01F8
:10370000640F751F6431710514F063E170E06F3070
:10371000710514F46FE070E07B836A831C8228815A
:103720003981C9010196879708F0BBC18A819B81C5
:1037300040912C0250912D02481759072CF04296C7
:10374000841795070CF0ADC181E08093330280911E
:1037500031029091320220912F02309130022817CD
:1037600039070CF0B3C19093300280932F02AEC1A1
:103770008CE380936E0210920E0210920D02109252
:103780003E0210923D020E94FA118DE499E090935E
:103790000C0280930B028EE499E090930A028093CE
:1037A00009028091750287FD1EC061E00E94B90880
:1037B00061E0809175020E948B0861E070E080E01A
:1037C00090E00E940F0960E0809175020E948B08D2
:1037D0006AE070E080E090E00E940F0961E0809173
:1037E00075020E948B0880916A0290916B02892B6E
:1037F00009F495C0209182023091830240918402A5
:103800005091850260E074E284EF90E00E94F01E27
:10381000205131094109510956954795379527950A
:103820002093B80064E086E895E00E94A5136091BB
:10383000530261508DE492E00E945A1464E082E8E1
:1038400095E00E94A51380916F0264E1813009F434
:1038500060E18DE492E00E945A1464E08EE795E006
:103860000E94A5138FE880938A0280915102909163
:1038700052028038910509F0B5C0809153029091B1
:1038800054028034910509F0BDC080916F028130EF
:1038900009F45CC08FEC5BC061E0809171020E9412
:1038A000B90861E0809172020E94B90880917102AA
:1038B000082E000C990BFC01E852F04FE491F0E067
:1038C000EE0FFF1FEC53F04F2591349130937702A8
:1038D00020937602FC01E451F04FE491E0937E02E4
:1038E00080917202082E000C990BFC01E852F04FF7
:1038F000E491F0E0EE0FFF1FEC53F04FA591B4916F
:10390000B0937902A0937802FC01E451F04FE49166
:10391000E0937F028C91E095E823EC9342CF809175
:10392000680290916902892B31F080918B0290910D
:103930008C020E94DA0BE0917C02F0917D02908172
:10394000809181028095892380836CCF8FE9809359
:103950008A02C2E16AED8DE492E00E945A146C2F53
:103960008DE492E00E945A1461E88DE492E00E9496
:103970005A1460918A028DE492E00E945A1469ED13
:103980008DE492E00E945A1480916F0261EF8130C1
:1039900009F462E28DE492E00E945A1466E088E73E
:1039A00095E00E94A51380916A0290916B02892B89
:1039B000E9F120918602309187024091880250916E
:1039C000890260E074E284EF90E00E94F01E2051D2
:1039D0003109410951095695479537952795209307
:1039E000B80086CD8036910589F48091530290917C
:1039F0005402409739F480916F02813029F08FEAA8
:103A000080938A02C2E0A6CF80E1FACF803491058C
:103A1000C9F78091530290915402809799F7809151
:103A20006F02813009F036CF80E191CFE0917C02C6
:103A3000F0917D02808190918102892B808358CD05
:103A40000E9441090091100210911102209112026E
:103A500030911302601B710B820B930B683C710554
:103A60008105910508F4BCCDCC2309F4B9CD809132
:103A70002E02811103C081E080932E02C0921502B4
:103A8000D0921602E0921702F09218020E944109A9
:103A900060931002709311028093120290931302AC
:103AA0009BCD8C8181110DC02E3F3F4F54F4BC82C1
:103AB000809131029091320201969093320280936C
:103AC000310225962C163D0609F0DDCD0E945C16CC
:103AD000809133028823B1F000E410E020E830E068
:103AE0004AEB5BE070E060E090E080E00E94C41090
:103AF0000E94BC1480E090E0892B09F43ACD0E942A
:103B0000000034CD81E08093610280936202909244
:103B1000600280925F0290925E0280925D0242E0BB
:103B200050E050935A0240935902C9E0D0E0D0933C
:103B30005C02C0935B0246E050E06BE471E08DE410
:103B400092E00E944F0980913102909132020E94CE
:103B5000CA168BE490E090935A0280935902D09356
:103B60005C02C0935B0243E050E062E571E08DE4EB
:103B700092E00E944F0980912F02909130020E94A2
:103B8000CA1680912E0281110EC00E945C1604E1BB
:103B900010E022E330E04EE25BE069E170E081E4B6
:103BA00090E00E94C41060912C0270912D020CE0F4
:103BB00010E022E130E04AE05BE084E190E00E9426
:103BC000C41080912E02882309F492CFCDE1D2E077
:103BD0008CE2A82E82E0B82E6A817B816054710944
:103BE00000E410E026E130E04AE45AE0888199815F
:103BF0000E94C4106A817B81625E7F4F26E130E0C3
:103C00004AE859E0888199810E94C4102596AC1633
:103C1000BD0611F76DCF83E291E090934E02809341
:103C20004D0280916C0290916D02009711F00C94FE
:103C3000B72008958F929F92AF92BF92CF92DF925A
:103C4000EF92FF92CF93DF93EC01688179818A81B3
:103C50009B81611571058105910521F464E279ED7F
:103C60008BE597E02DE133EF41E050E00E94BE1E6E
:103C700049015A019B01AC01A7EAB1E40E94DD1E93
:103C80006B017C01ACEEB4EFA50194010E94EB1E28
:103C9000C60ED71EE81EF91EF7FE06C081E0C81A40
:103CA000D108E10880E8F80AC882D982EA82FB825A
:103CB000C701B6019F77DF91CF91FF90EF90DF9022
:103CC000CF90BF90AF909F908F9008958F929F92CA
:103CD000AF92BF92CF92DF92EF92FF926091030179
:103CE00070910401809105019091060161157105A3
:103CF0008105910521F464E279ED8BE597E02DE1F2
:103D000033EF41E050E00E94BE1E49015A019B0181
:103D1000AC01A7EAB1E40E94DD1E6B017C01ACEEB0
:103D2000B4EFA50194010E94EB1EC60ED71EE81E3B
:103D3000F91EF7FE06C081E0C81AD108E10880E844
:103D4000F80AC0920301D0920401E0920501F092BA
:103D50000601C701B6019F77FF90EF90DF90CF90EB
:103D6000BF90AF909F908F900895609303017093E0
:103D7000040180930501909306010895052E97FB99
:103D80001EF400940E94D51E57FD07D00E94F01E1D
:103D900007FC03D04EF40C94D51E509540953095F9
:103DA00021953F4F4F4F5F4F0895909580957095A7
:103DB00061957F4F8F4F9F4F08950E94121FA59FBF
:103DC000900DB49F900DA49F800D911D1124089516
:103DD000B7FF0C94DD1E0E94DD1E821B930B08951D
:103DE000A1E21A2EAA1BBB1BFD010DC0AA1FBB1FFF
:103DF000EE1FFF1FA217B307E407F50720F0A21B71
:103E0000B30BE40BF50B661F771F881F991F1A94DD
:103E100069F760957095809590959B01AC01BD0107
:103E2000CF010895A29FB001B39FC001A39F700D61
:103E3000811D1124911DB29F700D811D1124911DB2
:103E40000895EE0FFF1F0590F491E02D099450584E
:103E5000BB27AA270E943F1F0C94E11F0E94D31F7B
:103E600038F00E94DA1F20F039F49F3F19F426F44D
:103E70000C94D01F0EF4E095E7FB0C94CA1FE92FB9
:103E80000E94F21F58F3BA17620773078407950759
:103E900020F079F4A6F50C9414200EF4E0950B2E86
:103EA000BA2FA02D0B01B90190010C01CA01A0018C
:103EB0001124FF27591B99F0593F50F4503E68F1E7
:103EC0001A16F040A22F232F342F4427585FF3CF28
:103ED000469537952795A795F0405395C9F77EF4F9
:103EE0001F16BA0B620B730B840BBAF09150A1F042
:103EF000FF0FBB1F661F771F881FC2F70EC0BA0FC8
:103F0000621F731F841F48F4879577956795B7954F
:103F1000F7959E3F08F0B0CF9395880F08F099274A
:103F2000EE0F9795879508950E949B1F6894B11195
:103F30000C94152008950E94FA1F88F09F5798F05E
:103F4000B92F9927B751B0F0E1F0660F771F881F9E
:103F5000991F1AF0BA95C9F714C0B13091F00E94B8
:103F60001420B1E008950C941420672F782F88272F
:103F7000B85F39F0B93FCCF3869577956795B395DF
:103F8000D9F73EF490958095709561957F4F8F4F4E
:103F90009F4F089597F99F6780E870E060E008956B
:103FA0009FEF80EC089500240A9416161706180651
:103FB0000906089500240A9412161306140605062D
:103FC0000895092E0394000C11F4882352F0BB0FBE
:103FD00040F4BF2B11F460FF04C06F5F7F4F8F4F21
:103FE0009F4F089557FD9058440F551F59F05F3F5C
:103FF00071F04795880F97FB991F61F09F3F79F00B
:1040000087950895121613061406551FF2CF46958C
:10401000F1DF08C0161617061806991FF1CF86950E
:104020007105610508940895E894BB2766277727F2
:10403000CB0197F908950F931F93CF93DF938230AD
:10404000910510F482E090E0E0918F02F0919002EF
:1040500030E020E0B0E0A0E0309799F42115310580
:1040600009F44AC0281B390B24303105D8F58A8160
:104070009B816115710589F1FB0193838283FE01A8
:1040800011C0408151810281138148175907E0F026
:104090004817590799F4109761F012960C931297EC
:1040A00013961C933296CF01DF91CF911F910F9100
:1040B000089500938F0210939002F4CF21153105DB
:1040C00051F04217530738F0A901DB019A01BD01F5
:1040D000DF01F801C1CFEF01F9CF909390028093F7
:1040E0008F02CDCFFE01E20FF31F819391932250F7
:1040F000310939832883D7CF20918D0230918E02E8
:10410000232B41F42091090130910A0130938E0252
:1041100020938D022091070130910801211531056E
:1041200041F42DB73EB740910B0150910C01241B77
:10413000350BE0918D02F0918E02E217F307A0F4A7
:104140002E1B3F0B2817390778F0AC014E5F5F4FED
:104150002417350748F04E0F5F1F50938E0240938F
:104160008D02819391939FCFF0E0E0E09CCFCF93BD
:10417000DF930097E9F0FC01329713821282A0913D
:104180008F02B0919002ED0130E020E01097A1F491
:1041900020813181820F931F20918D0230918E02F8
:1041A0002817390709F061C0F0938E02E0938D0261
:1041B000DF91CF910895EA01CE17DF07E8F54A8134
:1041C0005B819E0141155105B1F7E901FB83EA834B
:1041D00049915991C40FD51FEC17FD0761F48081F7
:1041E00091810296840F951FE901998388838281CA
:1041F00093819B838A83F0E0E0E012968D919C91FD
:1042000013970097B9F52D913C911197CD01029626
:10421000820F931F20918D0230918E02281739074B
:1042200039F6309751F51092900210928F02B093A8
:104230008E02A0938D02BCCFD383C2834081518173
:10424000840F951FC817D90761F44E5F5F4F8881AF
:104250009981480F591F518340838A819B819383A1
:1042600082832115310509F0B0CFF0939002E093DD
:104270008F029ECFFD01DC01C0CF13821282D7CF07
:1042800081E090E0F8940C944C21DC0101C06D9326
:1042900041505040E0F7089518E0CDE0D8E004C068
:1042A000FE010E94211F2196CE30D107C9F7F89454
:0242B000FFCF3E
:1042B20001010101000000000091028000000000E5
:1042C200008F126212591638085B12481239120016
:1042D200000000180E4F095916D211230B3808BDE1
:1042E200109510B110A51025113808DE0B03169396
:1042F2000ADC0ADE0FC10F490FEA0E53636F7265C3
:064302003A0048693A0090
:00000001FF
