:100000000C94F8070C9420080C9420080C942008F9
:100010000C9420080C9420080C9420080C94A42321
:100020000C9420080C9420080C9420080C942008B0
:100030000C9420080C9420080C9420080C942008A0
:100040000C945A230C9420080C9426240C9400241D
:100050000C9420080C9420080C9420080C94200880
:100060000C9458240C942008084AD73B3BCE016ED0
:1000700084BCBFFDC12F3D6C74319ABD56833DDAFF
:100080003D00C77F11BED9E4BB4C3E916BAAAABE0E
:10009000000000803F0000020407090B0D1012143D
:1000A00016181B1D1F212325282A2C2E30323436EA
:1000B000383A3C3E4042444648494B4D4F515254D9
:1000C0005657595B5C5E5F616263656668696A6B1F
:1000D0006D6E6F70717273747576777778797A7ADE
:1000E0007B7C7C7D7D7E7E7E7F7F7F80808080802C
:1000F0008007E007E00FF01FF83FFC3FFC7FFE7F2A
:10010000FE3FFC3FFC3FFC3FFC1FF80FF00FF007E9
:10011000E003F00FF01FF03FF83FFC7FFC7FFC7F17
:10012000FC7FFC7FF87FF83FF83FF03FE01FC00FF7
:1001300080007803FC07FC0FFC1FFC3FFE3FFE3FE6
:10014000FE3FFE3FFE3FFC3FFC3FF83FF83FF01F05
:10015000C00030007C03FE0FFE1FFE1FFE1FFE3F8F
:10016000FE3FFE3FFE3FFE3FFC3FF83FF03FE01FFB
:10017000C00000003C07FE0FFE1FFE1FFE1FFE3FDB
:10018000FE7FFE7FFE7FFE7FFE7FFC7FF03FE01F55
:10019000C000000000000007FE0FFF0FFF1FFF3F21
:1001A000FF7FFE7FFE7FFEFFFEFFFEFFFC7FF83F2E
:1001B000C0000000000000000003FE07FF0FFF1F4B
:1001C000FF3FFF7FFF7FFEFFFEFFFEFFFC7FFC7F08
:1001D000F803C0024007E00D701AB815583FEC3420
:1001E0003C1FF818181818181808100420042003C9
:1001F000C000E003200FE01AB015583FA835F83EC4
:100200003831F8303030301030102010400C80037E
:10021000000000007803C806F80D581AAC1FD41A65
:100220006C1F3C18FC101810381030103010C00F24
:100230008000000030006C03F40F5C0EAC0FD41E85
:100240006C1B3410EC103C10381030106019C007D3
:100250000000000000003C07F40D5C0EAC0FD41A47
:100260006C39B430EC207C203C207030E01BC00E98
:1002700000000000000000000007FE075A0EAE1F3D
:10028000F63B6C313420AC6074403C60F831C01FE8
:10029000800000000000000000000003FE07AA0D1F
:1002A0005D1FEF3176212C60B440EC407820F83FA0
:1002B000C00002020304040500000000003E5B4F82
:1002C0005B3E3E6B4F6B3E1C3E7C3E1C183C7E3CB6
:1002D000181C577D571C1C5E7F5E1C00183C1800C4
:1002E000FFE7C3E7FF0018241800FFE7DBE7FF3054
:1002F000483A060E2629792926407F050507407FC2
:1003000005253F5A3CE73C5A7F3E1C1C08081C1C34
:100310003E7F14227F22145F5F005F5F06097F012A
:100320007F006689956A606060606094A2FFA29415
:1003300008047E040810207E201008082A1C0808E3
:100340001C2A08081E101010100C1E0C1E0C303831
:100350003E3830060E3E0E06000000000000005F32
:1003600000000007000700147F147F14242A7F2A4E
:100370001223130864623649562050000807030010
:10038000001C2241000041221C002A1C7F1C2A085C
:10039000083E0808008070300008080808080000BF
:1003A00060600020100804023E5149453E00427F33
:1003B000400072494949462141494D331814127F82
:1003C0001027454545393C4A494931412111090722
:1003D0003649494936464949291E000014000000A3
:1003E0004034000000081422411414141414004175
:1003F00022140802015909063E415D594E7C121132
:10040000127C7F494949363E414141227F41414169
:100410003E7F494949417F090909013E41415173E4
:100420007F0808087F00417F41002040413F017F55
:10043000081422417F404040407F021C027F7F041D
:1004400008107F3E4141413E7F090909063E415166
:10045000215E7F09192946264949493203017F0156
:10046000033F4040403F1F2040201F3F4038403F57
:10047000631408146303047804036159494D43006D
:100480007F4141410204081020004141417F0402A4
:10049000010204404040404000030708002054543B
:1004A00078407F2844443838444444283844442819
:1004B0007F385454541800087E090218A4A49C786C
:1004C0007F0804047800447D40002040403D007FC8
:1004D0001028440000417F40007C047804787C08A8
:1004E0000404783844444438FC182424181824247C
:1004F00018FC7C08040408485454542404043F4461
:10050000243C4040207C1C2040201C3C4030403C8F
:1005100044281028444C9090907C4464544C4400EF
:100520000836410000007700000041360800020153
:100530000204023C2623263C1EA1A161123A40403F
:10054000207A3854545559215555794122545478BC
:1005500042215554784020545579400C1E52721255
:1005600039555555593954545459395554545800DE
:1005700000457C410002457D420001457C407D12E2
:1005800011127DF0282528F07C5455450020545444
:100590007C547C0A097F4932494949323A444444EF
:1005A0003A324A4848303A4141217A3A424020782A
:1005B000009DA0A07D3D4242423D3D4040403D3C2B
:1005C00024FF2424487E4943662B2FFC2F2BFF0950
:1005D00029F620C0887E0903205454794100004444
:1005E0007D413048484A32384040227A007A0A0A2F
:1005F000727D0D19317D2629292F282629292926A2
:1006000030484D4020380808080808080808382FE6
:1006100010C8ACBA2F102834FA00007B0000081470
:100620002A142222142A14085500550055AA55AA46
:1006300055AAFF55FF55FF000000FF00101010FFE6
:1006400000141414FF001010FF00FF1010F010F041
:10065000141414FC001414F700FF0000FF00FF1432
:1006600014F404FC141417101F10101F101F14147E
:10067000141F00101010F0000000001F10101010C8
:100680001F10101010F010000000FF1010101010BC
:1006900010101010FF10000000FF140000FF00FFFA
:1006A00000001F10170000FC04F414141710171496
:1006B00014F404F40000FF00F714141414141414B8
:1006C000F700F7141414171410101F101F1414142B
:1006D000F4141010F010F000001F101F0000001F95
:1006E00014000000FC140000F010F01010FF10FFC8
:1006F000141414FF141010101F00000000F010FF5D
:10070000FFFFFFFFF0F0F0F0F0FFFFFF0000000040
:1007100000FFFF0F0F0F0F0F3844443844FC4A4AC4
:100720004A347E02020606027E027E026355494179
:10073000633844443C04407E201E2006027E0202B0
:1007400099A5E7A5991C2A492A1C4C7201724C30C4
:100750004A4D4D303048784830BC625A463D3E499B
:100760004949007E0101017E2A2A2A2A2A44445F3F
:10077000444440514A444040444A51400000FF0133
:1007800003E080FF000008086B6B08361236243641
:10079000060F090F060000181800000010100030A6
:1007A00040FF0101001F01011E00191D1712003C2E
:1007B0003C3C3C0000000000000103070F1F3F7F8E
:1007C0000080C0E0F0F8FCFEDB40A4A62EAF2000C5
:1007D000A1C8D300408DAED580A8FB00003E000B21
:1007E0000036000100020003000000650054FFEF26
:1007F0000000FA80000B12820001000200000000DD
:100800000000000000000000000000280000FFFFC2
:100810004581FFFFFA7200000000000003E80000BD
:10082000000100017FFFFFFE8001001B00000000AF
:100830000000000000000000000000400000400038
:10084000000002CB47A220000000200000000000B2
:100850000000400000006000000041FF00000000B8
:100860000B2A0000165500002182FD872650FD80CE
:100870000000001F000000058000000000000001D3
:100880000000000200000003000040000000000023
:10089000046F0002653200005EC0400000000000EE
:1008A00000000000000000000000FB8C6F5DFD5D9B
:1008B00008D9007C733B006C12CC3200139D3200CF
:1008C000D0D632000800400001F4FFE68079020033
:1008D00000000000D0D600002710FB000000400000
:1008E0000000000000000000000000000001000007
:1008F000000000000100010000000000FA36FFBC0B
:10090000308E0005FBF0FFD95BC8FFD09ABE000017
:1009100010A9FFF41EB200CEBBF7000000010000DA
:100920000004000200020200000CFFC2800000016F
:10093000800000CF800040000000000000000000A8
:10094000000000000600000000140000000000008D
:100950000000000000000000000000000000000097
:10096000000000000000000000000923A135000085
:100970000000000000000000000000000000033F35
:1009800068B6793528BCC67ED16C8000FFFF400078
:1009900000000000B26A000000000000000000003B
:1009A000000000003FF000000030000000000000E8
:1009B0000000000000000000000000000000000037
:1009C000000000000000000040000000254D002F46
:1009D000706D000005AE000C02D000000000006544
:1009E0000054FFEF00000000000000000100004480
:1009F000000100058BC1000001000000000000653F
:100A0000000000540000FFEF0000000000000000A4
:100A100000000000000000000000000000000000D6
:100A200000000000000000000000000000000000C6
:100A300000000000000000000000000000010000B5
:100A400000020000000000000000000000000000A4
:100A50000000000000000000000000000000000096
:100A600000000000000000000000001B000000006B
:100A70000000000000000000000000000000000076
:100A80000000000000000000000000000000000066
:100A900000000000000000000000001B000000003B
:100AA0000000000000000000000000000000000046
:100AB0000000000000000000000000000000000036
:100AC0000000000000000000000000000000000026
:100AD00000000000000000000000D8DCBAA2F1DE37
:100AE000B2B8B4A88191F74A907F916AF3F9DBA874
:100AF000F9B0BAA080F2CE81F3C2F1C1F2C3F3CC57
:100B0000A2B280F1C6D880BAA7DFDFDFF2A7C3CBDD
:100B1000C5B6F087A2942448703C95406834589B31
:100B200078A2F183922D557DD8B1B4B8A1D091802F
:100B3000F270F370F27C80A8F101B09887D943D8A5
:100B400086C988BAA1F20EB89780F1A9DFDFDFAAC3
:100B5000DFDFDFF2AA4CCD6CA90CC92C97979797D1
:100B6000F1A989264666B0B4BA80ACDEF2CAF1B209
:100B70008C02A9B69800890E161EB8A9B4992C54F7
:100B80007CB08AA896365676F1B9AFB4B083C0B8B7
:100B9000A89711B18F98B9AFF0240844106418F1E8
:100BA000A329557DAF83B593AFF0002850F1A386FC
:100BB0009F61A6DADEDFD9FAA38696DB31A6D9F8E3
:100BC000DFBAA68FC2C5C7B28CC1B8A2DFDFDFA370
:100BD000DFDFDFD8D8F1B8A8B286B4980D355DB89C
:100BE000AA98B0872D353DB2B6BAAF8C96198F9FB3
:100BF000A70E161EB49AB8AA872C547CB9A3DEDFC0
:100C0000DFA3B180F2C4CDC9F1B8A9B499830D3581
:100C10005D89B9A32D557DB593A30E161EA92C543D
:100C20007CB8B4B0F19783A81184A50998A383F088
:100C3000DA240844106418D8F1A529557DA58595B6
:100C4000021A2E3A565A4048F9F3A3D9F8F098837D
:100C50002408441064189782A8F111F098A224087F
:100C600044106418DAF3DED883A59401D9A302F105
:100C7000A2C3C5C7D8F18492A24DDA2AD84869D94F
:100C80002AD86855DA32D85071D932D8705DDA3A3C
:100C9000D85879D93AD87893A34DDA2AD84869D95F
:100CA0002AD86855DA32D85071D932D8705DDA3A1C
:100CB000D85879D93AD878A88A9AF02850789EF3EB
:100CC0008818F19F1D98A8D908D8C89F129EF315BF
:100CD000A8DA1210D8F1AFC8978734B5B994A42117
:100CE000F3D922D8F22DF3D92AD8F235F3D932D854
:100CF00081A4606061D961D86C6869D969D8747061
:100D000071D971D8B1A384193D5DA3831A3E5E9356
:100D10001030811011B8B0AF8F94F2DA3ED8B49A87
:100D2000A88729DAF8D8879A35DAF8D8879A3DDA89
:100D3000F8D8B1B9A49885022E56A581000C14A349
:100D400097B08AF12DD928D84DD948D86DD968D80F
:100D5000B1840DDA0ED8A32983DA2C0ED8A38449E6
:100D600083DA2C4C0ED8B8B0A88A9AF520AADADF1C
:100D7000D8A840AAD0DADED8A860AADAD0DFD8F1A5
:100D80009786A8319B069907AB9728889BF00C2083
:100D90001440B8B0B4A88C9CF0042851791D3014CC
:100DA00038B282ABD0982C505078789BF11AB0F0C2
:100DB0008A9CA82951798B2951798A2470598B20D2
:100DC00058718A4469388B3940688A6448318B305D
:100DD0004960A5882009715844681139644930195F
:100DE000F1AC002C547CF08CA804285078F1889742
:100DF00026A85998AC8C02264666F0899CA82951F1
:100E000079247059446938644831A9880920597097
:100E1000AB11384069A8193148608CA83C415C206E
:100E20007C00F187981986A86E767EA999882D5541
:100E30007D9EB9A38A228A6E8A568A5E9FB18306F6
:100E40002646660E2E4E6E9DB8AD002C547CF2B137
:100E50008CB499B9A32D557D8191AC38AD3AB58349
:100E600091AC2DD928D84DD948D86DD968D88C9D4A
:100E7000AE29D904AED851D904AED879D904D881D5
:100E8000F39DAD008DAE1981ADD901D8F2AEDA2651
:100E9000D88E912983A7D9ADADADADF32AD8D8F1BD
:100EA000B0AC89913E5E76F3AC2E2EF1B18C5A9C9B
:100EB000AC2C2828289CAC3018A8988128343C9762
:100EC00024A728343C9C24F2B089AC912C4C6C8A29
:100ED0009B2DD9D8D851D9D8D879D9D8D8F19E88CE
:100EE000A331DAD8D8912DD928D84DD948D86DD981
:100EF00068D8B18393353D8025DAD8D88569DAD8AA
:100F0000D8B49381A328343CF3AB8BF8A391B609F2
:100F1000B4D9ABDEFAB0879CB9A3DDF12028303814
:100F20009AF12830389DF1A3A3A3A3F2A3B4908033
:100F3000F2A3A3A3A3A3A3A3A3A3A3B2A3A3A3A323
:100F4000A3A3B087B599F128303898F1A3A3A3A340
:100F500097A3A3A3A3F39BA330DCB9A7F12626266E
:100F6000FED8FF444D50206572726F72004D50558F
:100F7000206572726F72006C6170732E2E2E0033BA
:100F8000206661737400207365636F6E647300691B
:100F90006E200046696E000000000800020100009B
:100FA00003040700000000000000002200FF2102EF
:100FB00000000000250028002B0000000000240095
:100FC00027002A00040404040404040402020202A8
:100FD00002020303030303030102040810204080FC
:100FE0000102040810200102040810201E2A1233F6
:100FF00011241FBECFEFD8E0DEBFCDBF11E0A0E0CF
:10100000B1E0E6E6F6E702C005900D92AA38B10716
:10101000D9F723E0AAE8B1E001C01D92AF38B207CA
:10102000E1F717E0C7EFD7E004C02197FE010E9467
:10103000BF33C63FD107C9F70E94AF2A0C94263BA5
:101040000C940000089590E0FC01E852F04F2491C8
:101050008C53904FFC018491882399F090E0880F85
:10106000991FFC01E654F04FA591B491FC01E055A5
:10107000F04F859194918FB7F894EC91E22BEC931B
:101080008FBF08954F925F926F927F928F929F923F
:10109000AF92BF92CF92DF92EF92FF920F931F9386
:1010A000CF93DF9300D000D01F92CDB7DEB78C0175
:1010B00049835A836B837C83809100018530C9F01A
:1010C0008F3F09F4B1C00F900F900F900F900F90C9
:1010D000DF91CF911F910F91FF90EF90DF90CF9014
:1010E000BF90AF909F908F907F906F905F904F9048
:1010F0000895EFEAFFE024912D8327FDE4CF85E0FA
:101100000E9423089D814801B12CA12C992301F153
:10111000F12CE12C2D81223009F039C14801570111
:1011200060E970ED83E090E0A70198010E9421330F
:1011300069017A0181E0C81AD108E108F10883E069
:101140009FEFC916D104E104F10409F00CF465C065
:1011500060E072E18AE790E0A50194010E942133EA
:1011600029013A0168E478EE81E090E0A50194015C
:101170000E94213369017A0181E0C81AD108E1088F
:10118000F1089D81992309F463C1923009F06AC185
:1011900084E02FEFC216D104E104F104F1F1ECF187
:1011A00064E274EF80E090E0A50194010E94213395
:1011B00069017A0181E0C81AD108E108F10885E0E7
:1011C0002FEFC216D104E104F10439F130F162E1EC
:1011D0007AE780E090E0A50194010E942133690143
:1011E0007A0181E0C81AD108E108F10886E09FEF92
:1011F000C916D104E104F10481F07CF073016201AD
:101200002AE0F594E794D794C7942A95D1F791E012
:10121000C91AD108E108F10887E09091B100987FE0
:10122000892B8093B1008CC085E080930001EFEAA8
:10123000FFE084918D838F3F09F445CF813021F108
:1012400050F0823009F43EC08D8187FD3CCF85E0AF
:101250000E9423085DCF14BC15BC84B5826084BD98
:1012600085B5816085BDE9ECFFE0E491F0E0EE0F2B
:10127000FF1FE055F04F85919491EDEDFFE0E49173
:10128000E09370021D823BCF10928000109281008B
:1012900080918100886080938100809181008160CD
:1012A00080938100E9ECFFE0E491F0E0EE0FFF1F96
:1012B000E055F04F85919491EDEDFFE0E491E093DE
:1012C0006F021DCF1092B0001092B1008091B0005B
:1012D00082608093B0008091B10081608093B10002
:1012E000E9ECFFE0E491F0E0EE0FFF1FE055F04F76
:1012F0008591949190936E0280936D02EDEDFFE0E5
:10130000E491E0936C02FBCE62E17AE780E090E04A
:10131000A50194010E94213369017A0191E0C91A63
:10132000D108E108F1082FEFC216D104E104F1045D
:1013300011F00CF07DC094E085B5887F892B85BDC8
:10134000D801AA0FBB1F29813A814B815C810E9481
:10135000403328EE33E040E050E00E944B338D8173
:10136000813009F443C0823009F452C08111ABCE00
:10137000C7BC2093790230937A0240937B0250934A
:101380007C0280916E00826080936E009CCE60E053
:1013900072E18AE790E0A70198010E942133DA0107
:1013A000C9010197A109B109009721E0A207B10580
:1013B00064F46C0191E02D81213011F6809181005F
:1013C000887F892B80938100BBCF68E478EE81E031
:1013D00090E0A70198010E94213369017A0181E020
:1013E000C81AD108E108F10893E0E5CFD09289004E
:1013F000C092880020937502309376024093770262
:101400005093780280916F00826080936F005BCE72
:10141000C092B30020937102309372024093730222
:1014200050937402809170008260809370004BCE64
:10143000730162019AE0F594E794D794C7949A9562
:10144000D1F721E0C21AD108E108F10895E074CF84
:101450009FEFC916D104E104F10411F00CF054CF50
:1014600093E06ACF84E0ACCE91E090936B028093DE
:101470006A0210926902109268020895FC01538D6D
:10148000448D252F30E0842F90E0821B930B54175E
:1014900010F0CF96089501970895FC01918D828DEB
:1014A000981761F0A28DAE0FBF2FB11D5D968C9184
:1014B000928D9F5F9F73928F90E008958FEF9FEFC3
:1014C0000895FC01918D828D981731F0828DE80F7F
:1014D000F11D858D90E008958FEF9FEF0895FC0139
:1014E000918D228D892F90E0805C9F4F821B910906
:1014F0008F7399270895FC01A48DA80FB92FB11DF2
:10150000A35ABF4F2C91848D90E001968F73992739
:10151000848FA689B7892C93A089B1898C91837017
:1015200080648C93938D848D981306C00288F38910
:10153000E02D80818F7D80830895EF92FF920F933D
:101540001F93CF93DF93EC0181E0888F9B8D8C8D6F
:1015500098131AC0E889F989808185FF15C09FB763
:10156000F894EE89FF896083E889F9898081837026
:10157000806480839FBF81E090E0DF91CF911F91D5
:101580000F91FF90EF900895F62E0B8D10E00F5FF6
:101590001F4F0F731127E02E8C8D8E110CC00FB6CC
:1015A00007FCFACFE889F989808185FFF5CFCE0164
:1015B0000E947B0AF1CFEB8DEC0FFD2FF11DE35A5A
:1015C000FF4FF0829FB7F8940B8FEA89FB898081E7
:1015D0008062CFCFCF93DF93EC01888D8823B9F061
:1015E000AA89BB89E889F9898C9185FD03C080812E
:1015F00086FD0DC00FB607FCF7CF8C9185FFF2CFAB
:10160000808185FFEDCFCE010E947B0AE9CFDF917B
:10161000CF9108958DE792E00E946F0A21E0892B17
:1016200009F420E0822F089580E090E0892B29F0D2
:101630000E940A0B81110C940000089590E0FC01B7
:10164000E956F04F2491FC01E852F04F3491FC012F
:10165000EC53F04FE491EE23C9F0222339F023300C
:1016600001F1A8F4213019F1223029F1F0E0EE0F58
:10167000FF1FE055F04FA591B4918FB7F894EC910E
:10168000611126C030953E233C938FBF08952730CB
:10169000A9F02830C9F0243049F7809180008F7D6F
:1016A00003C0809180008F7780938000DFCF84B566
:1016B0008F7784BDDBCF84B58F7DFBCF8091B00069
:1016C0008F778093B000D2CF8091B0008F7DF9CF1B
:1016D0003E2BDACF3FB7F894809116029091170213
:1016E000A0911802B091190226B5A89B05C02F3F02
:1016F00019F00196A11DB11D3FBFBA2FA92F982F38
:101700008827BC01CD01620F711D811D911D42E032
:10171000660F771F881F991F4A95D1F708958F92FA
:101720009F92AF92BF92CF92DF92EF92FF926B01A6
:101730007C010E946A0B4B015C01C114D104E104DD
:10174000F104B9F00E946A0B681979098A099B09AA
:10175000683E73408105910580F321E0C21AD108EB
:10176000E108F10888EE880E83E0981EA11CB11CE8
:10177000E4CFFF90EF90DF90CF90BF90AF909F901D
:101780008F90089561E08DE00E941E0B68EE73E07B
:1017900080E090E00E948F0B60E08DE00E941E0BC5
:1017A00068EE73E080E090E00C948F0B2FB7F89414
:1017B00060911202709113028091140290911502AF
:1017C0002FBF0895089508959091000189130BC0CB
:1017D000EFEAFFE0E4919FEF90930001E13049F0E0
:1017E00028F0E23061F060E00C941E0B10926E0065
:1017F000FACF90916F009D7F90936F00F4CF9091FE
:1018000070009D7F9093700091E09093B000909154
:10181000B100987F94609093B1001092B300E3CF31
:10182000AF92BF92CF92DF92EF92FF920F931F93EE
:10183000CF93DF936C017B018B01040F151FEB012C
:101840005E01AE18BF08C017D10759F06991D601E3
:10185000ED91FC910190F081E02DC6010995892B55
:1018600079F7C501DF91CF911F910F91FF90EF9014
:10187000DF90CF90BF90AF900895EF92FF920F93BB
:101880001F93CF93DF93EC01EC80FD806E157F05F5
:101890000CF070C057FF04C0240F351F50E040E02B
:1018A0008E819F81FA01E20FF31F8E179F071CF4B0
:1018B0009C01241B350B121613060CF05BC0922FF3
:1018C000842F8695869586958E9DD0018F9DB00D2F
:1018D00011246A0F7B1FAF8DB8A1A60FB71F4770E9
:1018E00049F188E0841B482F682F70E0FB01E05429
:1018F000F84FE491281708F063C0621B71092FEFBD
:1019000030E002C0359527956A95E2F7E223013071
:10191000110539F0B0F10230110561F58C91E8271D
:1019200002C08C91E82BEC93941720F12C813D811F
:10193000A20FB31FE92FE41BE83078F00230110545
:1019400021F58E2F9C9190959C932C813D81A20F27
:10195000B31F88508830B0F7E770EE2359F0F0E0FD
:10196000E854F84FE49101301105F9F010F102301C
:10197000110519F1DF91CF911F910F91FF90EF9019
:101980000895E0958C91E823CECF81E001151105F3
:1019900009F480E081959E2F8C932C813D81A20FCC
:1019A000B31F98509830C0F7D7CF8C91E82BEC93A9
:1019B000E1CFE0958C91E823FACF8C91E827F7CF1F
:1019C0000130110509F4ADCFE0F20230110509F440
:1019D000A5CFAE0DBF1DAECF0F931F93CF93DF9357
:1019E00077FF04C0260F371F70E060E0DC0114961B
:1019F000CD91DC91FB01E20FF31FCE17DF071CF442
:101A00009E01261B370B121613064CF5FA0157FDE3
:101A10003796A3E0F595E795AA95E1F7EC9FD001FD
:101A2000ED9FB00DFC9FB00D11246A0F7B1FDC01F0
:101A30005F96ED91FC91E60FF71F4770552781E007
:101A400090E001C0880F4A95EAF7482F0130110550
:101A500059F0A8F02E0F3F1F02301105E1F0DF9181
:101A6000CF911F910F9108952E0F3F1FE217F3079B
:101A7000B1F38191DF011197842B8C93F7CF80957F
:101A80002E0F3F1FE217F30751F39191DF011197DA
:101A900098239C93F7CFE217F30709F38191DF01B5
:101AA000119784278C93F7CF0F931F93FA01DC01D2
:101AB00056964C9156974230E9F04330A1F14130AF
:101AC00061F514964D915C91DA01AE1BBF0BFD01DF
:101AD000E21BF30B77FD0BC0DC0116964D915C9178
:101AE0006417750724F4AB01BF010E94EC0C1F9131
:101AF0000F91089514964D915C91DA01A61BB70BD6
:101B0000BD0161507109DC0116964D915C91DA01BD
:101B1000AE1BBF0BFD01E21BF30B77FDE8CFAF015E
:101B20000E943D0CE4CF16964D915C91DA01A61B04
:101B3000B70BBD0161507109CDCF0F931F93FA010F
:101B4000DC0156964C9156974230A9F0433091F102
:101B5000413019F514964D915C91DA01AE1BBF0B23
:101B6000FD013197F7FD04C0AB01BF010E943D0CA0
:101B70001F910F91089514964D915C91DA01A61B67
:101B8000B70BBD01DC0116964D915C91DA01AE1BDD
:101B9000BF0BFD013197621B730BF7FDE9CFDC0131
:101BA00016964D915C91E417F50714F7AF010E946A
:101BB000EC0CDECF16964D915C91DA01A61BB70BAB
:101BC000BD01621B730BCECFFC0177FD64C0808525
:101BD0009185681779070CF05EC057FD5CC082855F
:101BE0009385481759070CF056C086898230B1F0AA
:101BF000833029F1813041F484819581841B950BD8
:101C0000AB01BC01615071092130310509F108F4C3
:101C100043C02230310509F463C008958481958161
:101C2000DC01A61BB70BBD0161507109868197814C
:101C3000DC01A41BB50BAD0141505109E5CF8681F4
:101C40009781861B970BBA01AC0141505109DCCF3B
:101C5000CA0157FD0796A3E095958795AA95E1F7E8
:101C6000A481B5818A9F90018B9F300D9A9F300D82
:101C70001124620F731F078CF0A1E02DE60FF71FF0
:101C80004770552721E030E001C0220F4A95EAF75E
:101C90008081822B80830895CA0157FD079633E027
:101CA000959587953A95E1F7A481B5818A9F900132
:101CB0008B9F300D9A9F300D1124620F731F078C7C
:101CC000F0A1E02DE60FF71F4770552781E090E067
:101CD00001C0880F4A95EAF7809590818923DACF71
:101CE000CA0157FD079623E0959587952A95E1F758
:101CF000A481B5818A9F90018B9F300D9A9F300DF2
:101D00001124620F731F078CF0A1E02DE60FF71F5F
:101D10004770552721E030E001C0220F4A95EAF7CD
:101D200080818227B7CF08958EBD00000DB407FED5
:101D3000FDCF8EB508958CBD9DBD08950895FC011D
:101D40006370668B8481958126813781613039F09B
:101D5000633029F091878087338722870895318700
:101D600020879387828708952F923F924F925F92A8
:101D70006F927F928F929F92AF92BF92CF92DF929B
:101D8000EF92FF920F931F93CF93DF93CDB7DEB700
:101D90006A970FB6F894DEBF0FBECDBF9A8F898FBA
:101DA0007A8369834A01D22E18870F833701BC2CAE
:101DB000DC0159962D913C915A972115310509F076
:101DC00015C118968D919C911997681779070CF099
:101DD000D7C11A968D919C91481759070CF0D0C124
:101DE0004C2C512CB6E0CB9E600D711D11247C87CC
:101DF0006B87161617060CF0C3C1EA2DF0E0FA87C0
:101E0000E98793E0EE0FFF1F9A95E1F7F88BEF87D4
:101E1000CF01840F951F181619060CF0B1C1A98DBA
:101E2000BA8D58968C91811104C0BFEABD1508F493
:101E3000D394A98DBA8DED91FC9111970284F3850D
:101E4000E02DCD010995B5E0DB9EC0011124E981AB
:101E5000FA81FC83EB83312C212C9C0128543D4FCB
:101E6000388F2F8B4A2D50E05E8B4D8BEF89F88D8C
:101E7000E20DF31D44919E828D82D12CC12C69818B
:101E80007A81620D731D7A8B698B842F90E09C8B15
:101E90008B8BE98DFA8DA081B18140FF82C0F1E08A
:101EA000BF126FC0AF126DC01C96ED91FC912F81D7
:101EB0003885A4014C0D5D1D69897A89898D9A8DBB
:101EC0000995EB89FC89F595E7954E2F5FEFC51ACB
:101ED000D50A6D817E818D899E89680F791F7E83E9
:101EE0006D8398E0C916D10481F6AFEF2A1A3A0A39
:101EF000EB81FC81E40DF51DFC83EB83F5E02F16EF
:101F0000310409F0B3CF2F81388526153705B9F094
:101F1000A98DBA8DED91FC91B1E0BB1257C0AB1207
:101F200055C069817A816B5F7F4F0088F189E02D10
:101F3000830128E030E0A401898D9A8D0995A98D4F
:101F4000BA8DED91FC9111970688F789E02DCD01AE
:101F50006A960FB6F894DEBF0FBECDBFDF91CF916A
:101F60001F910F91FF90EF90DF90CF90BF90AF90B7
:101F70009F908F907F906F905F904F903F902F90A9
:101F800009941E96ED91FC91EF80F88409851A85DD
:101F900092014D815E816B817C81898D9A8D09953D
:101FA00090CF2F8138852615370509F48ACF31E087
:101FB000B31207C0A31205C01C96ED91FC919301CA
:101FC00078CF1E96ED91FC917301E0CF6B857C85F7
:101FD000641975090684F785E02D73010F8518894A
:101FE0009201A401898D9A8D0995A9CFF9013496A2
:101FF0009491329745915491D91AB7E0DB9E400DE8
:10200000511D1124F901259134913C8B2B8BFA0140
:1020100025903490FA013296749031963491398B30
:10202000329664903196449041E04C1518F04A1570
:1020300008F07FC0662D062C000C770B7C836B8329
:10204000842D042C000C990B9E838D83A98DBA8D51
:10205000ED91FC9111970284F385E02DCD01099556
:10206000512CD12CC12CEA2DF0E0FA87E9872B2DD9
:1020700030E03C872B87A401440D511D47FC5A9545
:10208000588F4F8B69817A81660D711D67FC7A9537
:102090007E876D877989C71608F051CF2C2D30E0E7
:1020A0004D815E81420F531FA985BA854A9FC001A9
:1020B0004B9F900D5A9F900D1124FC01E80DF91DC6
:1020C000F88BEF87852D612C4F89588D420F531F58
:1020D0005E8B4D8B671408F050C044244394480E27
:1020E000877041F4C1010196EB89FC89E20DF31D73
:1020F000D4901C01D7FE19C0A98DBA8DED91FC9129
:10210000662D70E0B1E0BB1219C0AB1217C02D856F
:102110003E85620F731F0484F585E02D2F8138857D
:102120004D895E89898D9A8D0995DD0C6394842D86
:10213000D1CF1E821D821C821B8288CF4B815C8185
:10214000640F751FAB85BC856A9FC0016B9F900DA6
:102150007A9F900D112469817A81680F791F068416
:10216000F785E02DEF80F88409851A859D014F855C
:102170005889898D9A8D0995D8CF570CC3948ACFE9
:102180006A960FB6F894DEBF0FBECDBFDF91CF9138
:102190001F910F91FF90EF90DF90CF90BF90AF9085
:1021A0009F908F907F906F905F904F903F902F9077
:1021B00008958F929F92AF92CF92EF92FF920F93DA
:1021C0001F93CF93DF93EC01262F898D9A8D009773
:1021D00009F051C06A30D1F41D861C868D8948E013
:1021E000849F900111248E859F85820F931F9F8766
:1021F0008E8781E090E0DF91CF911F910F91FF904A
:10220000EF90CF90AF909F908F9008956D3089F3AD
:10221000CC88AD888F898823C1F08C859D8536E078
:10222000C39E800D911D1124488559854817590773
:1022300064F44E855F851D861C8638E0A39EC00130
:102240001124840F951F9F878E87EA88FB88088951
:1022500019894E855F856C857D85CE010E94B40EFF
:102260002C898C859D8546E0249F800D911D11242D
:102270009D878C87BECF6A3069F41D861C86FC0161
:102280003896E4912D898E859F85E29F800D911D62
:102290001124ADCF6D3009F4ACCFFC0134963491EC
:1022A000631708F4A6CF3296E491E61708F4A1CF9D
:1022B000FC01329685909490462F431B342F47E0C3
:1022C000349F800C911C1124F40132963491319684
:1022D000E4913323A9F1EE2399F1CC88F4013596EA
:1022E000E491AD884F89442301F10E2E000CFF0BC1
:1022F000E30FF11DCE9EA001CF9E500D11246C85E1
:102300007D85460F571F68857985641775076CF4BE
:102310004E855F851D861C86FC013896E491AE9E35
:10232000400D511D11245F874E87EA88FB8808897C
:1023300019894E855F856C857D85CE010E94B40E1E
:10234000F4013496E4912C898C859D85E29F800D63
:10235000911D11248DCF0F931F93CF93DF938C0189
:10236000D0E0C0E0F801EC0FFD1F6491662341F05E
:102370008BE493E00E94D910892B11F02196F2CFC3
:10238000CE01DF91CF911F910F9108956F927F92AF
:102390008F929F92AF92BF92CF92DF92EF92FF9275
:1023A0000F931F93CF93DF93EC016B015A01390117
:1023B0004801E881F9810284F385E02D0995E881DF
:1023C000F9810288F389E02D87019301A501B60107
:1023D000CE010995A501480D591D41505109E881CB
:1023E000F9810288F389E02D9301B601CE010995A8
:1023F000E881F9810088F189E02D9401A501B601F9
:10240000CE010995C60CD71CB60161507109E8814F
:10241000F9810088F189E02D9401A501CE0109958B
:10242000E881F9810688F789E02DCE01DF91CF910F
:102430001F910F91FF90EF90DF90CF90BF90AF90E2
:102440009F908F907F906F9009946F927F928F9260
:102450009F92AF92BF92CF92DF92EF92FF920F9333
:102460001F93CF93DF935C01EB016A0149013801AF
:102470008701DC01ED91FC916217730719F5641671
:1024800075062CF0962D872D3A01C92ED82E96016F
:10249000261937092F5F3F4F048CF58DE02DA301DE
:1024A000BE01C5010995DF91CF911F910F91FF905A
:1024B000EF90DF90CF90BF90AF909F908F907F90E4
:1024C0006F9008954615570591F42617370724F0A5
:1024D000892D4B01C22FD82F9E01281939092F5F52
:1024E0003F4F068CF78DE02DA601B401DACF0284B0
:1024F000F385E02D0995D501ED91FC910488F589CE
:10250000E02D83019401A601BE01C5010995D50105
:10251000ED91FC910688F789E02DC501DF91CF91FF
:102520001F910F91FF90EF90DF90CF90BF90AF90F1
:102530009F908F907F906F9009944F925F926F92CF
:102540007F928F929F92AF92BF92CF92DF92EF9243
:10255000FF920F931F93CF93DF936C015B014A01AE
:1025600039012801E701EE24E394F12C89019A0155
:10257000AB01B6018BE493E00E9425128E0192011B
:10258000A301B4018BE493E00E942512850196011A
:10259000AE01B2018BE493E00E942512DF91CF914E
:1025A0001F910F91FF90EF90DF90CF90BF90AF9071
:1025B0009F908F907F906F905F904F900895EF92D3
:1025C000FF920F931F93DC011A960D911C911B979C
:1025D00018962D913C911997ED91FC9100A0F1A1D5
:1025E000E02D7B0150E040E070E060E009951F9134
:1025F0000F91FF90EF9008954F925F926F927F92AC
:102600008F929F92AF92BF92CF92DF92EF92FF9202
:102610000F931F93CF93DF936C012B015A01390164
:102620004801DC01ED91FC910284F385E02D0995D0
:10263000E201640C751CD601ED91FC91C615D7051D
:102640005CF40088F189E02D87019401A501BE01A9
:10265000C60109952196EFCF0688F789E02DC601BE
:10266000DF91CF911F910F91FF90EF90DF90CF906E
:10267000BF90AF909F908F907F906F905F904F90A2
:1026800009948F929F92AF92BF92CF92DF92EF9276
:10269000FF920F931F93CF93DF93EC015B014A01ED
:1026A0006901E881F9810284F385E02D099595019E
:1026B0002C0D3D1D21503109E881F9810488F589EF
:1026C000E02D78018401A401B501CE010995E881CE
:1026D000F9810688F789E02DCE01DF91CF911F9116
:1026E0000F91FF90EF90DF90CF90BF90AF909F90B1
:1026F0008F9009948F929F92AF92BF92CF92DF9268
:10270000EF92FF920F931F93CF93DF93EC015B0146
:102710004A0169017801E881F9810284F385E02D9D
:102720000995C80CD91C860101501109E881F9816D
:102730000488F589E02D9501A401B501CE01099524
:10274000E881F9810688F789E02DCE01DF91CF91EC
:102750001F910F91FF90EF90DF90CF90BF90AF90BF
:102760009F908F900994EF92FF920F931F93DC013B
:10277000ED91FC9100A0F1A1E02D09951F910F9121
:10278000FF90EF9008950F931F93DC01ED91FC9162
:10279000068CF78DE02D09951F910F9108952F92CA
:1027A0003F924F925F926F927F928F929F92AF92E1
:1027B000BF92CF92DF92EF92FF920F931F93CF932E
:1027C000DF93CDB7DEB7A4970FB6F894DEBF0FBE88
:1027D000CDBF7CA36BA32A016901380157012617DD
:1027E00037070CF082C1E616F7060CF495C16217A4
:1027F00073075CF03BA12CA1DCA2CBA2C32ED22E8E
:10280000382F292FC201432E522E2BA13CA12A156D
:102810003B05E1F54816590654F0382F292F841549
:10282000950514F4342D252D2C01832F922F64143B
:1028300075042CF0861597050CF4C3013201861936
:1028400097099C012F5F3F4F10E000E04BA15CA176
:10285000B3018BE493E00E94C313A4960FB6F894DF
:10286000DEBF0FBECDBFDF91CF911F910F91FF90C3
:10287000EF90DF90CF90BF90AF909F908F907F9020
:102880006F905F904F903F902F900895362D272D99
:102890003C01832F922F3A2D2B2DABA0BCA03BA344
:1028A0002CA3920126193709A6014A195B09BC011C
:1028B000661977097A8B698BABA1BCA1AA19BB09F0
:1028C000BE83AD834C01841895086BA17CA16C1963
:1028D0007D097E876D878BA19CA1EBA0FCA08C1548
:1028E0009D0521F0760191E0E91AF108150119869C
:1028F0001A861B861C8619821A821B821C82698991
:102900007A89072E000C880B990B6B8B7C8B8D8B37
:102910009E8BCA01550FAA0BBB0B8F8B988FA98F6B
:10292000BA8F4D815E81052E000C660B770B4B8FA5
:102930005C8F6D8F7E8FB901330F880B990B6F8F72
:1029400078A389A39AA3E214F3040CF45CC0698110
:102950007A818B819C812F89388D498D5A8D0E9477
:1029600021338301020F131F69857A858B859C852E
:102970002B8D3C8D4D8D5E8D0E942133B301620FF6
:10298000731F89819A81AB81BC812F8D38A149A1A8
:102990005AA1820F931FA41FB51F89839A83AB830B
:1029A000BC8389859A85AB85BC852B893C894D89FB
:1029B0005E89820F931FA41FB51F89879A87AB87F3
:1029C000BC87601771072CF0962F872FB801092F4D
:1029D000182F9801261B370B2F5F3F4F10E000E0A8
:1029E000A1018BE493E00E94C3133FEF231A330A43
:1029F000AACF342D252D2C01832F922F3BA12CA162
:102A0000DCA2CBA295C0A401092C000C660B770BAD
:102A100049835A836B837C8391012C193D09D4012E
:102A20000E94B0336B017C0191012A193B09A989ED
:102A3000BA890E94B0334B015C016D857E85072EFB
:102A4000000C880B990B6D877E878F87988B8D8103
:102A50009E81092E000CAA0BBB0B8D839E83AF8336
:102A6000B887ABA1BCA1A215B3050CF4F6CEC70183
:102A7000B6012D853E854F8558890E9421338201FC
:102A8000020F131FC501B4012D813E814F8158856E
:102A90000E942133B301620F731F29813A814B8158
:102AA0005C81C20ED31EE41EF51E8B899C89AD8904
:102AB000BE89880E991EAA1EBB1E601771072CF0D6
:102AC000962F872FB801092F182F9801261B370B37
:102AD0002F5F3F4F10E000E0A1018BE493E00E94E4
:102AE000C3139FEF291A390ABCCFE216F3060CF084
:102AF0008CCEABA1BCA1EA16FB060CF47ACF272D35
:102B00003A012C01802F922F3C2D2D2D6D01FCA21E
:102B1000EBA2A32EB22E6ECEE216F3060CF4C1CEBB
:102B2000362D272D3201432E522E3A2D2B2D5601B4
:102B3000C32ED22EB6CE0F931F93DC01ED91FC91E4
:102B4000048CF58DE02D09951F910F910895DC01FE
:102B5000ED91FC910084F185E02D09942F923F9234
:102B60004F925F926F927F928F929F92AF92BF929D
:102B7000CF92DF92EF92FF920F931F93CF93DF9349
:102B800000D000D000D0CDB7DEB73C016A013E8353
:102B90002D83FC82EB825801A41AB50AB7FE03C04C
:102BA000B194A194B1088D809E80861A970A97FEF1
:102BB00003C09194819491088A149B045CF0902F37
:102BC000812F0D811E819D838E839C2D8D2D6B0108
:102BD000692F782F0C151D055CF09D818E817E83F9
:102BE0006D83692F782F902F812F8601C92ED82EC3
:102BF0001601201A310A2B012D813E81421A530AF7
:102C000057FE03C0519441945108710137FE03C02F
:102C10003FEFE31AF30AF594E7948D819E818617BE
:102C200097075CF5A1E0B0E0BA83A983C016D1068E
:102C30004CF1D301ED91FC910484F585E02D2B81BD
:102C40003C81A8016D817E818A149B041CF04D811A
:102C50005E81B801C3010995E418F508F7FE0AC0C2
:102C60002D813E8189819A81280F391F3E832D83D2
:102C7000E20CF31C0F5F1F4FD9CF2FEF3FEF3A83CA
:102C80002983D4CF26960FB6F894DEBF0FBECDBFF2
:102C9000DF91CF911F910F91FF90EF90DF90CF9038
:102CA000BF90AF909F908F907F906F905F904F906C
:102CB0003F902F90089508952091D301260F332738
:102CC000331F21323105ECF420916202FC0190E0C7
:102CD00080E0243069F082E00895A091D301219131
:102CE000AC014D545E4FA40FB52FB11D2C9301962E
:102CF000861798F38091D301680F6093D30180E029
:102D0000089581E008951092620281E0809341026B
:102D100010923C0261E082E10E941E0B61E083E1BF
:102D20000E941E0BE9EBF0E080818E7F8083808122
:102D30008D7F808388E48093B80085E48093BC0015
:102D40000895CF93DF9391E09093B2018823B9F077
:102D5000C091B800D091BA008091BC008A7B80936A
:102D6000BC0060E082E10E941E0B60E083E10E94F3
:102D70001E0B0E948316D093BA00C093B800DF9157
:102D8000CF910895CF92DF92EF92FF920F931F930E
:102D9000CF93DF93D82FC62F613208F098C00E94DE
:102DA0006A0B6B017C018091620281116BC081E032
:102DB00080936202809341029FEF909340021092B1
:102DC0003F029C0F90933E0280933D0280913D0212
:102DD000DD0FD82BD0933D0280913C02813009F069
:102DE00078C010923C020E946A0B6B017C018091BA
:102DF0003D028093BB008091640290916502A09196
:102E00006602B0916702892B8A2B8B2BA1F00E945E
:102E10006A0B009164021091650220916602309164
:102E200067026C197D098E099F0906171707280785
:102E3000390708F448C08091BC0083FDD8CF85ECE9
:102E40008093BC000E946A0B6B017C01809162023E
:102E5000813009F440C080913F028C1710F4C0917A
:102E60003F02ECE1F2E0A2E4B2E080E08C1355C056
:102E70008C2FDF91CF911F910F91FF90EF90DF90FA
:102E8000CF9008958091640290916502A0916602AE
:102E9000B0916702892B8A2B8B2B09F484CF0E9477
:102EA0006A0B0091640210916502209166023091D4
:102EB00067026C197D098E099F09061717072807F5
:102EC000390708F070CF809163020E94A116C0E01C
:102ED000CFCF85EEB5CF8091640290916502A0912D
:102EE0006602B0916702892B8A2B8B2B09F4AECF37
:102EF0000E946A0B009164021091650220916602A3
:102F0000309167026C197D098E099F090617170712
:102F10002807390708F09ACFD6CF91919D938F5FFC
:102F2000A5CFE0911B0280911A02E81730F4F0E07F
:102F3000EE5BFD4F808190E008958FEF9FEF089545
:102F400090911B0280911A022FEF3FEF981748F4DF
:102F5000E92FF0E0EE5BFD4F208130E09F5F909322
:102F60001B02C901089580911A0290911B02891BCE
:102F7000990B0895CF92DF92EF92FF920F931F93D8
:102F8000CF93DF937C01CB018A0120916B02222336
:102F900089F0EB016B01C40ED51ECC15DD0569F07F
:102FA0006991D701ED91FC910190F081E02DC7016D
:102FB0000995F3CF642F0E945C16C801DF91CF9171
:102FC0001F910F91FF90EF90DF90CF900895CF93D6
:102FD000DF931F92CDB7DEB7698320916B02222366
:102FE000F9F020916802203258F021E030E0FC0135
:102FF0003383228390E080E00F90DF91CF9108959A
:1030000080916902E82FF0E0EE56FE4F998190839F
:103010008F5F809369028093680281E090E0ECCF3B
:1030200061E0CE0101960E945C16F7CFCF92DF924D
:10303000EF92FF920F931F93CF93DF93D09168028B
:1030400081E0D13208F09CC0C0916A020E946A0BF4
:103050006B017C018091620281116CC082E08093DF
:10306000620281E0809341028FEF809340021092D0
:103070003F02D0933E02A2E9B1E0ECE1F2E080E051
:10308000D8138DC010923D0280913D02CC0FC82B09
:10309000C0933D0280913C02813009F084C01092BF
:1030A0003C020E946A0B6B017C0180913D0280937F
:1030B000BB008091640290916502A0916602B0917C
:1030C0006702892B8A2B8B2BA1F00E946A0B00913F
:1030D00064021091650220916602309167026C19BA
:1030E0007D098E099F09061717072807390708F475
:1030F00042C08091BC0083FDD8CF85EC8093BC009A
:103100000E946A0B6B017C0180916202823009F49B
:103110004CC0809140028F3F09F469C08091400209
:10312000803209F466C080914002803309F463C0A4
:1031300084E026C08091640290916502A0916602AD
:10314000B0916702892B8A2B8B2B09F483CF0E94C5
:103150006A0B009164021091650220916602309121
:1031600067026C197D098E099F0906171707280742
:10317000390708F06FCF809163020E94A11685E0A5
:10318000109269021092680210926B02DF91CF9147
:103190001F910F91FF90EF90DF90CF9008959D9138
:1031A00091938F5F6DCF85EEA9CF8091640290914E
:1031B0006502A0916602B0916702892B8A2B8B2B46
:1031C00009F4A2CF0E946A0B00916402109165027B
:1031D00020916602309167026C197D098E099F0962
:1031E000061717072807390708F08ECFC4CF80E0ED
:1031F000C7CF82E0C5CF83E0C3CFEF92FF920F939A
:103200001F93CF937C01C62F80916803909169032F
:10321000892B09F44EC080916C030E94340A80917E
:10322000680390916903DC01ED91FC910190F081BC
:10323000E02D60E009958701EE24E394F12CC15064
:103240008091680390916903CF3F61F1B0E2EB1682
:10325000F104A8F00E94161880916C030E94340AB1
:103260008091680390916903DC01ED91FC910190DC
:10327000F081E02D60E00995EE24E394F12C80913B
:10328000680390916903F8016491DC01ED91FC9170
:103290000190F081E02D0995BFEFEB1AFB0A0F5F5B
:1032A0001F4FCDCFCF911F910F91FF90EF900C94B6
:1032B0001618E0917803F0917903908180917E0354
:1032C0008095892380838701C15008F438C0F801B4
:1032D00084912091660330916703232B29F00E948B
:1032E000940E0F5F1F4FF0CF28E030E040E8E091F0
:1032F0007403F091750390917C03582F5423D9F0F7
:103300005081952B9083E0917603F0917703908123
:1033100050917D03952B9083E0917603F091770394
:10332000508190917D0390959523908346952150EF
:103330003109E9F6D6CF508190959523E3CFCF910F
:103340001F910F91FF90EF900895CF92DF92EF922F
:10335000FF920F931F93CF93DF93C62EE42ED22EAE
:10336000F32EE801209711F4CFE3D3E00E94340A52
:10337000E881F9810190F081E02D6C2DCE01099555
:103380000D2D1F2DE00EF12EF11C0E151F0559F00D
:10339000F80161918F01E881F9810190F081E02DC0
:1033A000CE010995F2CFCE010E94161891E081114D
:1033B00090E0892FDF91CF911F910F91FF90EF90B7
:1033C000DF90CF9008950F931F93CF93DF931F92B9
:1033D000CDB7DEB7498389019E012F5F3F4F41E0A2
:1033E0000E94A5190F90DF91CF911F910F91089521
:1033F0001F93CF93DF93EC018D8D9E8D892BF9F078
:10340000162F89A10E94340A8D8D9E8DDC01ED91CD
:10341000FC910190F081E02D60E009958D8D9E8DED
:10342000DC01ED91FC910190F081E02D612F099577
:103430008D8D9E8DDF91CF911F910C941618ADA5A7
:10344000BEA59C918BA9809589238C938B8D9C8D97
:10345000892B31F0862FDF91CF911F910C94940E20
:1034600028E030E080E8A9A5BAA599A9462F48230D
:10347000C1F04C91942B9C93ABA5BCA59C914AA9FF
:10348000942B9C93ABA5BCA54C919AA990959423A1
:103490009C9386952150310931F7DF91CF911F918F
:1034A00008954C9190959423E6CFEF92FF920F935D
:1034B0001F93CF93DF938091680390916903892BC9
:1034C00009F49AC0209180033091810340918203D6
:1034D0005091830360E074E284EF90E00E944B33EC
:1034E000205131094109510956954795379527953E
:1034F0002093B80064E08BEA9FE00E94FD18809161
:103500004F03909150038034910509F08CC060E224
:103510008BE493E00E94F81960914F03615E8BE4A5
:1035200093E00E94F8192091510330915203C90190
:10353000079697FD079633E0959587953A95E1F7BD
:1035400020914F0330915003829F8001839F100D83
:10355000929F100D1124C0916A03D0916B0380914A
:103560006803909169030C0F1D1F892B09F48CC00F
:1035700080916C030E94340A8091680390916903E2
:10358000DC01ED91FC910190F081E02D60E4099562
:10359000EE24E394F12C80916803909169030C1759
:1035A0001D0709F449C0B0E2EB16F104A8F00E942F
:1035B000161880916C030E94340A809168039091E0
:1035C0006903DC01ED91FC910190F081E02D60E454
:1035D0000995EE24E394F12C80916803909169039E
:1035E0006991DC01ED91FC910190F081E02D09954C
:1035F000BFEFEB1AFB0ACFCF809166039091670370
:10360000892B31F08091890390918A030E949B0E4F
:10361000E0917A03F0917B03908180917F03809504
:103620008923808367CF60E08BE493E00E94F819E0
:1036300060914F03615073CF0E9416188091680308
:1036400090916903892B09F460C020918403309123
:103650008503409186035091870360E074E284EF14
:1036600090E00E944B332051310941095109569590
:103670004795379527952093B800DF91CF911F91FB
:103680000F91FF90EF900895E0917803F091790306
:10369000808190917E03892B80830C171D0771F226
:1036A00089912091660330916703232B19F00E94C2
:1036B000940EF3CF28E030E040E8E0917403F091FD
:1036C000750390917C03582F5423D9F05081952B8A
:1036D0009083E0917603F0917703908150917D0380
:1036E000952B9083E0917603F09177035081909130
:1036F0007D03909595239083469521503109E9F6F5
:10370000CCCF508190959523E3CFE0917A03F0914F
:103710007B03808190917F03892B8083AECF1F93A1
:10372000CF93DF93EC01162F8D8D9E8D892BB1F1F8
:103730002DA93EA94FA958AD60E074E284EF90E056
:103740000E944B3320513109410951095695479543
:10375000379527952093B80066EA111167EACE01E4
:103760000E94F8198D8D9E8D892B41F129AD3AADBE
:103770004BAD5CAD60E074E284EF90E00E944B33AF
:10378000205131094109510956954795379527959B
:103790002093B800DF91CF911F9108958B8D9C8D60
:1037A000892B21F08EAD9FAD0E949B0EEFA5F8A94D
:1037B00090818CA9809589238083CECFEFA5F8A92D
:1037C00080819CA9892B8083E5CF90E080E00895DB
:1037D000CF93DF9380918F0190918A0118160CF09E
:1037E00078C080910702829586958770981B892FF3
:1037F00080938A01C0918A01D0E0D595C795BE011A
:10380000655271096F77772721E030E040E150E0A1
:103810008BE493E00E94E40DBE01655C7F4F6F77FF
:10382000772721E030E044E150E08BE493E00E9410
:10383000E40DBE01635F7F4F6F77772721E030E0B3
:103840004FE050E08BE493E00E94E40DBE01695C20
:103850007F4F6F77772721E030E04EE050E08BE438
:1038600093E00E94E40DBE0168587F4F6F77772781
:1038700021E030E043E150E08BE493E00E94E40D6E
:10388000BE016A5471096F77772721E030E047E184
:1038900050E08BE493E00E94E40DBE016C5F7F4F2B
:1038A0006F77772721E030E04AE050E08BE493E047
:1038B0000E94E40DBE016D5D7F4F6F77772721E099
:1038C00030E04DE050E08BE493E0DF91CF910C9439
:1038D000E40D882309F48ECF8091070282958695A6
:1038E0008770890F85CF2F923F924F925F926F9290
:1038F0007F928F929F92AF92BF92CF92DF92EF9280
:10390000FF920F931F93CF93DF9300D000D000D08E
:103910001F92CDB7DEB720910502309106022850E4
:1039200031093B832A8330910C023983373008F404
:1039300086C0832F8650E82FF0E0EF54FD4FE491CE
:103940002A813B812E1B31093F832E8390E2899F80
:10395000300111248CE2E82EF12C2E803F8020E1F2
:10396000221A3108CE80DF8053014601F501EF5263
:10397000FE4F8491F501EF50FF4FE49110E000E01D
:10398000282F30E03B832A838E2F90E09D838C8309
:1039900026019FE0490E511C80E890E0002E02C0F5
:1039A000959587950A94E2F72A813B81282339234C
:1039B000232B09F459C02981273008F44EC021E097
:1039C00030E0A701B201601B710B8BE493E00E9411
:1039D000E40D0F5F1F4F08301105F1F688E0C81A9B
:1039E000D10898E0890E911C2FEFA21AB20AC214D6
:1039F000D30409F0BBCF3FEFE31AF30A82E0680E6D
:103A0000711C9CE3E916F10409F0ACCF27960FB6C0
:103A1000F894DEBF0FBECDBFDF91CF911F910F9104
:103A2000FF90EF90DF90CF90BF90AF909F908F90DE
:103A30007F906F905F904F903F902F9008953981C5
:103A4000E32FF0E0EF54FD4FE4918A819B818E0FCC
:103A5000911D9F838E83832F79CF21E030E0A701D2
:103A6000B801680D791DB1CF2C813D81822393234C
:103A7000892B09F4AECF3981373018F030E020E0DF
:103A8000A0CF30E020E0EBCF68E671E00E949C33ED
:103A900097FF02C088599E4F8A35910534F48A56A3
:103AA0009F4FFC01849190E00895843B91052CF494
:103AB000EAE4F1E0E81BF90BF5CF8E30F1E09F0767
:103AC0004CF48E519040FC01849190E09195819549
:103AD00091090895EEEFF1E0E81BF90BF5CF2F9275
:103AE0003F924F925F926F927F928F929F92AF928E
:103AF000BF92CF92DF92EF92FF920F931F93CF93DB
:103B0000DF93CDB7DEB763970FB6F894DEBF0FBE75
:103B1000CDBF00910702202F30E0359527953595D0
:103B200027953B832A838091900190919101820F88
:103B3000931F843C42E2940728F0209103022F5FF8
:103B40002093030264EC72E20E9488339093910107
:103B500080939001E7E0F1E030E020E050E040E0C9
:103B6000A4E660816A9F800111241E830D83B80141
:103B7000640F751F8617970740F5220F331FF90151
:103B8000E95FFE4F11811F8320E011FD24E63F8194
:103B900030FD2CE9BC01641B750B79876887309177
:103BA0008F01832F032E000C990B422F022E000C45
:103BB000550B3217B4F40A811B81800F911F4817EF
:103BC000590794F080938F0118C02F5F3F4F3296B2
:103BD000AB012C30310529F620E01F821E821D82A8
:103BE000DECF481759074CF40A811B81801B910BCB
:103BF000841795073CF720938F012885398505E0C8
:103C0000220F331F0A95E1F73D872C87312C212C99
:103C10004D815E8168857985461B570B5F874E878E
:103C20007F817074788B8F818072898B21019FEFE7
:103C3000491A590A80918F01082E000C990BB20184
:103C40000E949C33605C6A872AE0249D8001259D48
:103C5000100D1124E5E015950795EA95E1F71B8312
:103C60000A836AE5649DA001659D500D1124F5E06D
:103C700055954795FA95E1F7465F842F90E07C01D2
:103C8000F594E7948A85801B8E1989838A857A81C9
:103C9000870F8E0D8B8790E8981B9C838FE190E0B7
:103CA00082199309889F9001899F300D300D11244E
:103CB000289F3001299F700C389F700C1124B5E0AB
:103CC00075946794BA95E1F7809190019091910174
:103CD000680E791EC3010E94441D181619060CF0C7
:103CE000A0C10981002369F0202F30E001E010E03D
:103CF000A101405E5F4F70E060E08BE493E00E94C2
:103D00009D0D1C81112371F0212F30E04B85642F14
:103D100070E001E010E0A101405E5F4F8BE493E0B2
:103D20000E949D0D2A852E0D2C83C301880F991F9B
:103D3000880F991F0E94441D18161906DCF439815A
:103D4000632F70E001E010E02A813B81A101405E19
:103D50005F4F5B8B4A8B8BE493E00E949D0D5C81EF
:103D6000652F70E02A813B814A895B898BE493E06F
:103D70000E949D0D6F8167FF78C0888599850D81B0
:103D80001E818017910709F470C08C859D856E8512
:103D90007F850E9488336215730509F066C07981BA
:103DA000672F70E07B8B6A8B01E010E092014FE19E
:103DB00050E08BE493E00E94540D6A897B896F5F29
:103DC0007F4F10E000E092014FE150E08BE493E080
:103DD0000E94540D6A897B896150710992014FE1FB
:103DE00050E08BE493E00E94540D8C81A82EB12CFE
:103DF000CA80DB80CA0CDB1CB6016150710901E08E
:103E000010E092014FE150E08BE493E00E94540DEA
:103E1000B6016250710910E000E092014FE150E0FC
:103E20008BE493E00E94540D92014FE150E0B60103
:103E30008BE493E00E94540D82011595079595013E
:103E40004A895B89241B350B6A817B81260F371FCA
:103E50004FE150E0401B510BEE24E394F12C6A89B2
:103E60007B898BE493E00E94FC1278897723D1F15F
:103E7000888599850D811E818017910799F18C8520
:103E80009D856E857F850E9488336215730551F587
:103E9000C20196958795843008F484E01981C12E7B
:103EA000D12C282F30E05601A21AB30AA101405E9E
:103EB0005F4F5B8B4A8B3A01621A730A86954A01FF
:103EC000881A91087A0185019301A501B401C60100
:103ED0000E94CF13EA88FB889301A501B401C601B3
:103EE0000E949D125989552309F43FC06885798540
:103EF0008D819E8168177907C1F18C859D856E85BE
:103F00007F850E9488336215730579F5C201969505
:103F10008795843008F484E00A811B812C81020F8C
:103F2000111D015011091B830A83282F30E058010D
:103F3000A20EB31E610140E2C40ED11C3601621A0A
:103F4000730A86954601881A9108760185019301C6
:103F5000A501B4018A819B810E94CF139301A50121
:103F6000B4018A819B810E949D1254E1251631047F
:103F7000D9F56A85609304020E94D60B00918B01EB
:103F800010918C0120918D0130918E01601B710B7D
:103F9000820B930B633371058105910500F18091CC
:103FA00005029091060279817817190609F02CF420
:103FB0000B850817190609F044F4809107028C302C
:103FC00008F476C08850809307020E94D60B609355
:103FD0008B0170938C0180938D0190938E0115E17C
:103FE000412E512C120122CE10E241165104D1F77C
:103FF00063960FB6F894DEBF0FBECDBFDF91CF91B1
:104000001F910F91FF90EF90DF90CF90BF90AF90F6
:104010009F908F907F906F905F904F903F902F90E8
:10402000089559815523E1F0912C812CC52ED12C76
:10403000510160E2A60EB11C8C149D048CF4C401E5
:10404000820D931D80FF08C021E030E0A501B4017E
:104050008BE493E00E94E40D7FEF871A970AECCF80
:104060008C81882309F45ECE9B85A92EB12C082F64
:104070000A0D1B2D111D1B8B0A8B610110E2C10E55
:10408000D11C0A891B89A016B1060CF04BCEC501C4
:10409000820D931D80FF08C021E030E0A601B5012C
:1040A0008BE493E00E94E40D1FEFA11AB10AE9CF5F
:1040B000853008F48ACF14E01093070286CF2F9240
:1040C0003F924F925F926F927F928F929F92AF92A8
:1040D000BF92CF92DF92EF92FF920F931F93CF93F5
:1040E000DF9300D000D000D0CDB7DEB7C82E6A83F2
:1040F00049833C832B83FE82ED820E94D60B4B01C9
:104100005C01ED80FE80EF2821F48FE393E09E8335
:104110008D83F12CE12CD12C9981292E312C280171
:10412000712C612CE214F3040CF058C08C2D0E9409
:10413000340AAD81BE81ED91FC9111970190F0811F
:10414000E02D6A81CD0109958D819E810E9416180E
:10415000B1016E197F096132710514F060E270E0FF
:10416000613208F060E28C2D0E94C21610921B0290
:1041700080931A02AD81BE81ED91FC91119700846C
:10418000F185E02DCD010995892B09F10115110566
:1041900099F4AD81BE81ED91FC9111970284F38574
:1041A000E02DCD010995EB81FC81ED0DF11DD7FCD2
:1041B000FA958083D394DECF0E94D60B68197909D3
:1041C0008A099B09641575058605970510F3898191
:1041D000813208F080E2E80EF11CA4CF0115110530
:1041E000B1F00E94D60B681979098A099B0930E061
:1041F00020E0601771078207930748F08D2D0D2C82
:10420000000C990B8215930514F4DD24DA948D2D9E
:1042100026960FB6F894DEBF0FBECDBFDF91CF91CB
:104220001F910F91FF90EF90DF90CF90BF90AF90D4
:104230009F908F907F906F905F904F903F902F90C6
:104240000895EF92FF920F931F93CF93DF931F92E6
:10425000CDB7DEB7E0901B03F0901C0308EE13E02F
:104260009E012F5F3F4F41E065E780911A030E9456
:104270005F20882339F089818E7790E09595879526
:1042800080931D0380911D030F90DF91CF911F91AB
:104290000F91FF90EF900895EF92FF920F931F936D
:1042A000CF93DF93CAE1D3E0E980FA8008EE13E010
:1042B0002DE133E042E062E788810E945F208B813C
:1042C0009C81982789279827DF91CF911F910F9183
:1042D000FF90EF9008957F928F929F92AF92BF923E
:1042E000CF92DF92EF92FF920F931F93CF93DF93C2
:1042F0001F92CDB7DEB7A82E962E742E822EB02E2A
:1043000008EE13E09E012F5F3F4F41E00E945F20C7
:10431000882399F1872D8819990BAC014F5F5F4F66
:1043200081E090E002C0880F991F8A94E2F701971C
:10433000042E01C0880F0A94EAF72B2D01C0220F2A
:104340004A95EAF7482F4095B9804B218223482BA4
:1043500049839701692D8A2D0E94E3190F90DF91FF
:10436000CF911F910F91FF90EF90DF90CF90BF9072
:10437000AF909F908F907F90089580E0EFCF8F92C5
:104380009F92AF92BF92CF92DF92EF92FF920F93E4
:104390001F93CF93DF931F92CDB7DEB7B82EA62E13
:1043A000842E922E6801780108EE13E09E012F5FA3
:1043B0003F4F41E00E945F2081E090E001C0880F04
:1043C0008A94EAF749819920A9F0482B49839601FC
:1043D0006A2D8B2D0E94E3190F90DF91CF911F91D1
:1043E0000F91FF90EF90DF90CF90BF90AF909F9094
:1043F0008F90089580954823E9CF0F931F93FC0178
:104400000181128121E042E06AE680810E94BF21A1
:104410001F910F9108952091510330915203C901CA
:10442000079697FD079623E0959587952A95E1F7DE
:1044300020914F0330915003829FA001839F500D24
:10444000929F500D112470E060E080916A0390917A
:104450006B030C943A382F923F924F925F926F9277
:104460007F928F929F92AF92BF92CF92DF92EF9204
:10447000FF920F931F93CF93DF9300D000D000D013
:104480001F92CDB7DEB780E48093040280E490E011
:104490009093060280930502109207021092030285
:1044A00010929101109290010E940B220E94E81B31
:1044B0000E946F1D0E94731C0E94D60B2B013C01B1
:1044C000DD24DA94EE24E394F12C0AE010E02CE3EE
:1044D00030E050E040E062E270E08BE493E00E9464
:1044E000FC120E94D60B4B015C0184189508A608AB
:1044F000B708C501B40124EF31E040E050E00E946C
:104500004B33C22E298384E290E09F838E83312C2B
:10451000212C822F90E09D838C838E819F81019638
:104520009B838A83F12CE12C08E010E028E030E046
:1045300041E050E06E817F818BE493E00E94FC12A9
:104540008C819D818215930544F081E095EC89165C
:1045500099E09906A104B10408F080E0E82EF12C5E
:1045600006E010E026E030E042E050E06A817B8126
:104570008BE493E00E94FC128FEF281A380A8E8198
:104580009F810C969F838E8395E02916310429F62E
:104590000E94551A89818D15E1F14AEF50E060E0E3
:1045A00070E095EC891699E09906A104B10468F1D0
:1045B00080ED97E00E9442086AEF70E080E090E0B2
:1045C0000E948F0B0E94D60B6093FF017093000234
:1045D000809301029093020227960FB6F894DEBFF3
:1045E0000FBECDBFDF91CF911F910F91FF90EF9044
:1045F000DF90CF90BF90AF909F908F907F906F9003
:104600005F904F903F902F90089588EE93E00E9426
:104610004208DC2C84EC881689E09806A104B104D9
:1046200008F450CFC9CFFC0101900020E9F7319781
:10463000AF01481B590BBC018BE493E00C94100CA8
:104640000E94283885ED8093BC008091640290918F
:104650006502A0916602B09167020796A11DB11D87
:1046600023E0B695A795979587952A95D1F7209140
:10467000BC0024FD03C010926202089540916402C0
:10468000509165026091660270916702452B462B3E
:10469000472B69F30097A105B10541F02AE22A955D
:1046A000F1F700C00197A109B109E1CF8091630240
:1046B0000C94A1161F920F920FB60F9211242F93F4
:1046C0003F938F939F93AF93BF93809112029091EA
:1046D0001302A0911402B09115023091110223E04F
:1046E000230F2D3758F50196A11DB11D20931102FE
:1046F0008093120290931302A0931402B0931502B8
:104700008091160290911702A0911802B09119029F
:104710000196A11DB11D8093160290931702A093DC
:104720001802B0931902BF91AF919F918F913F9161
:104730002F910F900FBE0F901F90189526E8230F12
:104740000296A11DB11DD2CF1F920F920FB60F92EC
:1047500011242F933F934F935F936F937F938F9386
:104760009F93AF93BF93EF93FF93809171029091CA
:104770007202A0917302B0917402892B8A2B8B2B49
:10478000D1F190916C02E0916D02F0916E02808106
:10479000892780838091710290917202A0917302A7
:1047A000B0917402181619061A061B069CF4809123
:1047B000710290917202A0917302B09174020197FC
:1047C000A109B1098093710290937202A0937302C0
:1047D000B0937402FF91EF91BF91AF919F918F9130
:1047E0007F916F915F914F913F912F910F900FBEED
:1047F0000F901F901895809100010E94E40BEACF62
:104800001F920F920FB60F9211242F933F934F9345
:104810005F936F937F938F939F93AF93BF93EF9328
:10482000FF938DE792E00E947B0AFF91EF91BF9189
:10483000AF919F918F917F916F915F914F913F9138
:104840002F910F900FBE0F901F9018951F920F92EF
:104850000FB60F9211242F938F939F93EF93FF9393
:10486000E0918D02F0918E028081E0919302F091AF
:10487000940282FD1BC09081809196028F5F8F739E
:1048800020919702821741F0E0919602F0E0E35800
:10489000FD4F958F80939602FF91EF919F918F919D
:1048A0002F910F900FBE0F901F9018958081F4CF1D
:1048B0001F920F920FB60F9211242F933F934F9395
:1048C0005F936F937F938F939F93AF93BF93EF9378
:1048D000FF938091B900887F803609F44AC0F0F5D3
:1048E000883209F4A7C018F5803109F49BC0B8F4E8
:1048F000882309F4F9C0883009F494C0FF91EF913E
:10490000BF91AF919F918F917F916F915F914F91E7
:104910003F912F910F900FBE0F901F9018958831E7
:1049200009F488C0803251F78093400214C080346B
:1049300009F49DC040F48033B9F38833F9F68093CD
:10494000400285ECB0C0803509F485C0883509F493
:1049500096C0883499F60E942223D0CF883909F472
:104960008CC038F5883729F050F4883611F080373C
:1049700029F683E0809362021092F50157C08838CF
:1049800009F47BC0803919F0803809F0B7CF8091E5
:10499000F501803208F071C0E091F50181E08E0FE1
:1049A0008093F5018091BB00F0E0EB52FE4F8083D5
:1049B0003DC0803B39F0E0F4803A09F479C0883A90
:1049C00009F09CCF84E0809362021092D40110928F
:1049D000D301E091F901F091FA0109958091D30199
:1049E00081110FC081E08093D3011092B30109C0FF
:1049F000803C09F4A6CF883C09F4A3CF883B09F09A
:104A00007DCFE091D40181E08E0F8093D401F0E05E
:104A1000ED54FE4F80818093BB009091D401809132
:104A2000D30129C080913D028093BB0085EC809327
:104A3000BC0064CF90913F0280913E02981758F5D8
:104A4000E0913F0281E08E0F80933F02F0E0E45E50
:104A5000FD4F8081E9CFE0913F0281E08E0F80938E
:104A60003F028091BB00F0E0E45EFD4F80839091B7
:104A70003F0280913E029817C8F285E8D8CFE091B6
:104A80003F0281E08E0F80933F028091BB00F0E0F7
:104A9000E45EFD4F80838091410281115CCF81E013
:104AA00080933C0284EA8093BC001092620226CF7D
:104AB00085EC8093BC00109262028091F5018032F7
:104AC00030F4E091F501F0E0EB52FE4F108260917E
:104AD000F50170E0E091F701F091F80185ED91E0CA
:104AE00009951092F5010ACF1092400234CFFF923F
:104AF0000F931F93CF93DF93F62E8A01E90120973E
:104B000011F4CFE3D3E00E94340AE881F9810190E7
:104B1000F081E02D6F2DCE010995D80111966C9191
:104B2000E881F9810190F081E02DCE010995E881BD
:104B3000F9810190F081E02DD8016C91CE010995A9
:104B4000CE010E94161891E0811190E0892FDF912B
:104B5000CF911F910F91FF900895CF93DF9300D0D5
:104B6000CDB7DEB75A834983AE014F5F5F4F0E94D6
:104B700077250F900F90DF91CF910895EAE1F3E050
:104B800021813281482F6EE680810C94E3193F9297
:104B90004F925F926F927F928F929F92AF92BF924D
:104BA000CF92DF92EF92FF920F931F93CF93DF93F9
:104BB000782E662E6A017901E8010E94D60B4B011E
:104BC0005C01209711F4CFE3D3E0872D0E94340AD3
:104BD000E881F9810190F081E02D662DCE010995E3
:104BE000CE010E94161862E0872D0E94C216109214
:104BF0001B0280931A0201E010E02701712C612C46
:104C000033243394E881F9810084F185E02DCE01CD
:104C10000995892BE9F111113BC0E114F104C9F4A4
:104C2000E881F9810284F385E02D01110CC0CE01E9
:104C30000995F60120813181822B932B918380830A
:104C400011E00325DFCFCE010995F60110828183A3
:104C5000F8CF0E94D60B681979098A099B09641557
:104C6000750586059705E0F20E94D60BAB01BC01E5
:104C7000481959096A097B09C701B0E0A0E0481743
:104C800059076A077B0738F0111105C01FEF03C0F1
:104C9000E114F10449F7812FDF91CF911F910F911A
:104CA000FF90EF90DF90CF90BF90AF909F908F904C
:104CB0007F906F905F904F903F9008952F923F921A
:104CC0004F925F926F927F928F929F92AF92BF921C
:104CD000CF92DF92EF92FF920F931F93CF93DF93C8
:104CE000CDB7DEB7E7970FB6F894DEBF0FBECDBFE6
:104CF0008F8F48A759A76AA77BA70CA71DA72EA728
:104D00003FA78B3309F040C20E942121883308F469
:104D1000ADC297E79F8BA3E0AA8FE0901B03F090B2
:104D20001C0308EE13E09E012F5F3F4F41E06CE152
:104D300080911A030E945F20882351F08981887135
:104D400090E023E0959587952A95E1F780931D03E0
:104D500080911D0320E030E4790102C0F594E794CE
:104D60008A95E2F76EE38DE792E00E949D0ACE01FC
:104D70000D969E8B8D8BDE011196B98FA88F6C01DD
:104D8000BF8800911B0310911C0328EE33E0AE0195
:104D90004D5E5F4F6B2D80911A030E94C7258B8853
:104DA0009C88B401092C000C880B990B0E94533588
:104DB000FF89F33109F4F0C121E082229924D60160
:104DC0008D929C9220E030E040E051E40E94373622
:104DD000E88DF98D6083718382839383BA8DBB0ED6
:104DE000E2E0CE0ED11C288D398D2C5F3F4F398FDC
:104DF000288F8D899E892817390719F69F8D9B3337
:104E000009F0D8C18DEC9CECACE4BDE388AB99AB68
:104E1000AAABBBABA6E0B0E0BFA3AEA3C701B0E0B6
:104E2000A0E08CAB9DABAEABBFAB19A218A2312CEE
:104E3000212CDE011196BE8FAD8FFE013D96FBA3A6
:104E4000EAA3FF89FCA32F8D2DA3812C912C540163
:104E50001C8E1B8E00911B0310911C0328EE33E067
:104E6000AE014D5E5F4F6DA180911A030E94C72570
:104E70006B897C89072E000C880B990B0E94533597
:104E80006B017C013F8D3B3391F48B8D9C8D0297A0
:104E900071F46CA97DA98EA99FA90E9451359B012F
:104EA000AC01C701B6010E94C5336B017C0126012C
:104EB000370177FA709477F87094C501B4010E94B5
:104EC00051354B015C0120E030E0A901C701B6017A
:104ED0000E942A36181614F073016201A701960188
:104EE000C501B4010E94C6330E9422354B015C010A
:104EF0002FE632E143E85AE3C301B2010E9437369C
:104F00002CA53DA54EA55FA50E943736AD8DBE8D63
:104F10002D913D914D915C910E94C6336B017C01B6
:104F2000ED8DFE8DC082D182E282F38228A539A563
:104F30004AA55BA5C301B2010E943736A7019601BD
:104F40000E94C633FF89F33109F43EC120E030E00E
:104F500040E05EE30E9437366B017C0120E030E0E8
:104F6000A9010E942A3620E030E040E05FE387FD9F
:104F700026C1C701B6010E94C6330E941B356E7F51
:104F8000AAA1BBA18D919C91682B792B7C8B6B8BFB
:104F900020911B0330911C03AE014D5E5F4F6CA14D
:104FA00080911A030E947725EB8DFC8D3196FC8F42
:104FB000EB8FFDA1FE5FFDA32CA13A8D230F2CA347
:104FC0008AA19BA102969BA38AA3AD8DBE8D149648
:104FD000BE8FAD8FEB8DFC8D339709F03BCFF3E6A1
:104FE0002F16310471F429EE821623E09206A104F3
:104FF000B10438F06AE28DE792E00E949D0A312CFC
:10500000212CC501B4010E94513528A939A94AA90A
:105010005BA90E94373620E030E040EA50E40E946D
:10502000A43487FF05C088A199A1019699A388A3FC
:1050300094E689169104A104B10408F0E4C0ABE041
:105040002A1631040CF4DFC0E8A1F9A13A970CF458
:10505000DAC06EE28DE792E00E949D0A20E030E027
:1050600040E45FE368A579A58AA59BA50E94373631
:1050700068A779A78AA79BA720E030E040E45FE318
:105080006CA57DA58EA59FA50E9437366CA77DA730
:105090008EA79FA79E01235F3F4F6901FF88CE0126
:1050A00001963C01F30161917191819191913F01D0
:1050B000FF89F33109F4BBC020E030E040E05EE35B
:1050C0000E9437364B015C0120E030E0A9010E94CC
:1050D0002A3620E030E040E05FE387FDA3C0C50151
:1050E000B4010E94C6330E941B356E7FD6018D919C
:1050F0009C91682B792B7C8B6B8B20911B033091BF
:105100001C03AE014D5E5F4F6F2D80911A030E940C
:105110007725BA8DFB0EE2E0CE0ED11C288D398D9D
:105120002615370509F0BECF8EA19FA101979FA339
:105130008EA3892B09F079CE8AE193E00E94FD21AC
:1051400000911B0310911C0321E043E06AE680916B
:105150001A030E94BF21E7960FB6F894DEBF0FBE78
:10516000CDBFDF91CF911F910F91FF90EF90DF9016
:10517000CF90BF90AF909F908F907F906F905F90F7
:105180004F903F902F90089523E12F8B32E03A8F7C
:10519000E12C80E2F82EE6CD20E030E040E850E45B
:1051A0000E943736A88DB98D6D937D938D939C9316
:1051B000139714CE80E090E0A0E8BFE327CEC701AC
:1051C000B6010E94C533D9CE20E030E040E85EE36E
:1051D0000E9437366B017C0120E030E0A9010E947B
:1051E0002A3620E030E040E05FE387FD07C0C701DA
:1051F000B6010E94C6330E941B35C8CEC701B60156
:105200000E94C533F8CF61E070E080E090E00E943A
:105210008F0B9FEF291A390AA4E62A16310409F0E8
:1052200008CE17CFC501B4010E94C5335CCF20E082
:1052300030E040E85EE30E9437364B015C0120E03D
:1052400030E0A9010E942A3620E030E040E05FE330
:1052500087FD07C0C501B4010E94C6330E941B35FB
:105260004ACFC501B4010E94C533F8CFB6E0BF8B69
:10527000E2E0EA8F52CD2F923F924F925F926F926F
:105280007F928F929F92AF92BF92CF92DF92EF92D6
:10529000FF920F931F93CF93DF9300D000D0CDB731
:1052A000DEB73C014B01242E522E302E20911B03E1
:1052B00030911C036DE680911A030E94E319852D3D
:1052C0000E94BE2580E190E00E9403375C0100232C
:1052D00069F180E190E00E9403379C838B83D12C9D
:1052E000C12CC6014096482C4C188816990610F01F
:1052F00080E1482E80E091E0851991094816190651
:1053000019F014F0452C4194332099F0AB81BC8105
:1053100090E080E093012C0D3D1D841578F4F90197
:10532000E80FF91FE491ED930196F7CF1C821B82E1
:10533000D6CFC3018C0D9D1D9C838B8300911B03D5
:1053400010911C032B813C81442D6FE680911A0340
:105350000E94A519842D90E09A838983A114B10439
:1053600009F446C020911B0330911C03422D4F715C
:105370006DE680911A030E94E319852D0E94BE25D7
:10538000E0901B03F0901C0308EE13E09501442D00
:105390006FE680911A030E945F2049815A81B5010E
:1053A0008B819C810E942D38892B11F1C5010E94AF
:1053B0009F37332029F08B819C810E949F37312CAD
:1053C000832D0F900F900F900F90DF91CF911F9131
:1053D0000F91FF90EF90DF90CF90BF90AF909F9094
:1053E0008F907F906F905F904F903F902F90089597
:1053F00089819A81C80ED91EC814D904B8F4540CF6
:1054000009F4239420911B0330911C03422D4F710A
:105410006DE680911A030E94E319852D0E94BE2536
:1054200060CF8B819C810E949F37CACFC5010E94AB
:105430009F373110F6CF33243394C2CFEDE7F2E03B
:105440001382128248EE53E060E070E0448355839B
:105450006683778383E291E09183808385EC90E09B
:105460009587848784EC90E09787868780EC90E02E
:10547000918B808B81EC90E0938B828B82EC90E01F
:10548000958B848B86EC90E0978B868B118E128E99
:10549000138E148EAFE3B3E013961C921E921297F4
:1054A00014964D935D936D937C93179785E391E0EC
:1054B00011969C938E93EBE4F3E01382128220E822
:1054C00030E03583248380E490E0978386833187BE
:1054D000208793878287168A1586148617861686F4
:1054E00081E0858B848B2FEF3FEF338B228B318BC9
:1054F000208B878B108E128E118E87E491E0918322
:105500008083148E138EB68FA58F10A2178E8FEF07
:1055100084A385A386A387A380A780E89AE1A6E059
:10552000B0E085AB96ABA7ABB0AF80EA96E8A1E060
:10553000B0E081AF92AFA3AFB4AF80E586AF17AE56
:10554000EAE1F3E088E680831282118288EF9AE232
:10555000A0E0B0E0818B928BA38BB48B0895CF93A6
:10556000DF93CDB7DEB7C557D1090FB6F894DEBFCC
:105570000FBECDBF789484B5826084BD84B5816050
:1055800084BD85B5826085BD85B5816085BD80910E
:105590006E00816080936E00109281008091810086
:1055A000826080938100809181008160809381007E
:1055B000809180008160809380008091B100846040
:1055C0008093B1008091B00081608093B0008091A1
:1055D0007A00846080937A0080917A008260809360
:1055E0007A0080917A00816080937A0080917A00BD
:1055F000806880937A001092C1008DE00E94230899
:1056000010921B0210921A02109269021092680204
:105610000E94831682EE9BE09093FA018093F90139
:1056200083EE9BE09093F8018093F70180916A03E9
:1056300090916B03892B41F52091510330915203D6
:10564000C901079697FD079643E0959587954A957A
:10565000E1F720914F0330915003AC01429FC0010C
:10566000439F900D529F900D11240E9403379093F9
:105670006B0380936A03892B39F40E94C20B0E944A
:10568000C20B0E94C20BFFCF0E940B2282E08093CC
:105690006D038091680390916903892B09F434C1EB
:1056A0008CE380936C030E9483168091730387FDC3
:1056B0001DC00E94230861E0809173030E941E0BAD
:1056C00061E070E080E090E00E948F0B60E08091EC
:1056D00073030E941E0B6AE070E080E090E00E947D
:1056E0008F0B61E0809173030E941E0B8091680311
:1056F00090916903892B09F4BEC1209180033091F8
:105700008103409182035091830360E074E284EF4F
:1057100090E00E944B3320513109410951095695BF
:105720004795379527952093B80064E086ED97E07C
:105730000E94FD186091510361508BE493E00E9438
:10574000F81964E082ED97E00E94FD1880916D03E6
:1057500060E1813009F064E18BE493E00E94F81984
:1057600064E08EEC97E00E94FD188FE88093880338
:1057700080914F03909150038038910509F092C1B8
:1057800080915103909152038034910509F09AC1A0
:1057900080916D03813009F0A8C18FE9809388035F
:1057A00012E16AED8BE493E00E94F819612F8BE41B
:1057B00093E00E94F81961E88BE493E00E94F819E5
:1057C000609188038BE493E00E94F81969ED8BE403
:1057D00093E00E94F81980916D0362E2813009F034
:1057E00061EF8BE493E00E94F81966E088EC97E0A3
:1057F0000E94FD188091680390916903892B09F438
:1058000076C12091840330918503409186035091A5
:10581000870360E074E284EF90E00E944B332051F4
:105820003109410951095695479537952795209398
:10583000B8000E940B2281E090E090935E03809379
:105840005D0390935C0380935B0382E080935F032E
:1058500080936003109258031092570310925A03DA
:10586000109259038FE79FE00E94AB118FE691E001
:105870000E94132387E79FE00E94AB110E94551AF4
:10588000E0901B03F0901C0301E023E042E06BE694
:1058900080911A030E946B21E0901B03F0901C037F
:1058A00000E022E044E06BE180911A030E946B214A
:1058B000E0901B03F0901C0322E044E06CE1809137
:1058C0001A030E946B2100911B0310911C0320E01E
:1058D00046E06BE680911A030E94BF210E942121BD
:1058E000843309F40EC10E940B22109258031092C7
:1058F000570310925A03109259038DE69FE00E94BD
:10590000AB110E94551AFFCF809171030E942308AA
:10591000809172030E94230880917103082E000C6D
:10592000990BFC01EC53F04FE491F0E0EE0FFF1FF8
:10593000E055F04F2591349130937903209378030B
:10594000FC01E852F04FE491E0937E0380917203F2
:10595000082E000C990BFC01EC53F04FE491F0E0A1
:10596000EE0FFF1FE055F04FA591B491B0937B036C
:10597000A0937A03FC01E852F04FE491E0937F0397
:105980008C91E82BEC938091660390916703892BAF
:1059900089F11FB7F8948091F601811124C0EEECD3
:1059A000FFE08491E2EEFFE09491E82FF0E0EE0F4B
:1059B000FF1FE654F04FA591B491EC91E92321F437
:1059C00061E08AE00E941E0B8AE00E9423088CB5E9
:1059D00080618CBD8CB580648CBD8DE00E942308F5
:1059E0008BE00E9423088091F6018F5F8093F6017F
:1059F0001FBF5BCE80916F030E94230880917003CC
:105A00000E94230880916F03082E000C990BFC0163
:105A1000EC53F04FE491F0E0EE0FFF1FE055F04F34
:105A2000259134913093750320937403FC01E8525F
:105A3000F04FE491E0937C0380917003082E000CFA
:105A4000990BFC01EC53F04FE491F0E0EE0FFF1FD7
:105A5000E055F04FA591B491B0937703A0937603EE
:105A6000FC01E852F04FE491E0937D038C91E095C6
:105A7000E823EC931ACE8091660390916703892BFB
:105A800031F08091890390918A030E949B0EE091EE
:105A90007A03F0917B03908180917F038095892325
:105AA000808343CE8036910589F480915103909193
:105AB0005203409739F480916D03813029F480E1DD
:105AC0008093880312E06DCE8FEAFACF803491057F
:105AD000C9F78091510390915203809799F7809173
