:100000000C9423040C944B040C944B040C944B045C
:100010000C944B040C944B040C944B040C940B1751
:100020000C944B040C944B040C944B040C944B0414
:100030000C944B040C944B040C944B040C944B0404
:100040000C94C1160C944B040C944B040C944B046C
:100050000C944B040C944B040C944B040C944B04E4
:100060000C948D170C944B0400000000003E5B4F75
:100070005B3E3E6B4F6B3E1C3E7C3E1C183C7E3C08
:10008000181C577D571C1C5E7F5E1C00183C180016
:10009000FFE7C3E7FF0018241800FFE7DBE7FF30A6
:1000A000483A060E2629792926407F050507407F14
:1000B00005253F5A3CE73C5A7F3E1C1C08081C1C87
:1000C0003E7F14227F22145F5F005F5F06097F017D
:1000D0007F006689956A606060606094A2FFA29468
:1000E00008047E040810207E201008082A1C080836
:1000F0001C2A08081E101010100C1E0C1E0C303884
:100100003E3830060E3E0E06000000000000005F84
:1001100000000007000700147F147F14242A7F2AA0
:100120001223130864623649562050000807030062
:10013000001C2241000041221C002A1C7F1C2A08AE
:10014000083E080800807030000808080808000011
:1001500060600020100804023E5149453E00427F85
:10016000400072494949462141494D331814127FD4
:100170001027454545393C4A494931412111090774
:100180003649494936464949291E000014000000F5
:1001900040340000000814224114141414140041C7
:1001A00022140802015909063E415D594E7C121184
:1001B000127C7F494949363E414141227F414141BC
:1001C0003E7F494949417F090909013E4141517337
:1001D0007F0808087F00417F41002040413F017FA8
:1001E000081422417F404040407F021C027F7F0470
:1001F00008107F3E4141413E7F090909063E4151B9
:10020000215E7F09192946264949493203017F01A8
:10021000033F4040403F1F2040201F3F4038403FA9
:10022000631408146303047804036159494D4300BF
:100230007F4141410204081020004141417F0402F6
:10024000010204404040404000030708002054548D
:1002500078407F284444383844444428384444286B
:100260007F385454541800087E090218A4A49C78BE
:100270007F0804047800447D40002040403D007F1A
:100280001028440000417F40007C047804787C08FA
:100290000404783844444438FC18242418182424CE
:1002A00018FC7C08040408485454542404043F44B3
:1002B000243C4040207C1C2040201C3C4030403CE2
:1002C00044281028444C9090907C4464544C440042
:1002D00008364100000077000000413608000201A6
:1002E0000204023C2623263C1EA1A161123A404092
:1002F000207A38545455592155557941225454780F
:1003000042215554784020545579400C1E527212A7
:100310003955555559395454545939555454580030
:1003200000457C410002457D420001457C407D1234
:1003300011127DF0282528F07C5455450020545496
:100340007C547C0A097F4932494949323A44444441
:100350003A324A4848303A4141217A3A424020787C
:10036000009DA0A07D3D4242423D3D4040403D3C7D
:1003700024FF2424487E4943662B2FFC2F2BFF09A2
:1003800029F620C0887E0903205454794100004496
:100390007D413048484A32384040227A007A0A0A81
:1003A000727D0D19317D2629292F282629292926F4
:1003B00030484D4020380808080808080808382F39
:1003C00010C8ACBA2F102834FA00007B00000814C3
:1003D0002A142222142A14085500550055AA55AA99
:1003E00055AAFF55FF55FF000000FF00101010FF39
:1003F00000141414FF001010FF00FF1010F010F094
:10040000141414FC001414F700FF0000FF00FF1484
:1004100014F404FC141417101F10101F101F1414D0
:10042000141F00101010F0000000001F101010101A
:100430001F10101010F010000000FF10101010100E
:1004400010101010FF10000000FF140000FF00FF4C
:1004500000001F10170000FC04F4141417101714E8
:1004600014F404F40000FF00F7141414141414140A
:10047000F700F7141414171410101F101F1414147D
:10048000F4141010F010F000001F101F0000001FE7
:1004900014000000FC140000F010F01010FF10FF1A
:1004A000141414FF141010101F00000000F010FFAF
:1004B000FFFFFFFFF0F0F0F0F0FFFFFF0000000093
:1004C00000FFFF0F0F0F0F0F3844443844FC4A4A17
:1004D0004A347E02020606027E027E0263554941CC
:1004E000633844443C04407E201E2006027E020203
:1004F00099A5E7A5991C2A492A1C4C7201724C3017
:100500004A4D4D303048784830BC625A463D3E49ED
:100510004949007E0101017E2A2A2A2A2A44445F91
:10052000444440514A444040444A51400000FF0185
:1005300003E080FF000008086B6B08361236243693
:10054000060F090F060000181800000010100030F8
:1005500040FF0101001F01011E00191D1712003C80
:100560003C3C3C0000000000000103070F1F3F7FE0
:100570000080C0E0F0F8FCFEDB40A4A62EAF200017
:10058000A1C8D300408DAED580A8000000000000B7
:100590000000003F81FC3FC3FC3FE7FC39E79C388B
:1005A000661E3FE7FC79E79E78661E7FE7FE39E727
:1005B0009C78661E7FE7FE3FE7FC7FE7FC3FE7FC99
:1005C00001E7800066000024000000000000000039
:1005D0000000000000000000010C2007FFE00A18E6
:1005E000D01210881000081399C812A54812BD48EF
:1005F00011188810000812BD4812A5481399C81098
:10060000000813BDC812A54813BDC8100008080093
:100610001007FFE0000000000000000000000000E4
:100620000000000200000FC1F01FFFF81FFFFC3C9C
:10063000FF9C3CFF9C303F9E701EFE7CFC7E7CFE3F
:10064000FE7EFFFE7FFFFE7FFFFE7F81FE7F80FE3E
:100650007F00FE3E007C0000000000000000000063
:10066000000000FF0000FF0000FF00007E000018F7
:100670000000003000FF3801FF980781E00718E014
:100680000E18700C18301C1838181818183C181848
:1006900018181800181C00380C00300E00700700E5
:1006A000E003E7C001FF80003C0007FFE008001006
:1006B00010000811FF8812004814002814002814A4
:1006C000002814002814002812004811FF88100088
:1006D000081000081100081381C811000810000854
:1006E00013804811008813810810000808001007C3
:1006F000FFE000000000000000000000000000001B
:1007000000000000000000000000000000000000E9
:1007100000000000000000000000000000000000D9
:1007200000000000000000000000000000000000C9
:100730000000070E6003001F87C0070E6003001F44
:10074000CFE0070E0000001DCFE0079E000000185C
:10075000CCE0079E67630018CCE0079E67F30018A3
:10076000CC0007FE67F3001FCC0007FE6773001F75
:10077000CC0006FE6773001F8C0006EE677300183E
:100780000C00066E677300180CE0066E67730018A5
:100790000CE0060E677300180FE0060E6773001872
:1007A0000FE006066773001807C000000000000095
:1007B0000000000000000000000000000000000039
:1007C0000000000000000000000000000000000029
:1007D0000000000000000000000000000000000019
:1007E000000000000000240027002A000000000094
:1007F0002300260029000000000800020100000379
:10080000040700000000000000000102040810209E
:10081000408001020408102001020408102000009A
:100820000000250028002B00040404040404040430
:10083000020202020202030303030303022200FF77
:100840002100E018F42411241FBECFEFD8E0DEBF52
:10085000CDBF12E0A0E0B1E0E0ECF5E502C005900C
:100860000D92A836B107D9F723E0A8E6B2E001C09F
:100870001D92AD3FB207E1F714E0C2E2D4E004C03C
:100880002197FE010E94B027C132D107C9F70E940B
:1008900043190C94D32A0C9400000895833081F0FE
:1008A00028F4813099F08230A9F008958730A9F0BA
:1008B0008830C9F08430B1F4809180008F7D03C00E
:1008C000809180008F7780938000089584B58F7722
:1008D00084BD089584B58F7DFBCF8091B0008F7764
:1008E0008093B00008958091B0008F7DF9CFCF93B1
:1008F000DF93282F30E0F901EA50F84F8491F90195
:10090000E65FF74FD491F901E85DF74FC491CC232E
:10091000A1F081110E944E04EC2FF0E0EE0FFF1FBA
:10092000E451F84FA591B491EC91ED2381E090E072
:1009300009F480E0DF91CF91089580E090E0FACF54
:100940001F93CF93DF93282F30E0F901EA50F84F3F
:100950008491F901E65FF74FD491F901E85DF74F13
:10096000C491CC23A9F0162F81110E944E04EC2FC4
:10097000F0E0EE0FFF1FE25EF74FA591B4918FB745
:10098000F894EC91111108C0D095DE23DC938FBF51
:10099000DF91CF911F910895DE2BF8CFCF93DF9396
:1009A00090E0FC01E65FF74F2491885D974FFC01D2
:1009B00084918823D1F090E0880F991FFC01EE51BB
:1009C000F84FA591B491FC01E25EF74FC591D49127
:1009D000623071F49FB7F8943C91822F8095832305
:1009E0008C93E8812E2B28839FBFDF91CF910895B0
:1009F0008FB7F894EC912E2B2C938FBFF6CFCF931B
:100A000080911401893021F08F3F61F1CF910895D9
:100A1000ECE3F8E0C491C7FDF9CF61E089E00E9402
:100A2000CE04CC2309F48CC0C23009F0A1C080915F
:100A3000B100887F83608093B10082EE8093B30021
:100A40008EE690E0A0E0B0E0809391039093920353
:100A5000A0939303B093940380917000826080937D
:100A60007000D4CF89E080931401ECE3F8E0C491E6
:100A7000CF3F61F2C13021F150F0C23009F43EC0E5
:100A8000C7FDC4CF61E089E00E94CE04CDCF14BC85
:100A900015BC84B5826084BD85B5816085BDE1E308
:100AA000F8E0E491F0E0EE0FFF1FE25EF74F859172
:100AB0009491E3E1F8E0E491E0939003C0E0ADCFDE
:100AC0001092800010928100809181008860809354
:100AD000810080918100816080938100E1E3F8E0F2
:100AE000E491F0E0EE0FFF1FE25EF74F85919491E5
:100AF000E3E1F8E0E491E0938F038FCF1092B00030
:100B00001092B1008091B00082608093B00080911B
:100B1000B10081608093B100E1E3F8E0E491F0E09E
:100B2000EE0FFF1FE25EF74F8591949190938E0335
:100B300080938D03E3E1F8E0E491E0938C036DCFC3
:100B400085B5887F836085BD80E787BD8EE690E0B0
:100B5000A0E0B0E08093990390939A03A0939B0345
:100B6000B0939C0380916E00826080936E004ECFA4
:100B7000C130F1F480918100887F81608093810091
:100B800087E69CE190938900809388008EE690E050
:100B9000A0E0B0E08093950390939603A093970311
:100BA000B093980380916F00826080936F002ECF86
:100BB000C23021F0C1112ACF87E6C7CF87E63ECFEA
:100BC0003FB7F8948091880390918903A0918A039C
:100BD000B0918B0326B5A89B05C02F3F19F0019655
:100BE000A11DB11D3FBFBA2FA92F982F8827BC0187
:100BF000CD01620F711D811D911D42E0660F771FAF
:100C0000881F991F4A95D1F708958F929F92AF92AE
:100C1000BF92CF92DF92EF92FF924B015C010E9454
:100C2000E0056B017C010E94E0056C197D098E09CD
:100C30009F09683E734081059105A8F321E0821A5F
:100C40009108A108B10888EEC80E83E0D81EE11C07
:100C5000F11C81149104A104B10429F7FF90EF90D5
:100C6000DF90CF90BF90AF909F908F9008950895A0
:100C70000895AF92BF92CF92DF92EF92FF920F93BF
:100C80001F93CF93DF936C017B018B01040F151F22
:100C9000EB015E01AE18BF08C017D10759F069918A
:100CA000D601ED91FC910190F081E02DC6010995EE
:100CB000892B79F7C501DF91CF911F910F91FF909B
:100CC000EF90DF90CF90BF90AF900895EF92FF929A
:100CD0000F931F93CF93DF93EC01EC80FD806E1593
:100CE0007F050CF070C057FF04C0240F351F50E083
:100CF00040E08E819F81FA01E20FF31F8E179F075C
:100D00001CF49C01241B350B121613060CF05BC05F
:100D1000922F842F8695869586958E9DD0018F9DE6
:100D2000B00D11246A0F7B1FAF8DB8A1A60FB71F9E
:100D3000477049F188E0841B482F682F70E0FB0161
:100D4000E059FA4FE491281708F063C0621B71095B
:100D50002FEF30E002C0359527956A95E2F7E22340
:100D60000130110539F0B0F10230110561F58C91B7
:100D7000E82702C08C91E82BEC93941720F12C818A
:100D80003D81A20FB31FE92FE41BE83078F0023059
:100D9000110521F58E2F9C9190959C932C813D817E
:100DA000A20FB31F88508830B0F7E770EE2359F0D8
:100DB000F0E0E859FA4FE49101301105F9F010F133
:100DC0000230110519F1DF91CF911F910F91FF9022
:100DD000EF900895E0958C91E823CECF81E0011546
:100DE000110509F480E081959E2F8C932C813D8123
:100DF000A20FB31F98509830C0F7D7CF8C91E82B33
:100E0000EC93E1CFE0958C91E823FACF8C91E82721
:100E1000F7CF0130110509F4ADCFE0F20230110532
:100E200009F4A5CFAE0DBF1DAECF0F931F93CF9387
:100E3000DF9377FF04C0260F371F70E060E0DC010E
:100E40001496CD91DC91FB01E20FF31FCE17DF0763
:100E50001CF49E01261B370B121613064CF5FA01E3
:100E600057FD3796A3E0F595E795AA95E1F7EC9F36
:100E7000D001ED9FB00DFC9FB00D11246A0F7B1FB8
:100E8000DC015F96ED91FC91E60FF71F4770552747
:100E900081E090E001C0880F4A95EAF7482F0130C1
:100EA000110559F0A8F02E0F3F1F02301105E1F097
:100EB000DF91CF911F910F9108952E0F3F1FE217E1
:100EC000F307B1F38191DF011197842B8C93F7CF56
:100ED00080952E0F3F1FE217F30751F39191DF0129
:100EE000119798239C93F7CFE217F30709F38191A9
:100EF000DF01119784278C93F7CF0F931F93FA018B
:100F0000DC0156964C9156974230E9F04330A1F1FE
:100F1000413061F514964D915C91DA01AE1BBF0B27
:100F2000FD01E21BF30B77FD0BC0DC0116964D9122
:100F30005C916417750724F4AB01BF010E9415078B
:100F40001F910F91089514964D915C91DA01A61BA3
:100F5000B70BBD0161507109DC0116964D915C9192
:100F6000DA01AE1BBF0BFD01E21BF30B77FDE8CFEF
:100F7000AF010E946606E4CF16964D915C91DA01AE
:100F8000A61BB70BBD0161507109CDCF0F931F9305
:100F9000FA01DC0156964C9156974230A9F0433045
:100FA00091F1413019F514964D915C91DA01AE1B27
:100FB000BF0BFD013197F7FD04C0AB01BF010E94DB
:100FC00066061F910F91089514964D915C91DA0178
:100FD000A61BB70BBD01DC0116964D915C91DA01A1
:100FE000AE1BBF0BFD013197621B730BF7FDE9CF01
:100FF000DC0116964D915C91E417F50714F7AF01EB
:101000000E941507DECF16964D915C91DA01A61B62
:10101000B70BBD01621B730BCECFFC0177FD64C023
:1010200080859185681779070CF05EC057FD5CC01C
:1010300082859385481759070CF056C086898230FF
:10104000B1F0833029F1813041F484819581841B92
:10105000950BAB01BC01615071092130310509F1DB
:1010600008F443C02230310509F463C00895848137
:101070009581DC01A61BB70BBD016150710986810A
:101080009781DC01A41BB50BAD0141505109E5CF9F
:1010900086819781861B970BBA01AC01415051099B
:1010A000DCCFCA0157FD0796A3E095958795AA95D1
:1010B000E1F7A481B5818A9F90018B9F300D9A9FA3
:1010C000300D1124620F731F078CF0A1E02DE60F85
:1010D000F71F4770552721E030E001C0220F4A95E5
:1010E000EAF78081822B80830895CA0157FD079615
:1010F00033E0959587953A95E1F7A481B5818A9F6C
:1011000090018B9F300D9A9F300D1124620F731F39
:10111000078CF0A1E02DE60FF71F4770552781E0FF
:1011200090E001C0880F4A95EAF780959081892365
:10113000DACFCA0157FD079623E0959587952A9542
:10114000E1F7A481B5818A9F90018B9F300D9A9F12
:10115000300D1124620F731F078CF0A1E02DE60FF4
:10116000F71F4770552721E030E001C0220F4A9554
:10117000EAF780818227B7CF08958EBD00000DB4B5
:1011800007FEFDCF8EB508958CBD9DBD08950895D1
:10119000FC016370668B8481958126813781613083
:1011A00039F0633029F0918780873387228708954B
:1011B000318720879387828708952F923F924F929D
:1011C0005F926F927F928F929F92AF92BF92CF92D7
:1011D000DF92EF92FF920F931F93CF93DF93CDB7E0
:1011E000DEB76A970FB6F894DEBF0FBECDBF9A8FF9
:1011F000898F7A8369834A01D22E18870F8337013A
:10120000BC2CDC0159962D913C915A972115310542
:1012100009F015C118968D919C9119976817790757
:101220000CF0D7C11A968D919C91481759070CF074
:10123000D0C14C2C512CB6E0CB9E600D711D1124F9
:101240007C876B87161617060CF0C3C1EA2DF0E0F9
:10125000FA87E98793E0EE0FFF1F9A95E1F7F88B85
:10126000EF87CF01840F951F181619060CF0B1C136
:10127000A98DBA8D58968C91811104C0BFEABD1515
:1012800008F4D394A98DBA8DED91FC911197028445
:10129000F385E02DCD010995B5E0DB9EC001112459
:1012A000E981FA81FC83EB83312C212C9C012859A4
:1012B0003F4F388F2F8B4A2D50E05E8B4D8BEF893F
:1012C000F88DE20DF31D44919E828D82D12CC12CAC
:1012D00069817A81620D731D7A8B698B842F90E00E
:1012E0009C8B8B8BE98DFA8DA081B18140FF82C0F0
:1012F000F1E0BF126FC0AF126DC01C96ED91FC9172
:101300002F813885A4014C0D5D1D69897A89898DED
:101310009A8D0995EB89FC89F595E7954E2F5FEF3E
:10132000C51AD50A6D817E818D899E89680F791FC6
:101330007E836D8398E0C916D10481F6AFEF2A1A37
:101340003A0AEB81FC81E40DF51DFC83EB83F5E0AB
:101350002F16310409F0B3CF2F81388526153705B4
:10136000B9F0A98DBA8DED91FC91B1E0BB1257C0D7
:10137000AB1255C069817A816B5F7F4F0088F1891C
:10138000E02D830128E030E0A401898D9A8D099534
:10139000A98DBA8DED91FC9111970688F789E02D02
:1013A000CD016A960FB6F894DEBF0FBECDBFDF91B8
:1013B000CF911F910F91FF90EF90DF90CF90BF9052
:1013C000AF909F908F907F906F905F904F903F90E5
:1013D0002F9009941E96ED91FC91EF80F884098579
:1013E0001A8592014D815E816B817C81898D9A8DF8
:1013F000099590CF2F8138852615370509F48ACFB6
:1014000031E0B31207C0A31205C01C96ED91FC9108
:10141000930178CF1E96ED91FC917301E0CF6B851F
:101420007C85641975090684F785E02D73010F85A5
:1014300018899201A401898D9A8D0995A9CFF90186
:1014400034969491329745915491D91AB7E0DB9E26
:10145000400D511D1124F901259134913C8B2B8BAA
:10146000FA0125903490FA013296749031963491B5
:10147000398B329664903196449041E04C1518F0C7
:101480004A1508F07FC0662D062C000C770B7C8374
:101490006B83842D042C000C990B9E838D83A98D66
:1014A000BA8DED91FC9111970284F385E02DCD0169
:1014B0000995512CD12CC12CEA2DF0E0FA87E9874F
:1014C0002B2D30E03C872B87A401440D511D47FC98
:1014D0005A95588F4F8B69817A81660D711D67FC13
:1014E0007A957E876D877989C71608F051CF2C2DA4
:1014F00030E04D815E81420F531FA985BA854A9F16
:10150000C0014B9F900D5A9F900D1124FC01E80DD6
:10151000F91DF88BEF87852D612C4F89588D420F6F
:10152000531F5E8B4D8B671408F050C044244394C6
:10153000480E877041F4C1010196EB89FC89E20DE8
:10154000F31DD4901C01D7FE19C0A98DBA8DED9161
:10155000FC91662D70E0B1E0BB1219C0AB1217C050
:101560002D853E85620F731F0484F585E02D2F8144
:1015700038854D895E89898D9A8D0995DD0C639436
:10158000842DD1CF1E821D821C821B8288CF4B816D
:101590005C81640F751FAB85BC856A9FC0016B9F22
:1015A000900D7A9F900D112469817A81680F791FBF
:1015B0000684F785E02DEF80F88409851A859D0162
:1015C0004F855889898D9A8D0995D8CF570CC3942A
:1015D0008ACF6A960FB6F894DEBF0FBECDBFDF91FB
:1015E000CF911F910F91FF90EF90DF90CF90BF9020
:1015F000AF909F908F907F906F905F904F903F90B3
:101600002F9008958F929F92AF92CF92EF92FF9278
:101610000F931F93CF93DF93EC01262F898D9A8D23
:10162000009709F051C06A30D1F41D861C868D895F
:1016300048E0849F900111248E859F85820F931F1F
:101640009F878E8781E090E0DF91CF911F910F916E
:10165000FF90EF90CF90AF909F908F9008956D3056
:1016600089F3CC88AD888F898823C1F08C859D85CE
:1016700036E0C39E800D911D112448855985481779
:10168000590764F44E855F851D861C8638E0A39E4D
:10169000C0011124840F951F9F878E87EA88FB88DD
:1016A000088919894E855F856C857D85CE010E94EC
:1016B000DD082C898C859D8546E0249F800D911D39
:1016C00011249D878C87BECF6A3069F41D861C86E5
:1016D000FC013896E4912D898E859F85E29F800DCF
:1016E000911D1124ADCF6D3009F4ACCFFC013496BF
:1016F0003491631708F4A6CF3296E491E61708F404
:10170000A1CFFC01329685909490462F431B342F35
:1017100047E0349F800C911C1124F40132963491DF
:101720003196E4913323A9F1EE2399F1CC88F401A9
:101730003596E491AD884F89442301F10E2E000CBB
:10174000FF0BE30FF11DCE9EA001CF9E500D112483
:101750006C857D85460F571F6885798564177507E9
:101760006CF44E855F851D861C86FC013896E491DD
:10177000AE9E400D511D11245F874E87EA88FB887D
:10178000088919894E855F856C857D85CE010E940B
:10179000DD08F4013496E4912C898C859D85E29FC7
:1017A000800D911D11248DCF682F8DEA93E00C944C
:1017B000020B6F927F928F929F92AF92BF92CF92C5
:1017C000DF92EF92FF920F931F93CF93DF93EC0181
:1017D0006B015A0139014801E881F9810284F385DE
:1017E000E02D0995E881F9810288F389E02D8701D0
:1017F0009301A501B601CE010995A501480D591D1A
:1018000041505109E881F9810288F389E02D930163
:10181000B601CE010995E881F9810088F189E02DB2
:101820009401A501B601CE010995C60CD71CB601DD
:1018300061507109E881F9810088F189E02D9401F6
:10184000A501CE010995E881F9810688F789E02D87
:10185000CE01DF91CF911F910F91FF90EF90DF901C
:10186000CF90BF90AF909F908F907F906F90099492
:101870006F927F928F929F92AF92BF92CF92DF92A0
:10188000EF92FF920F931F93CF93DF935C01EB01D5
:101890006A01490138018701DC01ED91FC91621771
:1018A000730719F5641675062CF0962D872D3A01ED
:1018B000C92ED82E9601261937092F5F3F4F048C69
:1018C000F58DE02DA301BE01C5010995DF91CF91F2
:1018D0001F910F91FF90EF90DF90CF90BF90AF904E
:1018E0009F908F907F906F9008954615570591F4C3
:1018F0002617370724F0892D4B01C22FD82F9E01C0
:10190000281939092F5F3F4F068CF78DE02DA6016E
:10191000B401DACF0284F385E02D0995D501ED916C
:10192000FC910488F589E02D83019401A601BE0194
:10193000C5010995D501ED91FC910688F789E02D47
:10194000C501DF91CF911F910F91FF90EF90DF9034
:10195000CF90BF90AF909F908F907F906F900994A1
:10196000EF92FF920F931F93DC011A960D911C9139
:101970001B9718962D913C911997ED91FC9100A021
:10198000F1A1E02D7B0150E040E070E060E00995BE
:101990001F910F91FF90EF9008954F925F926F9279
:1019A0007F928F929F92AF92BF92CF92DF92EF92EF
:1019B000FF920F931F93CF93DF936C012B015A017A
:1019C00039014801DC01ED91FC910284F385E02DA1
:1019D0000995E201640C751CD601ED91FC91C615C8
:1019E000D7055CF40088F189E02D87019401A501F9
:1019F000BE01C60109952196EFCF0688F789E02D33
:101A0000C601DF91CF911F910F91FF90EF90DF9072
:101A1000CF90BF90AF909F908F907F906F905F908E
:101A20004F9009948F929F92AF92BF92CF92DF9284
:101A3000EF92FF920F931F93CF93DF93EC015B0123
:101A40004A016901E881F9810284F385E02D099555
:101A500095012C0D3D1D21503109E881F981048843
:101A6000F589E02D78018401A401B501CE01099525
:101A7000E881F9810688F789E02DCE01DF91CF91C9
:101A80001F910F91FF90EF90DF90CF90BF90AF909C
:101A90009F908F9009948F929F92AF92BF92CF9216
:101AA000DF92EF92FF920F931F93CF93DF93EC019E
:101AB0005B014A0169017801E881F9810284F385BB
:101AC000E02D0995C80CD91C860101501109E88147
:101AD000F9810488F589E02D9501A401B501CE01B5
:101AE0000995E881F9810688F789E02DCE01DF911B
:101AF000CF911F910F91FF90EF90DF90CF90BF900B
:101B0000AF909F908F900994EF92FF920F931F9345
:101B1000DC01ED91FC9100A0F1A1E02D09951F9150
:101B20000F91FF90EF9008950F931F93DC01ED91BB
:101B3000FC91068CF78DE02D09951F910F9108956A
:101B40000F931F93DC01ED91FC91048CF58DE02D3A
:101B500009951F910F9108952F923F924F925F9296
:101B60006F927F928F929F92AF92BF92CF92DF92AD
:101B7000EF92FF920F931F93CF93DF93CDB7DEB712
:101B80002C970FB6F894DEBF0FBECDBF3C017C830F
:101B90006B835C874B871801270181E090E05C0133
:101BA000A41AB50ACA01919581959109AC01440F17
:101BB000551F5A834983C80101969E838D83F12C5A
:101BC000E12C88248394912C922F91709F83227012
:101BD0002887AB014F5F5F4F5A8749878B859C856C
:101BE000E816F9060CF07AC0CB84DC84B7FC0CC094
:101BF0006C0191E0C91AD10849815A814E5F5F4F4B
:101C00005A834983A40EB51E5FEFE51AF50A82E0F8
:101C1000880E911CA80CB91CCE14DF0464F19F81BE
:101C2000992399F09601220F331F4D815E81240F75
:101C3000351F82014B815C814C195D09B701660D2E
:101C4000771D8DEA93E00E94A00D5885552399F0E9
:101C50009601220F331F8D819E81280F391F82012B
:101C60004B815C814C195D09B3016E197F098DEAC6
:101C700093E00E94A00D4B855C854C155D0559F1E4
:101C80005F81552391F0940122503109220D331DBB
:101C9000820149855A854E195F096B857C85660DE1
:101CA000771D8DEA93E00E94A00D8885882399F026
:101CB000940122503109220D331DB3014B855C85FF
:101CC000641B750B820149855A854E195F098DEA9F
:101CD00093E00E94A00DDC86CB8680CF2C960FB6B9
:101CE000F894DEBF0FBECDBFDF91CF911F910F9152
:101CF000FF90EF90DF90CF90BF90AF909F908F902C
:101D00007F906F905F904F903F902F9008954F92EB
:101D10005F926F927F928F929F92AF92BF92CF927B
:101D2000DF92EF92FF920F931F93CF93DF933C01CB
:101D3000EB015A0169012C0182E0480E511C9A0105
:101D40002450310978018601AB01B2018DEA93E09C
:101D50000E94840D85E0C81AD1082296C501860D1F
:101D6000971D860121E042E050E0BE0103970E94EA
:101D7000AC0D22E042E050E0BE01C2010E94AC0D79
:101D8000DF91CF911F910F91FF90EF90DF90CF9057
:101D9000BF90AF909F908F907F906F905F904F908B
:101DA0000895DC01ED91FC910084F185E02D09940A
:101DB0002F923F924F925F926F927F928F929F925B
:101DC000AF92BF92CF92DF92EF92FF920F931F9349
:101DD000CF93DF937C016B01EA0181E090E05C012D
:101DE000A41AB50A66247724641A750A660C771C4F
:101DF00010E000E088248394912C822F8470582E68
:101E0000822F8270482E822F8870382E2170222EC9
:101E10000C171D070CF079C0B7FC06C0219782E0B3
:101E2000680E711CA60CB71C0F5F1F4F82E0880E56
:101E3000911CA80CB91C5520C1F021E030E0AE0186
:101E40004C0D5D1DB701600F711F8DEA93E00E947C
:101E5000D10E21E030E0A601400F511FBE016E0DF2
:101E60007F1D8DEA93E00E94D10E4420C1F021E055
:101E700030E0A6014C1B5D0BB701600F711F8DEAAE
:101E800093E00E94D10E21E030E0A601401B510BEF
:101E9000BE016E0D7F1D8DEA93E00E94D10E3320AE
:101EA000C1F021E030E0A601400F511FB7016C1BCB
:101EB0007D0B8DEA93E00E94D10E21E030E0AE016F
:101EC0004C0D5D1DB701601B710B8DEA93E00E9404
:101ED000D10E222009F49CCF21E030E0A601401B66
:101EE000510BB7016C1B7D0B8DEA93E00E94D10E64
:101EF00021E030E0A6014C1B5D0BB701601B710BAC
:101F00008DEA93E00E94D10E83CFDF91CF911F9194
:101F10000F91FF90EF90DF90CF90BF90AF909F9088
:101F20008F907F906F905F904F903F902F9008958B
:101F30002F923F924F925F926F927F928F929F92D9
:101F4000AF92BF92CF92DF92EF92FF920F931F93C7
:101F5000CF93DF9300D000D0CDB7DEB72C013B018B
:101F60001A0179011C830B835801AA0CBB1C4A017E
:101F70008A189B086801C40CD51C01E010E094018C
:101F8000AB01B6018DEA93E00E94940DC701860D66
:101F9000971D9A838983AC01415051099401B60180
:101FA0008DEA93E00E94940DEA18FB088B819C81D6
:101FB000680E791E9701A301B2018DEA93E00E9499
:101FC000A00D420C531CB201615071099701A3018D
:101FD0008DEA93E00E94A00D21E04B815C81B3016A
:101FE000C6010E94D80E8B819C81481A590A91E043
:101FF000491A510822E04B815C81B301C2010E9461
:10200000D80EE980FA808B819C81E81AF90A91E068
:10201000E91AF10824E04B815C81B701C2010E94FA
:10202000D80E28E04B815C81B701C6010F900F905C
:102030000F900F90DF91CF911F910F91FF90EF9034
:10204000DF90CF90BF90AF909F908F907F906F90D8
:102050005F904F903F902F900C94D80E3F924F92EC
:102060005F926F927F928F929F92AF92BF92CF9228
:10207000DF92EF92FF920F931F93CF93DF935C0158
:102080007B014A016901390187E0680E711C93E008
:10209000759467949A95E1F72B01400E511E10E05C
:1020A00000E0312CD0E0C0E0CE0187709927330CDE
:1020B000892B59F4FE0183E0F595E7958A95E1F7C0
:1020C000E00FF11FE80DF91D349037FE0AC021E042
:1020D00030E0A701B5016C0F7D1F8DEA93E00E94EF
:1020E000D10E2196CC16DD06F9F68FEFE81AF80A24
:1020F000060D171DE414F504A9F6DF91CF911F9189
:102100000F91FF90EF90DF90CF90BF90AF909F9096
:102110008F907F906F905F904F903F9008952F9297
:102120003F924F925F926F927F928F929F92AF9267
:10213000BF92CF92DF92EF92FF920F931F93CF93B4
:10214000DF9300D000D000D0CDB7DEB73C016A01EC
:102150003E832D83FC82EB825801A41AB50AB7FE98
:1021600003C0B194A194B1088D809E80861A970A0D
:1021700097FE03C09194819491088A149B045CF0AB
:10218000902F812F0D811E819D838E839C2D8D2DFF
:102190006B01692F782F0C151D055CF09D818E81D8
:1021A0007E836D83692F782F902F812F8601C92E12
:1021B000D82E1601201A310A2B012D813E81421A98
:1021C000530A57FE03C0519441945108710137FEE0
:1021D00003C03FEFE31AF30AF594E7948D819E81E3
:1021E000861797075CF5A1E0B0E0BA83A983C01613
:1021F000D1064CF1D301ED91FC910484F585E02DDD
:102200002B813C81A8016D817E818A149B041CF086
:102210004D815E81B801C3010995E418F508F7FE08
:102220000AC02D813E8189819A81280F391F3E8302
:102230002D83E20CF31C0F5F1F4FD9CF2FEF3FEF21
:102240003A832983D4CF26960FB6F894DEBF0FBE0B
:10225000CDBFDF91CF911F910F91FF90EF90DF9055
:10226000CF90BF90AF909F908F907F906F905F9036
:102270004F903F902F90089508952091CE02260F01
:102280003327331F21323105ECF42091F202FC0197
:1022900090E080E0243069F082E00895A091CE02C1
:1022A0002191AC0142555D4FA40FB52FB11D2C9368
:1022B0000196861798F38091CE02680F6093CE0244
:1022C00080E0089581E008951092F20281E0809309
:1022D000F4021092F30261E082E10E94A00461E046
:1022E00083E10E94A004E9EBF0E080818E7F80838F
:1022F00080818D7F808388E48093B80085E480931B
:10230000BC000895CF93DF9391E09093AD028823B2
:10231000B9F0C091B800D091BA008091BC008A7B1E
:102320008093BC0060E082E10E94A00460E083E151
:102330000E94A0040E946411D093BA00C093B80018
:10234000DF91CF910895E0911E0380911D03E8175E
:1023500030F4F0E0E857FD4F808190E008958FEF72
:102360009FEF089590911E0380911D032FEF3FEF83
:10237000981748F4E92FF0E0E857FD4F208130E04E
:102380009F5F90931E03C901089580911D03909152
:102390001E03891B990B0895CF92DF92EF92FF9253
:1023A0000F931F93CF93DF937C01CB018A01209180
:1023B000A003222389F0EB016B01C40ED51ECC15BE
:1023C000DD0569F06991D701ED91FC910190F081F3
:1023D000E02DC7010995F3CF642F0E943D11C8017C
:1023E000DF91CF911F910F91FF90EF90DF90CF90F1
:1023F0000895CF93DF931F92CDB7DEB76983209105
:10240000A0032223F9F020919D03203258F021E00F
:1024100030E0FC013383228390E080E00F90DF9175
:10242000CF91089580919E03E82FF0E0E859FD4F89
:10243000998190838F5F80939E0380939D0381E0B9
:1024400090E0ECCF61E0CE0101960E943D11F7CF04
:10245000CF92DF92EF92FF920F931F93CF93DF9370
:10246000D0919D0381E0D13208F09CC0C0919F03C0
:102470000E94E0056B017C018091F20281116CC029
:1024800082E08093F20281E08093F4028FEF8093E8
:10249000F10210921603D0931503A8E6B2E0E5EF1F
:1024A000F2E080E0D8138DC01092170380911703DB
:1024B000CC0FC82BC09317038091F302813009F031
:1024C00084C01092F3020E94E0056B017C018091B0
:1024D00017038093BB008091A9029091AA02A0915A
:1024E000AB02B091AC02892B8A2B8B2BA1F00E94FE
:1024F000E0050091A9021091AA022091AB0230914F
:10250000AC026C197D098E099F0906171707280769
:10251000390708F442C08091BC0083FDD8CF85EC18
:102520008093BC000E94E0056B017C018091F20267
:10253000823009F44CC08091F1028F3F09F469C0E8
:102540008091F102803209F466C08091F1028033FB
:1025500009F463C084E026C08091A9029091AA0288
:10256000A091AB02B091AC02892B8A2B8B2B09F482
:1025700083CF0E94E0050091A9021091AA02209148
:10258000AB023091AC026C197D098E099F090617C8
:1025900017072807390708F06FCF8091A8020E941B
:1025A000821185E010929E0310929D031092A00369
:1025B000DF91CF911F910F91FF90EF90DF90CF901F
:1025C00008959D9191938F5F6DCF85EEA9CF8091F6
:1025D000A9029091AA02A091AB02B091AC02892B02
:1025E0008A2B8B2B09F4A2CF0E94E0050091A9024F
:1025F0001091AA022091AB023091AC026C197D09B6
:102600008E099F09061717072807390708F08ECF8C
:10261000C4CF80E0C7CF82E0C5CF83E0C3CFEF92C5
:10262000FF920F931F93CF93DF937C01C62F80916E
:10263000CA039091CB03009709F459C02091CE03AF
:1026400031E03093A00320939F0310929E031092D9
:102650009D03DC01ED91FC910190F081E02D60E0A3
:1026600009958701EE24E394F12CD1E0C1508091CB
:10267000CA039091CB03CF3F91F1B0E2EB16F10486
:10268000D8F00E9428128091CA039091CB03209128
:10269000CE03D093A00320939F0310929E03109229
:1026A0009D03DC01ED91FC910190F081E02D60E053
:1026B0000995EE24E394F12C8091CA039091CB0309
:1026C000F8016491DC01ED91FC910190F081E02D25
:1026D0000995BFEFEB1AFB0A0F5F1F4FC7CFDF91C2
:1026E000CF911F910F91FF90EF900C942812E091E1
:1026F000DA03F091DB0390818091E00380958923D8
:1027000080838701C15008F438C0F801849120917A
:10271000C8033091C903232B29F00E94BD080F5F25
:102720001F4FF0CF28E030E040E8E091D603F09171
:10273000D7039091DE03582F5423D9F05081952B65
:102740009083E091D803F091D90390815091DF03F9
:10275000952B9083E091D803F091D903508190910B
:10276000DF03909595239083469521503109E9F632
:10277000D6CF508190959523E3CFDF91CF911F91D4
:102780000F91FF90EF9008951F93CF93DF93EC018B
:102790008D8D9E8D009721F1162F29A131E0309368
:1027A000A00320939F0310929E0310929D03DC01CF
:1027B000ED91FC910190F081E02D60E009958D8D07
:1027C0009E8DDC01ED91FC910190F081E02D612F57
:1027D00009958D8D9E8DDF91CF911F910C942812BC
:1027E000ADA5BEA59C918BA9809589238C938B8DDB
:1027F0009C8D892B31F0862FDF91CF911F910C9406
:10280000BD0828E030E080E8A9A5BAA599A9462F1F
:102810004823C1F04C91942B9C93ABA5BCA59C91F3
:102820004AA9942B9C93ABA5BCA54C919AA99095D1
:1028300094239C9386952150310931F7DF91CF91F4
:102840001F9108954C9190959423E6CFDF92EF92DB
:10285000FF920F931F93CF93DF938091CA039091C0
:10286000CB03892B09F4A5C02091E2033091E30347
:102870004091E4035091E50360E074E284EF90E05E
:102880000E94442720513109410951095695479525
:10289000379527952093B80064E08DE398E00E9477
:1028A0000F138091B1039091B2038034910509F028
:1028B00097C060E28DEA93E00E94C4136091B10377
:1028C000615E8DEA93E00E94C4132091B3033091BE
:1028D000B403C901079697FD079633E09595879550
:1028E0003A95E1F72091B1033091B203829F8001C4
:1028F000839F100D929F100D1124C091CC03D09195
:10290000CD038091CA039091CB030C0F1D1F00973C
:1029100009F498C02091CE0331E03093A0032093B6
:102920009F0310929E0310929D03DC01ED91FC9198
:102930000190F081E02D60E40995EE24E394F12C00
:10294000DD24D3948091CA039091CB030C171D070B
:1029500009F44FC0B0E2EB16F104D8F00E9428123F
:102960008091CA039091CB032091CE03D092A00313
:1029700020939F0310929E0310929D03DC01ED9122
:10298000FC910190F081E02D60E40995EE24E39440
:10299000F12C8091CA039091CB036991DC01ED91F8
:1029A000FC910190F081E02D0995BFEFEB1AFB0A35
:1029B000C9CF8091C8039091C903892B31F08091D0
:1029C000EB039091EC030E94C408E091DC03F091CA
:1029D000DD0390818091E1038095892380835CCF22
:1029E00060E08DEA93E00E94C4136091B1036150EE
:1029F00068CF0E9428128091CA039091CB03892B43
:102A000009F461C02091E6033091E7034091E803A7
:102A10005091E90360E074E284EF90E00E94442763
:102A20002051310941095109569547953795279508
:102A30002093B800DF91CF911F910F91FF90EF90FD
:102A4000DF900895E091DA03F091DB0380819091AB
:102A5000E003892B80830C171D0769F2899120916F
:102A6000C8033091C903232B19F00E94BD08F3CF8E
:102A700028E030E040E8E091D603F091D703909150
:102A8000DE03582F5423D9F05081952B9083E09189
:102A9000D803F091D90390815091DF03952B908357
:102AA000E091D803F091D90350819091DF03909584
:102AB00095239083469521503109E9F6CCCF50817A
:102AC00090959523E3CFE091DC03F091DD038081C5
:102AD0009091E103892B8083ADCF1F93CF93DF9338
:102AE000EC01162F8D8D9E8D892BB1F12DA93EA95C
:102AF0004FA958AD60E074E284EF90E00E94442753
:102B00002051310941095109569547953795279527
:102B10002093B80066EA111167EACE010E94C4133F
:102B20008D8D9E8D892B41F129AD3AAD4BAD5CADBC
:102B300060E074E284EF90E00E9444272051310964
:102B40004109510956954795379527952093B80027
:102B5000DF91CF911F9108958B8D9C8D892B21F052
:102B60008EAD9FAD0E94C408EFA5F8A990818CA9F5
:102B7000809589238083CECFEFA5F8A980819CA979
:102B8000892B8083E5CF90E080E00895FC010190DF
:102B90000020E9F73197AF01481B590BBC018DEAC2
:102BA00093E00C9439068F929F92AF92BF920F934D
:102BB0001F93CF93DF93CDB7DEB7A1970FB6F894ED
:102BC000DEBF0FBECDBF19A2423008F44AE08E012D
:102BD0000F5D1F4F842E912CB12CA12CA5019401C7
:102BE0000E944427E62FB901CA01EA30F4F4E05DFF
:102BF000D801EE938D01232B242B252B79F790E020
:102C000080E0109719F0CD010E94C615A1960FB66D
:102C1000F894DEBF0FBECDBFDF91CF911F910F9112
:102C2000BF90AF909F908F900895E95CE1CFCF92D5
:102C3000DF92EF92FF92CF93DF936C01990FEE0832
:102C4000FF08F7FE17C08DE20E94D40BEC01662747
:102C50007727CB016C197D098E099F094AE00E94F4
:102C6000D3158C0F9D1FDF91CF91FF90EF90DF90D8
:102C7000CF9008954AE0C701B601DF91CF91FF9050
:102C8000EF90DF90CF900C94D3150C94C615209143
:102C9000B3033091B403C901079697FD079623E06B
:102CA000959587952A95E1F72091B1033091B2036C
:102CB000829FA001839F500D929F500D112470E0C0
:102CC00060E08091CC039091CD030C94C52A0E94C2
:102CD0005F2528E230E040E050E00E94DB26665F9E
:102CE0007F4F8F4F9F4F6093110182E380931201BA
:102CF00081E0809302018093010110926F03E3E071
:102D0000F1E0819391E0E131F907D9F708950E944C
:102D1000B72A85ED8093BC008091A9029091AA0208
:102D2000A091AB02B091AC020796A11DB11D23E0AA
:102D3000B695A795979587952A95D1F72091BC00D0
:102D400024FD03C01092F20208954091A90250910F
:102D5000AA026091AB027091AC02452B462B472B27
:102D600069F30097A105B10541F02AE22A95F1F730
:102D700000C00197A109B109E1CF8091A8020C948C
:102D800082111F920F920FB60F9211242F933F932F
:102D90008F939F93AF93BF9380918403909185030A
:102DA000A0918603B09187033091830323E0230F22
:102DB0002D3758F50196A11DB11D209383038093F3
:102DC000840390938503A0938603B0938703809137
:102DD000880390918903A0918A03B0918B03019697
:102DE000A11DB11D8093880390938903A0938A034A
:102DF000B0938B03BF91AF919F918F913F912F9192
:102E00000F900FBE0F901F90189526E8230F029683
:102E1000A11DB11DD2CF1F920F920FB60F92112498
:102E20002F933F934F935F936F937F938F939F93D2
:102E3000AF93BF93EF93FF9380919103909192038F
:102E4000A0919303B0919403892B8A2B8B2BD1F102
:102E500090918C03E0918D03F0918E0380818927FE
:102E600080838091910390919203A0919303B091FC
:102E70009403181619061A061B069CF480919103F8
:102E800090919203A0919303B09194030197A109AB
:102E9000B1098093910390939203A0939303B0930D
:102EA0009403FF91EF91BF91AF919F918F917F918B
:102EB0006F915F914F913F912F910F900FBE0F90A7
:102EC0001F90189580911401ECE3F8E0E4919FEFD6
:102ED00090931401E13051F030F0E23069F060E09D
:102EE0000E94A004DECF10926E00F9CF90916F0087
:102EF0009D7F90936F00F3CF909170009D7F909392
:102F0000700091E09093B0009091B100987F946030
:102F10009093B1001092B300E2CF1F920F920FB6C0
:102F20000F9211242F933F934F935F936F937F934F
:102F30008F939F93AF93BF93EF93FF938091B900CB
:102F4000887F803609F44AC0F0F5883209F4A7C0BA
:102F500018F5803109F49BC0B8F4882309F4F9C04E
:102F6000883009F494C0FF91EF91BF91AF919F9188
:102F70008F917F916F915F914F913F912F910F9022
:102F80000FBE0F901F901895883109F488C08032C9
:102F900051F78093F10214C0803409F49DC040F4CD
:102FA0008033B9F38833F9F68093F10285ECB0C031
:102FB000803509F485C0883509F496C0883499F6BF
:102FC0000E948916D0CF883909F48CC038F588372B
:102FD00029F050F4883611F0803729F683E0809389
:102FE000F2021092F00257C0883809F47BC0803991
:102FF00019F0803809F0B7CF8091F002803208F0E4
:1030000071C0E091F00281E08E0F8093F002809118
:10301000BB00F0E0E053FD4F80833DC0803B39F0C2
:10302000E0F4803A09F479C0883A09F09CCF84E052
:103030008093F2021092CF021092CE02E0911B0315
:10304000F0911C0309958091CE0281110FC081E09F
:103050008093CE021092AE0209C0803C09F4A6CF44
:10306000883C09F4A3CF883B09F07DCFE091CF02E3
:1030700081E08E0F8093CF02F0E0E255FD4F80811A
:103080008093BB009091CF028091CE0229C08091A5
:1030900017038093BB0085EC8093BC0064CF9091B4
:1030A000160380911503981758F5E091160381E0F7
:1030B0008E0F80931603F0E0EB50FD4F8081E9CF37
:1030C000E091160381E08E0F809316038091BB0080
:1030D000F0E0EB50FD4F8083909116038091150333
:1030E0009817C8F285E8D8CFE091160381E08E0FDB
:1030F000809316038091BB00F0E0EB50FD4F80837E
:103100008091F40281115CCF81E08093F30284EA24
:103110008093BC001092F20226CF85EC8093BC0015
:103120001092F2028091F002803230F4E091F002CD
:10313000F0E0E053FD4F10826091F00270E0E0910A
:103140001903F0911A0380ED92E009951092F002B4
:103150000ACF1092F10234CFCF93DF93EC011982A2
:1031600018821B821A821D821C8261E070E090E04E
:1031700080E00E94FA290097A1F0998388831B823E
:103180001A822C813D81232B11F4FC0110821D82B7
:103190001C826DE272E088819981DF91CF910C945D
:1031A000CC2A88819981009711F00E947129198297
:1031B00018821D821C821B821A82DF91CF91089592
:1031C000CF93DF93C1EAD3E01B821A8288EE93E0AB
:1031D000A0E0B0E08C839D83AE83BF8383E791E062
:1031E0009983888383EF93E00E94AC188DEE93E07F
:1031F0000E94AC18EDEAF3E01382128220E830E07E
:103200003583248380E490E0978386833187208709
:1032100093878287168A158614861786168681E01C
:10322000858B848B2FEF3FEF338B228B318B208B61
:10323000878B108E128E118E85E891E091838083AA
:10324000148E138ED68FC58F10A2178E8FEF84A386
:1032500085A386A387A384E080A780E89AE1A6E0FF
:10326000B0E085AB96ABA7ABB0AF80EA96E8A1E043
:10327000B0E081AF92AFA3AFB4AF80E586AF17AE39
:10328000DF91CF910895CF93DF9300D000D0CDB7D9
:10329000DEB7789484B5826084BD84B5816084BDD6
:1032A00085B5826085BD85B5816085BD80916E00E4
:1032B000816080936E001092810080918100826015
:1032C0008093810080918100816080938100809152
:1032D00080008160809380008091B1008460809341
:1032E000B1008091B00081608093B00080917A003D
:1032F000846080937A0080917A00826080937A0063
:1033000080917A00816080937A0080917A00806851
:1033100080937A001092C10062E084E00E94CE04A3
:1033200062E086E00E94CE0462E085E00E94CE0466
:1033300061E083E00E94CE048091CC039091CD03A4
:10334000892B09F48AC00E94471682E08093CF033C
:103350008091CA039091CB03892B09F028C561E0C5
:103360008091D3030E94CE0461E08091D4030E9437
:10337000CE048091D303082E000C990BFC01E85D6C
:10338000F74FE491F0E0EE0FFF1FE25EF74F25915B
:1033900034913093DB032093DA03FC01E65FF74FAF
:1033A000E491E093E0038091D403082E000C990B84
:1033B000FC01E85DF74FE491F0E0EE0FFF1FE25EE5
:1033C000F74FA591B491B093DD03A093DC03FC010A
:1033D000E65FF74FE491E093E1038C91E82BEC93E7
:1033E0008091C8039091C903892B09F4C0C55FB7C8
:1033F0005983F89480911803811127C0E2E3F8E023
:103400008491E4E1F8E09491E82FF0E0EE0FFF1FE3
:10341000EE51F84FA591B491EC91E92321F461E0CC
:103420008AE00E94A00461E08AE00E94CE048CB58C
:1034300080618CBD8CB580648CBD61E08DE00E94A4
:10344000CE0461E08BE00E94CE04809118038F5F70
:103450008093180389818FBFC3C42091B303309137
:10346000B403C901079697FD079673E09595879574
:103470007A95E1F72091B1033091B203AC01429FFC
:10348000C001439F900D529F900D11240E94D5289A
:103490009093CD038093CC03892B09F054CF0E94E5
:1034A00026140E94471663E08DEA93E00E94C80844
:1034B0000E945F2528E230E040E050E00E94DB26D9
:1034C000665F7F4F8F4F9F4F609313010E94471697
:1034D0008091C6039091C703892B49F08091BB036B
:1034E0009091BC0306979093BC038093BB0310920A
:1034F000C7031092C60381E090E09093C0038093CD
:10350000BF039093BE038093BD030E9426144424FE
:103510004394512C02E2602E712CB4E12B2E312CFD
:1035200080918203811103C184E00E947704892B7A
:1035300009F0B9C58091730390917403892B81F4CC
:1035400050927403409273038091000181110E9494
:10355000FF0480911F03882319F0815080931F037B
:1035600085E00E947704892B09F0A2C58091700341
:1035700090917103892B81F45092710340927003F2
:103580008091000181110E94FF0480911F0385300A
:1035900018F48F5F80931F0386E00E947704892BC5
:1035A000B1F480911F03853009F087C58091000137
:1035B00091E08927809300018091000181110E9490
:1035C000FF0460E971E080E090E00E9405060E943F
:1035D00047167092BA036092B9034EE550E05093DB
:1035E000BC034093BB038DEA91E00E94451686E23E
:1035F00090E09093BA038093B903A8E6B0E0B0934B
:10360000BC03A093BB0380910001882309F459C532
:1036100082EB91E00E9445161092BA031092B90312
:10362000E8E7F0E0F093BC03E093BB0380911F0355
:10363000811104C089EB91E00E94451680911F031F
:10364000813021F484EC91E00E94451680911F03A3
:10365000823021F48EEC91E00E94451680911F0388
:10366000833021F484ED91E00E94451680911F0380
:10367000843021F48DED91E00E9445160EE110E0BA
:1036800020E430E042EF56E070E060E090E080E05F
:103690000E942E1008E110E028E130E04AEA56E0EE
:1036A00062E270E084E090E00E942E1028E130E0B9
:1036B00042E656E062E270E080E290E00E942E1066
:1036C00028E130E04AE156E06EE370E084E090E00B
:1036D0000E942E1028E130E042ED55E06EE370E0EC
:1036E00080E290E00E942E1028E130E04AE855E0A8
:1036F0006AE570E084E090E00E942E1080911F0344
:1037000090E0FC01EB5DFE4F60816250770B815EC3
:103710009E4FDC018C9102E010E02CE130E04CE1A6
:1037200050E08250990B0E94980F0E9426148091BD
:103730008203813009F038C284E00E947704892B2B
:1037400009F0C2C48091730390917403892B69F4CA
:10375000809120039091210350927403409273034F
:103760000196909321038093200385E00E947704C3
:10377000892B09F0AEC48091700390917103892B5D
:1037800069F480918003909181035092710340927B
:1037900070030196909381038093800380912003AE
:1037A00090912103049721F4109221031092200399
:1037B0008091800390918103049721F410928103FA
:1037C0001092800386E00E947704892B09F00DC5D2
:1037D00080916D0390916E03892B09F09CC05092EB
:1037E0006E0340926D038091200390912103880F16
:1037F000991F880F991F855D9E4F209180033091FE
:103800008103820F931FFC01F081F9838F2F805376
:103810008A3010F0FE32B9F5609177032AE0629F9A
:10382000B0011124072E000C880B990B0E94BE25B5
:10383000209178033091790340917A0350917B0372
:103840000E941D266B017C013981632F330F770B9A
:10385000880B990B0E94BE259B01AC01C701B601E4
:103860000E94B72720E030E040E452E40E94B627EF
:10387000609378037093790380937A0390937B032A
:1038800081E08093770349814334A1F41092780357
:103890001092790310927A0310927B031092210305
:1038A00010922003109281031092800310927603ED
:1038B000109275038091200390912103880F991F26
:1038C000880F991F855D9E4F209180033091810361
:1038D000820F931FDC018C918B3209F0FFC3509251
:1038E0007603409275038091780390917903A091BB
:1038F0007A03B0917B0380937C0390937D03A09324
:103900007E03B0937F031092780310927903109294
:103910007A0310927B030E94471603E010E020E830
:1039200030E040E450E070E060E090E080E00E9431
:10393000980F01E010E020E130E044E350E060E166
:1039400070E086E090E00E94870E86E090E0909321
:10395000BA038093B90384E090E09093BC03809312
:10396000BB0387EE91E00E944516E2E4F3E0FC839E
:10397000EB837BE2A72E71E0B72EECE3CE2ED12CA9
:10398000AB81BC81CD92DC92E2E2F3E0FA83E98381
:10399000450164E0E62EF12CA981BA81ED92FC92FA
:1039A000EB81FC816081718101E010E02EE030E06C
:1039B0004CE050E0C7010E94870EAB81BC818D9125
:1039C0009C910496E981FA8121913191FA83E983EE
:1039D0002D5F3F4F3093BA032093B9039093BC03FC
:1039E0008093BB031092C0031092BF031092BE03DA
:1039F0001092BD03D4018C910E94D40BBEE0EB0E5B
:103A0000F11CE4E08E0E911CFCE3EF16F10421F6AC
:103A100020E1C20ED11C4B815C814E5F5F4F5C8305
:103A20004B835FEFA51AB50A8CE7C816D10409F0DD
:103A3000A7CF5092C0034092BF035092BE03409262
:103A4000BD03E0918003F0918103EE0FFF1FEE5B59
:103A5000FC4F60817181E0912003F0912103EE0F12
:103A6000FF1FEE5DFC4F10E000E02EE030E04CE088
:103A700050E0808191810E94870EE0918003F09157
:103A80008103EE0FFF1FEE5BFC4F60817181E091BF
:103A90002003F0912103EE0FFF1FEE5DFC4F02E0CB
:103AA00010E02EE030E04CE050E0808191810E94F7
:103AB000980F6091800370918103FB01EE0FFF1F4F
:103AC000EE5BFC4F208131812D5F3F4F80912003C1
:103AD00090912103FC01EE0FFF1FEE5DFC4F408132
:103AE00051814C5F5F4F5093BA034093B9033093B9
:103AF000BC032093BB03880F991F880F991F855D16
:103B00009E4F860F971FDC018C910E94D40B86E09C
:103B100090E09093BA038093B90384E090E090938F
:103B2000BC038093BB0387EE91E00E944516EAE058
:103B3000F0E0F093BA03E093B9033092BC03209213
:103B4000BB031092C0031092BF031092BE031092E9
:103B5000BD03C0907803D0907903E0907A03F09091
:103B60007B0320E030E040E251E4C701B6010E944F
:103B70001D260E949528CB016AE070E00E948127F3
:103B8000892B09F037C3C701B6010E949528CB01E4
:103B90000E9417160E9426145092C0034092BF0341
:103BA0005092BE034092BD0380918203823009F09F
:103BB000E3C086E00E947704892B09F0CBC3809193
:103BC0006D0390916E03892B89F450926E0340929D
:103BD0006D03809162039091630301968330910598
:103BE00009F4A3C390936303809362038091C60397
:103BF0009091C703892B49F08091BB039091BC033E
:103C000006979093BC038093BB031092C703109256
:103C1000C6030E9447165092C0034092BF035092C1
:103C2000BE034092BD031092BA031092B9031092E2
:103C3000BC031092BB0388EF91E00E9445161092DE
:103C4000BA031092B9033092BC032092BB0382E006
:103C50008093C1038093C20380916A0390916B03A8
:103C60000E94171688E190E09093BA038093B903FD
:103C70003092BC032092BB0381E192E00E94451682
:103C80007092BA036092B9033092BC032092BB03D6
:103C900080916803909169030E94171684E08093D5
:103CA000C1038093C20386E090E09093BA038093AF
:103CB000B90380E490E09093BC038093BB036091D0
:103CC00064037091650380916603909167030E947D
:103CD0009528CB010E9417160E942614809162033A
:103CE00090916303019709F042C020E030E040E684
:103CF00050E4609164037091650380916603909134
:103D000067030E94B72760936403709365038093F1
:103D100066039093670320E030E046EC52E40E9493
:103D2000CB2818168CF48091680390916903019652
:103D30009093690380936803109264031092650363
:103D40001092660310926703809168039091690353
:103D5000CC976CF080916A0390916B0301969093DD
:103D60006B0380936A03109269031092680381E0E9
:103D70008093C1038093C20380918203833009F052
:103D800082C4909111018CEF890F8B3328F08091C0
:103D900002018195809302018091120140910101FD
:103DA0008A3008F0DCC2419540930101E6C28CE301
:103DB0008093CE0310921E0310921D0310929E0357
:103DC00010929D030E94641187E396E090931C0378
:103DD00080931B0388E396E090931A038093190362
:103DE0008091D50387FD1EC061E00E94CE0461E092
:103DF0008091D5030E94A00461E070E080E090E033
:103E00000E94050660E08091D5030E94A0046AE04C
:103E100070E080E090E00E94050661E08091D503AB
:103E20000E94A0048091CA039091CB03892B09F4CE
:103E3000E1C02091E2033091E3034091E40350910B
:103E4000E50360E074E284EF90E00E944427205193
:103E50003109410951095695479537952795209382
:103E6000B80064E086E895E00E940F136091B30308
:103E700061508DEA93E00E94C41364E082E895E00B
:103E80000E940F138091CF0360E1813009F064E15B
:103E90008DEA93E00E94C41364E08EE795E00E94EF
:103EA0000F138FE88093EA038091B1039091B203DE
:103EB0008038910509F0B7C08091B3039091B403A5
:103EC0008034910509F0D9C08091CF03813009F089
:103ED000A8C08FE98093EA0392E199836AED8DEAA5
:103EE00093E00E94C41369818DEA93E00E94C41399
:103EF00061E88DEA93E00E94C4136091EA038DEAC1
:103F000093E00E94C41369ED8DEA93E00E94C4130C
:103F10008091CF0362E2813009F061EF8DEA93E096
:103F20000E94C41366E088E795E00E940F13809119
:103F3000CA039091CB03892B09F4ABC02091E6030F
:103F40003091E7034091E8035091E90360E074E2A7
:103F500084EF90E00E944427205131094109510922
:103F600056954795379527952093B80098CA61E0F4
:103F70008091D1030E94CE0461E08091D2030E941F
:103F8000CE048091D103082E000C990BFC01E85D52
:103F9000F74FE491F0E0EE0FFF1FE25EF74F25913F
:103FA00034913093D7032093D603FC01E65FF74F9B
:103FB000E491E093DE038091D203082E000C990B6C
:103FC000FC01E85DF74FE491F0E0EE0FFF1FE25EC9
:103FD000F74FA591B491B093D903A093D803FC01F6
:103FE000E65FF74FE491E093DF038C91E095E823DF
:103FF000EC93F6CE8091C8039091C903892B31F0E0
:104000008091EB039091EC030E94C408E091DC03E3
:10401000F091DD0390818091E10380958923808375
:1040200020CF8FEC57CF8036910591F48091B30368
:104030009091B403409721F58091CF03813031F402
:1040400080E18093EA03A2E0A98348CF8FEAF9CF09
:1040500080349105C1F48091B3039091B4038097AB
:10406000A9F48091CF03813031F480E18093EA0399
:10407000B2E1B98333CF8FECF9CFE2E0E9832ECF01
:10408000F2E0F9832BCF22E0298328CF32E0398375
:1040900025CFE091DC03F091DD0380819091E10375
:1040A000892B8083FCC9109274031092730358CA41
:1040B00010927103109270036FCA8F5F8093820316
:1040C0007BCA85EB91E0A6CA109274031092730329
:1040D0004CCB109271031092700360CB8D3239F487
:1040E00082E090E09093760380937503FCCB8A3254
:1040F00019F483E090E0F6CF8F3219F484E090E079
:10410000F1CF8D3309F007CC809175039091760340
:104110008130910549F520917803309179034091E0
:104120007A0350917B0360917C0370917D038091B1
:104130007E0390917F030E94B7276093780370936A
:10414000790380937A0390937B0360937C0370934D
:104150007D0380937E0390937F0368EC70E080E0A2
:1041600090E00E940506D7CB8230910599F420910A
:1041700078033091790340917A0350917B036091E9
:104180007C0370917D0380917E0390917F030E9458
:10419000B627D3CF8330910599F4209178033091DD
:1041A000790340917A0350917B0360917C03709175
:1041B0007D0380917E0390917F030E941D26BDCFD9
:1041C000049759F6209178033091790340917A034E
:1041D00050917B0360917C0370917D0380917E03FD
:1041E00090917F030E942328A8CF10926E03109213
:1041F0006D0391CBA7019601C701B6010E94D0289B
:10420000882329F08CEE91E00E94C615C3CC4601AC
:104210005701E894B7F82FEF3FEF4FE75FE7C5018D
:10422000B4010E94D02881110DC02FEF3FEF4FE75E
:104230005FE7C501B4010E94B72518161CF480EF92
:1042400091E0E2CF2FEF3FEF4FE75FE4C701B60108
:104250000E94CB2818161CF484EF91E0D5CF2FEFE5
:104260003FEF4FE75FECC701B6010E94B72587FD1E
:10427000F3CF20E030E0A901C701B6010E94B725C5
:1042800087FF07C08DE20E94D40BF7FAF094F7F88D
:10429000F0942AE037ED43EA5BE3C701B6010E94E0
:1042A000B7274B015C010E949C286B017C010E9496
:1042B000BC259B01AC01C501B4010E94B6274B018E
:1042C0005C014AE0C701B6010E94D3158EE20E944C
:1042D000D40B20E030E040E251E4C501B4010E947B
:1042E0001D264B015C010E949C286B01F12CE12CE6
:1042F0004AE0C701B6010E94D315C701B6010E946A
:10430000BC259B01AC01C501B4010E94B62720E089
:1043100030E040E251E40E941D260E949C2890E07B
:1043200080E04AE00E94D31535CC109263031092CE
:104330006203109264031092650310926603109258
:104340006703109269031092680310926B03109236
:104350006A034CCC10926E0310926D0347CC8537E4
:1043600060F020911301291740F430E0235F3F4FA4
:104370009217130609F00CF416CD00910101F0908C
:104380006F03EBE3F1E050E040E0692F70E0C82EEE
:10439000D12C21912917E8F430E0295F3F4F2617EF
:1043A0003707BCF09A01275B3E4FD9012C912817A3
:1043B00080F430E02F5F3F4F2C153D0554F09A01FB
:1043C0002D5F3E4FD9011C91112319F001951C92CC
:1043D000F3944F5F5F4F4E305105D9F600930101C2
:1043E000F0926F0320910201920F90931101800FC0
:1043F000809312018D3708F443C00E94471606E0EF
:1044000010E01093BA030093B9033092BC032092DA
:10441000BB036F2D70E090E080E04AE00E94D3156E
:1044200082E08093C1038093C2031093BA03009388
:10443000B903E8E2F0E0F093BC03E093BB0382E051
:1044400092E00E9445161093BA030093B9038CE3DF
:1044500090E09093BC038093BB0387E092E00E94BE
:10446000451681E08093C1038093C2030E94261405
:1044700068EB7BE080E090E00E9405060E946716F2
:1044800020916F03822F6EE00E947527911103C067
:1044900021110E94671686E00E947704892B09F09B
:1044A00094C280916D0390916E03892B69F46091A1
:1044B0006C0350926E0340926D0381E06827609315
:1044C0006C0383E00E94A00480916C03882301F1B7
:1044D00080E480937C0080917A00806480937A00ED
:1044E00080917A0086FDFCCFA0917800B091790090
:1044F00020E330E00E9495272FEF33E040E050E0CA
:104500000E94DB262F5F3F4F4F4F5F4F20931301D9
:1045100080916C03811118C085E00E947704892B7B
:1045200039F480911301823018F081508093130187
:1045300084E00E947704892B39F480911301803341
:1045400018F48F5F809313010E94471628E230E031
:104550003093BA032093B9031092BC031092BB03AB
:1045600060916F0370E090E080E04AE00E94D31514
:1045700082E090E09093BA038093B9031092BC0359
:104580001092BB038CE092E00E944516EE24E39467
:10459000F12C0FE710E030E020E049E050E070E05F
:1045A00060E08DEA93E00E94380C2FE330E049E0B0
:1045B00050E06FE370E08DEA93E00E94380C09E070
:1045C00010E02FE330E049E050E070E060E08DEA79
:1045D00093E00E94380C6091130170E002E010E05B
:1045E0002EE030E046E750E08DEA93E00E94CD0CEB
:1045F000C0901201D12C30911101432F50E05A8309
:104600004983A6014150510901E010E023E030E068
:1046100069817A818DEA93E00E94A00D10E000E0AC
:1046200023E041E050E0B60189819A810E94AC0DFF
:1046300053E0C52E51E0D52E1A821982D6018D91F4
:104640006D018823B9F0E981FA81E75BFE4F408173
:1046500050E0E981FA81E55CFE4F608170E0EE2474
:10466000E394F12C02E010E028E030E08DEA93E0E2
:104670000E94CD0CE981FA813196FA83E9833E9755
:10468000E9F60E94261480918203843009F0A0C0CC
:1046900060E08DEA93E00E94C8080E9447161092DD
:1046A000BA031092B9031092BC031092BB0383E1CA
:1046B00092E00E94451699E0C92ED12CEE24E39495
:1046C000F12C01E010E01A82198229813A81200F31
:1046D000311F8091720390E0FC01ED59FE4F408143
:1046E0004E151F04F4F0895A9E4FDC018C918217FD
:1046F000130609F0B4F422E1E981FA812E9FC0018A
:104700002F9F900D11249093BA038093B903D092F8
:10471000BC03C092BB03C7010E9417163FEFE31A08
:10472000F30A49815A814F5F5F4F5A83498347306B
:10473000510559F6095F1F4F59E0C50ED11C0B32C8
:10474000110509F686E490E09093BA038093B903CB
:1047500087E390E09093BC038093BB038091720346
:1047600090E001960E94171688E292E00E9445169A
:104770000E94261484E00E947704892B09F02AC144
:104780008091730390917403892B59F450927403B0
:104790004092730380917203882319F081508093B3
:1047A000720385E00E947704892B09F018C180917B
:1047B000700390917103892B59F4509271034092C8
:1047C0007003809172038B3018F48F5F80937203B3
:1047D00080918203853009F0A7C00E94471610928D
:1047E000BA031092B90384E090E09093BC038093E5
:1047F000BB038EE292E00E9445161092BA0310921B
:10480000B9038EE090E09093BC038093BB0383E3F5
:1048100092E00E944516EE24E394F12C01E010E0B2
:104820002FE330E041E050E070E060E08DEA93E09B
:104830000E94380C1092BA031092B9038CE190E0F8
:104840009093BC038093BB038BE392E00E944516D8
:104850001092BA031092B90386E290E09093BC03E1
:104860008093BB0381E492E00E94451609E110E0C9
:104870002FE330E049E150E070E060E08DEA93E042
:104880000E94380C1092BA031092B90384E390E0AE
:104890009093BC038093BB0389E492E00E94451689
:1048A0001092BA031092B9038EE390E09093BC0388
:1048B0008093BB0383E592E00E94451601E310E07C
:1048C0002FE330E041E350E070E060E08DEA93E0F8
:1048D0000E94380C1092BA031092B9038CE490E055
:1048E0009093BC038093BB038BE592E00E94451636
:1048F0001092BA031092B90386E590E09093BC033E
:104900008093BB0380E692E00E94451609E410E024
:104910002FE330E049E450E070E060E08DEA93E09E
:104920000E94380C0E94261485E00E947704892B8F
:1049300009F041C086E00E947704892BE1F50E94CE
:10494000671663E08DEA93E00E94C8088091C60371
:104950009091C703892B49F08091BB039091BC03D0
:1049600006979093BC038093BB031092C7031092E9
:10497000C603109281031092800310927C03109260
:104980007D0310927E0310927F03109278031092A1
:10499000790310927A0310927B031092770310929E
:1049A0007603109275031092820364EF71E080E049
:1049B00090E00E94050680E090E0892B11F40C94B1
:1049C000901A0E9400000C948D1A10926E0310929F
:1049D0006D037ACD1092740310927303E2CE10929D
:1049E000710310927003F4CE85E891E09093AE03CA
:1049F0008093AD038091CC039091CD03009711F08B
:104A00000E9471298091ED039091EE03009711F0BF
:104A10000E9471298091F3039091F403009711F0A3
:104A20000C94712908958F929F92AF92BF92CF926A
:104A3000DF92EF92FF92CF93DF93EC01688179814F
:104A40008A819B81611571058105910521F464E2DC
:104A500079ED8BE597E02DE133EF41E050E00E94E6
:104A6000DB2649015A019B01AC01A7EAB1E40E948F
:104A7000FA266B017C01ACEEB4EFA50194010E9413
:104A80000827C60ED71EE81EF91EF7FE06C081E0F5
:104A9000C81AD108E10880E8F80AC882D982EA82F7
:104AA000FB82C701B6019F77DF91CF91FF90EF9016
:104AB000DF90CF90BF90AF909F908F9008958F928E
:104AC0009F92AF92BF92CF92DF92EF92FF9260914E
:104AD00015017091160180911701909118016115CF
:104AE00071058105910521F464E279ED8BE597E08C
:104AF0002DE133EF41E050E00E94DB2649015A01ED
:104B00009B01AC01A7EAB1E40E94FA266B017C018B
:104B1000ACEEB4EFA50194010E940827C60ED71E83
:104B2000E81EF91EF7FE06C081E0C81AD108E108A8
:104B300080E8F80AC0921501D0921601E0921701A0
:104B4000F0921801C701B6019F77FF90EF90DF90B8
:104B5000CF90BF90AF909F908F9008956093150174
:104B600070931601809317019093180108950E9485
:104B7000F92508F481E00895E89409C097FB3EF414
:104B800090958095709561957F4F8F4F9F4F99239A
:104B9000A9F0F92F96E9BB279395F6958795779518
:104BA0006795B795F111F8CFFAF4BB0F11F460FFD8
:104BB0001BC06F5F7F4F8F4F9F4F16C0882311F030
:104BC00096E911C0772321F09EE8872F762F05C044
:104BD000662371F096E8862F70E060E02AF09A95DF
:104BE000660F771F881FDAF7880F9695879597F9D4
:104BF0000895990F0008550FAA0BE0E8FEEF16166E
:104C00001706E807F907C0F012161306E407F507C0
:104C100098F0621B730B840B950B39F40A2661F034
:104C2000232B242B252B21F408950A2609F4A140D7
:104C3000A6958FEF811D811D08950E9430260C944A
:104C4000A1260E94932638F00E949A2620F09523F0
:104C500011F00C948A260C94902611240C94D526DD
:104C60000E94B22670F3959FC1F3950F50E0551F37
:104C7000629FF001729FBB27F00DB11D639FAA27B1
:104C8000F00DB11DAA1F649F6627B00DA11D661F00
:104C9000829F2227B00DA11D621F739FB00DA11D21
:104CA000621F839FA00D611D221F749F3327A00DDB
:104CB000611D231F849F600D211D822F762F6A2F77
:104CC00011249F5750409AF0F1F088234AF0EE0FDC
:104CD000FF1FBB1F661F771F881F91505040A9F709
:104CE0009E3F510580F00C948A260C94D5265F3F98
:104CF000E4F3983ED4F3869577956795B795F79545
:104D0000E7959F5FC1F7FE2B880F911D96958795BC
:104D100097F9089597F99F6780E870E060E008953B
:104D20009FEF80EC089500240A94161617061806C3
:104D30000906089500240A9412161306140605069F
:104D40000895092E0394000C11F4882352F0BB0F30
:104D500040F4BF2B11F460FF04C06F5F7F4F8F4F93
:104D60009F4F089557FD9058440F551F59F05F3FCE
:104D700071F04795880F97FB991F61F09F3F79F07D
:104D800087950895121613061406551FF2CF4695FF
:104D9000F1DF08C0161617061806991FF1CF869581
:104DA0007105610508940895E894BB276627772765
:104DB000CB0197F90895052E97FB1EF400940E94ED
:104DC000F22657FD07D00E94442707FC03D04EF47B
:104DD0000C94F22650954095309521953F4F4F4FBA
:104DE0005F4F089590958095709561957F4F8F4F97
:104DF0009F4F08950E946627A59F900DB49F900D28
:104E0000A49F800D911D11240895B7FF0C94FA26DC
:104E10000E94FA26821B930B08952F923F924F9285
:104E20005F926F927F928F929F92AF92BF92CF923A
:104E3000DF92EF92FF920F931F93CF93DF93CDB743
:104E4000DEB7CA1BDB0B0FB6F894DEBF0FBECDBFBB
:104E500009942A88398848885F846E847D848C848C
:104E60009B84AA84B984C884DF80EE80FD800C8195
:104E70001B81AA81B981CE0FD11D0FB6F894DEBF78
:104E80000FBECDBFED010895A1E21A2EAA1BBB1BD8
:104E9000FD010DC0AA1FBB1FEE1FFF1FA217B30706
:104EA000E407F50720F0A21BB30BE40BF50B661F1C
:104EB000771F881F991F1A9469F7609570958095E0
:104EC00090959B01AC01BD01CF010895A29FB00157
:104ED000B39FC001A39F700D811D1124911DB29F2E
:104EE000700D811D1124911D0895991B79E004C056
:104EF000991F961708F0961B881F7A95C9F7809519
:104F0000089597FB072E16F4009407D077FD09D07B
:104F10000E949C2707FC05D03EF4909581959F4FF9
:104F20000895709561957F4F08950E946627B7FF99
:104F30000895821B930B0895AA1BBB1B51E107C068
:104F4000AA1FBB1FA617B70710F0A61BB70B881F19
:104F5000991F5A95A9F780959095BC01CD010895A8
:104F6000EE0FFF1F0590F491E02D09945058BB27D8
:104F7000AA270E94CE270C94A1260E94932638F0DF
:104F80000E949A2620F039F49F3F19F426F40C94DD
:104F900090260EF4E095E7FB0C948A26E92F0E94F8
:104FA000B22658F3BA17620773078407950720F0F3
:104FB00079F4A6F50C94D4260EF4E0950B2EBA2FB6
:104FC000A02D0B01B90190010C01CA01A00111240F
:104FD000FF27591B99F0593F50F4503E68F11A16BB
:104FE000F040A22F232F342F4427585FF3CF46954C
:104FF00037952795A795F0405395C9F77EF41F166E
:10500000BA0B620B730B840BBAF09150A1F0FF0F37
:10501000BB1F661F771F881FC2F70EC0BA0F621F23
:10502000731F841F48F4879577956795B795F79513
:105030009E3F08F0B0CF9395880F08F09927EE0FA8
:105040009795879508950E9437280C94A1260E9471
:105050009A2658F00E94932640F029F45F3F29F0E9
:105060000C948A2651110C94D5260C9490260E94FB
:10507000B22668F39923B1F3552391F3951B550B91
:10508000BB27AA2762177307840738F09F5F5F4F1B
:10509000220F331F441FAA1FA9F335D00E2E3AF05A
:1050A000E0E832D091505040E695001CCAF72BD072
:1050B000FE2F29D0660F771F881FBB1F26173707C3
:1050C0004807AB07B0E809F0BB0B802DBF01FF27F5
:1050D00093585F4F3AF09E3F510578F00C948A2622
:1050E0000C94D5265F3FE4F3983ED4F386957795EC
:1050F0006795B795F7959F5FC9F7880F911D9695AE
:10510000879597F90895E1E0660F771F881FBB1F09
:10511000621773078407BA0720F0621B730B840BB6
:10512000BA0BEE1F88F7E09508950E949C286894BA
:10513000B1110C94D52608950E94BA2688F09F5785
:1051400098F0B92F9927B751B0F0E1F0660F771FAB
:10515000881F991F1AF0BA95C9F714C0B13091F0A1
:105160000E94D426B1E008950C94D426672F782F9E
:105170008827B85F39F0B93FCCF386957795679566
:10518000B395D9F73EF490958095709561957F4FD2
:105190008F4F9F4F08950E94F92508F48FEF0895CF
:1051A0000E94F925880B990B08950F931F93CF93B5
:1051B000DF938230910510F482E090E0E091FB03F0
:1051C000F091FC0330E020E0B0E0A0E0309799F4EB
:1051D0002115310509F44AC0281B390B243031054B
:1051E000D8F58A819B816115710589F1FB01938353
:1051F0008283FE0111C040815181028113814817D1
:105200005907E0F04817590799F4109761F0129682
:105210000C93129713961C933296CF01DF91CF9186
:105220001F910F9108950093FB031093FC03F4CF9B
:105230002115310551F04217530738F0A901DB0160
:105240009A01BD01DF01F801C1CFEF01F9CF9093C1
:10525000FC038093FB03CDCFFE01E20FF31F81938C
:1052600091932250310939832883D7CF2091F903B4
:105270003091FA03232B41F420911B0130911C0142
:105280003093FA032093F9032091190130911A0108
:105290002115310541F42DB73EB740911D015091C4
:1052A0001E01241B350BE091F903F091FA03E2177C
:1052B000F307A0F42E1B3F0B2817390778F0AC0139
:1052C0004E5F5F4F2417350748F04E0F5F1F509316
:1052D000FA034093F903819391939FCFF0E0E0E0CC
:1052E0009CCFCF93DF930097E9F0FC0132971382B4
:1052F0001282A091FB03B091FC03ED0130E020E0AD
:105300001097A1F420813181820F931F2091F9031E
:105310003091FA032817390709F061C0F093FA03B6
:10532000E093F903DF91CF910895EA01CE17DF07EB
:10533000E8F54A815B819E0141155105B1F7E9010C
:10534000FB83EA8349915991C40FD51FEC17FD07E0
:1053500061F4808191810296840F951FE901998300
:105360008883828193819B838A83F0E0E0E01296B8
:105370008D919C9113970097B9F52D913C911197C0
:10538000CD010296820F931F2091F9033091FA0309
:105390002817390739F6309751F51092FC0310920F
:1053A000FB03B093FA03A093F903BCCFD383C2836A
:1053B00040815181840F951FC817D90761F44E5F52
:1053C0005F4F88819981480F591F518340838A819B
:1053D0009B81938382832115310509F0B0CFF0932F
:1053E000FC03E093FB039ECFFD01DC01C0CF1382E1
:1053F0001282D7CFB0E0A0E0E0E0FAE20C940F27F1
:105400008C01009751F4CB010E94D5288C01C80172
:10541000CDB7DEB7E0E10C942B27FC01E60FF71FB8
:105420009C0122503109E217F30708F49DC0D9010D
:10543000CD91DC911197C617D70798F0C530D105EB
:1054400030F3CE0104978617970708F3C61BD70BD6
:105450002297C193D1936D937C93CF010E947129C0
:10546000D6CF5B01AC1ABD0A4C018C0E9D1EA091DB
:10547000FB03B091FC03512C412CF12CE12C109733
:1054800031F58091F9039091FA038815990509F097
:105490005CC04616570608F058C0809119019091DB
:1054A0001A01009741F48DB79EB740911D015091AC
:1054B0001E01841B950BE817F90708F055C0F093FF
:1054C000FA03E093F903F90171836083A0CF8D9112
:1054D0009C91119712966C90129713967C9013974B
:1054E000A815B90559F56C0142E0C40ED11CCA14C7
:1054F000DB0420F1AC014A195B09DA011296159719
:1055000080F06282738251834083D9016D937C93D2
:10551000E114F10471F0D7011396FC93EE93129706
:1055200076CF22968C0F9D1FF90191838083F30122
:10553000EFCFF093FC03E093FB0369CF48165906C5
:1055400008F42C017D01D3019ACFCB010E94D5280C
:105550007C01009749F0AE01B8010E94BC2AC80145
:105560000E947129870153CF10E000E050CF81E005
:1055700090E0F8940C94D32AFB01DC0102C0019066
:105580000D9241505040D8F70895DC0101C06D9351
:1055900041505040E0F70895FB01DC0101900D926D
:1055A0000020E1F7089514E0C2E2D4E004C0FE0157
:1055B0000E94B0272196C332D107C9F7F894FFCFD4
:1055C00001010101010101010101010101010101CB
:1055D000011E320CFF010000000000FD03800004EA
:1055E000200420042022223E3E5A5A3734313038DB
:1055F00035323D3936332B432F2A2D04101C2834E5
:105600000814202C101C2814201212121212161624
:1056100016161A1A1A1E1E060202050703050104B1
:105620000602041F1C1F1E1F1E1F1F1E1F1E1F0001
:10563000000000F911CC11C3154D04C511B211A31E
:105640001100000000020B3906C3153C110D084D76
:1056500004D10E840DA00D940D8F104D04C8086D5B
:10566000157D07C607CD0CB00C380CD90B4265650B
:1056700070004F4E004F46460043616C63756C618D
:10568000746F720053746F70776174636800476160
:105690006D65730043616C656E6461720050686F84
:1056A0006E65426F6F6B0043414C43006E616E004C
:1056B000696E66006F76660053544F5057415443ED
:1056C000480047414D45004F5645520053636F72A5
:1056D000653A004D6F205475205765205468204668
:1056E00072205361205375002F32303232004D69E1
:1056F0006B6500303433363738390042657474795D
:105700000036353734383334004A6F686E436F6E75
:105710006F720036343533373232004C756B6500AA
:0857200032323735383439000C
:00000001FF
