:100000000C9405030C942D030C942D030C942D03D8
:100010000C942D030C942D030C942D030C942D03A0
:100020000C942D030C942D030C942D030C942D0390
:100030000C942D030C942D030C942D030C942D0380
:100040000C9461130C942D030C94D1130C94AB13EA
:100050000C942D030C942D030C942D030C942D0360
:100060000C9403140C942D0305A84CCDB2D44EB9B6
:100070003836A9020C50B9918688083CA6AAAA2A4B
:10008000BE000000803F00000000003E5B4F5B3E72
:100090003E6B4F6B3E1C3E7C3E1C183C7E3C181C4D
:1000A000577D571C1C5E7F5E1C00183C1800FFE744
:1000B000C3E7FF0018241800FFE7DBE7FF30483AEA
:1000C000060E2629792926407F050507407F05254C
:1000D0003F5A3CE73C5A7F3E1C1C08081C1C3E7FD4
:1000E00014227F22145F5F005F5F06097F017F009B
:1000F0006689956A606060606094A2FFA2940804BB
:100100007E040810207E201008082A1C08081C2ADB
:1001100008081E101010100C1E0C1E0C30383E3833
:1001200030060E3E0E06000000000000005F0000DA
:100130000007000700147F147F14242A7F2A12234B
:100140001308646236495620500008070300001C5B
:100150002241000041221C002A1C7F1C2A08083E64
:100160000808008070300008080808080000606077
:100170000020100804023E5149453E00427F4000E5
:1001800072494949462141494D331814127F1027BD
:10019000454545393C4A494931412111090736490C
:1001A000494936464949291E0000140000004034E0
:1001B00000000008142241141414141400412214E5
:1001C0000802015909063E415D594E7C1211127C0C
:1001D0007F494949363E414141227F4141413E7F6D
:1001E000494949417F090909013E414151737F084D
:1001F00008087F00417F41002040413F017F0814F3
:1002000022417F404040407F021C027F7F04081053
:100210007F3E4141413E7F090909063E4151215E31
:100220007F09192946264949493203017F01033FC5
:100230004040403F1F2040201F3F4038403F631454
:1002400008146303047804036159494D43007F4156
:1002500041410204081020004141417F0402010293
:1002600004404040404000030708002054547840B8
:100270007F284444383844444428384444287F384C
:100280005454541800087E090218A4A49C787F08CE
:1002900004047800447D40002040403D007F102849
:1002A000440000417F40007C047804787C0804040A
:1002B000783844444438FC1824241818242418FCA2
:1002C0007C08040408485454542404043F44243C47
:1002D0004040207C1C2040201C3C4030403C4428B6
:1002E0001028444C9090907C4464544C4400083650
:1002F00041000000770000004136080002010204BE
:10030000023C2623263C1EA1A161123A4040207ADD
:100310003854545559215555794122545478422125
:100320005554784020545579400C1E52721239555C
:100330005555593954545459395554545800004559
:100340007C410002457D420001457C407D12111236
:100350007DF0282528F07C545545002054547C54C9
:100360007C0A097F4932494949323A4444443A3285
:100370004A4848303A4141217A3A42402078009D2B
:10038000A0A07D3D4242423D3D4040403D3C24FFD7
:100390002424487E4943662B2FFC2F2BFF0929F686
:1003A00020C0887E090320545479410000447D41D7
:1003B0003048484A32384040227A007A0A0A727D30
:1003C0000D19317D2629292F28262929292630484B
:1003D0004D4020380808080808080808382F10C8B9
:1003E000ACBA2F102834FA00007B000008142A143D
:1003F0002222142A14085500550055AA55AA55AAB8
:10040000FF55FF55FF000000FF00101010FF001403
:100410001414FF001010FF00FF1010F010F014145F
:1004200014FC001414F700FF0000FF00FF1414F484
:1004300004FC141417101F10101F101F1414141F85
:1004400000101010F0000000001F101010101F10FE
:10045000101010F010000000FF10101010101010FD
:100460001010FF10000000FF140000FF00FF00004C
:100470001F10170000FC04F414141710171414F4C0
:1004800004F40000FF00F714141414141414F700FB
:10049000F7141414171410101F101F141414F4144C
:1004A0001010F010F000001F101F0000001F1400BB
:1004B0000000FC140000F010F01010FF10FF1414E6
:1004C00014FF141010101F00000000F010FFFFFFB9
:1004D000FFFFF0F0F0F0F0FFFFFF0000000000FF72
:1004E000FF0F0F0F0F0F3844443844FC4A4A4A3478
:1004F0007E02020606027E027E026355494163388F
:1005000044443C04407E201E2006027E020299A53F
:10051000E7A5991C2A492A1C4C7201724C304A4D9D
:100520004D303048784830BC625A463D3E494949D2
:10053000007E0101017E2A2A2A2A2A44445F44447B
:1005400040514A444040444A51400000FF0103E00A
:1005500080FF000008086B6B083612362436060F41
:10056000090F06000018180000001010003040FFAE
:100570000101001F01011E00191D1712003C3C3C27
:100580003C0000000000000103070F1F3F7F0080B8
:10059000C0E0F0F8FCFEDB40A4A62EAF2000A1C80E
:1005A000D300408DAED580A80000000024002700B5
:1005B0002A0000000000250028002B000000000099
:1005C0002300260029000404040404040404020295
:1005D00002020202030303030303010204081020C2
:1005E00040800102040810200102040810200000CD
:1005F00000080002010000030407000000000000E2
:1006000000002200FF212215C21A11241FBECFEFC5
:10061000D8E0DEBFCDBF11E0A0E0B1E0E4E0FFE351
:1006200002C005900D92A83AB107D9F724E0A8EAD4
:10063000B1E001C01D92A036B207E1F713E0C4E0BB
:10064000D3E004C02197FE010E946B1BC330D10789
:10065000C9F70E94A5150C94751F0C9400008330F7
:1006600081F028F4813099F08230A9F00895873024
:10067000A9F08830C9F08430B1F4809180008F7D7A
:1006800003C0809180008F7780938000089584B5A7
:100690008F7784BD089584B58F7DFBCF8091B000A6
:1006A0008F778093B00008958091B0008F7DF9CF4F
:1006B000CF93DF93282F30E0F901E251FA4F849174
:1006C000F901E652FA4FD491F901EA53FA4FC49175
:1006D000CC23A1F081110E942F03EC2FF0E0EE0F4C
:1006E000FF1FE454FA4FA591B491EC91ED2381E002
:1006F00090E009F480E0DF91CF91089580E090E0F0
:10070000FACF1F93CF93DF93282F30E0F901E25106
:10071000FA4F8491F901E652FA4FD491F901EA5364
:10072000FA4FC491CC23A9F0162F81110E942F03F8
:10073000EC2FF0E0EE0FFF1FEE54FA4FA591B491AD
:100740008FB7F894EC91111108C0D095DE23DC939B
:100750008FBFDF91CF911F910895DE2BF8CFCF93FC
:10076000DF9390E0FC01E652FA4F24918A539A4FAE
:10077000FC0184918823D1F090E0880F991FFC013F
:10078000E855FA4FA591B491FC01EE54FA4FC5918A
:10079000D491623071F49FB7F8943C91822F809588
:1007A00083238C93E8812E2B28839FBFDF91CF91E9
:1007B00008958FB7F894EC912E2B2C938FBFF6CF22
:1007C0008E50806480937C0080917A008064809356
:1007D0007A0080917A0086FDFCCF8091780090911C
:1007E000790008953FB7F89480916B0390916C0362
:1007F000A0916D03B0916E0326B5A89B05C02F3F55
:1008000019F00196A11DB11D3FBFBA2FA92F982F36
:100810008827BC01CD01620F711D811D911D42E031
:10082000660F771F881F991F4A95D1F708958F92F9
:100830009F92AF92BF92CF92DF92EF92FF924B01C5
:100840005C010E94F2036B017C010E94F2036C19AF
:100850007D098E099F09683E734081059105A8F3C3
:1008600021E0821A9108A108B10888EEC80E83E041
:10087000D81EE11CF11C81149104A104B10429F7D4
:10088000FF90EF90DF90CF90BF90AF909F908F90B0
:10089000089508950895AF92BF92CF92DF92EF929C
:1008A000FF920F931F93CF93DF936C017B018B011A
:1008B000040F151FEB015E01AE18BF08C017D1076A
:1008C00059F06991D601ED91FC910190F081E02DF4
:1008D000C6010995892B79F7C501DF91CF911F9149
:1008E0000F91FF90EF90DF90CF90BF90AF90089561
:1008F000FC01538D448D252F30E0842F90E0821B26
:10090000930B541710F0CF96089501970895FC01AA
:10091000918D828D981761F0A28DAE0FBF2FB11D02
:100920005D968C91928D9F5F9F73928F90E008955A
:100930008FEF9FEF0895FC01918D828D981731F014
:10094000828DE80FF11D858D90E008958FEF9FEF68
:100950000895FC01918D228D892F90E0805C9F4F3E
:10096000821B91098F739927089583E793E00E9472
:10097000A90421E0892B09F420E0822F089580E06A
:1009800090E0892B29F00E94B50481110C9400009D
:100990000895FC01A48DA80FB92FB11DA35ABF4F14
:1009A0002C91848D90E001968F739927848FA6896E
:1009B000B7892C93A089B1898C91837080648C93C2
:1009C000938D848D981306C00288F389E02D808171
:1009D0008F7D80830895EF92FF920F931F93CF93A3
:1009E000DF93EC0181E0888F9B8D8C8D98131AC06A
:1009F000E889F989808185FF15C09FB7F894EE8951
:100A0000FF896083E889F9898081837080648083AD
:100A10009FBF81E090E0DF91CF911F910F91FF90F8
:100A2000EF900895F62E0B8D10E00F5F1F4F0F73A0
:100A30001127E02E8C8D8E110CC00FB607FCFACF5B
:100A4000E889F989808185FFF5CFCE010E94C9042C
:100A5000F1CFEB8DEC0FFD2FF11DE35AFF4FF0822C
:100A60009FB7F8940B8FEA89FB8980818062CFCF92
:100A7000CF93DF93EC01888D8823B9F0AA89BB89D5
:100A8000E889F9898C9185FD03C0808186FD0DC0C0
:100A90000FB607FCF7CF8C9185FFF2CF808185FFE1
:100AA000EDCFCE010E94C904E9CFDF91CF91089527
:100AB000EF92FF920F931F93CF93DF93EC01EC80A3
:100AC000FD806E157F050CF070C057FF04C0240F29
:100AD000351F50E040E08E819F81FA01E20FF31F45
:100AE0008E179F071CF49C01241B350B121613064E
:100AF0000CF05BC0922F842F8695869586958E9DEF
:100B0000D0018F9DB00D11246A0F7B1FAF8DB8A14E
:100B1000A60FB71F477049F188E0841B482F682F44
:100B200070E0FB01E257FA4FE491281708F063C028
:100B3000621B71092FEF30E002C0359527956A9549
:100B4000E2F7E2230130110539F0B0F1023011056E
:100B500061F58C91E82702C08C91E82BEC939417F7
:100B600020F12C813D81A20FB31FE92FE41BE83057
:100B700078F00230110521F58E2F9C9190959C9371
:100B80002C813D81A20FB31F88508830B0F7E770E9
:100B9000EE2359F0F0E0EA57FA4FE49101301105E5
:100BA000F9F010F10230110519F1DF91CF911F9189
:100BB0000F91FF90EF900895E0958C91E823CECFB0
:100BC00081E00115110509F480E081959E2F8C9339
:100BD0002C813D81A20FB31F98509830C0F7D7CF1A
:100BE0008C91E82BEC93E1CFE0958C91E823FACF40
:100BF0008C91E827F7CF0130110509F4ADCFE0F271
:100C00000230110509F4A5CFAE0DBF1DAECF0F9375
:100C10001F93CF93DF9377FF04C0260F371F70E039
:100C200060E0DC011496CD91DC91FB01E20FF31F33
:100C3000CE17DF071CF49E01261B370B1216130676
:100C40004CF5FA0157FD3796A3E0F595E795AA957F
:100C5000E1F7EC9FD001ED9FB00DFC9FB00D11248A
:100C60006A0F7B1FDC015F96ED91FC91E60FF71F89
:100C70004770552781E090E001C0880F4A95EAF758
:100C8000482F0130110559F0A8F02E0F3F1F0230F8
:100C90001105E1F0DF91CF911F910F9108952E0F73
:100CA0003F1FE217F307B1F38191DF011197842B06
:100CB0008C93F7CF80952E0F3F1FE217F30751F368
:100CC0009191DF01119798239C93F7CFE217F307D7
:100CD00009F38191DF01119784278C93F7CF0F934C
:100CE0001F93FA01DC0156964C9156974230E9F079
:100CF0004330A1F1413061F514964D915C91DA01D8
:100D0000AE1BBF0BFD01E21BF30B77FD0BC0DC013B
:100D100016964D915C916417750724F4AB01BF01E1
:100D20000E9407061F910F91089514964D915C91B2
:100D3000DA01A61BB70BBD0161507109DC011696E3
:100D40004D915C91DA01AE1BBF0BFD01E21BF30B71
:100D500077FDE8CFAF010E945805E4CF16964D917C
:100D60005C91DA01A61BB70BBD0161507109CDCFB3
:100D70000F931F93FA01DC0156964C91569742301F
:100D8000A9F0433091F1413019F514964D915C91E1
:100D9000DA01AE1BBF0BFD013197F7FD04C0AB01BB
:100DA000BF010E9458051F910F91089514964D910F
:100DB0005C91DA01A61BB70BBD01DC0116964D91C3
:100DC0005C91DA01AE1BBF0BFD013197621B730B07
:100DD000F7FDE9CFDC0116964D915C91E417F5071C
:100DE00014F7AF010E940706DECF16964D915C9175
:100DF000DA01A61BB70BBD01621B730BCECFFC0142
:100E000077FD64C080859185681779070CF05EC016
:100E100057FD5CC082859385481759070CF056C072
:100E200086898230B1F0833029F1813041F48481A8
:100E30009581841B950BAB01BC0161507109213078
:100E4000310509F108F443C02230310509F463C0CB
:100E5000089584819581DC01A61BB70BBD0161500B
:100E6000710986819781DC01A41BB50BAD0141504E
:100E70005109E5CF86819781861B970BBA01AC019A
:100E800041505109DCCFCA0157FD0796A3E0959563
:100E90008795AA95E1F7A481B5818A9F90018B9FE0
:100EA000300D9A9F300D1124620F731F078CF0A133
:100EB000E02DE60FF71F4770552721E030E001C015
:100EC000220F4A95EAF78081822B80830895CA0118
:100ED00057FD079633E0959587953A95E1F7A481FC
:100EE000B5818A9F90018B9F300D9A9F300D112400
:100EF000620F731F078CF0A1E02DE60FF71F4770FC
:100F0000552781E090E001C0880F4A95EAF7809567
:100F100090818923DACFCA0157FD079623E0959582
:100F200087952A95E1F7A481B5818A9F90018B9FCF
:100F3000300D9A9F300D1124620F731F078CF0A1A2
:100F4000E02DE60FF71F4770552721E030E001C084
:100F5000220F4A95EAF780818227B7CF08958EBD88
:100F600000000DB407FEFDCF8EB508958CBD9DBD6C
:100F700008950895FC016370668B848195812681B4
:100F80003781613039F0633029F09187808733876A
:100F900022870895318720879387828708952F922B
:100FA0003F924F925F926F927F928F929F92AF92F9
:100FB000BF92CF92DF92EF92FF920F931F93CF9346
:100FC000DF93CDB7DEB76A970FB6F894DEBF0FBEDA
:100FD000CDBF9A8F898F7A8369834A01D22E188771
:100FE0000F833701BC2CDC0159962D913C915A9707
:100FF0002115310509F015C118968D919C9119970D
:10100000681779070CF0D7C11A968D919C914817F3
:1010100059070CF0D0C14C2C512CB6E0CB9E600D82
:10102000711D11247C876B87161617060CF0C3C13F
:10103000EA2DF0E0FA87E98793E0EE0FFF1F9A951B
:10104000E1F7F88BEF87CF01840F951F181619066B
:101050000CF0B1C1A98DBA8D58968C91811104C044
:10106000BFEABD1508F4D394A98DBA8DED91FC911A
:1010700011970284F385E02DCD010995B5E0DB9E43
:10108000C0011124E981FA81FC83EB83312C212CEE
:101090009C012A573F4F388F2F8B4A2D50E05E8B93
:1010A0004D8BEF89F88DE20DF31D44919E828D8268
:1010B000D12CC12C69817A81620D731D7A8B698B69
:1010C000842F90E09C8B8B8BE98DFA8DA081B18170
:1010D00040FF82C0F1E0BF126FC0AF126DC01C961E
:1010E000ED91FC912F813885A4014C0D5D1D69891E
:1010F0007A89898D9A8D0995EB89FC89F595E79513
:101100004E2F5FEFC51AD50A6D817E818D899E892C
:10111000680F791F7E836D8398E0C916D10481F62C
:10112000AFEF2A1A3A0AEB81FC81E40DF51DFC832E
:10113000EB83F5E02F16310409F0B3CF2F8138850A
:1011400026153705B9F0A98DBA8DED91FC91B1E066
:10115000BB1257C0AB1255C069817A816B5F7F4F5C
:101160000088F189E02D830128E030E0A401898D19
:101170009A8D0995A98DBA8DED91FC9111970688EC
:10118000F789E02DCD016A960FB6F894DEBF0FBE49
:10119000CDBFDF91CF911F910F91FF90EF90DF9026
:1011A000CF90BF90AF909F908F907F906F905F9007
:1011B0004F903F902F9009941E96ED91FC91EF80F7
:1011C000F88409851A8592014D815E816B817C814D
:1011D000898D9A8D099590CF2F81388526153705F1
:1011E00009F48ACF31E0B31207C0A31205C01C96E0
:1011F000ED91FC91930178CF1E96ED91FC917301D6
:10120000E0CF6B857C85641975090684F785E02D30
:1012100073010F8518899201A401898D9A8D099512
:10122000A9CFF90134969491329745915491D91AE6
:10123000B7E0DB9E400D511D1124F9012591349139
:101240003C8B2B8BFA0125903490FA0132967490E6
:1012500031963491398B329664903196449041E0C6
:101260004C1518F04A1508F07FC0662D062C000CAE
:10127000770B7C836B83842D042C000C990B9E834D
:101280008D83A98DBA8DED91FC9111970284F38520
:10129000E02DCD010995512CD12CC12CEA2DF0E087
:1012A000FA87E9872B2D30E03C872B87A401440D7A
:1012B000511D47FC5A95588F4F8B69817A81660D75
:1012C000711D67FC7A957E876D877989C71608F04E
:1012D00051CF2C2D30E04D815E81420F531FA985E7
:1012E000BA854A9FC0014B9F900D5A9F900D1124C3
:1012F000FC01E80DF91DF88BEF87852D612C4F89D6
:10130000588D420F531F5E8B4D8B671408F050C0F1
:1013100044244394480E877041F4C1010196EB893F
:10132000FC89E20DF31DD4901C01D7FE19C0A98DD4
:10133000BA8DED91FC91662D70E0B1E0BB1219C041
:10134000AB1217C02D853E85620F731F0484F5858F
:10135000E02D2F8138854D895E89898D9A8D09957B
:10136000DD0C6394842DD1CF1E821D821C821B82D2
:1013700088CF4B815C81640F751FAB85BC856A9FEC
:10138000C0016B9F900D7A9F900D112469817A8125
:10139000680F791F0684F785E02DEF80F8840985B2
:1013A0001A859D014F855889898D9A8D0995D8CFC9
:1013B000570CC3948ACF6A960FB6F894DEBF0FBE5F
:1013C000CDBFDF91CF911F910F91FF90EF90DF90F4
:1013D000CF90BF90AF909F908F907F906F905F90D5
:1013E0004F903F902F9008958F929F92AF92CF92FF
:1013F000EF92FF920F931F93CF93DF93EC01262F71
:10140000898D9A8D009709F051C06A30D1F41D86FC
:101410001C868D8948E0849F900111248E859F85CC
:10142000820F931F9F878E8781E090E0DF91CF919D
:101430001F910F91FF90EF90CF90AF909F908F9062
:1014400008956D3089F3CC88AD888F898823C1F0E9
:101450008C859D8536E0C39E800D911D11244885A5
:1014600059854817590764F44E855F851D861C868B
:1014700038E0A39EC0011124840F951F9F878E879B
:10148000EA88FB88088919894E855F856C857D858A
:10149000CE010E94CF072C898C859D8546E0249F34
:1014A000800D911D11249D878C87BECF6A3069F411
:1014B0001D861C86FC013896E4912D898E859F85BA
:1014C000E29F800D911D1124ADCF6D3009F4ACCF9A
:1014D000FC0134963491631708F4A6CF3296E49158
:1014E000E61708F4A1CFFC01329685909490462F20
:1014F000431B342F47E0349F800C911C1124F401CE
:10150000329634913196E4913323A9F1EE2399F187
:10151000CC88F4013596E491AD884F89442301F1DC
:101520000E2E000CFF0BE30FF11DCE9EA001CF9EEF
:10153000500D11246C857D85460F571F6885798570
:10154000641775076CF44E855F851D861C86FC014B
:101550003896E491AE9E400D511D11245F874E8751
:10156000EA88FB88088919894E855F856C857D85A9
:10157000CE010E94CF07F4013496E4912C898C852A
:101580009D85E29F800D911D11248DCF6F927F92DA
:101590008F929F92AF92BF92CF92DF92EF92FF9283
:1015A0000F931F93CF93DF93EC016B015A01390125
:1015B0004801E881F9810284F385E02D0995E881ED
:1015C000F9810288F389E02D87019301A501B60115
:1015D000CE010995A501480D591D41505109E881D9
:1015E000F9810288F389E02D9301B601CE010995B6
:1015F000E881F9810088F189E02D9401A501B60107
:10160000CE010995C60CD71CB60161507109E8815D
:10161000F9810088F189E02D9401A501CE01099599
:10162000E881F9810688F789E02DCE01DF91CF911D
:101630001F910F91FF90EF90DF90CF90BF90AF90F0
:101640009F908F907F906F9009946F927F928F926E
:101650009F92AF92BF92CF92DF92EF92FF920F9341
:101660001F93CF93DF935C01EB016A0149013801BD
:101670008701DC01ED91FC916217730719F564167F
:1016800075062CF0962D872D3A01C92ED82E96017D
:10169000261937092F5F3F4F048CF58DE02DA301EC
:1016A000BE01C5010995DF91CF911F910F91FF9068
:1016B000EF90DF90CF90BF90AF909F908F907F90F2
:1016C0006F9008954615570591F42617370724F0B3
:1016D000892D4B01C22FD82F9E01281939092F5F60
:1016E0003F4F068CF78DE02DA601B401DACF0284BE
:1016F000F385E02D0995D501ED91FC910488F589DC
:10170000E02D83019401A601BE01C5010995D50113
:10171000ED91FC910688F789E02DC501DF91CF910D
:101720001F910F91FF90EF90DF90CF90BF90AF90FF
:101730009F908F907F906F900994EF92FF920F93FC
:101740001F93DC011A960D911C911B9718962D91F1
:101750003C911997ED91FC9100A0F1A1E02D7B0146
:1017600050E040E070E060E009951F910F91FF901C
:10177000EF9008954F925F926F927F928F929F9217
:10178000AF92BF92CF92DF92EF92FF920F931F938F
:10179000CF93DF936C012B015A0139014801DC0121
:1017A000ED91FC910284F385E02D0995E201640C32
:1017B000751CD601ED91FC91C615D7055CF4008827
:1017C000F189E02D87019401A501BE01C6010995AB
:1017D0002196EFCF0688F789E02DC601DF91CF91E2
:1017E0001F910F91FF90EF90DF90CF90BF90AF903F
:1017F0009F908F907F906F905F904F9009948F9201
:101800009F92AF92BF92CF92DF92EF92FF920F938F
:101810001F93CF93DF93EC015B014A016901E881DB
:10182000F9810284F385E02D099595012C0D3D1D6C
:1018300021503109E881F9810488F589E02D78018A
:101840008401A401B501CE010995E881F9810688DA
:10185000F789E02DCE01DF91CF911F910F91FF907D
:10186000EF90DF90CF90BF90AF909F908F900994B2
:101870008F929F92AF92BF92CF92DF92EF92FF92A0
:101880000F931F93CF93DF93EC015B014A01690132
:101890007801E881F9810284F385E02D0995C80C6F
:1018A000D91C860101501109E881F9810488F58964
:1018B000E02D9501A401B501CE010995E881F981DA
:1018C0000688F789E02DCE01DF91CF911F910F910E
:1018D000FF90EF90DF90CF90BF90AF909F908F9050
:1018E00009940895EF92FF920F931F93DC01ED91FD
:1018F000FC9100A0F1A1E02D09951F910F91FF909F
:10190000EF9008950F931F93DC01ED91FC91068CED
:10191000F78DE02D09951F910F9108950F931F9357
:10192000DC01ED91FC91048CF58DE02D09951F9162
:101930000F910895DC01ED91FC910084F185E02D7B
:1019400009942F923F924F925F926F927F928F9263
:101950009F92AF92BF92CF92DF92EF92FF920F933E
:101960001F93CF93DF9300D000D000D0CDB7DEB768
:101970003C016A013E832D83FC82EB825801A41A4C
:10198000B50AB7FE03C0B194A194B1088D809E80C2
:10199000861A970A97FE03C09194819491088A143D
:1019A0009B045CF0902F812F0D811E819D838E837F
:1019B0009C2D8D2D6B01692F782F0C151D055CF06A
:1019C0009D818E817E836D83692F782F902F812F4B
:1019D0008601C92ED82E1601201A310A2B012D811D
:1019E0003E81421A530A57FE03C051944194510854
:1019F000710137FE03C03FEFE31AF30AF594E79451
:101A00008D819E81861797075CF5A1E0B0E0BA83CF
:101A1000A983C016D1064CF1D301ED91FC91048449
:101A2000F585E02D2B813C81A8016D817E818A1492
:101A30009B041CF04D815E81B801C3010995E41837
:101A4000F508F7FE0AC02D813E8189819A81280F11
:101A5000391F3E832D83E20CF31C0F5F1F4FD9CF3C
:101A60002FEF3FEF3A832983D4CF26960FB6F89411
:101A7000DEBF0FBECDBFDF91CF911F910F91FF90C1
:101A8000EF90DF90CF90BF90AF909F908F907F901E
:101A90006F905F904F903F902F9008950895209100
:101AA0000E02260F3327331F21323105ECF420912B
:101AB0003202FC0190E080E0243069F082E0089579
:101AC000A0910E022191AC0142515E4FA40FB52F9F
:101AD000B11D2C930196861798F380910E02680F22
:101AE00060930E0280E0089581E008951092320222
:101AF00081E0809334021092330261E082E10E941F
:101B0000810361E083E10E948103E9EBF0E08081E1
:101B10008E7F808380818D7F808388E48093B8006E
:101B200085E48093BC000895CF93DF9391E0909378
:101B3000ED018823B9F0C091B800D091BA0080912E
:101B4000BC008A7B8093BC0060E082E10E9481033C
:101B500060E083E10E9481030E94760DD093BA0079
:101B6000C093B800DF91CF910895E0915E0280911B
:101B70005D02E81730F4F0E0E853FE4F808190E01A
:101B800008958FEF9FEF089590915E0280915D021E
:101B90002FEF3FEF981748F4E92FF0E0E853FE4F9E
:101BA000208130E09F5F90935E02C901089580918B
:101BB0005D0290915E02891B990B0895CF92DF928E
:101BC000EF92FF920F931F93CF93DF937C01CB0192
:101BD0008A0120917203222389F0EB016B01C40E6C
:101BE000D51ECC15DD0569F06991D701ED91FC9109
:101BF0000190F081E02DC7010995F3CF642F0E9479
:101C00004F0DC801DF91CF911F910F91FF90EF9081
:101C1000DF90CF900895CF93DF931F92CDB7DEB7BB
:101C20006983209172032223F9F020916F032032FF
:101C300058F021E030E0FC013383228390E080E023
:101C40000F90DF91CF91089580917003E82FF0E01D
:101C5000E855FE4F998190838F5F80937003809346
:101C60006F0381E090E0ECCF61E0CE0101960E942D
:101C70004F0DF7CFCF92DF92EF92FF920F931F930A
:101C8000CF93DF93D0916F0381E0D13208F09CC0F5
:101C9000C09171030E94F2036B017C0180913202BA
:101CA00081116CC082E08093320281E08093340223
:101CB0008FEF8093310210925602D0935502A8EA1A
:101CC000B1E0E5E3F2E080E0D8138DC01092570256
:101CD00080915702CC0FC82BC093570280913302DA
:101CE000813009F084C0109233020E94F2036B012C
:101CF0007C01809157028093BB008091E901909113
:101D0000EA01A091EB01B091EC01892B8A2B8B2B7E
:101D1000A1F00E94F2030091E9011091EA012091E3
:101D2000EB013091EC016C197D098E099F090617B2
:101D300017072807390708F442C08091BC0083FDCB
:101D4000D8CF85EC8093BC000E94F2036B017C012C
:101D500080913202823009F44CC0809131028F3F71
:101D600009F469C080913102803209F466C0809123
:101D70003102803309F463C084E026C08091E90118
:101D80009091EA01A091EB01B091EC01892B8A2B93
:101D90008B2B09F483CF0E94F2030091E90110918B
:101DA000EA012091EB013091EC016C197D098E095B
:101DB0009F09061717072807390708F06FCF80918A
:101DC000E8010E94940D85E01092700310926F0359
:101DD00010927203DF91CF911F910F91FF90EF90BE
:101DE000DF90CF9008959D9191938F5F6DCF85EE99
:101DF000A9CF8091E9019091EA01A091EB01B09106
:101E0000EC01892B8A2B8B2B09F4A2CF0E94F203C1
:101E10000091E9011091EA012091EB013091EC0170
:101E20006C197D098E099F090617170728073907BE
:101E300008F08ECFC4CF80E0C7CF82E0C5CF83E06B
:101E4000C3CFEF92FF920F931F93CF93DF937C0149
:101E5000C62F8091390490913A04009709F459C033
:101E600020913D0431E0309372032093710310926E
:101E7000700310926F03DC01ED91FC910190F081F1
:101E8000E02D60E009958701EE24E394F12CD1E088
:101E9000C1508091390490913A04CF3F91F1B0E262
:101EA000EB16F104D8F00E943A0E8091390490911B
:101EB0003A0420913D04D093720320937103109251
:101EC000700310926F03DC01ED91FC910190F081A1
:101ED000E02D60E00995EE24E394F12C8091390423
:101EE00090913A04F8016491DC01ED91FC9101902C
:101EF000F081E02D0995BFEFEB1AFB0A0F5F1F4F32
:101F0000C7CFDF91CF911F910F91FF90EF900C946D
:101F10003A0EE0914904F0914A04908180914F0477
:101F20008095892380838701C15008F438C0F80167
:101F300084912091370430913804232B29F00E949A
:101F4000AF070F5F1F4FF0CF28E030E040E8E0918F
:101F50004504F091460490914D04582F5423D9F034
:101F60005081952B9083E0914704F0914804908133
:101F700050914E04952B9083E0914704F0914804D2
:101F8000508190914E0490959523908346952150D1
:101F90003109E9F6D6CF508190959523E3CFDF91B3
:101FA000CF911F910F91FF90EF9008951F93CF93C2
:101FB000DF93EC018D8D9E8D009721F1162F29A1C5
:101FC00031E03093720320937103109270031092EA
:101FD0006F03DC01ED91FC910190F081E02D60E058
:101FE00009958D8D9E8DDC01ED91FC910190F08124
:101FF000E02D612F09958D8D9E8DDF91CF911F91E1
:102000000C943A0EADA5BEA59C918BA98095892311
:102010008C938B8D9C8D892B31F0862FDF91CF9106
:102020001F910C94AF0728E030E080E8A9A5BAA57D
:1020300099A9462F4823C1F04C91942B9C93ABA5B2
:10204000BCA59C914AA9942B9C93ABA5BCA54C9193
:102050009AA9909594239C9386952150310931F744
:10206000DF91CF911F9108954C9190959423E6CFE5
:10207000DF92EF92FF920F931F93CF93DF938091A4
:10208000390490913A04892B09F4A5C02091510498
:1020900030915204409153045091540460E074E232
:1020A00084EF90E00E94031B20513109410951093E
:1020B00056954795379527952093B80064E082E0C0
:1020C00096E00E94210F8091200490912104803499
:1020D000910509F097C060E28CE194E00E94D60F70
:1020E00060912004615E8CE194E00E94D60F209103
:1020F000220430912304C901079697FD079633E027
:10210000959587953A95E1F7209120043091210427
:10211000829F8001839F100D929F100D1124C0910A
:102120003B04D0913C048091390490913A040C0F07
:102130001D1F009709F498C020913D0431E03093B1
:102140007203209371031092700310926F03DC01ED
:10215000ED91FC910190F081E02D60E40995EE2471
:10216000E394F12CDD24D3948091390490913A04C6
:102170000C171D0709F44FC0B0E2EB16F104D8F0BC
:102180000E943A0E8091390490913A0420913D04C6
:10219000D0927203209371031092700310926F0318
:1021A000DC01ED91FC910190F081E02D60E4099556
:1021B000EE24E394F12C8091390490913A046991D2
:1021C000DC01ED91FC910190F081E02D0995BFEFCC
:1021D000EB1AFB0AC9CF8091370490913804892B00
:1021E00031F080915A0490915B040E94B607E0910F
:1021F0004B04F0914C049081809150048095892388
:1022000080835CCF60E08CE194E00E94D60F609107
:102210002004615068CF0E943A0E80913904909159
:102220003A04892B09F461C0209155043091560479
:10223000409157045091580460E074E284EF90E0BC
:102240000E94031B205131094109510956954795B8
:10225000379527952093B800DF91CF911F910F916B
:10226000FF90EF90DF900895E0914904F0914A04C7
:10227000808190914F04892B80830C171D0769F290
:1022800089912091370430913804232B19F00E9452
:10229000AF07F3CF28E030E040E8E0914504F0914B
:1022A000460490914D04582F5423D9F05081952B1A
:1022B0009083E0914704F0914804908150914E043E
:1022C000952B9083E0914704F091480450819091C0
:1022D0004E04909595239083469521503109E9F657
:1022E000CCCF508190959523E3CFE0914B04F091B2
:1022F0004C04808190915004892B8083ADCF1F9333
:10230000CF93DF93EC01162F8D8D9E8D892BB1F12C
:102310002DA93EA94FA958AD60E074E284EF90E08A
:102320000E94031B205131094109510956954795D7
:10233000379527952093B80066EA111167EACE0118
:102340000E94D60F8D8D9E8D892B41F129AD3AAD1E
:102350004BAD5CAD60E074E284EF90E00E94031B43
:1023600020513109410951095695479537952795CF
:102370002093B800DF91CF911F9108958B8D9C8D94
:10238000892B21F08EAD9FAD0E94B607EFA5F8A96D
:1023900090818CA9809589238083CECFEFA5F8A961
:1023A00080819CA9892B8083E5CF90E080E008950F
:1023B0002091220430912304C901079697FD0796C6
:1023C00023E0959587952A95E1F720912004309197
:1023D0002104829FA001839F500D929F500D1124D4
:1023E00070E060E080913B0490913C040C946E1F7F
:1023F000FC0101900020E9F73197AF01481B590B10
:10240000BC018CE194E00C944B048F929F92AF92AC
:10241000BF920F931F93CF93DF93CDB7DEB7A197F2
:102420000FB6F894DEBF0FBECDBF19A2423008F43C
:102430004AE08E010F5D1F4F842E912CB12CA12CF0
:10244000A50194010E94031BE62FB901CA01EA30DD
:10245000F4F4E05DD801EE938D01232B242B252B82
:1024600079F790E080E0109719F0CD010E94F81103
:10247000A1960FB6F894DEBF0FBECDBFDF91CF910E
:102480001F910F91BF90AF909F908F900895E95C3E
:10249000E1CF0C94F8114F925F926F927F928F92DE
:1024A0009F92AF92BF92CF92DF92EF92FF920F93E3
:1024B0001F93CF936B017C01742EAC019B010E9492
:1024C000B71D882399F088E591E0CF911F910F9176
:1024D000FF90EF90DF90CF90BF90AF909F908F9044
:1024E0007F906F905F904F900C94F81146015701C8
:1024F000E894B7F82FEF3FEF4FE75FE7C501B4016E
:102500000E94B71D81110DC02FEF3FEF4FE75FE72E
:10251000C501B4010E94DE1B18161CF48CE591E085
:10252000D4CF2FEF3FEF4FE75FE4C701B6010E9422
:102530003D1D18161CF480E691E0C7CF2FEF3FEF4A
:102540004FE75FECC701B6010E94DE1B87FDF3CFAA
:1025500020E030E0A901C701B6010E94DE1B10E0B7
:1025600000E087FF0AC06DE28CE194E00E94F4096C
:102570008C01F7FAF094F7F8F094C0E060E070E0B6
:1025800080E09FE37C1641F020E030E040E251E43F
:102590000E94E31BCF5FF6CFA70196010E94721B3A
:1025A0002B013C010E945C1C4B015C014AE00E9433
:1025B00005127C01E00EF11ECC23C1F1C501B4016E
:1025C0000E948B1C9B01AC01C301B2010E94711BD4
:1025D0004B015C016EE28CE194E00E94F409E80E8C
:1025E000F91EC15018F120E030E040E251E4C5018D
:1025F000B4010E94421D2B013C010E945C1C4B0156
:10260000B12CA12C4AE0C501B4010E940512E80ECC
:10261000F91EC501B4010E948B1C9B01AC01C301D2
:10262000B2010E94711B4B015C01DBCFC701CF914E
:102630001F910F91FF90EF90DF90CF90BF90AF90E0
:102640009F908F907F906F905F904F9008950E9421
:10265000691F85ED8093BC008091E9019091EA01AA
:10266000A091EB01B091EC010796A11DB11D23E0F3
:10267000B695A795979587952A95D1F72091BC0097
:1026800024FD03C01092320208954091E901509157
:10269000EA016091EB017091EC01452B462B472B31
:1026A00069F30097A105B10541F02AE22A95F1F7F7
:1026B00000C00197A109B109E1CF8091E8010C9414
:1026C000940D1F920F920FB60F9211242F933F93E8
:1026D0008F939F93AF93BF9380916703909168030B
:1026E000A0916903B0916A033091660323E0230F40
:1026F0002D3758F50196A11DB11D209366038093D7
:10270000670390936803A0936903B0936A03809171
:102710006B0390916C03A0916D03B0916E030196D1
:10272000A11DB11D80936B0390936C03A0936D0367
:10273000B0936E03BF91AF919F918F913F912F9175
:102740000F900FBE0F901F90189526E8230F02964A
:10275000A11DB11DD2CF1F920F920FB60F9211245F
:102760002F933F934F935F936F937F938F939F9399
:10277000AF93BF93EF93FF9383E793E00E94C90465
:10278000FF91EF91BF91AF919F918F917F916F9149
:102790005F914F913F912F910F900FBE0F901F901F
:1027A00018951F920F920FB60F9211242F938F93AB
:1027B0009F93EF93FF93E0918303F09184038081D3
:1027C000E0918903F0918A0382FD1BC09081809182
:1027D0008C038F5F8F7320918D03821741F0E091FE
:1027E0008C03F0E0ED58FC4F958F80938C03FF91A4
:1027F000EF919F918F912F910F900FBE0F901F908F
:1028000018958081F4CF1F920F920FB60F9211246A
:102810002F933F934F935F936F937F938F939F93E8
:10282000AF93BF93EF93FF938091B900887F803679
:1028300009F44AC0F0F5883209F4A7C018F58031D0
:1028400009F49BC0B8F4882309F4F9C0883009F46E
:1028500094C0FF91EF91BF91AF919F918F917F9124
:102860006F915F914F913F912F910F900FBE0F90FD
:102870001F901895883109F488C0803251F78093F1
:10288000310214C0803409F49DC040F48033B9F3A0
:102890008833F9F68093310285ECB0C0803509F4B5
:1028A00085C0883509F496C0883499F60E942913AA
:1028B000D0CF883909F48CC038F5883729F050F426
:1028C000883611F0803729F683E080933202109227
:1028D000300257C0883809F47BC0803919F080383D
:1028E00009F0B7CF80913002803208F071C0E091DA
:1028F000300281E08E0F809330028091BB00F0E0C7
:10290000E05FFD4F80833DC0803B39F0E0F4803ACA
:1029100009F479C0883A09F09CCF84E080933202B0
:1029200010920F0210920E02E0915B02F0915C0295
:10293000099580910E0281110FC081E080930E02F3
:102940001092EE0109C0803C09F4A6CF883C09F43E
:10295000A3CF883B09F07DCFE0910F0281E08E0F7D
:1029600080930F02F0E0E251FE4F80818093BB0024
:1029700090910F0280910E0229C08091570280939E
:10298000BB0085EC8093BC0064CF9091560280918F
:102990005502981758F5E091560281E08E0F80930A
:1029A0005602F0E0EB5CFD4F8081E9CFE0915602EA
:1029B00081E08E0F809356028091BB00F0E0EB5CCB
:1029C000FD4F808390915602809155029817C8F26E
:1029D00085E8D8CFE091560281E08E0F80935602B1
:1029E0008091BB00F0E0EB5CFD4F8083809134026E
:1029F00081115CCF81E08093330284EA8093BC0034
:102A00001092320226CF85EC8093BC0010923202E5
:102A100080913002803230F4E0913002F0E0E05FEB
:102A2000FD4F10826091300270E0E0915902F09108
:102A30005A0280E192E00995109230020ACF10927A
:102A4000310234CFE3E7F3E01382128248EE53E021
:102A500060E070E044835583668377838CE091E087
:102A60009183808385EC90E09587848784EC90E067
:102A70009787868780EC90E0918B808B81EC90E04B
:102A8000938B828B82EC90E0958B848B86EC90E02C
:102A9000978B868B118E128E138E148EA0E1B4E06C
:102AA00013961C921E92129714964D935D936D93FC
:102AB0007C9317978EE191E011969C938E93ECE1B5
:102AC000F4E01382128220E830E03583248380E42E
:102AD00090E0978386833187208793878287168A41
:102AE000158614861786168681E0858B848B2FEFDA
:102AF0003FEF338B228B318B208B878B108E128E86
:102B0000118E80E391E091838083148E138EB68FB3
:102B1000A58F10A2178E8FEF84A385A386A387A30A
:102B200080A780E89AE1A6E0B0E085AB96ABA7ABC2
:102B3000B0AF80EA96E8A1E0B0E081AF92AFA3AF7A
:102B4000B4AF80E586AF17AE0895789484B58260FF
:102B500084BD84B5816084BD85B5826085BD85B541
:102B6000816085BD80916E00816080936E001092BF
:102B7000810080918100826080938100809181003A
:102B800081608093810080918000816080938000CB
:102B90008091B10084608093B1008091B000816029
:102BA0008093B00080917A00846080937A00809155
:102BB0007A00826080937A0080917A0081608093AD
:102BC0007A0080917A00806880937A001092C10028
:102BD000E0918303F091840382E08083E0917F039E
:102BE000F09180031082E0918103F09182038FECD9
:102BF000808310928B03E0918703F091880386E035
:102C00008083E0918503F0918603808180618083D9
:102C1000E0918503F0918603808188608083E09154
:102C20008503F0918603808180688083E09185032D
:102C3000F091860380818F7D808362E087E00E942F
:102C4000AF0362E08BE00E94AF0380913B04909160
:102C50003C04892B09F488C00E94D81182E080933B
:102C60003E048091390490913A04892B09F089C17E
:102C700061E0809142040E94AF0361E080914304CF
:102C80000E94AF0380914204082E000C990BFC01B6
:102C9000EA53FA4FE491F0E0EE0FFF1FEE54FA4FC3
:102CA0002591349130934A0420934904FC01E65263
:102CB000FA4FE491E0934F0480914304082E000CF6
:102CC000990BFC01EA53FA4FE491F0E0EE0FFF1F7D
:102CD000EE54FA4FA591B491B0934C04A0934B04D9
:102CE000FC01E652FA4FE491E09350048C91E82BFA
:102CF000EC938091370490913804892B09F420C219
:102D0000CFB7F89480915802811127C0E0EDF5E02B
:102D10008491E4EEF5E09491E82FF0E0EE0FFF1FD0
:102D2000E855FA4FA591B491EC91E92321F461E0C3
:102D30008AE00E94810361E08AE00E94AF038CB5C3
:102D400080618CBD8CB580648CBD61E08DE00E949B
:102D5000AF0361E08BE00E94AF03809158028F5F68
:102D600080935802CFBF26C12091220430912304C2
:102D7000C901079697FD079623E0959587952A95B3
:102D8000E1F72091200430912104AC01429FC00161
:102D9000439F900D529F900D11240E94441E9093CA
:102DA0003C0480933B04892B09F056CF0E94D81134
:102DB0000E943810C4E0D0E040E4242E312C87E09B
:102DC0000E94580311E0009709F410E020910101DE
:102DD000222371F0892B61F48091650351E08527EE
:102DE0008093650368EC70E080E090E00E94170437
:102DF000109301018BE00E94580311E0009709F441
:102E000010E0209100012223A9F0892B99F48091F0
:102E1000630390916403019663E070E00E94341BA9
:102E2000909364038093630368EC70E080E090E02B
:102E30000E9417041093000180916503882309F410
:102E4000A5C233E6A32E32E0B32EF5018281938131
:102E50008193919381E693E08E179F07B9F7C09015
:102E60006303D090640381E1C114D10409F0F1C17E
:102E70000E94E0039C01A1ECBFEF0E94481B2FEFD2
:102E800033E040E050E00E94D11A215C3F4F4F4FA9
:102E90005F4F30936203209361030E94D811D12CBD
:102EA000C12C01E010E020E830E0A60170E060E015
:102EB0008CE194E00E94B80658E0C50ED11C80E475
:102EC000C816D10471F7D12CC12C01E010E020E428
:102ED00030E050E040E0B6018CE194E00E946F06E3
:102EE00090E1C90ED11C40E8C416D10471F7CC247E
:102EF000C394D12CF5010281138152E0A50EB11CBF
:102F000040815181B60161507109EE24E394F12CA6
:102F100096018CE194E00E94250B8FEFC81AD80A25
:102F200090E8C916D10431F741E040933004409352
:102F30003104109229041092280410922B0410924C
:102F40002A048091630390916403009709F012C2F0
:102F50008BE691E00E9449120E94381064E170E013
:102F600080E090E00E94170480E090E0892B09F453
:102F700026CF0E94B504882309F421CF0E940000C7
:102F80001ECF8CE380933D0410925E0210925D028E
:102F90001092700310926F030E94760D89E494E002
:102FA00090935C0280935B028AE494E090935A02CF
:102FB000809359028091440487FD1EC061E00E9405
:102FC000AF0361E0809144040E94810361E070E0FE
:102FD00080E090E00E94170460E0809144040E9429
:102FE00081036AE070E080E090E00E94170461E0F5
:102FF000809144040E9481038091390490913A04A5
:10300000892B09F4E0C02091510430915204409181
:1030100053045091540460E074E284EF90E00E9405
:10302000031B2051310941095109569547953795A0
:1030300027952093B80064E084EA95E00E94210F70
:103040006091220461508CE194E00E94D60F64E00C
:1030500080EA95E00E94210F80913E0460E181307A
:1030600009F064E18CE194E00E94D60F64E08CE901
:1030700095E00E94210F8FE88093590480912004ED
:10308000909121048038910509F0B4C08091220408
:10309000909123048034910509F0BCC080913E04D6
:1030A000813009F0CAC08FE980935904C2E16AED0A
:1030B0008CE194E00E94D60F6C2F8CE194E00E948A
:1030C000D60F61E88CE194E00E94D60F609159041C
:1030D0008CE194E00E94D60F69ED8CE194E00E94AF
:1030E000D60F80913E0462E2813009F061EF8CE1FD
:1030F00094E00E94D60F66E086E995E00E94210FD9
:103100008091390490913A04892B09F498C0209158
:10311000550430915604409157045091580460E092
:1031200074E284EF90E00E94031B205131094109B1
:10313000510956954795379527952093B80036CE77
:1031400061E0809140040E94AF0361E080914104FE
:103150000E94AF0380914004082E000C990BFC01E3
:10316000EA53FA4FE491F0E0EE0FFF1FEE54FA4FEE
:10317000259134913093460420934504FC01E65296
:10318000FA4FE491E0934D0480914104082E000C25
:10319000990BFC01EA53FA4FE491F0E0EE0FFF1FA8
:1031A000EE54FA4FA591B491B0934804A09347040C
:1031B000FC01E652FA4FE491E0934E048C91E095C5
:1031C000E823EC93F7CE8091370490913804892B53
:1031D00031F080915A0490915B040E94B607E0910F
:1031E0004B04F0914C049081809150048095892388
:1031F000808321CF8036910589F4809122049091BB
:103200002304409739F480913E04813029F480E111
:1032100080935904C2E04BCF8FEAFACF80349105F6
:10322000C9F78091220490912304809799F78091A7
:103230003E04813011F480E137CF8FEC35CFE0913F
:103240004B04F0914C04808190915004892B808331
:10325000ADCD0E94E00323E130E0DC010E94501B71
:103260002FEF33E040E050E00E94D11ACA01B901CB
:103270006F5F7F4F8F4F9F4F0E948D1C2BED3FE064
:1032800049EC50E40E94421D20E030E040E05CE365
:103290000E94421D20915F023091600240916102C4
:1032A000509162020E94721B2B013C012BED3FE00A
:1032B00049EC50E40E943D1D18166CF140925F02EB
:1032C00050926002609261027092620291E0C916AF
:1032D000D10491F560915F0270916002809161026A
:1032E000909162020E94AF1D20E030E048EC52E471
:1032F0000E94421D0E94551C9B01AC012C593F4F5E
:103300004F4F5F4FA1ECBFEF0E94FE1A28EC30E058
:1033100040E050E0B8CD2BED3FE049EC50E4C30174
:10332000B2010E94711B60935F02709360028093F0
:10333000610290936202CACF30E020E042E0C416FE
:10334000D10409F0A6CD60915F0270916002809176
:103350006102909162020E94AF1D20E030E0A9015D
:103360000E943D1D24E130E018160CF492CD2CE2B1
:1033700030E08FCD8130910519F487E791E0EACDF7
:10338000029709F0E9CD80E891E0E4CD8EE00E945B
:10339000E0036C018FE00E94E003BC01990F880BF1
:1033A000990B0E948D1C2AE038E240EA5BE30E9400
:1033B000421D2B013C0120E030E44CE156E40E9428
:1033C000421D4B015C01A301920160E070E080EAC4
:1033D00090E40E94711B9B01AC01C501B4010E94E5
:1033E000E31B2B013C0180E10E94E0035C010E9491
:1033F000D81181E090E090932F0480932E04909355
:103400002D0480932C0482E0809330048093310457
:10341000109229041092280410922B0410922A046E
:103420008BE891E00E944912EE24E394F12C0EE225
:1034300010E020E830E042E150E070E060E08CE134
:1034400094E00E94C60A02E210E020E830E042E286
:1034500050E070E060E08CE194E00E94250B02E314
:1034600010E020E830E042E350E070E060E08CE102
:1034700094E00E94250B91E09093300490933104E6
:10348000D0932904C093280446E150E050932B04C4
:1034900040932A0481E991E00E9449123092290464
:1034A0002092280486E190E090932B0480932A04D4
:1034B000B601DD0C880B990B0E948D1C2AE038E2C6
:1034C00040EA5BE30E94421D42E00E944B1286E903
:1034D00091E00E944912D0932904C093280446E247
:1034E00050E050932B0440932A0488E991E00E9415
:1034F0004912309229042092280486E290E09093A9
:103500002B0480932A0420E030E543EC57E4C30108
:10351000B2010E94DE1B87FF2DC040E0C301B20153
:103520000E944B1267EF8CE194E00E94F409D09363
:103530002904C093280446E350E050932B044093A1
:103540002A0483EA91E00E944912309229042092D1
:10355000280486E390E090932B0480932A0495E658
:10356000A916B10464F084E691E00E9449120E9419
:103570003810FACC8DE991E00E944912D3CF88E649
:1035800091E0F3CF80E391E090931D0480931C04BD
:1035900080913B0490913C04009711F00C94E01E44
:1035A0000895052E97FB1EF400940E94E81A57FD1B
:1035B00007D00E94031B07FC03D04EF40C94E81ABA
:1035C00050954095309521953F4F4F4F5F4F08954F
:1035D00090958095709561957F4F8F4F9F4F08957F
:1035E0000E94251BA59F900DB49F900DA49F800D58
:1035F000911D11240895B7FF0C94F01A0E94F01A3F
:10360000821B930B0895A1E21A2EAA1BBB1BFD017E
:103610000DC0AA1FBB1FEE1FFF1FA217B307E407B1
:10362000F50720F0A21BB30BE40BF50B661F771F09
:10363000881F991F1A9469F76095709580959095E9
:103640009B01AC01BD01CF010895A29FB001B39FC2
:10365000C001A39F700D811D1124911DB29F700D9B
:10366000811D1124911D089597FB072E16F40094D7
:1036700007D077FD09D00E94571B07FC05D03EF408
:10368000909581959F4F0895709561957F4F08950E
:103690000E94251B332312F48A1B9B0B0C94521B94
:1036A0000E94251BB7FF0895821B930B0895AA1B48
:1036B000BB1B51E107C0AA1FBB1FA617B70710F01D
:1036C000A61BB70B881F991F5A95A9F7809590954F
:1036D000BC01CD010895EE0FFF1F0590F491E02D80
:1036E00009945058BB27AA270E94891B0C94031DDC
:1036F0000E94F51C38F00E94FC1C20F039F49F3F1A
:1037000019F426F40C94F21C0EF4E095E7FB0C94EB
:10371000EC1CE92F0E94141D58F3BA1762077307B7
:103720008407950720F079F4A6F50C94361D0EF465
:10373000E0950B2EBA2FA02D0B01B90190010C01C1
:10374000CA01A0011124FF27591B99F0593F50F4D9
:10375000503E68F11A16F040A22F232F342F442731
:10376000585FF3CF469537952795A795F040539529
:10377000C9F77EF41F16BA0B620B730B840BBAF0F9
:103780009150A1F0FF0FBB1F661F771F881FC2F764
:103790000EC0BA0F621F731F841F48F48795779578
:1037A0006795B795F7959E3F08F0B0CF9395880F32
:1037B00008F09927EE0F9795879508950E94C81CE9
:1037C00008F481E008950E94F71B0C94031D0E94E9
:1037D000FC1C58F00E94F51C40F029F45F3F29F0D2
:1037E0000C94EC1C51110C94371D0C94F21C0E948B
:1037F000141D68F39923B1F3552391F3951B550BD1
:10380000BB27AA2762177307840738F09F5F5F4FB3
:10381000220F331F441FAA1FA9F335D00E2E3AF0F2
:10382000E0E832D091505040E695001CCAF72BD00A
:10383000FE2F29D0660F771F881FBB1F261737075B
:103840004807AB07B0E809F0BB0B802DBF01FF278D
:1038500093585F4F3AF09E3F510578F00C94EC1C62
:103860000C94371D5F3FE4F3983ED4F3869577952B
:103870006795B795F7959F5FC9F7880F911D969546
:10388000879597F90895E1E0660F771F881FBB1FA2
:10389000621773078407BA0720F0621B730B840B4F
:1038A000BA0BEE1F88F7E09508950E945C1C68949F
:1038B000B1110C94371D08950E941C1D88F09F576C
:1038C00098F0B92F9927B751B0F0E1F0660F771F44
:1038D000881F991F1AF0BA95C9F714C0B13091F03A
:1038E0000E94361DB1E008950C94361D672F782F85
:1038F0008827B85F39F0B93FCCF3869577956795FF
:10390000B395D9F73EF490958095709561957F4F6A
:103910008F4F9F4F0895E89409C097FB3EF4909510
:103920008095709561957F4F8F4F9F4F9923A9F098
:10393000F92F96E9BB279395F69587957795679527
:10394000B795F111F8CFFAF4BB0F11F460FF1BC06B
:103950006F5F7F4F8F4F9F4F16C0882311F096E9FE
:1039600011C0772321F09EE8872F762F05C06623AC
:1039700071F096E8862F70E060E02AF09A95660F65
:10398000771F881FDAF7880F9695879597F908951E
:10399000990F0008550FAA0BE0E8FEEF1616170660
:1039A000E807F907C0F012161306E407F50798F0C8
:1039B000621B730B840B950B39F40A2661F0232BE1
:1039C000242B252B21F408950A2609F4A140A6955D
:1039D0008FEF811D811D089597F99F6780E870E042
:1039E00060E008959FEF80EC089500240A94161675
:1039F000170618060906089500240A9412161306DD
:103A0000140605060895092E0394000C11F488236A
:103A100052F0BB0F40F4BF2B11F460FF04C06F5F86
:103A20007F4F8F4F9F4F089557FD9058440F551F5C
:103A300059F05F3F71F04795880F97FB991F61F030
:103A40009F3F79F087950895121613061406551FA7
:103A5000F2CF4695F1DF08C0161617061806991F13
:103A6000F1CF86957105610508940895E894BB2708
:103A700066277727CB0197F908950E94C81C08F4A0
:103A80008FEF08950E94551D0C94031D0E94F51C94
:103A900038F00E94FC1C20F0952311F00C94EC1CD3
:103AA0000C94F21C11240C94371D0E94141D70F309
:103AB000959FC1F3950F50E0551F629FF001729FD3
:103AC000BB27F00DB11D639FAA27F00DB11DAA1FE2
:103AD000649F6627B00DA11D661F829F2227B00D2F
:103AE000A11D621F739FB00DA11D621F839FA00DBA
:103AF000611D221F749F3327A00D611D231F849F0A
:103B0000600D211D822F762F6A2F11249F57504060
:103B10009AF0F1F088234AF0EE0FFF1FBB1F661FDB
:103B2000771F881F91505040A9F79E3F510580F0A4
:103B30000C94EC1C0C94371D5F3FE4F3983ED4F3D7
:103B4000869577956795B795F795E7959F5FC1F748
:103B5000FE2B880F911D9695879597F908959F9351
:103B60000E94BE1D0F9007FCEE5F0C94E71D0E94A3
:103B7000C81C880B990B08950C94F21C0E941C1D04
:103B8000D8F3E894E0E0BB279F57F0F02AED3FE040
:103B900049EC06C0EE0FBB0F661F771F881F28F089
:103BA000B23A62077307840728F0B25A620B730BAC
:103BB000840BE3959A9572F7803830F49A95BB0F91
:103BC000661F771F881FD2F790480C94FD1DEF9356
:103BD000E0FF07C0A2EA2AED3FE049EC5FEB0E945C
:103BE000891B0E94031D0F90039401FC9058E8E686
:103BF000F0E00C94091E9F3F31F0915020F487951E
:103C000077956795B795880F911D9695879597F944
:103C100008959F938F937F936F93FF93EF939B01EF
:103C2000AC010E94421DEF91FF910E941D1E2F9139
:103C30003F914F915F910C94421DDF93CF931F935F
:103C40000F93FF92EF92DF927B018C01689406C084
:103C5000DA2EEF010E94551DFE01E894A5912591F1
:103C6000359145915591A6F3EF010E94891BFE0104
:103C70009701A801DA9469F7DF90EF90FF900F9118
:103C80001F91CF91DF9108950F931F93CF93DF93EF
:103C90008230910510F482E090E0E0915E04F091B2
:103CA0005F0430E020E0B0E0A0E0309799F4211507
:103CB000310509F44AC0281B390B24303105D8F5E9
:103CC0008A819B816115710589F1FB019383828350
:103CD000FE0111C0408151810281138148175907AB
:103CE000E0F04817590799F4109761F012960C9379
:103CF000129713961C933296CF01DF91CF911F91AB
:103D00000F91089500935E0410935F04F4CF211582
:103D1000310551F04217530738F0A901DB019A0130
:103D2000BD01DF01F801C1CFEF01F9CF90935F042E
:103D300080935E04CDCFFE01E20FF31F8193919338
:103D40002250310939832883D7CF20915C043091E8
:103D50005D04232B41F4209104013091050130933F
:103D60005D0420935C042091020130910301211530
:103D7000310541F42DB73EB740910601509107013E
:103D8000241B350BE0915C04F0915D04E217F3070E
:103D9000A0F42E1B3F0B2817390778F0AC014E5FBB
:103DA0005F4F2417350748F04E0F5F1F50935D0497
:103DB00040935C04819391939FCFF0E0E0E09CCF2F
:103DC000CF93DF930097E9F0FC01329713821282C0
:103DD000A0915E04B0915F04ED0130E020E0109707
:103DE000A1F420813181820F931F20915C043091D6
:103DF0005D042817390709F061C0F0935D04E09372
:103E00005C04DF91CF910895EA01CE17DF07E8F552
:103E10004A815B819E0141155105B1F7E901FB83A0
:103E2000EA8349915991C40FD51FEC17FD0761F43E
:103E3000808191810296840F951FE901998388837F
:103E4000828193819B838A83F0E0E0E012968D91DA
:103E50009C9113970097B9F52D913C911197CD0145
:103E60000296820F931F20915C0430915D04281705
:103E7000390739F6309751F510925F0410925E04BD
:103E8000B0935D04A0935C04BCCFD383C283408114
:103E90005181840F951FC817D90761F44E5F5F4F9A
:103EA00088819981480F591F518340838A819B8162
:103EB000938382832115310509F0B0CFF0935F041D
:103EC000E0935E049ECFFD01DC01C0CF138212821D
:103ED000D7CF81E090E0F8940C94751FDC0101C00D
:103EE0006D9341505040E0F7089513E0C4E0D3E0F3
:103EF00004C0FE010E946B1B2196C530D107C9F793
:043F0000F894FFCF63
:103F0400010100006004800000000000EB044B0489
:103F140078043805A90487049B04000000000B0EF4
:103F2400DE0DD511710CD70DC40DB50D00000000C8
:103F3400F4094B04D5114E0DFF06710C9A0C720C4A
:103F44008E0C820CA10C710CBA077F116F06B80697
:103F5400BA0B9D0B250BC60A6E616E00696E660076
:103F64006F766600594553004E4F004F534320412E
:103F740033204C4956450047454E2053494E450091
:103F840047454E20535155415245004D45544552E5
:103F940000564F4C3E0056005245533E003E3130D1
:083FA400306B00434E543E0057
:00000001FF
