:100000000C94FC0B0C940D290C94E6280C94240CF5
:100010000C94240C0C94240C0C942D2B0C9434294B
:100020000C94240C0C94240C0C94240C0C94240C90
:100030000C94240C0C94240C0C94240C0C94240C80
:100040000C949C280C94240C0C94DC290C94B62958
:100050000C94240C0C94240C0C94240C0C94240C60
:100060000C940E2A0C94240C000078000800100058
:100070002780408079000200040007801E002100D4
:1000800040809240804092408C40408021001E0081
:100090007F8040805E8040805E8040805E804080C7
:1000A00041007E0001800DC013C0210040804080CF
:1000B0002100F200EC0060000000E1C09E408040A2
:1000C000C0C02100210021003F000000000080404E
:1000D0009E409240C0C0CCC0FFC07F803F00000067
:1000E0000000000000000000000000000000000010
:1000F0000000000000000000000000000000000000
:1001000000000000000000000000000000000000EF
:1001100000000000000000000000000000020000DD
:1001200000060000000FC000001FE000000FF000FC
:100130000006700000023000000030000000600087
:100140000000C000000000000000000000000000EF
:100150000000000001C6328001294A8001CF43001F
:100160000129428001294A8001C932800000000033
:10017000000000000000000000000000000000007F
:10018000000000000000000000000000000000006F
:10019000000000000000000000000000000000005F
:1001A000000000000000000000000000000000004F
:1001B000000000000000000000000000000000003F
:1001C000000000000000000000000000000000002F
:1001D000000000000000000000000000000000001F
:1001E000000000000000000000000000000000000F
:1001F00000000000000000000000000000000000FF
:1002000000000000000000000000000000000000EE
:10021000000000000CCCCC801CCCCCC03CCCCCE092
:1002200078CCCC7074CCCCB874CCCCB804CCCC80AA
:100230007000003877FFFFB863FFFF1803F07F00FE
:10024000006030000060300000603000006030006E
:10025000000000000000000000000000000000009E
:10026000000000000000000000000000000000008E
:10027000000000000000000000000000000000007E
:10028000000000000000000000000000000000006E
:10029000000000000000000000000000000000005E
:1002A000000000000000000000000000000000004E
:1002B000000000000000000000000000000000003E
:1002C00000000000000000000000000003401600D5
:1002D00006C01B0006C01B0006E03B0006FFFB003B
:1002E00006FFFB0006FFFB000E0003800CFFF980F9
:1002F0000EFFFB80006030000060300000603000C6
:1003000000603000006030000000000000000000CD
:1003100000000000000000000000000000000000DD
:1003200000000000000000000000000000000000CD
:1003300000000000000000000000000000000000BD
:1003400000000000000000000000000000000000AD
:10035000000000000000000000000000000000009D
:10036000000000000000000000000000000000008D
:10037000000000000000000000000000000000007D
:100380000000000007BFEF000F7FF7800EFFFB802B
:1003900001FFFC000DFFFD800DFFFD800CFFF980CB
:1003A0001C0001C018FFF8C01C7FF1C000603000C5
:1003B00000603000006030000060300000603000FD
:1003C000000000000000000000000000000000002D
:1003D000000000000000000000000000000000001D
:1003E000000000000000000000000000000000000D
:1003F00000000000000000000000000000000000FD
:1004000000000000000000000000000000000000EC
:1004100000000000000000000000000000000000DC
:1004200000000000000000000000000000000000CC
:100430000000000000000000000000000EFFFD8032
:100440001EFFFEC03DFFFEE07BFFFF7077FFFFB8A1
:1004500077FFFFB807FFFF807000003873FFFF3899
:1004600061FFFC1800E038000060300000603000E0
:10047000006030000060300000000000000000005C
:10048000000000000000000000000000000000006C
:10049000000000000000000000000000000000005C
:1004A000000000000000000000000000000000004C
:1004B000000000000000000000000000000000003C
:1004C00000000000000000000000000000028000AA
:1004D000000F8000001F0000003F0000001F000010
:1004E000000E000000080000007E000000FF000079
:1004F00001BF0000033F0000027D0000027C80007D
:10050000027E8000007E4000003F0000003380003B
:100510000071800000E3800001C300000387000039
:10052000170E20000FFFC000000000000200400076
:1005300000000000000000000000000000000000BB
:1005400000000000000000000000000000000000AB
:10055000000000000000000000000000000000009B
:10056000000000000000000000000000000000008B
:10057000000140000007C000000F8000381F80000D
:100580000E0F8F0003C738000074E000003F8000AA
:10059000001F0000001E0000001E0000001E0000E2
:1005A000001E0000000F0000000FE000001FF80018
:1005B00001F8380003F01D0003000F0002000600E0
:1005C0000040000003800000047840000007800025
:1005D0000000E0000000200000000000000000001B
:1005E000000000000000000000000000000000000B
:1005F00000000000000000000000000000000000FB
:1006000000028000000F8000001F0000003F00007B
:10061000031F00000FCE3E0018646180203FC080A1
:10062000201F0000001F0000001F0000001F00002E
:10063000001F0000001F0000F01F8000383FE00096
:100640001C7CFC000FE01F0003C003E0000000C0A2
:10065000000000000000000000000000000000009A
:10066000000000000000000000009800000078007A
:100670000001F0000047C000003F800000FC0000C7
:1006800001F0000001C000000000000000000000B8
:10069000000000000000000000000000000000005A
:1006A000000000000000000000000000000000004A
:1006B000000000000000000000000000000000003A
:1006C000000000000000000000000000000000002A
:1006D000000000000000000000000000000000001A
:1006E0000000000000000000000000000000A0006A
:1006F0000003E0000007C000000FC0000007C000BA
:100700000003800001FE0000031FC000061E600001
:10071000041E3000043E1000023C1000003C20008B
:10072000003F0000003F8000003FC0000030E000BC
:100730000070C00000E1800001C340000F83400052
:100740000F008000080100000002400000040000CB
:1007500000080000001000000020000000C8000099
:100760000000000000000000000000000000000089
:100770000000000000000000000000000000000079
:100780000000000000000000000000000000000069
:100790000000000000000000000000000000000059
:1007A0000000000000000000000000000000000049
:1007B0000000000000000000000000000000000039
:1007C0000000000000000000000140000007C00021
:1007D000000F8000001F8000000F80000007000055
:1007E000000C0000003E0000007F000000FF8000C1
:1007F00001BF8000013E8000013E9000013E60008C
:10080000013E000000BF0000003380000031800086
:100810000031800000E3000001C70000038E0000EB
:100820000B0C100007FFE00000000000010080003A
:100830000000000000000000000C000E001E003848
:10084000007000E001C0038007000E001C003800AB
:10085000F000E0006000000C038E065E0C380C70A7
:100860001C681E041F041E8C1F781FF03FC0F00080
:10087000E000600000FC03BE075E0FBE0FFE1FFE1F
:100880001FFE1F7C1EBC1F781FF03FC0F000E00061
:1008900060000000000000000000000000000000F8
:1008A0000000000000000FE0000000101000000039
:1008B000238800000044440000004422000000445B
:1008C00011FFFFC043E08000202000FFFFF81FF869
:1008D0008000080007A000101FF88000602000FFC3
:1008E000FF8047E0800000881100000088110000B0
:1008F00000881200000087E20000004004000000B1
:1009000020180000001FE0000000000000000000B0
:1009100000000000000000000000000000000000D7
:100920000007800000001880000000208000000008
:10093000410000000082001FC001040020200208C6
:1009400000471004100088880820008846104000E6
:100950008821FFFFF887C100000840012000103FF8
:10096000FE80006000028FFF80000C7000000030ED
:100970004000000040200000008E200000011120F7
:1009800000000221200000044220000004844000F6
:1009900000048880000004710000000202000000D2
:1009A000010400000000F80000000000000000004A
:1009B0000000000000000000000000000000000037
:1009C0000000000000000000000000000000000027
:1009D0000000000000000000000000000000000017
:1009E0000000000000000000000000000000000007
:1009F000000000000000000318000004A400000034
:100A000000000000000000000000000110000000D5
:100A1000E0000000000000000000000000000000F6
:100A200000000000000000000000000000000000C6
:100A300000000000000000000000000000000000B6
:100A400000000000000000000000000000000000A6
:100A50000000000000000000000000000000000096
:100A60000000000000000000000000000000000086
:100A70000000000000000000000000000000000076
:100A80000000000000000000000000000000000066
:100A90000000000000000000000000000000000056
:100AA0000000000000000000000000000000000046
:100AB0000000000000001000000010000000100006
:100AC00000001000000010000000100000000800EE
:100AD0000000080000000800000004000000000002
:100AE0000000000000000000000000000000000006
:100AF00000000000000000000000000000000000F6
:100B000000000000000000000000000000000000E5
:100B100000000000000000000000000000000000D5
:100B200000000000000000000000000000000000C5
:100B300000000000000000000000000000000000B5
:100B400000000000000000000000000000000000A5
:100B50000000000000000000000000000000000095
:100B600000000000000000000000000000400E0037
:100B700000400E0000400E0000400E03F8400E073B
:100B8000FCC00E0404C0060040C007F0E1C007FF2F
:100B9000FFC003FFFFC003FFFF800007F800000055
:100BA0000000000000000000000000000000000045
:100BB0000000000000000000000000000000000035
:100BC0000000000000000000000000000000000025
:100BD0000000000000000000000000000000000015
:100BE000000000000080000001C070000346880083
:100BF0003E4E47FFE07220000002400000028000ED
:100C000000047003000D1003000310070002101F02
:100C1000C004101FE00411FFFE0811FFFF30F1FFB8
:100C2000FF8091FFFF80D1FFFF80F1FFFF801FFF5A
:100C3000FF801FFFFF800FFFFF000FFFFF000FFF70
:100C4000FF0003FFFE0000FFF000000000000000B6
:100C50000000000000000000000000000000000094
:100C60000000000000000000000000000000000084
:100C70000000000000000000000000000000000074
:100C80000000000000000000000000000000000064
:100C900000000000000000000000000000800000D4
:100CA00001C0700003C6F8003FCE7FFFFFFE3FFF8C
:100CB000FFFE7FFFFFFEFFFFFFFC7FFFFFFD1FFF2B
:100CC000FFFF1FFFFFFE1FFFFFFC1FFFFFFC1FFFBB
:100CD000FFF81FFFFFF0FFFFFFC09FFFFF80DFFF58
:100CE000FF80FFFFFF801FFFFF801FFFFF801FFFB0
:100CF000FF801FFFFF801FFFFF801FFFFF8007FF98
:100D0000FF0001FFF80000000000000000000000EC
:100D100000000000000000000000000000000000D3
:100D200000000000000000000000000000000000C3
:100D300000000000000000000000000000000000B3
:100D400000000000000000000000000000000000A3
:100D50000000000000000000000000000000000093
:100D60000000000000000000000000000000000083
:100D70000000000000000000000000000000000073
:100D80000000000000000000000000000000000063
:100D90000000000000000000000000000000000053
:100DA0000000000000000000000000000000000043
:100DB0000000000000000000000000000000000033
:100DC0000000000000000000000000000000000023
:100DD0000000000000000000000000000000000013
:100DE00000000000000000000000000000000060A3
:100DF000300000E0380001E03C000000000000008E
:100E000000000000000000000000000000000000E2
:100E100000000000000000000000000000000000D2
:100E200000000000000000000000000000000000C2
:100E300000000000000000000000000000000000B2
:100E400000000000000000000000000000000000A2
:100E50000000000000000000000000000000000092
:100E60000000000000000000000000000000000082
:100E70000000000000000000000000000000000072
:100E80000000000000000000000000000000000062
:100E90000000000000000000000000000000000052
:100EA0000000006030000060300000603000006032
:100EB000300000000000003E5B4F5B3E3E6B4F6B1E
:100EC0003E1C3E7C3E1C183C7E3C181C577D571C2B
:100ED0001C5E7F5E1C00183C1800FFE7C3E7FF00A4
:100EE00018241800FFE7DBE7FF30483A060E2629F2
:100EF000792926407F050507407F05253F5A3CE7B5
:100F00003C5A7F3E1C1C08081C1C3E7F14227F227A
:100F1000145F5F005F5F06097F017F006689956A45
:100F2000606060606094A2FFA29408047E040810D0
:100F3000207E201008082A1C08081C2A08081E10F9
:100F40001010100C1E0C1E0C30383E3830060E3EB1
:100F50000E06000000000000005F00000007000710
:100F600000147F147F14242A7F2A1223130864623A
:100F700036495620500008070300001C224100009B
:100F800041221C002A1C7F1C2A08083E08080080F9
:100F90007030000808080808000060600020100891
:100FA00004023E5149453E00427F40007249494992
:100FB000462141494D331814127F102745454539C4
:100FC0003C4A4949314121110907364949493646C8
:100FD0004949291E000014000000403400000008A8
:100FE000142241141414141400412214080201594B
:100FF00009063E415D594E7C1211127C7F494949D8
:10100000363E414141227F4141413E7F494949416C
:101010007F090909013E414151737F0808087F009B
:10102000417F41002040413F017F081422417F4021
:101030004040407F021C027F7F0408107F3E4141F8
:10104000413E7F090909063E4151215E7F09192968
:1010500046264949493203017F01033F4040403F52
:101060001F2040201F3F4038403F63140814630393
:10107000047804036159494D43007F414141020412
:10108000081020004141417F040201020440404019
:101090004040000307080020545478407F2844440F
:1010A000383844444428384444287F385454541829
:1010B00000087E090218A4A49C787F080404780024
:1010C000447D40002040403D007F10284400004106
:1010D0007F40007C047804787C0804047838444419
:1010E0004438FC1824241818242418FC7C08040410
:1010F00008485454542404043F44243C4040207C79
:101100001C2040201C3C4030403C44281028444CCB
:101110009090907C4464544C440008364100000098
:10112000770000004136080002010204023C262339
:10113000263C1EA1A161123A4040207A38545455F1
:1011400059215555794122545478422155547840BB
:1011500020545579400C1E52721239555555593943
:101160005454545939555454580000457C41000298
:10117000457D420001457C407D1211127DF02825FD
:1011800028F07C545545002054547C547C0A097F37
:101190004932494949323A4444443A324A4848304B
:1011A0003A4141217A3A42402078009DA0A07D3DFD
:1011B0004242423D3D4040403D3C24FF2424487E85
:1011C0004943662B2FFC2F2BFF0929F620C0887E70
:1011D000090320545479410000447D413048484A75
:1011E00032384040227A007A0A0A727D0D19317D28
:1011F0002629292F28262929292630484D402038FC
:101200000808080808080808382F10C8ACBA2F10BA
:101210002834FA00007B000008142A142222142A21
:1012200014085500550055AA55AA55AAFF55FF5553
:10123000FF000000FF00101010FF00141414FF0046
:101240001010FF00FF1010F010F0141414FC001424
:1012500014F700FF0000FF00FF1414F404FC141442
:1012600017101F10101F101F1414141F001010103F
:10127000F0000000001F101010101F10101010F0D0
:1012800010000000FF101010101010101010FF10B0
:10129000000000FF140000FF00FF00001F101700F7
:1012A00000FC04F414141710171414F404F40000D0
:1012B000FF00F714141414141414F700F714141482
:1012C000171410101F101F141414F4141010F01021
:1012D000F000001F101F0000001F14000000FC148D
:1012E0000000F010F01010FF10FF141414FF141081
:1012F00010101F00000000F010FFFFFFFFFFF0F0D4
:10130000F0F0F0FFFFFF0000000000FFFF0F0F0FE5
:101310000F0F3844443844FC4A4A4A347E020206DD
:1013200006027E027E0263554941633844443C0410
:10133000407E201E2006027E020299A5E7A5991C88
:101340002A492A1C4C7201724C304A4D4D303048AB
:10135000784830BC625A463D3E494949007E010109
:10136000017E2A2A2A2A2A44445F444440514A449E
:101370004040444A51400000FF0103E080FF00006C
:1013800008086B6B083612362436060F090F060064
:101390000018180000001010003040FF0101001F6D
:1013A00001011E00191D1712003C3C3C3C000000CE
:1013B0000000000103070F1F3F7F0080C0E0F0F82E
:1013C000FCFEDB40A4A62EAF2000A1C8D300408DB8
:1013D000AED580A800000000240027002A000000ED
:1013E0000000230026002900000000080002010080
:1013F00000030407000000000000000001020408D0
:10140000102040800102040810200102040810206E
:1014100000000000250028002B000404040404043C
:101420000404020202020202030303030303022272
:1014300000FF21000000000000000000010000008B
:101440000000028400000000044E00380001C85A69
:101450003044000630727023FFF800039010000043
:1014600000001020000000001040000000002038A4
:1014700000000000680800000000180800100000CC
:101480001008001C00002008003E00002008007F1B
:10149000C001C00800FFFE06000803FFFFF80008B7
:1014A00007FFFFF800080FFFFFF800787FFFFFF845
:1014B00000FC7FE3F1F800CC7FDDEEF800B47FDDC7
:1014C000EEF800E47FFFFFF800F4FFFFFFF8007F75
:1014D000FFFFFFF8001FFFEFFEF80007FFF7FDF822
:1014E0000007FFF803F80003FFFFFFF00000FFFF15
:1014F000FFE000007FFFFFC000001FFFFF000000B3
:1015000007FFFC00000000000000000000000000D9
:1015100000000000000000000000000000000000CB
:101520000000000000000100000000000284000034
:101530000000044E00380001C85A304400063072E2
:101540007023FFF80003901000000000102000003E
:101550000000104000000000203800000000680873
:10156000000000001808001000001008001C000017
:101570002008003E00002008007FC001C00800FFD6
:10158000FE06000803FFFFF8000807FFFFF8000849
:101590000FFFFFF800787FFFFFF800FC7FE3F1F812
:1015A00000CC7FDDEEF800B47FDDEEF800E47FFFD5
:1015B000FFF800F4FFFFFFF8007FFFFFFFF8001FB8
:1015C000FFFFFFF80007FFE000F80007FFE3F8F86F
:1015D0000007FFF001F80003FFF803F00001FFFC33
:1015E00007F00001FFFFFFE00000FFFFFFE0000049
:1015F0007FFFFFC000001FFFFF00000007FFFC008F
:1016000000000000000000000000000000000000DA
:101610000000000000000100000000000284000043
:101620000000044E00380001C85A304400063072F1
:101630007023FFF80003901000000000102000004D
:101640000000104000000000203800000000680882
:10165000000000001808001000001008001C000026
:101660002008003E00002008007FC001C00800FFE5
:10167000FE01000803FFFFF9000807FFFFF900085B
:101680000FFFFFF900787FFFFFF900FC7FE3F1F91E
:1016900000CC7FDDEEF900B47FDDEEF900E47FFFE2
:1016A000FFF900F47FFFFFF9007C7FFFFFF9001CCA
:1016B0007FC0007900047F80003900043F03F819DF
:1016C00000043F30019900041FF803F1000407FCF7
:1016D00007F1000400FFFFE10003007FDFC200000C
:1016E000803F8F84000040070604000020000008AF
:1016F000000018000030000007000040000000FF5C
:10170000FF80000000000000000000000100000059
:101710000000028400000000044E00380001C85A96
:101720003044000630727023FFF800039010000070
:1017300000001020000000001040000000002038D1
:1017400000000000680800000000180800100000F9
:101750001008001C00002008003E00002008007F48
:10176000C001C00800FFFE01000803FFFFF90008E8
:1017700007FFFFF900080FFFFFF900787FFFFFF96F
:1017800000FC7FE3F1F900CC7FDDEEF900B47FDDF2
:10179000EEF900E47FFFFFF900F47F83F839007C65
:1017A0003F100119001C3F2C069900041FF7FDF1A2
:1017B000000407F803F1000400FFFFE10003007FCD
:1017C000DFC20000803F8F84000040070604000055
:1017D0002000000800001800003000000700004052
:1017E000000000FFFF80000000000000000000007B
:1017F00000000000C02BEC3311241FBECFEFD8E057
:10180000DEBFCDBF12E0A0E0B1E0E4E6FFE602C03B
:1018100005900D92AE36B107D9F724E0AEE6B2E0FE
:1018200001C01D92AF36B207E1F71BE0CBEFDBE062
:1018300004C02197FE010E948534CA3FD107C9F731
:101840000E94542D0C94A5370C9400000895833009
:1018500081F028F4813099F08230A9F00895873022
:10186000A9F08830C9F08430B1F4809180008F7D78
:1018700003C0809180008F7780938000089584B5A5
:101880008F7784BD089584B58F7DFBCF8091B000A4
:101890008F778093B00008958091B0008F7DF9CF4D
:1018A000CF93DF93282F30E0F901E851FC4E84916B
:1018B000F901E450FC4ED491F901E65EFB4EC4916F
:1018C000CC23A1F081110E94270CEC2FF0E0EE0F49
:1018D000FF1FE252FC4EA591B491EC91ED2381E003
:1018E00090E009F480E0DF91CF91089580E090E0EE
:1018F000FACF1F93CF93DF93282F30E0F901E851FF
:10190000FC4E8491F901E450FC4ED491F901E65E5D
:10191000FB4EC491CC23A9F0162F81110E94270CF5
:10192000EC2FF0E0EE0FFF1FE05FFB4EA591B491AE
:101930008FB7F894EC91111108C0D095DE23DC9399
:101940008FBFDF91CF911F910895DE2BF8CFCF93FA
:10195000DF9390E0FC01E450FC4E2491865E9B4EA8
:10196000FC0184918823D1F090E0880F991FFC013D
:10197000EC52FC4EA591B491FC01E05FFB4EC59189
:10198000D491623071F49FB7F8943C91822F809586
:1019900083238C93E8812E2B28839FBFDF91CF91E7
:1019A00008958FB7F894EC912E2B2C938FBFF6CF20
:1019B0003FB7F8948091310390913203A0913303A3
:1019C000B091340326B5A89B05C02F3F19F00196AE
:1019D000A11DB11D3FBFBA2FA92F982F8827BC0189
:1019E000CD01620F711D811D911D42E0660F771FB1
:1019F000881F991F4A95D1F708958F929F92AF92B1
:101A0000BF92CF92DF92EF92FF926B017C010E9416
:101A1000D80C4B015C01C114D104E104F104B9F00C
:101A20000E94D80C681979098A099B09683E73409D
:101A30008105910580F321E0C21AD108E108F1087F
:101A400088EE880E83E0981EA11CB11CE4CFFF90A5
:101A5000EF90DF90CF90BF90AF909F908F900895C0
:101A60004F925F926F927F928F929F92AF92BF92AE
:101A7000CF92DF92EF92FF920F931F93CF93DF935A
:101A8000CDB7DEB729970FB6F894DEBF0FBECDBF36
:101A900029013A010115110511F401E010E00E943D
:101AA000183569837A838B839C8380914603909158
:101AB000470320917E01281719F12F3F09F49DC09B
:101AC000C301B2010E94FD0CB801110F880B990BE4
:101AD00029960FB6F894DEBF0FBECDBFDF91CF9130
:101AE0001F910F91FF90EF90DF90CF90BF90AF903C
:101AF0009F908F907F906F905F904F900C94FD0C13
:101B0000EEE2F4E12491298727FDDACF61E00E941B
:101B1000A70C8985882321F09985923009F05FC14F
:101B200089819A814C01B12CA12C60E072E18AE795
:101B300090E0A50194010E9447342D833E834F839A
:101B4000588769017A0191E0C91AD108E108F108C2
:101B50002FEFC216D104E104F10409F00CF414C112
:101B600060E472E48FE090E0A50194010E944734A4
:101B700069017A0181E0C81AD108E108F108998564
:101B8000923009F0B5C082E02FEFC216D104E10413
:101B9000F10409F00CF4E0C160E970ED83E090E03D
:101BA000A50194010E94473469017A0181E0C81AB5
:101BB000D108E108F10883E09FEFC916D104E104E0
:101BC000F10409F00CF4C8C168E478EE81E090E01B
:101BD000A50194010E94473469017A0191E0C91A74
:101BE000D108E108F1082FEFC216D104E104F10495
:101BF00011F00CF0A1C084E0AFC180937E01EEE251
:101C0000F4E1249129872F3F09F45ACF213041F183
:101C100050F0223009F446C0298527FD51CF61E0FC
:101C20000E94A70C79CF14BC15BC24B5226024BD3A
:101C300025B5216025BD9C013327F901E65EFB4EE9
:101C4000E491F0E0EE0FFF1FE05FFB4E45915491F1
:101C5000F901E450FC4EE491E0933903198656CF24
:101C600010928000109281002091810028602093C2
:101C70008100209181002160209381009C01332705
:101C8000F901E65EFB4EE491F0E0EE0FFF1FE05F2E
:101C9000FB4E45915491F901E450FC4EE491E093E0
:101CA000380334CF1092B0001092B1002091B000F0
:101CB00022602093B0002091B10021602093B100F8
:101CC0009C013327F901E65EFB4EE491F0E0EE0F54
:101CD000FF1FE05FFB4E45915491509337034093B3
:101CE0003603F901E450FC4EE491E09335030ECF46
:101CF0002FEFC216D104E104F10409F00CF46DC019
:101D000068E478EE81E090E0A50194010E944734F8
:101D100069017A0181E0C81AD108E108F1089985C2
:101D2000992309F4E5C02FEFC216D104E104F104B0
:101D300011F00CF0E6C05FCF64E274EF80E090E059
:101D4000A50194010E94473469017A0181E0C81A13
:101D5000D108E108F10885E09FEFC916D104E1043C
:101D6000F10409F008F4F8C062E17AE780E090E05D
:101D7000A50194010E94473469017A0181E0C81AE3
:101D8000D108E108F108CFC081E029852111E4C024
:101D900095B5987F892B85BD2FEF3FEFA9014114A1
:101DA00051046104710409F057C08985813009F438
:101DB00062C0823009F471C0811182CEC7BC209309
:101DC000420330934303409344035093450380916F
:101DD0006E00826080936E0073CE82E0D6CF8981E0
:101DE0009A814C01B12CA12C60E072E18AE790E06D
:101DF000A50194010E94473469017A0191E0C91A52
:101E0000D108E108F10891E0C114D10421E0E20613
:101E1000F10484F068E478EE81E090E0A50194019B
:101E20000E94473469017A0181E0C81AD108E108AB
:101E3000F10893E02985213009F0AECF809181002F
:101E4000887F892B809381002FEF3FEFA9014114F8
:101E500051046104710479F0A981BA81AA0FBB1FF2
:101E6000A30192010E94663428EE33E040E050E086
:101E70000E9425349ACFD0928900C0928800209386
:101E80003E0330933F0340934003509341038091BE
:101E90006F00826080936F0013CEC092B3002093D6
:101EA0003A0330933B0340933C0350933D038091AE
:101EB000700082608093700003CECD80DE80EF8062
:101EC000F8848AE0F594E794D794C7948A95D1F77B
:101ED00021E0C21AD108E108F10885E059CF8FEF5F
:101EE000C816D104E104F10409F038F784E050CFBA
:101EF00083E09FEFC916D104E104F10409F00CF46A
:101F000047CF62E17AE780E090E0A50194010E946A
:101F1000473469017A0181E0C81AD108E108F10863
:101F200099859923E1F286E09FEFC916D104E10477
:101F3000F10491F088F0CD80DE80EF80F8849AE0A3
:101F4000F594E794D794C7949A95D1F781E0C81A8D
:101F5000D108E108F10887E09091B100987F892BC2
:101F60008093B10019CF4F925F926F927F928F92C0
:101F70009F92AF92BF92CF92DF92EF92FF920F9318
:101F80001F93CF93DF93CDB7DEB728970FB6F894A2
:101F9000DEBF0FBECDBF2B013C0129833A834B83AB
:101FA0005C83ED82FE820F8318870E9411358B01BE
:101FB00029813A814B815C81C301B2010E949A342C
:101FC00087FF25C0B801110F880B990B0E94493576
:101FD0002B013C01AC019B0169817A818B819C8141
:101FE0000E94F9351816C4F58401A6019501C301B4
:101FF000B2010E94300D2D813E814F815885C30171
:10200000B2010E94FE350E9411358B01DBCFB80171
:10201000110F880B990B0E9449352B013C01AC0133
:102020009B0169817A818B819C810E949A3487FF10
:1020300013C08401A6019501C301B2010E94300DB5
:102040002D813E814F815885C301B2010E949F348A
:102050000E9411358B01DBCF28960FB6F894DEBFB6
:102060000FBECDBFDF91CF911F910F91FF90EF90E9
:10207000DF90CF90BF90AF909F908F907F906F90A8
:102080005F904F900895089508950895AF92BF927C
:10209000CF92DF92EF92FF920F931F93CF93DF9334
:1020A0006C017B018B01040F151FEB015E01AE1863
:1020B000BF08C017D10759F06991D601ED91FC9185
:1020C0000190F081E02DC6010995892B79F7C501B2
:1020D000DF91CF911F910F91FF90EF90DF90CF9004
:1020E000BF90AF900895FC01538D448D252F30E0B3
:1020F000842F90E0821B930B541710F0CF96089515
:1021000001970895FC01918D828D981761F0A28D41
:10211000AE0FBF2FB11D5D968C91928D9F5F9F7307
:10212000928F90E008958FEF9FEF0895FC01918DBD
:10213000828D981731F0828DE80FF11D858D90E02A
:1021400008958FEF9FEF0895FC01918D228D892FC7
:1021500090E0805C9F4F821B91098F7399270895AF
:102160008CE493E00E94A41021E0892B09F420E084
:10217000822F089580E090E0892B29F00E94B01012
:1021800081110C9400000895FC01A48DA80FB92FB3
:10219000B11DA35ABF4F2C91848D90E001968F738F
:1021A0009927848FA689B7892C93A089B1898C91AE
:1021B000837080648C93938D848D981306C00288FD
:1021C000F389E02D80818F7D80830895EF92FF92C7
:1021D0000F931F93CF93DF93EC0181E0888F9B8D4A
:1021E0008C8D98131AC0E889F989808185FF15C004
:1021F0009FB7F894EE89FF896083E889F989808127
:102200008370806480839FBF81E090E0DF91CF91F5
:102210001F910F91FF90EF900895F62E0B8D10E017
:102220000F5F1F4F0F731127E02E8C8D8E110CC086
:102230000FB607FCFACFE889F989808185FFF5CFD1
:10224000CE010E94C410F1CFEB8DEC0FFD2FF11DDC
:10225000E35AFF4FF0829FB7F8940B8FEA89FB890E
:1022600080818062CFCFCF93DF93EC01888D88236C
:10227000B9F0AA89BB89E889F9898C9185FD03C0E9
:10228000808186FD0DC00FB607FCF7CF8C9185FFCE
:10229000F2CF808185FFEDCFCE010E94C410E9CF3F
:1022A000DF91CF910895EF92FF920F931F93CF93F9
:1022B000DF93EC01EC80FD806E157F050CF070C0A3
:1022C00057FF04C0240F351F50E040E08E819F81EE
:1022D000FA01E20FF31F8E179F071CF49C01241BC9
:1022E000350B121613060CF05BC0922F842F8695C7
:1022F000869586958E9DD0018F9DB00D11246A0F15
:102300007B1FAF8DB8A1A60FB71F477049F188E0BA
:10231000841B482F682F70E0FB01E654FC4EE491CB
:10232000281708F063C0621B71092FEF30E002C06C
:10233000359527956A95E2F7E2230130110539F0CA
:10234000B0F10230110561F58C91E82702C08C9143
:10235000E82BEC93941720F12C813D81A20FB31F41
:10236000E92FE41BE83078F00230110521F58E2FBB
:102370009C9190959C932C813D81A20FB31F885016
:102380008830B0F7E770EE2359F0F0E0EE54FC4EE1
:10239000E49101301105F9F010F10230110519F145
:1023A000DF91CF911F910F91FF90EF900895E095ED
:1023B0008C91E823CECF81E00115110509F480E06E
:1023C00081959E2F8C932C813D81A20FB31F985035
:1023D0009830C0F7D7CF8C91E82BEC93E1CFE09504
:1023E0008C91E823FACF8C91E827F7CF01301105C3
:1023F00009F4ADCFE0F20230110509F4A5CFAE0D1E
:10240000BF1DAECF0F931F93CF93DF9377FF04C011
:10241000260F371F70E060E0DC011496CD91DC914F
:10242000FB01E20FF31FCE17DF071CF49E01261BF2
:10243000370B121613064CF5FA0157FD3796A3E039
:10244000F595E795AA95E1F7EC9FD001ED9FB00DCA
:10245000FC9FB00D11246A0F7B1FDC015F96ED918C
:10246000FC91E60FF71F4770552781E090E001C00F
:10247000880F4A95EAF7482F0130110559F0A8F066
:102480002E0F3F1F02301105E1F0DF91CF911F9118
:102490000F9108952E0F3F1FE217F307B1F38191BB
:1024A000DF011197842B8C93F7CF80952E0F3F1F60
:1024B000E217F30751F39191DF01119798239C9351
:1024C000F7CFE217F30709F38191DF011197842712
:1024D0008C93F7CF0F931F93FA01DC0156964C9122
:1024E00056974230E9F04330A1F1413061F514963E
:1024F0004D915C91DA01AE1BBF0BFD01E21BF30BAA
:1025000077FD0BC0DC0116964D915C916417750741
:1025100024F4AB01BF010E9402121F910F91089594
:1025200014964D915C91DA01A61BB70BBD01615069
:102530007109DC0116964D915C91DA01AE1BBF0B5F
:10254000FD01E21BF30B77FDE8CFAF010E945311B1
:10255000E4CF16964D915C91DA01A61BB70BBD0135
:1025600061507109CDCF0F931F93FA01DC0156968C
:102570004C9156974230A9F0433091F1413019F512
:1025800014964D915C91DA01AE1BBF0BFD013197A2
:10259000F7FD04C0AB01BF010E9453111F910F91C1
:1025A000089514964D915C91DA01A61BB70BBD01FD
:1025B000DC0116964D915C91DA01AE1BBF0BFD015B
:1025C0003197621B730BF7FDE9CFDC0116964D9135
:1025D0005C91E417F50714F7AF010E940212DECFF9
:1025E00016964D915C91DA01A61BB70BBD01621BDB
:1025F000730BCECFFC0177FD64C080859185681791
:1026000079070CF05EC057FD5CC082859385481742
:1026100059070CF056C086898230B1F0833029F119
:10262000813041F484819581841B950BAB01BC0101
:10263000615071092130310509F108F443C022309D
:10264000310509F463C0089584819581DC01A61BDE
:10265000B70BBD016150710986819781DC01A41B14
:10266000B50BAD0141505109E5CF86819781861B9D
:10267000970BBA01AC0141505109DCCFCA0157FD9B
:102680000796A3E095958795AA95E1F7A481B58172
:102690008A9F90018B9F300D9A9F300D1124620FFD
:1026A000731F078CF0A1E02DE60FF71F4770552729
:1026B00021E030E001C0220F4A95EAF78081822BA9
:1026C00080830895CA0157FD079633E09595879555
:1026D0003A95E1F7A481B5818A9F90018B9F300DD7
:1026E0009A9F300D1124620F731F078CF0A1E02D0B
:1026F000E60FF71F4770552781E090E001C0880F73
:102700004A95EAF7809590818923DACFCA0157FD6F
:10271000079623E0959587952A95E1F7A481B581E1
:102720008A9F90018B9F300D9A9F300D1124620F6C
:10273000731F078CF0A1E02DE60FF71F4770552798
:1027400021E030E001C0220F4A95EAF7808182271C
:10275000B7CF08958EBD00000DB407FEFDCF8EB536
:1027600008958CBD9DBD08950895FC016370668B2E
:102770008481958126813781613039F0633029F079
:1027800091878087338722870895318720879387B1
:10279000828708952F923F924F925F926F927F921D
:1027A0008F929F92AF92BF92CF92DF92EF92FF9261
:1027B0000F931F93CF93DF93CDB7DEB76A970FB612
:1027C000F894DEBF0FBECDBF9A8F898F7A8369835D
:1027D0004A01D22E18870F833701BC2CDC01599691
:1027E0002D913C915A972115310509F015C1189684
:1027F0008D919C911997681779070CF0D7C11A969B
:102800008D919C91481759070CF0D0C14C2C512C3C
:10281000B6E0CB9E600D711D11247C876B87161668
:1028200017060CF0C3C1EA2DF0E0FA87E98793E0C0
:10283000EE0FFF1F9A95E1F7F88BEF87CF01840F1A
:10284000951F181619060CF0B1C1A98DBA8D5896AE
:102850008C91811104C0BFEABD1508F4D394A98DF1
:10286000BA8DED91FC9111970284F385E02DCD0195
:102870000995B5E0DB9EC0011124E981FA81FC8352
:10288000EB83312C212C9C012E54314F388F2F8B10
:102890004A2D50E05E8B4D8BEF89F88DE20DF31DD4
:1028A00044919E828D82D12CC12C69817A81620DE6
:1028B000731D7A8B698B842F90E09C8B8B8BE98DB9
:1028C000FA8DA081B18140FF82C0F1E0BF126FC0DC
:1028D000AF126DC01C96ED91FC912F813885A4013B
:1028E0004C0D5D1D69897A89898D9A8D0995EB89D1
:1028F000FC89F595E7954E2F5FEFC51AD50A6D81D6
:102900007E818D899E89680F791F7E836D8398E013
:10291000C916D10481F6AFEF2A1A3A0AEB81FC817D
:10292000E40DF51DFC83EB83F5E02F16310409F06F
:10293000B3CF2F81388526153705B9F0A98DBA8D0B
:10294000ED91FC91B1E0BB1257C0AB1255C069814B
:102950007A816B5F7F4F0088F189E02D830128E049
:1029600030E0A401898D9A8D0995A98DBA8DED91DC
:10297000FC9111970688F789E02DCD016A960FB674
:10298000F894DEBF0FBECDBFDF91CF911F910F91A5
:10299000FF90EF90DF90CF90BF90AF909F908F907F
:1029A0007F906F905F904F903F902F9009941E966C
:1029B000ED91FC91EF80F88409851A8592014D8193
:1029C0005E816B817C81898D9A8D099590CF2F8155
:1029D00038852615370509F48ACF31E0B31207C0D0
:1029E000A31205C01C96ED91FC91930178CF1E9621
:1029F000ED91FC917301E0CF6B857C8564197509BD
:102A00000684F785E02D73010F8518899201A401D2
:102A1000898D9A8D0995A9CFF901349694913297B1
:102A200045915491D91AB7E0DB9E400D511D1124F8
:102A3000F901259134913C8B2B8BFA012590349030
:102A4000FA013296749031963491398B32966490B3
:102A50003196449041E04C1518F04A1508F07FC0BB
:102A6000662D062C000C770B7C836B83842D042C45
:102A7000000C990B9E838D83A98DBA8DED91FC91ED
:102A800011970284F385E02DCD010995512CD12CAD
:102A9000C12CEA2DF0E0FA87E9872B2D30E03C8746
:102AA0002B87A401440D511D47FC5A95588F4F8B1D
:102AB00069817A81660D711D67FC7A957E876D87C5
:102AC0007989C71608F051CF2C2D30E04D815E81F9
:102AD000420F531FA985BA854A9FC0014B9F900D95
:102AE0005A9F900D1124FC01E80DF91DF88BEF871A
:102AF000852D612C4F89588D420F531F5E8B4D8B56
:102B0000671408F050C044244394480E877041F481
:102B1000C1010196EB89FC89E20DF31DD4901C01E3
:102B2000D7FE19C0A98DBA8DED91FC91662D70E08C
:102B3000B1E0BB1219C0AB1217C02D853E85620FE4
:102B4000731F0484F585E02D2F8138854D895E89BA
:102B5000898D9A8D0995DD0C6394842DD1CF1E82C9
:102B60001D821C821B8288CF4B815C81640F751F84
:102B7000AB85BC856A9FC0016B9F900D7A9F900DBD
:102B8000112469817A81680F791F0684F785E02D09
:102B9000EF80F88409851A859D014F855889898DB4
:102BA0009A8D0995D8CF570CC3948ACF6A960FB6E1
:102BB000F894DEBF0FBECDBFDF91CF911F910F9173
:102BC000FF90EF90DF90CF90BF90AF909F908F904D
:102BD0007F906F905F904F903F902F9008958F92CD
:102BE0009F92AF92CF92EF92FF920F931F93CF934A
:102BF000DF93EC01262F898D9A8D009709F051C043
:102C00006A30D1F41D861C868D8948E0849F90012E
:102C100011248E859F85820F931F9F878E8781E069
:102C200090E0DF91CF911F910F91FF90EF90CF90A7
:102C3000AF909F908F9008956D3089F3CC88AD88C8
:102C40008F898823C1F08C859D8536E0C39E800DD9
:102C5000911D1124488559854817590764F44E85FC
:102C60005F851D861C8638E0A39EC0011124840F59
:102C7000951F9F878E87EA88FB88088919894E856A
:102C80005F856C857D85CE010E94CA132C898C8559
:102C90009D8546E0249F800D911D11249D878C8782
:102CA000BECF6A3069F41D861C86FC013896E4911B
:102CB0002D898E859F85E29F800D911D1124ADCFBA
:102CC0006D3009F4ACCFFC0134963491631708F4ED
:102CD000A6CF3296E491E61708F4A1CFFC01329614
:102CE00085909490462F431B342F47E0349F800CEF
:102CF000911C1124F401329634913196E4913323DE
:102D0000A9F1EE2399F1CC88F4013596E491AD88D0
:102D10004F89442301F10E2E000CFF0BE30FF11D30
:102D2000CE9EA001CF9E500D11246C857D85460F4F
:102D3000571F68857985641775076CF44E855F8524
:102D40001D861C86FC013896E491AE9E400D511DF7
:102D500011245F874E87EA88FB88088919894E8588
:102D60005F856C857D85CE010E94CA13F40134967F
:102D7000E4912C898C859D85E29F800D911D112405
:102D80008DCF6F927F928F929F92AF92BF92CF9290
:102D9000DF92EF92FF920F931F93CF93DF93EC019B
:102DA0006B015A0139014801E881F9810284F385F8
:102DB000E02D0995E881F9810288F389E02D8701EA
:102DC0009301A501B601CE010995A501480D591D34
:102DD00041505109E881F9810288F389E02D93017E
:102DE000B601CE010995E881F9810088F189E02DCD
:102DF0009401A501B601CE010995C60CD71CB601F8
:102E000061507109E881F9810088F189E02D940110
:102E1000A501CE010995E881F9810688F789E02DA1
:102E2000CE01DF91CF911F910F91FF90EF90DF9036
:102E3000CF90BF90AF909F908F907F906F900994AC
:102E40006F927F928F929F92AF92BF92CF92DF92BA
:102E5000EF92FF920F931F93CF93DF935C01EB01EF
:102E60006A01490138018701DC01ED91FC9162178B
:102E7000730719F5641675062CF0962D872D3A0107
:102E8000C92ED82E9601261937092F5F3F4F048C83
:102E9000F58DE02DA301BE01C5010995DF91CF910C
:102EA0001F910F91FF90EF90DF90CF90BF90AF9068
:102EB0009F908F907F906F9008954615570591F4DD
:102EC0002617370724F0892D4B01C22FD82F9E01DA
:102ED000281939092F5F3F4F068CF78DE02DA60189
:102EE000B401DACF0284F385E02D0995D501ED9187
:102EF000FC910488F589E02D83019401A601BE01AF
:102F0000C5010995D501ED91FC910688F789E02D61
:102F1000C501DF91CF911F910F91FF90EF90DF904E
:102F2000CF90BF90AF909F908F907F906F900994BB
:102F3000EF92FF920F931F93DC011A960D911C9153
:102F40001B9718962D913C911997ED91FC9100A03B
:102F5000F1A1E02D7B0150E040E070E060E00995D8
:102F60001F910F91FF90EF9008954F925F926F9293
:102F70007F928F929F92AF92BF92CF92DF92EF9209
:102F8000FF920F931F93CF93DF936C012B015A0194
:102F900039014801DC01ED91FC910284F385E02DBB
:102FA0000995E201640C751CD601ED91FC91C615E2
:102FB000D7055CF40088F189E02D87019401A50113
:102FC000BE01C60109952196EFCF0688F789E02D4D
:102FD000C601DF91CF911F910F91FF90EF90DF908D
:102FE000CF90BF90AF909F908F907F906F905F90A9
:102FF0004F9009948F929F92AF92BF92CF92DF929F
:10300000EF92FF920F931F93CF93DF93EC015B013D
:103010004A016901E881F9810284F385E02D09956F
:1030200095012C0D3D1D21503109E881F98104885D
:10303000F589E02D78018401A401B501CE0109953F
:10304000E881F9810688F789E02DCE01DF91CF91E3
:103050001F910F91FF90EF90DF90CF90BF90AF90B6
:103060009F908F9009948F929F92AF92BF92CF9230
:10307000DF92EF92FF920F931F93CF93DF93EC01B8
:103080005B014A0169017801E881F9810284F385D5
:10309000E02D0995C80CD91C860101501109E88161
:1030A000F9810488F589E02D9501A401B501CE01CF
:1030B0000995E881F9810688F789E02DCE01DF9135
:1030C000CF911F910F91FF90EF90DF90CF90BF9025
:1030D000AF909F908F900994EF92FF920F931F9360
:1030E000DC01ED91FC9100A0F1A1E02D09951F916B
:1030F0000F91FF90EF9008950F931F93DC01ED91D6
:10310000FC91068CF78DE02D09951F910F91089584
:103110000F931F93DC01ED91FC91048CF58DE02D54
:1031200009951F910F910895DC01ED91FC910084A8
:10313000F185E02D09943F924F925F926F927F92BA
:103140008F929F92AF92BF92CF92DF92EF92FF92B7
:103150000F931F93CF93DF9300D000D0CDB7DEB78E
:103160003C016B014A015901290187E0480E511CBD
:1031700093E0559447949A95E1F7CB01800F911F06
:103180009A83898310E000E0312C1C821B828B81A2
:103190009C8187709927330C892B61F4EB81FC812A
:1031A00083E0F595E7958A95E1F7E00FF11FE80DCB
:1031B000F91D349037FE0AC09701A6016B817C810E
:1031C000660D771D8BE294E00E9494188B819C81A0
:1031D00001969C838B83A816B906C9F69FEFC91A7E
:1031E000D90A040D151D89819A81C816D90669F678
:1031F0000F900F900F900F90DF91CF911F910F9133
:10320000FF90EF90DF90CF90BF90AF909F908F9006
:103210007F906F905F904F903F900895EF92FF9254
:103220000F931F932091F2033091F303EE24E39464
:10323000F12C08E210E0283131059CF02DE230E05D
:1032400043E057E1019711F043E156E164E170E09A
:103250008EE190E00E949B181F910F91FF90EF90DC
:1032600008952DE230E043E354E1019779F343E21E
:1032700055E1ECCF2F923F924F925F926F927F92E7
:103280008F929F92AF92BF92CF92DF92EF92FF9276
:103290000F931F93CF93DF937C016B01EA0181E0D1
:1032A00090E05C01A41AB50A66247724641A750AB2
:1032B000660C771C10E000E088248394912C822F08
:1032C0008470582E822F8270482E822F8870382E5C
:1032D0002170222E0C171D070CF079C0B7FC06C018
:1032E000219782E0680E711CA60CB71C0F5F1F4F60
:1032F00082E0880E911CA80CB91C5520C1F021E079
:1033000030E0AE014C0D5D1DB701600F711F8BE207
:1033100094E00E94941821E030E0A601400F511F74
:10332000BE016E0D7F1D8BE294E00E949418442034
:10333000C1F021E030E0A6014C1B5D0BB701600F2E
:10334000711F8BE294E00E94941821E030E0A60106
:10335000401B510BBE016E0D7F1D8BE294E00E945D
:1033600094183320C1F021E030E0A601400F511F36
:10337000B7016C1B7D0B8BE294E00E94941821E056
:1033800030E0AE014C0D5D1DB701601B710B8BE28F
:1033900094E00E949418222009F49CCF21E030E0B0
:1033A000A601401B510BB7016C1B7D0B8BE294E017
:1033B0000E94941821E030E0A6014C1B5D0BB70180
:1033C000601B710B8BE294E00E94941883CFDF9115
:1033D000CF911F910F91FF90EF90DF90CF90BF9012
:1033E000AF909F908F907F906F905F904F903F90A5
:1033F0002F9008952F923F924F925F926F927F92FB
:103400008F929F92AF92BF92CF92DF92EF92FF92F4
:103410000F931F93CF93DF9300D000D0CDB7DEB7CB
:103420001C013B012A0169011C830B8342175307CE
:1034300044F0C901959587958017910714F49C83F2
:103440008B83AB80BC80AA0CBB1C42018A189B08F2
:10345000EB80FC80E20CF31C01E010E09401A3017E
:10346000B7018BE294E00E947C189601260D371D6F
:103470003A832983A901415051099401B7018BE294
:1034800094E00E947C18CA18DB088B819C81680E2E
:10349000791E9601A301B1018BE294E00E94881885
:1034A000420C531CB201615071099601A3018BE2D9
:1034B00094E00E94881821E04B815C81B301C70130
:1034C0000E943A192B813C81421A530A31E0431A77
:1034D000510822E04B815C81B301C2010E943A197C
:1034E000C980DA808B819C81C81AD90A91E0C91AF7
:1034F000D10824E04B815C81B601C2010E943A19D7
:1035000028E04B815C81B601C7010F900F900F90AE
:103510000F90DF91CF911F910F91FF90EF90DF906F
:10352000CF90BF90AF909F908F907F906F905F9063
:103530004F903F902F900C943A192F923F924F92B8
:103540005F926F927F928F929F92AF92BF92CF9233
:10355000DF92EF92FF920F931F93CF93DF9300D0F0
:1035600000D000D0CDB7DEB73C016A013E832D8389
:10357000FC82EB825801A41AB50AB7FE03C0B194CD
:10358000A194B1088D809E80861A970A97FE03C089
:103590009194819491088A149B045CF0902F812F60
:1035A0000D811E819D838E839C2D8D2D6B01692F36
:1035B000782F0C151D055CF09D818E817E836D83B7
:1035C000692F782F902F812F8601C92ED82E1601B2
:1035D000201A310A2B012D813E81421A530A57FECF
:1035E00003C0519441945108710137FE03C03FEF6D
:1035F000E31AF30AF594E7948D819E818617970765
:103600005CF5A1E0B0E0BA83A983C016D1064CF105
:10361000D301ED91FC910484F585E02D2B813C8153
:10362000A8016D817E818A149B041CF04D815E810E
:10363000B801C3010995E418F508F7FE0AC02D8109
:103640003E8189819A81280F391F3E832D83E20CA8
:10365000F31C0F5F1F4FD9CF2FEF3FEF3A83298322
:10366000D4CF26960FB6F894DEBF0FBECDBFDF9144
:10367000CF911F910F91FF90EF90DF90CF90BF906F
:10368000AF909F908F907F906F905F904F903F9002
:103690002F90089508952091D402260F3327331FC9
:1036A00021323105ECF42091F802FC0190E080E039
:1036B000243069F082E00895A091D4022191AC01F8
:1036C0004C545D4FA40FB52FB11D2C930196861756
:1036D00098F38091D402680F6093D40280E008953B
:1036E00081E008951092F80281E08093FA0210922E
:1036F000F90261E082E10E94790C61E083E10E94BD
:10370000790CE9EBF0E080818E7F808380818D7F72
:10371000808388E48093B80085E48093BC0008959A
:10372000CF93DF9391E09093B3028823B9F0C091D7
:10373000B800D091BA008091BC008A7B8093BC0015
:1037400060E082E10E94790C60E083E10E94790CE4
:103750000E94721BD093BA00C093B800DF91CF9142
:103760000895E091240380912303E81730F4F0E0FA
:10377000E257FD4F808190E008958FEF9FEF08950D
:1037800090912403809123032FEF3FEF981748F483
:10379000E92FF0E0E257FD4F208130E09F5F9093EA
:1037A0002403C90108958091230390912403891B68
:1037B000990B0895CF92DF92EF92FF920F931F9390
:1037C000CF93DF937C01CB018A0120914B0322230D
:1037D00089F0EB016B01C40ED51ECC15DD0569F037
:1037E0006991D701ED91FC910190F081E02DC70125
:1037F0000995F3CF642F0E944B1BC801DF91CF9135
:103800001F910F91FF90EF90DF90CF900895CF938D
:10381000DF931F92CDB7DEB7698320914B0322233C
:10382000F9F020914803203258F021E030E0FC010B
:103830003383228390E080E00F90DF91CF91089551
:1038400080914903E82FF0E0E259FD4F9981908380
:103850008F5F809349038093480381E090E0ECCF31
:1038600061E0CE0101960E944B1BF7CFCF92DF9211
:10387000EF92FF920F931F93CF93DF93D091480362
:1038800081E0D13208F09CC0C0914A030E94D80C5C
:103890006B017C018091F80281116CC082E0809301
:1038A000F80281E08093FA028FEF8093F702109282
:1038B0001C03D0931B03AEE6B2E0EBEFF2E080E036
:1038C000D8138DC010921D0380911D03CC0FC82BFF
:1038D000C0931D038091F902813009F084C01092D9
:1038E000F9020E94D80C6B017C0180911D0380932A
:1038F000BB008091AF029091B002A091B102B09153
:10390000B202892B8A2B8B2BA1F00E94D80C00913C
:10391000AF021091B0022091B1023091B2026C1945
:103920007D098E099F09061717072807390708F42C
:1039300042C08091BC0083FDD8CF85EC8093BC0051
:103940000E94D80C6B017C018091F802823009F44E
:103950004CC08091F7028F3F09F469C08091F70253
:10396000803209F466C08091F702803309F463C0A5
:1039700084E026C08091AF029091B002A091B10284
:10398000B091B202892B8A2B8B2B09F483CF0E9432
:10399000D80C0091AF021091B0022091B102309189
:1039A000B2026C197D098E099F09061717072807AF
:1039B000390708F06FCF8091AE020E94901B85E01E
:1039C000109249031092480310924B03DF91CF915C
:1039D0001F910F91FF90EF90DF90CF9008959D91F0
:1039E00091938F5F6DCF85EEA9CF8091AF029091BB
:1039F000B002A091B102B091B202892B8A2B8B2B1D
:103A000009F4A2CF0E94D80C0091AF021091B0022D
:103A10002091B1023091B2026C197D098E099F0983
:103A2000061717072807390708F08ECFC4CF80E0A4
:103A3000C7CF82E0C5CF83E0C3CFEF92FF920F9351
:103A40001F93CF93DF937C01C62F80914804909100
:103A50004904009709F459C020914C0431E0309397
:103A60004B0320934A031092490310924803DC0150
:103A7000ED91FC910190F081E02D60E009958701C6
:103A8000EE24E394F12CD1E0C15080914804909150
:103A90004904CF3F91F1B0E2EB16F104D8F00E9457
:103AA000361C809148049091490420914C04D09395
:103AB0004B0320934A031092490310924803DC0100
:103AC000ED91FC910190F081E02D60E00995EE24EC
:103AD000E394F12C8091480490914904F801649199
:103AE000DC01ED91FC910190F081E02D0995BFEF93
:103AF000EB1AFB0A0F5F1F4FC7CFDF91CF911F91CA
:103B00000F91FF90EF900C94361CE0915804F091C7
:103B10005904908180915E04809589238083870178
:103B2000C15008F438C0F8018491209146043091C6
:103B30004704232B29F00E94AA130F5F1F4FF0CFD9
:103B400028E030E040E8E0915404F0915504909171
:103B50005C04582F5423D9F05081952B9083E09129
:103B60005604F0915704908150915D04952B9083F9
:103B7000E0915604F0915704508190915D04909526
:103B800095239083469521503109E9F6D6CF50818F
:103B900090959523E3CFDF91CF911F910F91FF90E7
:103BA000EF9008951F93CF93DF93EC018D8D9E8D41
:103BB000009721F1162F29A131E030934B03209378
:103BC0004A031092490310924803DC01ED91FC91E5
:103BD0000190F081E02D60E009958D8D9E8DDC01D6
:103BE000ED91FC910190F081E02D612F09958D8D73
:103BF0009E8DDF91CF911F910C94361CADA5BEA573
:103C00009C918BA9809589238C938B8D9C8D892B7E
:103C100031F0862FDF91CF911F910C94AA1328E0E9
:103C200030E080E8A9A5BAA599A9462F4823C1F09C
:103C30004C91942B9C93ABA5BCA59C914AA9942B29
:103C40009C93ABA5BCA54C919AA9909594239C9369
:103C500086952150310931F7DF91CF911F91089559
:103C60004C9190959423E6CFDF92EF92FF920F93C1
:103C70001F93CF93DF938091480490914904892B3F
:103C800009F4A5C020916004309161044091620460
:103C90005091630460E074E284EF90E00E94253468
:103CA0002051310941095109569547953795279576
:103CB0002093B80064E08FE294E10E941D1D809182
:103CC0002F04909130048034910509F097C060E290
:103CD0008BE294E00E94D21D60912F04615E8BE222
:103CE00094E00E94D21D2091310430913204C90128
:103CF000079697FD079633E0959587953A95E1F7F6
:103D000020912F0430913004829F8001839F100DF9
:103D1000929F100D1124C0914A04D0914B048091C0
:103D20004804909149040C0F1D1F009709F498C096
:103D300020914C0431E030934B0320934A031092BE
:103D4000490310924803DC01ED91FC910190F08150
:103D5000E02D60E40995EE24E394F12CDD24D39466
:103D600080914804909149040C171D0709F44FC035
:103D7000B0E2EB16F104D8F00E94361C80914804A2
:103D80009091490420914C04D0924B0320934A0314
:103D90001092490310924803DC01ED91FC910190CF
:103DA000F081E02D60E40995EE24E394F12C8091FC
:103DB0004804909149046991DC01ED91FC910190D6
:103DC000F081E02D0995BFEFEB1AFB0AC9CF809176
:103DD000460490914704892B31F0809169049091B9
:103DE0006A040E94B113E0915A04F0915B0490813F
:103DF00080915F048095892380835CCF60E08BE2B3
:103E000094E00E94D21D60912F04615068CF0E94FF
:103E1000361C8091480490914904892B09F461C0B3
:103E200020916404309165044091660450916704C8
:103E300060E074E284EF90E00E9425342051310963
:103E40004109510956954795379527952093B80014
:103E5000DF91CF911F910F91FF90EF90DF90089528
:103E6000E0915804F0915904808190915E04892B6F
:103E700080830C171D0769F28991209146043091C7
:103E80004704232B19F00E94AA13F3CF28E030E057
:103E900040E8E0915404F091550490915C04582F4F
:103EA0005423D9F05081952B9083E0915604F091E2
:103EB0005704908150915D04952B9083E0915604B6
:103EC000F0915704508190915D04909595239083D3
:103ED000469521503109E9F6CCCF50819095952334
:103EE000E3CFE0915A04F0915B04808190915F04EC
:103EF000892B8083ADCF1F93CF93DF93EC01162FD7
:103F00008D8D9E8D892BB1F12DA93EA94FA958AD5C
:103F100060E074E284EF90E00E9425342051310982
:103F20004109510956954795379527952093B80033
:103F300066EA111167EACE010E94D21D8D8D9E8D19
:103F4000892B41F129AD3AAD4BAD5CAD60E074E237
:103F500084EF90E00E942534205131094109510934
:103F600056954795379527952093B800DF91CF91C7
:103F70001F9108958B8D9C8D892B21F08EAD9FAD67
:103F80000E94B113EFA5F8A990818CA9809589238F
:103F90008083CECFEFA5F8A980819CA9892B80834F
:103FA000E5CF90E080E00895EF92FF920F931F938A
:103FB0008091270390912803C2970CF4B8C005E0C4
:103FC00010E020E330E042E350E060E170E090E098
:103FD00080E00E94FA19F12CE12C0EE210E020E2C0
:103FE00030E042E150E06AE070E08BE294E00E9451
:103FF000B517E091F603F091F703EE0FFF1FE556BA
:10400000FE4F4081518160917C0170917D016E5E17
:104010007F4FEE24E394F12C20E230E08AE090E040
:104020000E949B18F12CE12C20E230E04AEF5DE089
:1040300062E170E08AE090E00E949B18EE24E39435
:10404000F12C20E230E042E45DE062E170E08AE0E1
:1040500090E00E949B1860917C0170917D016E5EE2
:104060007F4FF12CE12C20E230E04AE85CE08AE06E
:1040700090E00E949B1860917C0170917D016E5EC2
:104080007F4FEE24E394F12C20E230E042ED5BE040
:104090008AE090E00E949B188091F2039091F303D4
:1040A00048970CF160917C0170917D016E5E7F4FAD
:1040B000F12CE12C20E230E04AE15BE08AE090E084
:1040C0000E949B1860917C0170917D016E5E7F4F14
:1040D000EE24E394F12C20E230E042E65AE08AE05C
:1040E00090E00E949B1860917C0170917D016E5E52
:1040F0007F4FF12CE12C0EE210E020E230E04AEAA2
:1041000059E08AE090E00E949B180E94341E809142
:104110007C0190917D010196C1F48EEF9FEF909309
:104120007D0180937C0110922803109227038091D7
:1041300027039091280301969093280380932703E7
:104140001F910F91FF90EF9008958FEF9FEFE7CFB2
:10415000EF92FF920F931F93F12CE12C0FE210E0EE
:104160002FE730E041E150E061E070E08BE294E065
:104170000E94B517E0910D04F0910E04EE0FFF1FA1
:10418000EF56FE4F40815181EE24E394F12C0EE274
:1041900010E020E230E061E170E083E090E00E9416
:1041A0009B1805E010E020E330E042E350E060E1DE
:1041B00070E087E290E00E94FA1980910F049091DC
:1041C0001004F12CE12C0EE210E020E230E042E19C
:1041D00050E061E370E0892B09F49DC08BE294E02C
:1041E0000E94B517E0910F04F0911004EE0FFF1F2D
:1041F000EF56FE4F40815181EE24E394F12C20E2F2
:1042000030E062E170E081E390E00E949B18F12CC5
:10421000E12C20E230E04AEF5DE062E170E081E312
:1042200090E00E949B18EE24E394F12C20E230E011
:1042300042E45DE062E170E081E390E00E949B185F
:10424000F12CE12C20E230E04AE85CE062E170E031
:1042500081E390E00E949B18EE24E394F12C20E28D
:1042600030E042ED5BE062E170E081E390E00E94CB
:104270009B188091F2039091F30348970CF16091A1
:104280007C0170917D016E5E7F4FF12CE12C20E26C
:1042900030E04AE15BE08AE090E00E949B18609188
:1042A0007C0170917D016E5E7F4FEE24E394F12CD2
:1042B00020E230E042E65AE08AE090E00E949B185B
:1042C000F12CE12C0EE210E020E230E04AEA59E065
:1042D00062E170E081E390E00E949B18E09111049C
:1042E000F0911204EE0FFF1FEF56FE4F40815181F7
:1042F000EE24E394F12C0EE210E020E230E061E1E4
:1043000070E08DE590E00E949B181F910F91FF9047
:10431000EF900C94341E8BE294E00E94B517E0916C
:104320000F04F0911004EE0FFF1FEF56FE4F408177
:104330005181EE24E394F12C20E230E0C9CFFC015E
:1043400046815781208531858285938541155105A8
:1043500061F4019793878287215031093187208743
:104360008481958197838683089541505109211551
:10437000310551F4019793878287848195819187D4
:10438000808757834683089521503109009739F477
:10439000848195819387828731872087F2CF019727
:1043A000F9CFFC0142855385648175812085318573
:1043B000868197814617570751F4138612862F5F1F
:1043C0003F4F3187208701969783868308954F5FFB
:1043D0005F4F6217730729F453874287118610864F
:1043E000F2CF2F5F3F4F538742873187208768176F
:1043F000790749F717821682089520913104309188
:104400003204C901079697FD079623E09595879595
:104410002A95E1F720912F0430913004829FA0016A
:10442000839F500D929F500D112470E060E08091A9
:104430004A0490914B040C9495370E949037FB01ED
:1044400001900020E9F73197AF01461B570BDC01C3
:10445000ED91FC910280F381E02D09948F929F925F
:10446000AF92BF92EF92FF920F931F93CF93DF9380
:10447000CDB7DEB7A1970FB6F894DEBF0FBECDBFA4
:104480007C01FA01CB0119A2223008F42AE08E0146
:104490000F5D1F4F822E912CB12CA12CBF01A501C5
:1044A00094010E942534F901CA016A300CF5605D5F
:1044B000D8016E938D01232B242B252B79F790E0C7
:1044C00080E0109721F0BD01C7010E941F22A19634
:1044D0000FB6F894DEBF0FBECDBFDF91CF911F9115
:1044E0000F91FF90EF90BF90AF909F908F900895A5
:1044F000695CDECFCF92DF92EF92FF92CF93DF9392
:104500006C01990FEE08FF08F7FE23C06DE28CE402
:1045100093E00E94E610EC0144275527BA014C199C
:104520005D096E097F092AE08CE493E00E942E2247
:10453000C80FD91F63EF71E08CE493E00E941F2243
:104540008C0F9D1FDF91CF91FF90EF90DF90CF9068
:1045500008952AE0B701A6018CE493E00E942E2280
:10456000EC01E8CF0F931F93CF93DF93EC010E94F0
:104570001F228C0163EF71E0CE010E941F22800F89
:10458000911FDF91CF911F910F91089566EF71E018
:104590008CE493E00E94B22260ED77E080E090E04E
:1045A0000C94FD0C6F927F928F929F92BF92CF924C
:1045B000DF92EF92FF920F931F93CF93DF93F12C33
:1045C000E12C0FE010E02FE730E041E050E061E047
:1045D00070E08BE294E00E94B517CBE2D4E081E07A
:1045E0008C8B8D8B82E090E09D878C8785E0682E98
:1045F000712C7F866E866EEF71E0CE010E94B22232
:1046000001E010E026E030E04BE150E066E070E0D1
:1046100089E090E00E94FA1999EE892E93E0992E94
:10462000F401238134814BE1B42EB29EC001B39ECC
:10463000900D1124029758E1C52ED12CB6010E948D
:1046400011349B01EE24E394F12C04E010E047E0E8
:1046500050E06AE070E0CE010E94B5178BE290E076
:104660009D878C877F866E8660E072E0CE010E9417
:10467000B22201E010E026E030E04BE150E066E0DD
:1046800070E082E390E00E94FA19F4012181328106
:10469000B29EC001B39E900D11240297B6010E94F4
:1046A00011349B0104E010E047E050E063E370E068
:1046B000CE010E94B51785E590E09D878C877F86A7
:1046C0006E8662E072E0CE010E94B22201E010E04C
:1046D00026E030E04BE150E066E070E08CE590E0F1
:1046E0000E94FA19F40125813681B29EC001B39E61
:1046F000900D11240297B6010E9411349B0104E031
:1047000010E047E050E06DE570E0CE010E94B51783
:10471000DF91CF911F910F91FF90EF90DF90CF909D
:10472000BF909F908F907F906F900C94341EBF929B
:10473000CF92DF92EF92FF920F931F93CF93DF936D
:10474000F12CE12C0FE210E02DE430E041E150E0EB
:1047500063E370E08BE294E00E94B5178BE2C82E11
:1047600084E0D82E81E090E0F601918B808B138A53
:10477000128A848B858BC3E1D4E08881998143962A
:104780009587848785E190E0978786878E819F81D2
:1047900024E1B22EB89EB001B99E700D11246C5F59
:1047A0007E4FC6010E94B222EE81FF81EE0FFF1FF5
:1047B000EB57FE4F40815181EE24E394F12C0AE047
:1047C00010E02AE030E064E170E0888199810E9485
:1047D0009B188881998103E010E020E130E049E4F2
:1047E00050E061E270E005970E94FA198881998192
:1047F0004396F6019587848785E290E097878687C0
:1048000088859985B89EB001B99E700D11246C5FA2
:104810007E4FC6010E94B222E885F985EE0FFF1F88
:10482000EB57FE4F408151810AE010E02AE030E072
:1048300064E270E0888199810E949B188881998147
:104840004396F6019587848785E390E0978786876E
:104850008A859B85B89EB001B99E700D11246C5F4E
:104860007E4FC6010E94B222EA85FB85EE0FFF1F34
:10487000EB57FE4F408151812AE030E064E370E065
:10488000888199810E949B18DF91CF911F910F9190
:10489000FF90EF90DF90CF90BF900C94341E85ED89
:1048A0008093BC008091AF029091B002A091B102C0
:1048B000B091B2020796A11DB11D23E0B695A79550
:1048C000979587952A95D1F72091BC0024FD03C0C8
:1048D0001092F80208954091AF025091B002609199
:1048E000B1027091B202452B462B472B69F300971A
:1048F000A105B10541F02AE22A95F1F700C0019720
:10490000A109B109E1CF8091AE020C94901B0C94E7
:1049100003342091EA033091EB03820F931F97FF3A
:104920000AC01092EB031092EA036091EA0381E05F
:1049300090E00C948724893191052CF49093EB033B
:104940008093EA03F2CF88E190E0F8CF2091EC0366
:104950003091ED03820F931F97FF0AC01092ED0371
:104960001092EC036091EC0382E090E00C948724B9
:10497000893191052CF49093ED038093EC03F2CFF1
:1049800088E190E0F8CF2091EE033091EF03820FA1
:10499000931F97FF0AC01092EF031092EE036091ED
:1049A000EE0383E090E00C948724893191052CF488
:1049B0009093EF038093EE03F2CF88E190E0F8CF7D
:1049C0008F929F92AF92BF92CF92DF92EF92FF921F
:1049D0000F931F93CF93DF93EC0161E08BE294E0A0
:1049E0000E947B1F62E370E080E090E00E94FD0C7B
:1049F00060E08BE294E00E947B1FBE018CE493E0B8
:104A00000E94B22264E072E0CE010E949C37892BA2
:104A100039F56091E90381E068276093E90390E04C
:104A200080E00E94872482E090E00E94A62481E03A
:104A300090E00E948924F12CE12C00E310E020E8B2
:104A400030E040E150E070E060E08BE294E00E94F2
:104A5000B51781E090E090932B0380932A03EEC07A
:104A60006AE072E0CE010E949C37892B09F0F4C005
:104A700084E090E00E94A6248EEF9FEF0E9489249C
:104A80008EEF9FEF0E94C324C3E0D0E0F12CE12C15
:104A900000E310E020E830E040E150E070E060E04A
:104AA0008BE294E00E94B517EE24E394F12C2BE105
:104AB00030E048E757E061E170E082E390E00E9477
:104AC0009B180E94341E68EC70E080E090E00E9429
:104AD000FD0CF12CE12C20E830E040E150E070E0EA
:104AE00060E08BE294E00E94B517EE24E394F12C91
:104AF0002BE130E048EB56E061E170E082E390E0CA
:104B00000E949B180E94341E68EC70E080E090E0E8
:104B10000E94FD0CF12CE12C20E830E040E150E057
:104B200070E060E08BE294E00E94B517EE24E3941D
:104B3000F12C2BE130E048EF55E061E170E082E3D9
:104B400090E00E949B180E94341E68EC70E080E0A8
:104B500090E00E94FD0CF12CE12C20E830E040E1D7
:104B600050E070E060E08BE294E00E94B517EE2424
:104B7000E394F12C2BE130E048E355E061E170E093
:104B800082E390E00E949B180E94341E68EC70E063
:104B900080E090E00E94FD0CF12CE12C20E830E058
:104BA00040E150E070E060E08BE294E00E94B517D5
:104BB000EE24E394F12C2BE130E048E754E061E18E
:104BC00070E082E390E00E949B180E94341E68EC23
:104BD00070E080E090E00E94FD0C219709F056CF34
:104BE00064EF71E080E090E00E94FD0C23E0822EF3
:104BF000912C38E0A32EB12CC12CD12C18EBE12E36
:104C00001EE1F12E05E81FE320E030E04AEF54E416
:104C100060E070E08CE594E40E94B30F68EC70E013
:104C200080E090E00E94FD0C64EF71E080E090E095
:104C30000E94FD0C8FE092E00E94E024DF91CF9172
:104C40001F910F91FF90EF90DF90CF90BF90AF90AA
:104C50009F908F900C94D22264E172E0CE010E946A
:104C60009C37892B09F0BAC0F12CE12C00E310E04D
:104C700020E830E040E150E070E060E08BE294E05A
:104C80000E94B51781E080933F04809340040AE0BE
:104C900010E0109338040093370484E190E090937F
:104CA0003A048093390410923C0410923B04C1E012
:104CB000D0E0D0933E04C0933D046AE172E08BE201
:104CC00094E00E941F22D0933E04C0933D04D093F1
:104CD0003C04C0933B046FE172E08BE294E00E94DD
:104CE000B222109338040093370480E290E090934E
:104CF0003A048093390410923C0410923B04D09300
:104D00003E04C0933D046BE272E08BE294E00E94AB
:104D10001F22D0933E04C0933D04D0933C04C09323
:104D20003B046CE672E08BE294E00E941F228091CB
:104D3000F0039091F10368E170E00E9411346B017F
:104D4000072E000CEE08FF0877FF44C06DE28BE2EF
:104D500094E00E94EF1544275527BA014C195D09CC
:104D60006E097F092AE08BE294E00E942E226FE216
:104D700072E08BE294E00E94B2228AE090E090938D
:104D80003804809337048CE290E090933A04809347
:104D9000390410923C0410923B04C1E0D0E0D0935F
:104DA0003E04C0933D0465E372E08BE294E00E9410
:104DB0001F22D0933E04C0933D04D0933C04C09383
:104DC0003B046CE372E08BE294E00E94B22283E049
:104DD00090E041CE2AE0B701A601C5CF63E472E0BE
:104DE000CE010E949C37892B09F0F8C085E090E045
:104DF0000E94C32481E090E00E94A624F12CE12CC3
:104E000000E310E020E830E040E150E070E060E0D6
:104E10008BE294E00E94B51781E090E00E940E19A9
:104E2000EE24E394F12C0FE010E02FE030E044E7B3
:104E300058E063E270E080E590E00E949B180E94D9
:104E4000341E64EF71E080E090E00E94FD0CF12CD4
:104E5000E12C00E310E02BE430E040E150E070E0B2
:104E600060E08BE294E00E94B51782E090E00E943F
:104E70000E190E94341E64EF71E080E090E00E9401
:104E8000FD0C2BE430E040E150E070E060E08BE2AC
:104E900094E00E94B51725E530E040E150E06BE476
:104EA00070E08BE294E00E94B51781E090E00E94F0
:104EB0000E19EE24E394F12C0FE010E02FE030E027
:104EC00046E558E063E270E080E590E00E949B18C0
:104ED0000E94341E64EF71E080E090E00E94FD0CBF
:104EE000F12CE12C00E310E02BE430E040E150E055
:104EF00070E060E08BE294E00E94B51782E090E001
:104F00000E940E190E94341E64EF71E080E090E070
:104F10000E94FD0C20E830E041E150E070E060E0EC
:104F20008BE294E00E94B51725E530E040E150E0C7
:104F30006BE470E08BE294E00E94B51781E090E0B2
:104F40000E940E19EE24E394F12C0FE010E02FE004
:104F500030E048E358E063E270E080E590E00E94D2
:104F60009B180E94341E64EF71E080E090E00E9484
:104F7000FD0CF12CE12C00E310E02BE430E040E1EB
:104F800050E070E060E08BE294E00E94B51782E0B0
:104F900090E00E940E190E94341E64EF71E080E0E0
:104FA00090E00E94FD0C20E830E041E150E070E02C
:104FB00060E08BE294E00E94B51725E530E040E127
:104FC00050E06BE470E08BE294E00E94B51781E062
:104FD00090E00E940E190E94341E02CE67E472E037
:104FE000CE010E949C37892B09F063C01092F30315
:104FF0001092F20360E085E090E00E9487248091A7
:10500000F2039091F303489724F08AE090E00E9425
:10501000A624C3E0D0E0F12CE12C00E310E020E86E
:1050200030E040E150E070E060E08BE294E00E940C
:10503000B517EE24E394F12C0CE110E025E230E00A
:105040004EE159E068E170E08DE290E00E949B182B
:105050000E94341E64EF71E080E090E00E94FD0C3D
:10506000F12CE12C00E310E020E830E040E150E0DA
:1050700070E060E08BE294E00E94B517EE24E394C8
:10508000F12C0CE110E025E230E042E958E068E163
:1050900070E08DE290E00E949B180E94341E64EF45
:1050A00071E080E090E00E94FD0C219709F0B3CF01
:1050B00097CD6BE472E0CE010E949C37892BB9F446
:1050C000F12CE12C00E310E020E830E040E150E07A
:1050D00070E060E08BE294E00E94B51782E090E01F
:1050E0000E94A6240E94A82082E090E0B4CC6FE049
:1050F00072E0CE010E949C37892B09F09FCD82E39C
:1051000090E09093280380932703F12CE12C00E397
:1051100010E020E830E040E150E070E060E08BE239
:1051200094E00E94B5170E9497230E94D41F10920A
:105130002B0310922A0382CD1F920F920FB60F926B
:1051400011242F933F938F939F93AF93BF9380919D
:105150002D0390912E03A0912F03B0913003309135
:105160002C0323E0230F2D3758F50196A11DB11D07
:1051700020932C0380932D0390932E03A0932F0351
:10518000B09330038091310390913203A0913303A7
:10519000B09134030196A11DB11D8093310390930A
:1051A0003203A0933303B0933403BF91AF919F9127
:1051B0008F913F912F910F900FBE0F901F901895D8
:1051C00026E8230F0296A11DB11DD2CF1F920F9288
:1051D0000FB60F9211242F933F934F935F936F93CA
:1051E0007F938F939F93AF93BF93EF93FF93E09140
:1051F0000201F09103010995FF91EF91BF91AF91E9
:105200009F918F917F916F915F914F913F912F91DE
:105210000F900FBE0F901F9018951F920F920FB610
:105220000F9211242F933F934F935F936F937F932C
:105230008F939F93AF93BF93EF93FF93E091000100
:10524000F09101010995FF91EF91BF91AF919F916D
:105250008F917F916F915F914F913F912F910F901F
:105260000FBE0F901F9018951F920F920FB60F92BE
:1052700011242F933F934F935F936F937F938F935B
:105280009F93AF93BF93EF93FF9380913A039091D5
:105290003B03A0913C03B0913D03892B8A2B8B2BC0
:1052A000D1F190913503E0913603F091370380817D
:1052B0008927808380913A0390913B03A0913C031E
:1052C000B0913D03181619061A061B069CF480912E
:1052D0003A0390913B03A0913C03B0913D030197A9
:1052E000A109B10980933A0390933B03A0933C0337
:1052F000B0933D03FF91EF91BF91AF919F918F913B
:105300007F916F915F914F913F912F910F900FBEC1
:105310000F901F90189580917E01EEE2F4E1E491E8
:105320009FEF90937E01E13051F030F0E23069F070
:1053300060E00E94790CDECF10926E00F9CF909160
:105340006F009D7F90936F00F3CF909170009D7FD1
:105350009093700091E09093B0009091B100987F8D
:1053600094609093B1001092B300E2CF1F920F921D
:105370000FB60F9211242F933F934F935F936F9328
:105380007F938F939F93AF93BF93EF93FF938CE49F
:1053900093E00E94C410FF91EF91BF91AF919F9154
:1053A0008F917F916F915F914F913F912F910F90CE
:1053B0000FBE0F901F9018951F920F920FB60F926D
:1053C00011242F938F939F93EF93FF93E0915C03AE
:1053D000F0915D038081E0916203F091630382FDAF
:1053E0001BC09081809165038F5F8F73209166034E
:1053F000821741F0E0916503F0E0E45BFC4F958F8C
:1054000080936503FF91EF919F918F912F910F9062
:105410000FBE0F901F9018958081F4CF1F920F92AE
:105420000FB60F9211242F933F934F935F936F9377
:105430007F938F939F93AF93BF93EF93FF9380914D
:10544000B900887F803609F44AC0F0F5883209F443
:10545000A7C018F5803109F49BC0B8F4882309F47B
:10546000F9C0883009F494C0FF91EF91BF91AF91DA
:105470009F918F917F916F915F914F913F912F916C
:105480000F900FBE0F901F901895883109F488C0B7
:10549000803251F78093F70214C0803409F49DC024
:1054A00040F48033B9F38833F9F68093F70285EC42
:1054B000B0C0803509F485C0883509F496C08834B9
:1054C00099F60E944F24D0CF883909F48CC038F562
:1054D000883729F050F4883611F0803729F683E0B8
:1054E0008093F8021092F60257C0883809F47BC006
:1054F000803919F0803809F0B7CF8091F6028032F8
:1055000008F071C0E091F60281E08E0F8093F60200
:105510008091BB00F0E0EA52FD4F80833DC0803BAC
:1055200039F0E0F4803A09F479C0883A09F09CCF68
:1055300084E08093F8021092D5021092D402E09198
:105540002103F091220309958091D40281110FC0AB
:1055500081E08093D4021092B40209C0803C09F427
:10556000A6CF883C09F4A3CF883B09F07DCFE0911A
:10557000D50281E08E0F8093D502F0E0EC54FD4F10
:1055800080818093BB009091D5028091D40229C084
:1055900080911D038093BB0085EC8093BC0064CF99
:1055A00090911C0380911B03981758F5E0911C0300
:1055B00081E08E0F80931C03F0E0E550FD4F808169
:1055C000E9CFE0911C0381E08E0F80931C03809152
:1055D000BB00F0E0E550FD4F808390911C0380916B
:1055E0001B039817C8F285E8D8CFE0911C0381E02F
:1055F0008E0F80931C038091BB00F0E0E550FD4FBF
:1056000080838091FA0281115CCF81E08093F9025E
:1056100084EA8093BC001092F80226CF85EC809338
:10562000BC001092F8028091F602803230F4E091D2
:10563000F602F0E0EA52FD4F10826091F60270E04F
:10564000E0911F03F091200386ED92E009951092FE
:10565000F6020ACF1092F70234CF1F920F920FB6C4
:105660000F9211241F932F933F934F935F936F9348
:105670007F938F939F93AF93BF93CF93DF93EF93DA
:10568000FF93809125039091260301969093260322
:105690008093250368E672E08CE493E00E941F2269
:1056A00080912503909126030E947A228091250300
:1056B00090912603833C91400CF449C0109226033C
:1056C00010922503C091F003D091F1032196D0935D
:1056D000F103C093F0038AE090E00E94FB338C1743
:1056E00029F06C2F8AE090E00E940334C091F1030E
:1056F0008BE090E00E94FB33C81729F06C2F8BE001
:1057000090E00E9403348091F0039091F1030E9495
:105710007A228FEF9FEF0E94A6248FEF9FEF0E94C7
:10572000C3246091F2037091F3036F5F7F4F709316
:10573000F3036093F20385E090E00E948724809158
:10574000E9038823C1F083E090E00E948924FF915F
:10575000EF91DF91CF91BF91AF919F918F917F9109
:105760006F915F914F913F912F911F910F900FBEBD
:105770000F901F9018958FEF9FEFE7CF0C94FB339E
:105780007F928F929F92AF92BF92CF92DF92EF92D1
:10579000FF920F931F93CF93DF9310924F031092BA
:1057A0004E0388EE93E0A0E0B0E080935003909326
:1057B0005103A0935203B093530327EA31E030938F
:1057C0004D0320934C0325EC30E030935903209394
:1057D000580324EC30E030935B0320935A0320EC11
:1057E00030E030935D0320935C0321EC30E0309394
:1057F0005F0320935E0322EC30E03093610320933B
:10580000600326EC30E03093630320936203109230
:10581000650310926603109267031092680310925A
:105820002204109221048093230490932404A093D3
:105830002504B093260489EB91E090932004809393
:105840001F0410922E0410922D0420E830E03093B3
:10585000300420932F0480E490E0909332048093EE
:1058600031043093340420933304909336048093AE
:1058700035041092410410923804109237041092AB
:105880003A041092390481E08093400480933F04ED
:105890002FEF3FEF30933E0420933D0430933C04C0
:1058A00020933B04809342041092430410924504D9
:1058B000109244048BEC91E090932C0480932B0481
:1058C00010924704109246048FE194E090934904AB
:1058D0008093480410924B0410924A048FEF8093F7
:1058E0004F0480935004809351048093520480931A
:1058F000530480E89AE1A6E0B0E0809360049093BE
:105900006104A0936204B093630480EA96E8A1E086
:10591000B0E08093640490936504A0936604B09310
:10592000670480E58093690410926A0410921A0457
:105930001092190461E070E070931C0460931B04E2
:1059400042E050E050931E0440931D0485E090E037
:1059500090931804809317042AE330E030931404E2
:105960002093130480E290E0909316048093150432
:1059700010920E0410920D047093100460930F04A3
:10598000509312044093110444E050E050930C04EF
:1059900040930B04309308042093070490930A0467
:1059A0008093090490E080E00E94BE2B77247394DA
:1059B000811101C0712C7092060481E090E00E9478
:1059C000BE2BA82EB12CB0920504A092040482E054
:1059D00090E00E94BE2BC82ED12CD0920304C0921E
:1059E000020483E090E00E94BE2BE82EF12CF0929E
:1059F0000104E09200048AE090E00E94FB3380936F
:105A0000FE038BE090E00E94FB338093FF038090C5
:105A1000FE039090FF039092FD038092FC0385E0CB
:105A200090E00E94BE2B082F10E01093FB03009320
:105A3000FA0386E090E00E94BE2BC82FD0E0D093FE
:105A4000F903C093F80387E090E00E94BE2B7092A8
:105A5000E903B092EB03A092EA03D092ED03C09267
:105A6000EC03F092EF03E092EE039092F103809248
:105A7000F0031093F3030093F203D093F503C09364
:105A8000F40390E09093F7038093F603DF91CF91B6
:105A90001F910F91FF90EF90DF90CF90BF90AF904C
:105AA0009F908F907F900895789484B5826084BD94
:105AB00084B5816084BD85B5826085BD85B5816012
:105AC00085BD80916E00816080936E001092810090
:105AD000809181008260809381008091810081604B
