:100000000C942C0A0C94540A0C94540A0C94540A20
:100010000C94540A0C94540A0C94540A0C94F21C38
:100020000C94540A0C94540A0C94540A0C94540AD8
:100030000C94540A0C94540A0C94540A0C94540AC8
:100040000C94A81C0C94540A0C94540A0C94540A52
:100050000C94540A0C94540A0C94540A0C94540AA8
:100060000C944E1D0C94540A00000000003E5B4F9F
:100070005B3E3E6B4F6B3E1C3E7C3E1C183C7E3C08
:10008000181C577D571C1C5E7F5E1C00183C180016
:10009000FFE7C3E7FF0018241800FFE7DBE7FF30A6
:1000A000483A060E2629792926407F050507407F14
:1000B00005253F5A3CE73C5A7F3E1C1C08081C1C87
:1000C0003E7F14227F22145F5F005F5F06097F017D
:1000D0007F006689956A606060606094A2FFA29468
:1000E00008047E040810207E201008082A1C080836
:1000F0001C2A08081E101010100C1E0C1E0C303884
:100100003E3830060E3E0E06000000000000005F84
:1001100000000007000700147F147F14242A7F2AA0
:100120001223130864623649562050000807030062
:10013000001C2241000041221C002A1C7F1C2A08AE
:10014000083E080800807030000808080808000011
:1001500060600020100804023E5149453E00427F85
:10016000400072494949462141494D331814127FD4
:100170001027454545393C4A494931412111090774
:100180003649494936464949291E000014000000F5
:1001900040340000000814224114141414140041C7
:1001A00022140802015909063E415D594E7C121184
:1001B000127C7F494949363E414141227F414141BC
:1001C0003E7F494949417F090909013E4141517337
:1001D0007F0808087F00417F41002040413F017FA8
:1001E000081422417F404040407F021C027F7F0470
:1001F00008107F3E4141413E7F090909063E4151B9
:10020000215E7F09192946264949493203017F01A8
:10021000033F4040403F1F2040201F3F4038403FA9
:10022000631408146303047804036159494D4300BF
:100230007F4141410204081020004141417F0402F6
:10024000010204404040404000030708002054548D
:1002500078407F284444383844444428384444286B
:100260007F385454541800087E090218A4A49C78BE
:100270007F0804047800447D40002040403D007F1A
:100280001028440000417F40007C047804787C08FA
:100290000404783844444438FC18242418182424CE
:1002A00018FC7C08040408485454542404043F44B3
:1002B000243C4040207C1C2040201C3C4030403CE2
:1002C00044281028444C9090907C4464544C440042
:1002D00008364100000077000000413608000201A6
:1002E0000204023C2623263C1EA1A161123A404092
:1002F000207A38545455592155557941225454780F
:1003000042215554784020545579400C1E527212A7
:100310003955555559395454545939555454580030
:1003200000457C410002457D420001457C407D1234
:1003300011127DF0282528F07C5455450020545496
:100340007C547C0A097F4932494949323A44444441
:100350003A324A4848303A4141217A3A424020787C
:10036000009DA0A07D3D4242423D3D4040403D3C7D
:1003700024FF2424487E4943662B2FFC2F2BFF09A2
:1003800029F620C0887E0903205454794100004496
:100390007D413048484A32384040227A007A0A0A81
:1003A000727D0D19317D2629292F282629292926F4
:1003B00030484D4020380808080808080808382F39
:1003C00010C8ACBA2F102834FA00007B00000814C3
:1003D0002A142222142A14085500550055AA55AA99
:1003E00055AAFF55FF55FF000000FF00101010FF39
:1003F00000141414FF001010FF00FF1010F010F094
:10040000141414FC001414F700FF0000FF00FF1484
:1004100014F404FC141417101F10101F101F1414D0
:10042000141F00101010F0000000001F101010101A
:100430001F10101010F010000000FF10101010100E
:1004400010101010FF10000000FF140000FF00FF4C
:1004500000001F10170000FC04F4141417101714E8
:1004600014F404F40000FF00F7141414141414140A
:10047000F700F7141414171410101F101F1414147D
:10048000F4141010F010F000001F101F0000001FE7
:1004900014000000FC140000F010F01010FF10FF1A
:1004A000141414FF141010101F00000000F010FFAF
:1004B000FFFFFFFFF0F0F0F0F0FFFFFF0000000093
:1004C00000FFFF0F0F0F0F0F3844443844FC4A4A17
:1004D0004A347E02020606027E027E0263554941CC
:1004E000633844443C04407E201E2006027E020203
:1004F00099A5E7A5991C2A492A1C4C7201724C3017
:100500004A4D4D303048784830BC625A463D3E49ED
:100510004949007E0101017E2A2A2A2A2A44445F91
:10052000444440514A444040444A51400000FF0185
:1005300003E080FF000008086B6B08361236243693
:10054000060F090F060000181800000010100030F8
:1005500040FF0101001F01011E00191D1712003C80
:100560003C3C3C0000000000000103070F1F3F7FE0
:100570000080C0E0F0F8FCFEDB40A4A62EAF200017
:10058000A1C8D300408DAED580A810101010101057
:100590000406014A0188010B0293021003170400AC
:1005A000000000000000000000000000000000004B
:1005B000000000000000000000000000000000003B
:1005C000000000000000000000000000000000002B
:1005D000000000000000000000000000000000001B
:1005E000000000000000000000000000000000000B
:1005F000000000000FFFFC7FFF80000000000000F3
:100600000000007030000280006003C000000000A5
:1006100000001F89C7FFF93FFF180C3F00000000D2
:100620000007E02617FFFC5FFFC41180E000000018
:1006300000740FF0ABFFF82F82F217FE10000000DD
:100640007F89FFF057FE0057017917FFD3FFC01FC6
:100650008022F80001FCFF2E00BD102E1400202087
:100660003FE517E3F8BD015E03790F96297F904AB5
:10067000FFCAAFF4057D012F7FF200564ABFD05567
:10068000FE15DFC404F90157FFE4004F4B67D04368
:10069000FC2BFE080972012FFC08005349F01038AA
:1006A000285E00080AF4015FFF10004D247810074F
:1006B000587800040974012FFF8E0057A31F08010A
:1006C00030B002F40AB4025C2AA1804BA0C3E80255
:1006D000505055F4097402AD855C4397A040E40482
:1006E000A0BFEBE412F4025D70AF241F9F9074056D
:1006F0006E7FFF08156402BD0E5F19E7C0287408FD
:10070000CABFFC7012E8025D012F03FFFF17F40B54
:10071000927E018009C80139008B79FFFF07F40A36
:100720002100FE0004100082006044000071E40813
:10073000C0FF000003E0007C003F83FFFF8C080740
:100740000000000000000000000000000003F000B6
:100750000000000000000000000000000000000099
:100760000000000000000000000000000000000089
:100770000000000000000000000000000000000079
:100780000000000000000000000000000000000069
:100790000000000000000000000000000000000059
:1007A0000000000000000000000000000000000049
:1007B00007FFC7DF9F80FFF81F9FC73F9FC0000054
:1007C00006798FD919001B1819030DB30300000017
:1007D00007DF0E0FCFC013180FC21DBE02000000AE
:1007E000061B8CE0C0C0331800C61FF706000000CF
:1007F0000618CF8F8F8031F00F8618F18600000029
:1008000000000000000000000000000000000000E8
:1008100000000000000000000000000000000000D8
:1008200000000000000000000000000000000000C8
:1008300000000000000000000000000000000000B8
:10084000000000000007FFFFFE00000000000000A5
:10085000000000000008000001000000000000008F
:1008600000000000000BFFFFFD0000000000000082
:10087000000000000009FDFDFD0000000000000078
:10088000000000000008FCFCFD000000000000006B
:10089000000000000008FCFCFD000000000000005B
:1008A000000000000008FCFCFD000000000000004B
:1008B000000000000008FCFCFD000000000000003B
:1008C0000000000000080C0C0D00000000000000FB
:1008D0000000000000080404050000000000000003
:1008E0000000000000080003FD0000000000000000
:1008F000000000000007FFF1FD0000000000000004
:100900000000000000000008FD00000000000000E2
:100910000000000000000008FD00000000000000D2
:100920000000000000000008FD00000000000000C2
:100930000000000000000008FD00000000000000B2
:1009400000000000000000080D0000000000000092
:10095000000000000000000805000000000000008A
:10096000000000000000000801000000000000007E
:100970000000000000000007FE0000000000000072
:100980000000000000000000000000000000000067
:100990000000000000000000000000000000000057
:1009A0000000000101010100000000000000000043
:1009B0000100000001000000010000000100000033
:1009C0000000000101010100000000000000000023
:1009D0000100000001000000010000000100000112
:1009E0000100000101000000000000000000000103
:1009F00001000001010000000000000000000001F3
:100A000001000001010000000000000000000001E2
:100A100001000001010000000000000000000000D3
:100A200001000001010100000000000000000000C2
:100A300001000000010100000100000000000000B2
:100A400000000001010100000100000000000000A2
:100A50000100000101000000010000000000000092
:100A60000101000101000000000000000000000181
:100A70000000000101000000010000000000000073
:100A80000101000101000000000000000000000161
:100A90000000000101000000010000000000000152
:100AA0000100000001010000000000000000000043
:100AB0000100000101000001000000000000000131
:100AC0000100000001010000000000000000000023
:100AD0000100000101000001000000000000000111
:100AE0000000000101010000000000000000000003
:100AF00001010000010000000100000000000000F2
:100B000000000001010100000001000000000000E1
:100B100001000000010000010100000000000000D1
:100B200000010001010100000000000000000000C1
:100B300001000000010000000101000000000000B1
:100B400000000001010100010000000000000001A0
:100B50000100000001000000010000000000000092
:100B60000000000000000000000000000000000085
:100B70000000000000000000000000000000000075
:100B80000000000000000000000000000000000065
:100B90000000000000000000000000000000000055
:100BA0000000000000000000000000000000000045
:100BB0000000000000000003FFFFFFFFFFFFF80040
:100BC000000000000000000400000000000004001D
:100BD000000000000000000800000000000002000B
:100BE000000000000000000800000000000002F704
:100BF000A00000000003EF08000000000000021049
:100C0000A000000000022108000000000000021007
:100C1000A0000000000221084000000000000200C7
:100C20002000000000020008E0000000000002DEDA
:100C3000E00000000003BD89F0060F9FFF000242A4
:100C4000200000000002840BF8061F9C0C000242EA
:100C50002000000000028408E0061C1F08000200BB
:100C60002000000000020008E00679D8180002F712
:100C7000A00000000003EF08E007DF1818000210D2
:100C8000A000000000022108400000000000021047
:100C9000A000000000022108000000000000020087
:100CA000200000000002000800000000000002DE3A
:100CB000E00000000003BD880000000000000242C8
:100CC00020000000000284084000000000000242F2
:100CD0002000000000028408E00000000000020084
:100CE0002000000000020008E07F3E3F737F02F713
:100CF000A00000000003EF08E0770C63630C021013
:100D0000A00000000002210BF87C0C6FFF0C021009
:100D1000A000000000022109F0670C6363180200C4
:100D20002000000000020008E0619F3E631802DE20
:100D3000E00000000003BD88400000000000024207
:100D400020000000000284080000000000000242B1
:100D500020000000000284080000000000000200E3
:100D6000200000000002000800000000000002F760
:100D7000A00000000003EF08E000000000000210E7
:100D8000A000000000022109100000000000021075
:100D9000A00000000002210A08000000000002007C
:100DA000200000000002000A08FE3F7F3BF9F2DE4F
:100DB000E00000000003BD8A08CC630C6C63F242C3
:100DC000200000000002840B18F86308EC43824204
:100DD000200000000002840AE8DC6318FEC33A0029
:100DE000200000000002000A08C63E18C6C3E2F751
:100DF000A00000000003EF09100000000000021036
:100E0000A000000000022108E00000000000021025
:100E1000A000000000022108000000000000020005
:100E2000200000000002000800000000000002DEB8
:100E3000E00000000003BD88000000000000024246
:100E400020000000000284080000000000000242B0
:100E500020000000000284080000000000000200E2
:100E6000200000000002000840010000000002F71E
:100E7000A00000000003EF08E00380F8D9FF021093
:100E8000A000000000022109F00381F8718C02101B
:100E9000A00000000002210BF88381C071880200CD
:100EA0002000000000020008E1CFE19CD99802DE9A
:100EB000E00000000003BD88E087C1F18D98024288
:100EC0002000000000028408E003800000000242CD
:100ED0002000000000028408400100000000020021
:100EE000200000000002000800000000000002F7DF
:100EF000A00000000003EF08000000000000021046
:100F0000A000000000022108000000000000021004
:100F1000A000000000022108000000000000020004
:100F2000200000000002000400000000000004DEB9
:100F3000E00000000003BD83FFFFFFFFFFFFF8425A
:100F400020000000000284000000000000000042B9
:100F5000000000000000840000000000000000000D
:100F60000000000000000000000000000000000081
:100F70000000000000000000000000000000000071
:100F80000000000000FFE01FF80FE000000000007C
:100F900000000000030010200430100000000000DA
:100FA00000001FFE0C7FC84FF247CC3F80000000BE
:100FB0000000200111F7E49BF99FE2407F00000050
:100FC0000001CFFD67C7F4AFDC3FF99F0080000050
:100FD00000061C008F07F294FFFF7C07FE40000014
:100FE0000008E0F83E03FAABBFFE1E0AFF40000017
:100FF00000138FF83FFFF99597FC2B05F3200000B5
:1010000000267EF8FFFFFC2B8FF99606FE100000ED
:10101000004C41E1FFFFFC1587F24B80EFD0000050
:10102000009C03C7F000FC2BA7F424C340D00000B1
:1010300001280F07E7FCFE17B00417E0600C000062
:101040000151FE67C8027CC7AFF817E1D1A20000CA
:10105000012BFC9190013933A00011E477FA0000D4
:101060000097E10C2000820820000C2B3FFA0000C2
:10107000004C0E03C0007C07C000038887120000EC
:10108000002030000000000000000070700400002C
:10109000001F400000003E03FFFFC0000C7800006E
:1010A00000037E00F80041040000201FFC800000C7
:1010B000001C01C304009489FFFF90200040000041
:1010C0000021FC2474012A53FFFFC84FFF200000B9
:1010D000004AFF95F2025767FFFFE897FF90000074
:1010E0000095FFC9B904AB07FFFFE8A7FFC80000E0
:1010F000012A0EE15D09570BF000089F8164000092
:101100000250E570A90AAE15300008B300B4000023
:1011100004AB12F05A095C2AFFFFE4AF017400002F
:10112000055215F03212B915FFFFF49302B4000016
:1011300004B412B05A1572ABBFFFF4AF1D640000C7
:10114000094415F03922E496FFFFC497FEC8000059
:101150000AA8127048CDE8AFF000088CFE1000001D
:10116000094825F03E9FC892E7FC08AFFE2000002A
:1011700004A84EF6763F90ADC8080495F718000015
:1011800005649FE53FFFA09791F2F2A72BC40000F2
:1011900004B33FC8BFFFA0AB9E05F92E05F20000C7
:1011A00002707F90AFFF2097C0FFF806F279000031
:1011B00002FFFF309BFE40AAFFFFF27E88FC80000A
:1011C000023FFE405DFC8095FFFFE51E867E8000AD
:1011D000019FFC804FF9004ADFFE0966813C8000D8
:1011E000004FF10027C20025DE00F13C809900008D
:1011F00000200600139C0013FCFF00810042000049
:10120000001FF800082000080100007E003C0000DC
:101210000000000007C00007FE0000000000000002
:1012200000000000000000000000000000000000BE
:1012300000000000000000000000000000000000AE
:10124000000000000000000000000000000000009E
:10125000000000000000000000000000000000008E
:101260000001FFF1F7E7E03D8FF60FEFC00000004F
:1012700000019E63F64640358F360198C00000009D
:101280000001F7C383F3F0018FE00118C0000000F4
:10129000000186E3383030019B000318C0000000D5
:1012A00000018633E3E3E000F300030F8000000059
:1012B000000000000000000000000000000000002E
:1012C00000000000003F36F8FE00000000000000B3
:1012D00000000000007F1C3018000000000000002B
:1012E0000000000000701C3018000000000000002A
:1012F0000000000000673E303000000000000000E9
:1013000000000000007C667C30000000000000004F
:1013100000000000000000000000000000000000CD
:1013200000000000000000000000000000000000BD
:1013300000000000000000000000000000000000AD
:10134000000000000000000000000000000000009D
:101350000000000000000000000000000000000489
:101360000404080808080808020B0288014A01B8AA
:1013700001EE01B8019F01D2019F0188019302EEA5
:10138000010B024B020B02EE01B801B8010B0293F4
:10139000024B020B02EE01EE010B024B0293020B19
:1013A00002B801B80100004B02BA0270031003BA80
:1013B0000293020B0293024B020B02EE01EE010BB1
:1013C000024B0293020B02B801B8010000040808A6
:1013D00004080804080804080804080804040404AD
:1013E000040404080408080408040808040808049D
:1013F000040404040400000000240027002A000064
:10140000000000230026002900000000080002015F
:10141000000003040700000000000000002200FF9D
:10142000210102040810204080010204081020015C
:10143000020408102000000000250028002B0004F2
:10144000040404040404040202020202020303036B
:10145000030303026D1EC42411241FBECFEFD8E086
:10146000DEBFCDBF11E0A0E0B1E0EEEEF0E502C0DE
:1014700005900D92A235B107D9F723E0A2E5B1E0BE
:1014800001C01D92A23DB207E1F71AE0CBE2DAE01B
:1014900004C02197FE010E940226CA32D107C9F773
:1014A0000E94CE1E0C946A280C940000089583308C
:1014B00081F028F4813099F08230A9F008958730C6
:1014C000A9F08830C9F08430B1F4809180008F7D1C
:1014D00003C0809180008F7780938000089584B549
:1014E0008F7784BD089584B58F7DFBCF8091B00048
:1014F0008F778093B00008958091B0008F7DF9CFF1
:10150000CF93DF93282F30E0F901E75FFB4E849102
:10151000F901EF5DFB4ED491F901E15CFB4EC49102
:10152000CC23A1F081110E94570AEC2FF0E0EE0FBE
:10153000FF1FE150FC4EA591B491EC91ED2381E0A9
:1015400090E009F480E0DF91CF91089580E090E091
:10155000FACF1F93CF93DF93282F30E0F901E75F95
:10156000FB4E8491F901EF5DFB4ED491F901E15CF2
:10157000FB4EC491CC23A9F0162F81110E94570A6B
:10158000EC2FF0E0EE0FFF1FEB5CFB4EA591B4914A
:101590008FB7F894EC91111108C0D095DE23DC933D
:1015A0008FBFDF91CF911F910895DE2BF8CFCF939E
:1015B000DF9390E0FC01EF5DFB4E2491815C9B4E3C
:1015C000FC0184918823D1F090E0880F991FFC01E1
:1015D000EB50FC4EA591B491FC01EB5CFB4EC59128
:1015E000D491623071F49FB7F8943C91822F80952A
:1015F00083238C93E8812E2B28839FBFDF91CF918B
:1016000008958FB7F894EC912E2B2C938FBFF6CFC3
:101610004F925F926F927F928F929F92AF92BF9202
:10162000CF92DF92EF92FF920F931F93CF93DF93AE
:1016300000D000D01F92CDB7DEB78C012A013B014C
:10164000809105018C30C9F08F3F09F47FC00F9065
:101650000F900F900F900F90DF91CF911F910F91EE
:10166000FF90EF90DF90CF90BF90AF909F908F90C2
:101670007F906F905F904F900895E3E5F4E184913F
:101680008D8387FDE4CF61E08CE00E94D70A8D81D5
:10169000882321F09D81923009F05CC14801B12C72
:1016A000A12C60E072E18AE790E0A50198010E9418
:1016B000772529833A834B835C8369017A0181E032
:1016C000C81AD108E108F1089FEFC916D104E10456
:1016D000F10409F00CF413C160E472E48FE090E0CF
:1016E000A50198010E94772569017A0181E0C81A55
:1016F000D108E108F1089D81923009F098C08FEF80
:10170000C816D104E104F10409F00CF4DDC160E96C
:1017100070ED83E090E0A50198010E9477256901B2
:101720007A0191E0C91AD108E108F1088FEFC816D3
:10173000D104E104F10411F00CF0A3C183E0909115
:10174000B100987F892B8093B100E1C08CE0809339
:101750000501E3E5F4E194919D839F3F09F477CF80
:10176000913029F158F0923009F43FC08D8187FD06
:101770006ECF61E08CE00E94D70A8CCF14BC15BC00
:1017800084B5826084BD85B5816085BDEBE4F4E1FC
:10179000E491F0E0EE0FFF1FEB5CFB4E859194911E
:1017A000EDE2F4E1E491E09373031D826CCF1092BB
:1017B0008000109281008091810088608093810078
:1017C00080918100816080938100EBE4F4E1E491F9
:1017D000F0E0EE0FFF1FEB5CFB4E85919491EDE284
:1017E000F4E1E491E09372034ECF1092B0001092B6
:1017F000B1008091B00082608093B0008091B10010
:1018000081608093B100EBE4F4E1E491F0E0EE0F4D
:10181000FF1FEB5CFB4E8591949190937103809335
:101820007003EDE2F4E1E491E0936F032CCF9FEFBE
:10183000C916D104E104F10409F00CF489C068E48C
:1018400078EE81E090E0A50198010E94772569017A
:101850007A0181E0C81AD108E108F1089D81992335
:1018600009F428C19FEFC916D104E104F10409F07D
:101870000CF41EC162E17AE780E090E0A5019401DA
:101880000E94772569017A0181E0C81AD108E10830
:10189000F1089D81992309F4EBC08FEFC816D1049C
:1018A000E104F10411F008F0BFC086E048CF64E223
:1018B00074EF80E090E0A50194010E947725690112
:1018C0007A0181E0C81AD108E108F10885E09FEFAC
:1018D000C916D104E104F10409F008F430CF62E143
:1018E0007AE780E090E0A50194010E9477256901E4
:1018F0007A0191E0C91AD108E108F108CECF81E060
:101900009D8191111CCF95B5987F892B85BD2FEFB7
:101910003FEFA901411451046104710409F043C06F
:101920009D81913009F45EC0923009F46DC091112F
:101930008ECEC7BC20937C0330937D0340937E03FF
:1019400050937F0380916E00826080936E007FCE03
:1019500082E0D6CFB12CA12C60E072E18AE790E062
:10196000A50198010E94772569017A0181E0C81AD2
:10197000D108E108F108C114D10491E0E906F104AD
:1019800004F591E08D81813011F680918100887F8E
:10199000892B809381002FEF3FEFA901411451045F
:1019A00061047104F9F0D801AA0FBB1FA3019201D1
:1019B0000E94962528EE33E040E050E00E94A925E1
:1019C000AFCF68E478EE81E090E0A50198010E9435
:1019D000772569017A0181E0C81AD108E108F10888
:1019E00093E0D0CFD0928900C092880020937803F2
:1019F0003093790340937A0350937B0380916F0077
:101A0000826080936F0023CEC092B3002093740352
:101A10003093750340937603509377038091700061
:101A200082608093700013CEC980DA80EB80FC80E6
:101A30009AE0F594E794D794C7949A95D1F791E0FA
:101A4000C91AD108E108F10887E079CEC980DA80A7
:101A5000EB80FC808AE0F594E794D794C7948A954C
:101A6000D1F791E0C91AD108E108F10885E04BCF20
:101A70008FEFC816D104E104F10409F038F784E0CF
:101A800042CF68E478EE81E090E0A50198010E94E1
:101A9000772569017A0191E0C91AD108E108F108B6
:101AA0008FEFC816D104E104F10411F00CF0FFCE61
:101AB00084E045CE8FEFC816D104E104F10411F0A3
:101AC0000CF0D8CE83E01FCF82E039CE3FB7F89438
:101AD0008091670390916803A0916903B0916A03B4
:101AE00026B5A89B05C02F3F19F00196A11DB11D79
:101AF0003FBFBA2FA92F982F8827BC01CD01620FB5
:101B0000711D811D911D42E0660F771F881F991F6F
:101B10004A95D1F708958F929F92AF92BF92CF923C
:101B2000DF92EF92FF926B017C010E94660D4B01E8
:101B30005C01C114D104E104F104B9F00E94660D06
:101B4000681979098A099B09683E734081059105E6
:101B500080F321E0C21AD108E108F10888EE880E6E
:101B600083E0981EA11CB11CE4CFFF90EF90DF90A2
:101B7000CF90BF90AF909F908F9008952FB7F8941B
:101B80006091630370916403809165039091660393
:101B90002FBF0895089508959091050189130BC0F2
:101BA000E3E5F4E1E4919FEF90930501E13049F022
:101BB00028F0E23061F060E00C94A90A10926E0007
:101BC000FACF90916F009D7F90936F00F4CF90912A
:101BD00070009D7F9093700091E09093B000909181
:101BE000B100987F94609093B1001092B300E3CF5E
:101BF000AF92BF92CF92DF92EF92FF920F931F931B
:101C0000CF93DF936C017B018B01040F151FEB0158
:101C10005E01AE18BF08C017D10759F06991D6010F
:101C2000ED91FC910190F081E02DC6010995892B81
:101C300079F7C501DF91CF911F910F91FF90EF9040
:101C4000DF90CF90BF90AF900895EF92FF920F93E7
:101C50001F93CF93DF93EC01EC80FD806E157F0521
:101C60000CF070C057FF04C0240F351F50E040E057
:101C70008E819F81FA01E20FF31F8E179F071CF4DC
:101C80009C01241B350B121613060CF05BC0922F1F
:101C9000842F8695869586958E9DD0018F9DB00D5B
:101CA00011246A0F7B1FAF8DB8A1A60FB71F477015
:101CB00049F188E0841B482F682F70E0FB01E05950
:101CC000FA4FE491281708F063C0621B71092FEFE7
:101CD00030E002C0359527956A95E2F7E22301309E
:101CE000110539F0B0F10230110561F58C91E8274A
:101CF00002C08C91E82BEC93941720F12C813D814C
:101D0000A20FB31FE92FE41BE83078F00230110571
:101D100021F58E2F9C9190959C932C813D81A20F53
:101D2000B31F88508830B0F7E770EE2359F0F0E029
:101D3000E859FA4FE49101301105F9F010F1023041
:101D4000110519F1DF91CF911F910F91FF90EF9045
:101D50000895E0958C91E823CECF81E0011511051F
:101D600009F480E081959E2F8C932C813D81A20FF8
:101D7000B31F98509830C0F7D7CF8C91E82BEC93D5
:101D8000E1CFE0958C91E823FACF8C91E827F7CF4B
:101D90000130110509F4ADCFE0F20230110509F46C
:101DA000A5CFAE0DBF1DAECF0F931F93CF93DF9383
:101DB00077FF04C0260F371F70E060E0DC01149647
:101DC000CD91DC91FB01E20FF31FCE17DF071CF46E
:101DD0009E01261B370B121613064CF5FA0157FD10
:101DE0003796A3E0F595E795AA95E1F7EC9FD0012A
:101DF000ED9FB00DFC9FB00D11246A0F7B1FDC011D
:101E00005F96ED91FC91E60FF71F4770552781E033
:101E100090E001C0880F4A95EAF7482F013011057C
:101E200059F0A8F02E0F3F1F02301105E1F0DF91AD
:101E3000CF911F910F9108952E0F3F1FE217F307C7
:101E4000B1F38191DF011197842B8C93F7CF8095AB
:101E50002E0F3F1FE217F30751F39191DF01119706
:101E600098239C93F7CFE217F30709F38191DF01E1
:101E7000119784278C93F7CF0F931F93FA01DC01FE
:101E800056964C9156974230E9F04330A1F14130DB
:101E900061F514964D915C91DA01AE1BBF0BFD010B
:101EA000E21BF30B77FD0BC0DC0116964D915C91A4
:101EB0006417750724F4AB01BF010E94D40E1F9173
:101EC0000F91089514964D915C91DA01A61BB70B02
:101ED000BD0161507109DC0116964D915C91DA01EA
:101EE000AE1BBF0BFD01E21BF30B77FDE8CFAF018B
:101EF0000E94250EE4CF16964D915C91DA01A61B47
:101F0000B70BBD0161507109CDCF0F931F93FA013B
:101F1000DC0156964C9156974230A9F0433091F12E
:101F2000413019F514964D915C91DA01AE1BBF0B4F
:101F3000FD013197F7FD04C0AB01BF010E94250EE2
:101F40001F910F91089514964D915C91DA01A61B93
:101F5000B70BBD01DC0116964D915C91DA01AE1B09
:101F6000BF0BFD013197621B730BF7FDE9CFDC015D
:101F700016964D915C91E417F50714F7AF010E9496
:101F8000D40EDECF16964D915C91DA01A61BB70BED
:101F9000BD01621B730BCECFFC0177FD64C0808551
:101FA0009185681779070CF05EC057FD5CC082858B
:101FB0009385481759070CF056C086898230B1F0D6
:101FC000833029F1813041F484819581841B950B04
:101FD000AB01BC01615071092130310509F108F4F0
:101FE00043C02230310509F463C00895848195818E
:101FF000DC01A61BB70BBD01615071098681978179
:10200000DC01A41BB50BAD0141505109E5CF868120
:102010009781861B970BBA01AC0141505109DCCF67
:10202000CA0157FD0796A3E095958795AA95E1F714
:10203000A481B5818A9F90018B9F300D9A9F300DAE
:102040001124620F731F078CF0A1E02DE60FF71F1C
:102050004770552721E030E001C0220F4A95EAF78A
:102060008081822B80830895CA0157FD079633E053
:10207000959587953A95E1F7A481B5818A9F90015E
:102080008B9F300D9A9F300D1124620F731F078CA8
:10209000F0A1E02DE60FF71F4770552781E090E093
:1020A00001C0880F4A95EAF7809590818923DACF9D
:1020B000CA0157FD079623E0959587952A95E1F784
:1020C000A481B5818A9F90018B9F300D9A9F300D1E
:1020D0001124620F731F078CF0A1E02DE60FF71F8C
:1020E0004770552721E030E001C0220F4A95EAF7FA
:1020F00080818227B7CF08958EBD00000DB407FE02
:10210000FDCF8EB508958CBD9DBD08950895FC0149
:102110006370668B8481958126813781613039F0C7
:10212000633029F09187808733872287089531872C
:1021300020879387828708952F923F924F925F92D4
:102140006F927F928F929F92AF92BF92CF92DF92C7
:10215000EF92FF920F931F93CF93DF93CDB7DEB72C
:102160006A970FB6F894DEBF0FBECDBF9A8F898FE6
:102170007A8369834A01D22E18870F833701BC2CDA
:10218000DC0159962D913C915A972115310509F0A2
:1021900015C118968D919C911997681779070CF0C5
:1021A000D7C11A968D919C91481759070CF0D0C150
:1021B0004C2C512CB6E0CB9E600D711D11247C87F8
:1021C0006B87161617060CF0C3C1EA2DF0E0FA87EC
:1021D000E98793E0EE0FFF1F9A95E1F7F88BEF8701
:1021E000CF01840F951F181619060CF0B1C1A98DE7
:1021F000BA8D58968C91811104C0BFEABD1508F4C0
:10220000D394A98DBA8DED91FC9111970284F38539
:10221000E02DCD010995B5E0DB9EC0011124E981D7
:10222000FA81FC83EB83312C212C9C0128593F4FF0
:10223000388F2F8B4A2D50E05E8B4D8BEF89F88DB8
:10224000E20DF31D44919E828D82D12CC12C6981B7
:102250007A81620D731D7A8B698B842F90E09C8B41
:102260008B8BE98DFA8DA081B18140FF82C0F1E0B6
:10227000BF126FC0AF126DC01C96ED91FC912F8103
:102280003885A4014C0D5D1D69897A89898D9A8DE7
:102290000995EB89FC89F595E7954E2F5FEFC51AF7
:1022A000D50A6D817E818D899E89680F791F7E8315
:1022B0006D8398E0C916D10481F6AFEF2A1A3A0A65
:1022C000EB81FC81E40DF51DFC83EB83F5E02F161B
:1022D000310409F0B3CF2F81388526153705B9F0C1
:1022E000A98DBA8DED91FC91B1E0BB1257C0AB1234
:1022F00055C069817A816B5F7F4F0088F189E02D3D
:10230000830128E030E0A401898D9A8D0995A98D7B
:10231000BA8DED91FC9111970688F789E02DCD01DA
:102320006A960FB6F894DEBF0FBECDBFDF91CF9196
:102330001F910F91FF90EF90DF90CF90BF90AF90E3
:102340009F908F907F906F905F904F903F902F90D5
:1023500009941E96ED91FC91EF80F88409851A8509
:1023600092014D815E816B817C81898D9A8D099569
:1023700090CF2F8138852615370509F48ACF31E0B3
:10238000B31207C0A31205C01C96ED91FC919301F6
:1023900078CF1E96ED91FC917301E0CF6B857C8523
:1023A000641975090684F785E02D73010F85188976
:1023B0009201A401898D9A8D0995A9CFF9013496CE
:1023C0009491329745915491D91AB7E0DB9E400D14
:1023D000511D1124F901259134913C8B2B8BFA016D
:1023E00025903490FA013296749031963491398B5D
:1023F000329664903196449041E04C1518F04A159D
:1024000008F07FC0662D062C000C770B7C836B8355
:10241000842D042C000C990B9E838D83A98DBA8D7D
:10242000ED91FC9111970284F385E02DCD01099582
:10243000512CD12CC12CEA2DF0E0FA87E9872B2D05
:1024400030E03C872B87A401440D511D47FC5A9571
:10245000588F4F8B69817A81660D711D67FC7A9563
:102460007E876D877989C71608F051CF2C2D30E013
:102470004D815E81420F531FA985BA854A9FC001D5
:102480004B9F900D5A9F900D1124FC01E80DF91DF2
:10249000F88BEF87852D612C4F89588D420F531F84
:1024A0005E8B4D8B671408F050C044244394480E53
:1024B000877041F4C1010196EB89FC89E20DF31D9F
:1024C000D4901C01D7FE19C0A98DBA8DED91FC9155
:1024D000662D70E0B1E0BB1219C0AB1217C02D859C
:1024E0003E85620F731F0484F585E02D2F813885AA
:1024F0004D895E89898D9A8D0995DD0C6394842DB3
:10250000D1CF1E821D821C821B8288CF4B815C81B1
:10251000640F751FAB85BC856A9FC0016B9F900DD2
:102520007A9F900D112469817A81680F791F068442
:10253000F785E02DEF80F88409851A859D014F8588
:102540005889898D9A8D0995D8CF570CC3948ACF15
:102550006A960FB6F894DEBF0FBECDBFDF91CF9164
:102560001F910F91FF90EF90DF90CF90BF90AF90B1
:102570009F908F907F906F905F904F903F902F90A3
:1025800008958F929F92AF92CF92EF92FF920F9306
:102590001F93CF93DF93EC01262F898D9A8D00979F
:1025A00009F051C06A30D1F41D861C868D8948E03F
:1025B000849F900111248E859F85820F931F9F8792
:1025C0008E8781E090E0DF91CF911F910F91FF9076
:1025D000EF90CF90AF909F908F9008956D3089F3DA
:1025E000CC88AD888F898823C1F08C859D8536E0A5
:1025F000C39E800D911D11244885598548175907A0
:1026000064F44E855F851D861C8638E0A39EC0015C
:102610001124840F951F9F878E87EA88FB8808897D
:1026200019894E855F856C857D85CE010E949C1041
:102630002C898C859D8546E0249F800D911D112459
:102640009D878C87BECF6A3069F41D861C86FC018D
:102650003896E4912D898E859F85E29F800D911D8E
:102660001124ADCF6D3009F4ACCFFC013496349118
:10267000631708F4A6CF3296E491E61708F4A1CFC9
:10268000FC01329685909490462F431B342F47E0EF
:10269000349F800C911C1124F401329634913196B0
:1026A000E4913323A9F1EE2399F1CC88F401359616
:1026B000E491AD884F89442301F10E2E000CFF0BED
:1026C000E30FF11DCE9EA001CF9E500D11246C850D
:1026D0007D85460F571F68857985641775076CF4EB
:1026E0004E855F851D861C86FC013896E491AE9E62
:1026F000400D511D11245F874E87EA88FB880889A9
:1027000019894E855F856C857D85CE010E949C1060
:10271000F4013496E4912C898C859D85E29F800D8F
:10272000911D11248DCF6F927F928F929F92AF92C5
:10273000BF92CF92DF92EF92FF920F931F93CF93AE
:10274000DF93EC016B015A0139014801E881F981FD
:102750000284F385E02D0995E881F9810288F389E7
:10276000E02D87019301A501B601CE010995A501D0
:10277000480D591D41505109E881F9810288F389BA
:10278000E02D9301B601CE010995E881F981008819
:10279000F189E02D9401A501B601CE010995C60C81
:1027A000D71CB60161507109E881F9810088F1896F
:1027B000E02D9401A501CE010995E881F9810688F3
:1027C000F789E02DCE01DF91CF911F910F91FF90FE
:1027D000EF90DF90CF90BF90AF909F908F907F90C1
:1027E0006F9009946F927F928F929F92AF92BF9257
:1027F000CF92DF92EF92FF920F931F93CF93DF93CD
:102800005C01EB016A01490138018701DC01ED91AE
:10281000FC916217730719F5641675062CF0962D56
:10282000872D3A01C92ED82E9601261937092F5F18
:102830003F4F048CF58DE02DA301BE01C501099524
:10284000DF91CF911F910F91FF90EF90DF90CF908C
:10285000BF90AF909F908F907F906F900895461596
:10286000570591F42617370724F0892D4B01C22F05
:10287000D82F9E01281939092F5F3F4F068CF78DFD
:10288000E02DA601B401DACF0284F385E02D09958D
:10289000D501ED91FC910488F589E02D8301940127
:1028A000A601BE01C5010995D501ED91FC910688EF
:1028B000F789E02DC501DF91CF911F910F91FF9016
:1028C000EF90DF90CF90BF90AF909F908F907F90D0
:1028D0006F900994EF92FF920F931F93DC011A9669
:1028E0000D911C911B9718962D913C911997ED9184
:1028F000FC9100A0F1A1E02D7B0150E040E070E0F0
:1029000060E009951F910F91FF90EF9008954F920D
:102910005F926F927F928F929F92AF92BF92CF926F
:10292000DF92EF92FF920F931F93CF93DF936C018F
:102930002B015A0139014801DC01ED91FC9102841F
:10294000F385E02D0995E201640C751CD601ED912B
:10295000FC91C615D7055CF40088F189E02D87014C
:102960009401A501BE01C60109952196EFCF068805
:10297000F789E02DC601DF91CF911F910F91FF9054
:10298000EF90DF90CF90BF90AF909F908F907F900F
:102990006F905F904F9009948F929F92AF92BF92E9
:1029A000CF92DF92EF92FF920F931F93CF93DF931B
:1029B000EC015B014A016901E881F9810284F38538
:1029C000E02D099595012C0D3D1D21503109E8811F
:1029D000F9810488F589E02D78018401A401B5010D
:1029E000CE010995E881F9810688F789E02DCE01AD
:1029F000DF91CF911F910F91FF90EF90DF90CF90DB
:102A0000BF90AF909F908F9009948F929F92AF92BA
:102A1000BF92CF92DF92EF92FF920F931F93CF93CB
:102A2000DF93EC015B014A0169017801E881F981DA
:102A30000284F385E02D0995C80CD91C860101504C
:102A40001109E881F9810488F589E02D9501A40137
:102A5000B501CE010995E881F9810688F789E02D55
:102A6000CE01DF91CF911F910F91FF90EF90DF90FA
:102A7000CF90BF90AF909F908F900994EF92FF926C
:102A80000F931F93DC01ED91FC9100A0F1A1E02DCB
:102A900009951F910F91FF90EF9008950F931F9349
:102AA000DC01ED91FC91068CF78DE02D09951F91CD
:102AB0000F9108950F931F93DC01ED91FC91048C0D
:102AC000F58DE02D09951F910F910895DC01ED9191
:102AD000FC910084F185E02D0994BF92CF92DF92A2
:102AE000EF92FF920F931F93CF93DF936C01F12C22
:102AF000E12CB12C10E000E0D0E0C0E0CE01877006
:102B00009927BB0C892B59F4FE0183E0F595E795D5
:102B10008A95E1F7EE0DFF1DEC0DFD1DB490B7FE9B
:102B200008C021E030E0A801BE018EE893E00E94D9
:102B300066152196C038D10509F70F5F1F4F80E158
:102B4000E80EF11C00341105B9F6DF91CF911F9109
:102B50000F91FF90EF90DF90CF90BF9008952F924C
:102B60003F924F925F926F927F928F929F92AF921D
:102B7000BF92CF92DF92EF92FF920F931F93CF936A
:102B8000DF9300D000D000D0CDB7DEB73C016A01A2
:102B90003E832D83FC82EB825801A41AB50AB7FE4E
:102BA00003C0B194A194B1088D809E80861A970AC3
:102BB00097FE03C09194819491088A149B045CF061
:102BC000902F812F0D811E819D838E839C2D8D2DB5
:102BD0006B01692F782F0C151D055CF09D818E818E
:102BE0007E836D83692F782F902F812F8601C92EC8
:102BF000D82E1601201A310A2B012D813E81421A4E
:102C0000530A57FE03C0519441945108710137FE95
:102C100003C03FEFE31AF30AF594E7948D819E8198
:102C2000861797075CF5A1E0B0E0BA83A983C016C8
:102C3000D1064CF1D301ED91FC910484F585E02D92
:102C40002B813C81A8016D817E818A149B041CF03C
:102C50004D815E81B801C3010995E418F508F7FEBE
:102C60000AC02D813E8189819A81280F391F3E83B8
:102C70002D83E20CF31C0F5F1F4FD9CF2FEF3FEFD7
:102C80003A832983D4CF26960FB6F894DEBF0FBEC1
:102C9000CDBFDF91CF911F910F91FF90EF90DF900B
:102CA000CF90BF90AF909F908F907F906F905F90EC
:102CB0004F903F902F90089508952091B801260FCE
:102CC0003327331F21323105ECF42091DC01FC0164
:102CD00090E080E0243069F082E00895A091B8018E
:102CE0002191AC0148565E4FA40FB52FB11D2C9316
:102CF0000196861798F38091B801680F6093B80128
:102D000080E0089581E008951092DC0181E08093D5
:102D1000DE011092DD0161E082E10E94A90A61E01A
:102D200083E10E94A90AE9EBF0E080818E7F808335
:102D300080818D7F808388E48093B80085E48093D0
:102D4000BC000895CF93DF9391E09093970188237F
:102D5000B9F0C091B800D091BA008091BC008A7BD4
:102D60008093BC0060E082E10E94A90A60E083E1F8
:102D70000E94A90A0E948416D093BA00C093B8009A
:102D8000DF91CF910895E091080280910702E81742
:102D900030F4F0E0EE58FE4F808190E008958FEF20
:102DA0009FEF089590910802809107022FEF3FEF67
:102DB000981748F4E92FF0E0EE58FE4F208130E0FC
:102DC0009F5F90930802C901089580910702909136
:102DD0000802891B990B0895CF92DF92EF92FF9220
:102DE0000F931F93CF93DF937C01CB018A01209136
:102DF0006E03222389F0EB016B01C40ED51ECC15A6
:102E0000DD0569F06991D701ED91FC910190F081A8
:102E1000E02DC7010995F3CF642F0E945D16C8010C
:102E2000DF91CF911F910F91FF90EF90DF90CF90A6
:102E30000895CF93DF931F92CDB7DEB769832091BA
:102E40006E032223F9F020916B03203258F021E029
:102E500030E0FC013383228390E080E00F90DF912B
:102E6000CF91089580916C03E82FF0E0EE5AFE4F69
:102E7000998190838F5F80936C0380936B0381E0D3
:102E800090E0ECCF61E0CE0101960E945D16F7CF95
:102E9000CF92DF92EF92FF920F931F93CF93DF9326
:102EA000D0916B0381E0D13208F09CC0C0916D03DA
:102EB0000E94660D6B017C018091DC0181116CC068
:102EC00082E08093DC0181E08093DE018FEF8093CC
:102ED000DB0110920002D093FF01A2E5B1E0EFED1B
:102EE000F1E080E0D8138DC01092010280910102C0
:102EF000CC0FC82BC09301028091DD01813009F015
:102F000084C01092DD010E94660D6B017C018091EE
:102F100001028093BB008091930190919401A09154
:102F20009501B0919601892B8A2B8B2BA1F00E94E1
:102F3000660D0091930110919401209195013091BB
:102F400096016C197D098E099F0906171707280736
:102F5000390708F442C08091BC0083FDD8CF85ECCE
:102F60008093BC000E94660D6B017C018091DC01A6
:102F7000823009F44CC08091DB018F3F09F469C0B5
:102F80008091DB01803209F466C08091DB018033DF
:102F900009F463C084E026C080919301909194016C
:102FA000A0919501B0919601892B8A2B8B2B09F466
:102FB00083CF0E94660D009193011091940120919E
:102FC0009501309196016C197D098E099F090617AC
:102FD00017072807390708F06FCF809192010E94E8
:102FE000A21685E010926C0310926B0310926E0390
:102FF000DF91CF911F910F91FF90EF90DF90CF90D5
:1030000008959D9191938F5F6DCF85EEA9CF8091AB
:10301000930190919401A0919501B0919601892B13
:103020008A2B8B2B09F4A2CF0E94660D009193018D
:103030001091940120919501309196016C197D09B0
:103040008E099F09061717072807390708F08ECF42
:10305000C4CF80E0C7CF82E0C5CF83E0C3CFEF927B
:10306000FF920F931F93CF93DF937C01C62F809124
:10307000AB039091AC03009709F459C02091AF03C2
:1030800031E030936E0320936D0310926C03109225
:103090006B03DC01ED91FC910190F081E02D60E08B
:1030A00009958701EE24E394F12CD1E0C150809181
:1030B000AB039091AC03CF3F91F1B0E2EB16F1047A
:1030C000D8F00E9448178091AB039091AC032091F7
:1030D000AF03D0936E0320936D0310926C03109294
:1030E0006B03DC01ED91FC910190F081E02D60E03B
:1030F0000995EE24E394F12C8091AB039091AC03FD
:10310000F8016491DC01ED91FC910190F081E02DDA
:103110000995BFEFEB1AFB0A0F5F1F4FC7CFDF9177
:10312000CF911F910F91FF90EF900C944817E09171
:10313000BB03F091BC0390818091C10380958923EA
:1031400080838701C15008F438C0F8018491209130
:10315000A9033091AA03232B29F00E947C100F5F52
:103160001F4FF0CF28E030E040E8E091B703F09146
:10317000B8039091BF03582F5423D9F05081952B59
:103180009083E091B903F091BA0390815091C0030C
:10319000952B9083E091B903F091BA0350819091FF
:1031A000C003909595239083469521503109E9F607
:1031B000D6CF508190959523E3CFDF91CF911F918A
:1031C0000F91FF90EF9008951F93CF93DF93EC0141
:1031D0008D8D9E8D009721F1162F29A131E030931E
:1031E0006E0320936D0310926C0310926B03DC014D
:1031F000ED91FC910190F081E02D60E009958D8DBD
:103200009E8DDC01ED91FC910190F081E02D612F0C
:1032100009958D8D9E8DDF91CF911F910C9448174C
:10322000ADA5BEA59C918BA9809589238C938B8D90
:103230009C8D892B31F0862FDF91CF911F910C94BB
:103240007C1028E030E080E8A9A5BAA599A9462F0E
:103250004823C1F04C91942B9C93ABA5BCA59C91A9
:103260004AA9942B9C93ABA5BCA54C919AA9909587
:1032700094239C9386952150310931F7DF91CF91AA
:103280001F9108954C9190959423E6CFDF92EF9291
:10329000FF920F931F93CF93DF938091AB03909195
:1032A000AC03892B09F4A5C02091C3033091C4035A
:1032B0004091C5035091C60360E074E284EF90E052
:1032C0000E94A92520513109410951095695479578
:1032D000379527952093B80064E08DE194E10E9432
:1032E0002F1880919203909193038034910509F0F7
:1032F00097C060E28EE893E00E94E4186091920328
:10330000615E8EE893E00E94E4182091940330916E
:103310009503C901079697FD079633E09595879524
:103320003A95E1F72091920330919303829F8001B7
:10333000839F100D929F100D1124C091AD03D09169
:10334000AE038091AB039091AC030C0F1D1F00974F
:1033500009F498C02091AF0331E030936E032093BD
:103360006D0310926C0310926B03DC01ED91FC91E4
:103370000190F081E02D60E40995EE24E394F12CB6
:10338000DD24D3948091AB039091AC030C171D07FF
:1033900009F44FC0B0E2EB16F104D8F00E944817D0
:1033A0008091AB039091AC032091AF03D0926E0358
:1033B00020936D0310926C0310926B03DC01ED916E
:1033C000FC910190F081E02D60E40995EE24E394F6
:1033D000F12C8091AB039091AC036991DC01ED91EC
:1033E000FC910190F081E02D0995BFEFEB1AFB0AEB
:1033F000C9CF8091A9039091AA03892B31F08091C4
:10340000CC039091CD030E948310E091BD03F09115
:10341000BE0390818091C2038095892380835CCF15
:1034200060E08EE893E00E94E4186091920361509E
:1034300068CF0E9448178091AB039091AC03892B11
:1034400009F461C02091C7033091C8034091C903BA
:103450005091CA0360E074E284EF90E00E94A925D5
:1034600020513109410951095695479537952795BE
:103470002093B800DF91CF911F910F91FF90EF90B3
:10348000DF900895E091BB03F091BC03808190919F
:10349000C103892B80830C171D0769F28991209144
:1034A000A9033091AA03232B19F00E947C10F3CFBB
:1034B00028E030E040E8E091B703F091B803909144
:1034C000BF03582F5423D9F05081952B9083E0915E
:1034D000B903F091BA0390815091C003952B90836A
:1034E000E091B903F091BA0350819091C003909597
:1034F00095239083469521503109E9F6CCCF508130
:1035000090959523E3CFE091BD03F091BE038081B8
:103510009091C203892B8083ADCF1F93CF93DF930C
:10352000EC01162F8D8D9E8D892BB1F12DA93EA911
:103530004FA958AD60E074E284EF90E00E94A925A5
:1035400020513109410951095695479537952795DD
:103550002093B80066EA111167EACE010E94E418D0
:103560008D8D9E8D892B41F129AD3AAD4BAD5CAD72
:1035700060E074E284EF90E00E94A92520513109B7
:103580004109510956954795379527952093B800DD
:10359000DF91CF911F9108958B8D9C8D892B21F008
:1035A0008EAD9FAD0E948310EFA5F8A990818CA9E4
:1035B000809589238083CECFEFA5F8A980819CA92F
:1035C000892B8083E5CF90E080E00895DF92EF9231
:1035D000FF920F931F93CF93DF939A01DB014091EA
:1035E0001C0250911D02440F551F440F551F420FDE
:1035F000531F74E0440F551F7A95E1F72EE02A9F80
:10360000B0012B9F700D1124680F791FD0E0C0E02E
:10361000605E7D4FEEE0DE2EDC9E8001DD9E100DB3
:103620001124060F171F30E020E0FA01E156F64F93
:103630007F01F701E20FF31FE491EE2381F0F9011E
:10364000E80FF91F3E9700F5A631B105ECF4B7FD80
:1036500006C0F801E20FF31FE081E11115C02F5FF2
:103660003F4F2430310529F7219611964C5F5F4F6B
:10367000C430D10589F680E0DF91CF911F910F9181
:10368000FF90EF90DF90089581E0F6CF8F929F92A8
:10369000AF92BF92CF92DF92EF92FF920F931F9360
:1036A000CF93DF93EB017C018B01040F151FFE010B
:1036B000649170E080918003909181030E94DA25EB
:1036C000F701C590D4904B01770FAA08BB08C1142D
:1036D000D10489F0C501B4010E94402626E636E6F1
:1036E00046E65FE30E94A4260E940F26AB01BC01C0
:1036F000C6010E94080BC501B4010E948B0D8CE02D
:103700000E94CC0D2196F2E0EF0EF11CC017D107FC
:1037100071F6DF91CF911F910F91FF90EF90DF90A5
:10372000CF90BF90AF909F908F9008952091940379
:1037300030919503C901079697FD079623E095956B
:1037400087952A95E1F72091920330919303829F08
:10375000A001839F500D929F500D112470E060E0F6
:103760008091AD039091AE030C9463288F929F9249
:10377000AF92BF920F931F93CF93DF93CDB7DEB776
:10378000A1970FB6F894DEBF0FBECDBF19A242308D
:1037900008F44AE08E010F5D1F4F842E912CB12C4E
:1037A000A12CA50194010E94A925E62FB901CA0107
:1037B000EA3044F5E05DD801EE938D01232B242BF4
:1037C000252B79F790E080E0109769F0FD010190DA
:1037D0000020E9F73197AF014A1B5B0BBD018EE872
:1037E00093E00E94F80DA1960FB6F894DEBF0FBECD
:1037F000CDBFDF91CF911F910F91BF90AF909F9060
:103800008F900895E95CD7CF0E945E2885ED809364
:10381000BC008091930190919401A0919501B09189
:1038200096010796A11DB11D23E0B695A795979522
:1038300087952A95D1F72091BC0024FD03C01092F2
:10384000DC0108954091930150919401609195019C
:1038500070919601452B462B472B69F30097A105E4
:10386000B10541F02AE22A95F1F700C00197A109BC
:10387000B109E1CF809192010C94A21685E090E00D
:10388000909319028093180210921B0210921A0250
:103890000E941F2527E030E040E050E00E9477259D
:1038A00070931D0260931C0210921F0210921E0260
:1038B00060911A0270911B0250E040E08091180262
:1038C000909119020E94E61A882319F081E08093F2
:1038D0006103089580E292E030E020E0FC01E20F15
:1038E000F31F10822F5F3F4F2E303105B9F70E9630
:1038F00023E08435920781F7109255031092540308
:1039000010926103109260030E94BE0D6093140236
:103910007093150280931602909317028FEF9FEF1A
:1039200090935703809356030E94BE0D60935C03EF
:1039300070935D0380935E0390935F0310925B032B
:1039400010925A0310925903109258030C943E1C83
:103950001F920F920FB60F9211242F933F938F93C4
:103960009F93AF93BF938091630390916403A09161
:103970006503B09166033091620323E0230F2D3776
:1039800058F50196A11DB11D209362038093630336
:1039900090936403A0936503B093660380916703DB
:1039A00090916803A0916903B0916A030196A11DEB
:1039B000B11D8093670390936803A0936903B0934C
:1039C0006A03BF91AF919F918F913F912F910F907B
:1039D0000FBE0F901F90189526E8230F0296A11D89
:1039E000B11DD2CF1F920F920FB60F9211242F93B9
:1039F0003F934F935F936F937F938F939F93AF9377
:103A0000BF93EF93FF938091740390917503A091FE
:103A10007603B0917703892B8A2B8B2BD1F1909170
:103A20006F03E0917003F091710380818927808397
:103A30008091740390917503A0917603B091770300
:103A4000181619061A061B069CF4809174039091AF
:103A50007503A0917603B09177030197A109B1098D
:103A60008093740390937503A0937603B0937703C8
:103A7000FF91EF91BF91AF919F918F917F916F9146
:103A80005F914F913F912F910F900FBE0F901F901C
:103A90001895809105010E94CC0DEACF1F920F92DC
:103AA0000FB60F9211242F933F934F935F936F9311
:103AB0007F938F939F93AF93BF93EF93FF938091E7
:103AC000B900887F803609F44AC0F0F5883209F4DD
:103AD000A7C018F5803109F49BC0B8F4882309F415
:103AE000F9C0883009F494C0FF91EF91BF91AF9174
:103AF0009F918F917F916F915F914F913F912F9106
:103B00000F900FBE0F901F901895883109F488C050
:103B1000803251F78093DB0114C0803409F49DC0DA
:103B200040F48033B9F38833F9F68093DB0185ECF8
:103B3000B0C0803509F485C0883509F496C0883452
:103B400099F60E94061CD0CF883909F48CC038F54C
:103B5000883729F050F4883611F0803729F683E051
:103B60008093DC011092DA0157C0883809F47BC0D9
:103B7000803919F0803809F0B7CF8091DA018032AE
:103B800008F071C0E091DA0181E08E0F8093DA01D4
:103B90008091BB00F0E0E654FE4F80833DC0803B47
:103BA00039F0E0F4803A09F479C0883A09F09CCF02
:103BB00084E08093DC011092B9011092B801E09189
:103BC0000502F091060209958091B80181110FC09C
:103BD00081E08093B8011092980109C0803C09F4FB
:103BE000A6CF883C09F4A3CF883B09F07DCFE091B4
:103BF000B90181E08E0F8093B901F0E0E856FE4FE5
:103C000080818093BB009091B9018091B80129C057
:103C1000809101028093BB0085EC8093BC0064CF4F
:103C2000909100028091FF01981758F5E0910002F1
:103C300081E08E0F80930002F0E0E152FE4F808120
:103C4000E9CFE091000281E08E0F80930002809125
:103C5000BB00F0E0E152FE4F808390910002809122
:103C6000FF019817C8F285E8D8CFE091000281E003
:103C70008E0F809300028091BB00F0E0E152FE4F76
:103C800080838091DE0181115CCF81E08093DD0132
:103C900084EA8093BC001092DC0126CF85EC8093EF
:103CA000BC001092DC018091DA01803230F4E091A6
:103CB000DA01F0E0E654FE4F10826091DA0170E024
:103CC000E0910302F09104028AEB91E009951092D1
:103CD000DA010ACF1092DB0134CFA2E8B3E01396E9
:103CE0001C921E92129748EE53E060E070E014962A
:103CF0004D935D936D937C93179784E191E01196BA
:103D00009C938E93EEE8F3E01382128220E830E079
:103D10003583248380E490E09783868331872087EE
:103D200093878287168A158614861786168681E001
:103D3000858B848B2FEF3FEF338B228B318B208B46
:103D4000878B108E128E118E86E291E09183808394
:103D5000148E138EB68FA58F10A2178E8FEF84A3AB
:103D600085A386A387A380A780E89AE1A6E0B0E0B8
:103D700085AB96ABA7ABB0AF80EA96E8A1E0B0E028
:103D800081AF92AFA3AFB4AF80E586AF17AE82E844
:103D900096E090938103809380030895789484B58E
:103DA000826084BD84B5816084BD85B5826085BD37
:103DB00085B5816085BD80916E00816080936E00C5
:103DC00010928100809181008260809381008091B7
:103DD0008100816080938100809180008160809368
:103DE00080008091B10084608093B1008091B00028
:103DF00081608093B00080917A00846080937A0023
:103E000080917A00826080937A0080917A0081604C
:103E100080937A0080917A00806880937A00109273
:103E2000C10062E089E00E94D70A62E08AE00E9455
:103E3000D70A62E08BE00E94D70A61E08CE00E9422
:103E4000D70A8091AD039091AE03892B09F488C005
:103E50000E94961B82E08093B0038091AB03909107
:103E6000AC03892B09F080C161E08091B4030E940A
:103E7000D70A61E08091B5030E94D70A8091B4030C
:103E8000082E000C990BFC01E15CFB4EE491F0E084
:103E9000EE0FFF1FEB5CFB4E259134913093BC037A
:103EA0002093BB03FC01EF5DFB4EE491E093C10363
:103EB0008091B503082E000C990BFC01E15CFB4ED0
:103EC000E491F0E0EE0FFF1FEB5CFB4EA591B49187
:103ED000B093BE03A093BD03FC01EF5DFB4EE491E4
:103EE000E093C2038C91E82BEC938091A90390910D
:103EF000AA03892B09F417C2CFB7F8948091020264
:103F0000811127C0E9E4F4E18491EBE2F4E19491BA
:103F1000E82FF0E0EE0FFF1FEB50FC4EA591B4919F
:103F2000EC91E92321F461E08AE00E94A90A61E0B2
:103F30008AE00E94D70A8CB580618CBD8CB5806404
:103F40008CBD61E08DE00E94D70A61E08BE00E94A9
:103F5000D70A809102028F5F80930202CFBF1DC1FA
:103F60002091940330919503C901079697FD079618
:103F700023E0959587952A95E1F72091920330915A
:103F80009303AC01429FC001439F900D529F900D3F
:103F900011240E9439279093AE038093AD03892B9F
:103FA00009F056CF80E480937C0080917A00806491
:103FB00080937A0080917A0086FDFCCF6091780032
:103FC00070917900072E000C880B990B6115710513
:103FD0008105910511F00E946E250E94961B8FE9C4
:103FE00095E00E946D150E94461947E050E06AE88E
:103FF00075E081E995E00E94461B64EF71E080E086
:1040000090E00E948B0D0E946A1C74E0272E312CD8
:10401000AA24A394B12C89E00E94800A3C0101E00B
:10402000892B09F400E0009303018BE00E94800AD1
:104030004C0111E0892B09F410E0109302018AE091
:104040000E94800AEC0181E0209709F480E08093CF
:10405000040180910101882321F081E0672809F0A3
:1040600080E08093130270900001772029F077247C
:104070007394892809F0712C709212020093010147
:104080001093000190916103992309F4D5C188230D
:1040900009F43EC00E946A1C80916103811138C0FE
:1040A0000E94BE0D0091140210911502209116027B
:1040B00030911702601B710B820B930B653F7140AF
:1040C0008105910528F10E94BE0D60931402709342
:1040D0001502809316029093170260901E02709052
:1040E0001F02C0911A02D0911B022E015FEF451AE8
:1040F000550A8090180290901902A301B201C401E0
:104100000E94E61A811163C250921B0240921A0269
:104110000E94961B80916103882309F4DAC28FE51F
:104120009FE00E946D150E944619809161038823CB
:1041300009F4A5C38091600381110EC08CE00E9438
:10414000CC0D4AE050E06FE573E189E693E10E940F
:10415000461B91E09093600340E050E0452B09F44A
:104160005ACF0E94000057CF8CE38093AF03109288
:1041700008021092070210926C0310926B030E94C7
:1041800084168AEC9DE090930602809305028BECE6
:104190009DE090930402809303028091B60387FD13
:1041A0001EC061E00E94D70A61E08091B6030E94C0
:1041B000A90A61E070E080E090E00E948B0D60E071
:1041C0008091B6030E94A90A6AE070E080E090E066
:1041D0000E948B0D61E08091B6030E94A90A809134
:1041E000AB039091AC03892B09F4E0C02091C30389
:1041F0003091C4034091C5035091C60360E074E25E
:1042000084EF90E00E94A92520513109410951090C
:1042100056954795379527952093B80064E086E832
:1042200095E00E942F186091940361508EE893E00E
:104230000E94E41864E082E895E00E942F188091C3
:10424000B00360E1813009F064E18EE893E00E9400
:10425000E41864E08EE795E00E942F188FE88093C1
:10426000CB0380919203909193038038910509F0DC
:10427000B4C080919403909195038034910509F026
:10428000BCC08091B003813009F0CAC08FE980932F
:10429000CB03C2E16AED8EE893E00E94E4186C2F34
:1042A0008EE893E00E94E41861E88EE893E00E94B3
:1042B000E4186091CB038EE893E00E94E41869ED66
:1042C0008EE893E00E94E4188091B00362E28130AE
:1042D00009F061EF8EE893E00E94E41866E088E759
:1042E00095E00E942F188091AB039091AC03892B2D
:1042F00009F498C02091C7033091C8034091C903C5
:104300005091CA0360E074E284EF90E00E94A92516
:1043100020513109410951095695479537952795FF
:104320002093B8003FCE61E08091B2030E94D70A8B
:1043300061E08091B3030E94D70A8091B203082EF6
:10434000000C990BFC01E15CFB4EE491F0E0EE0FF8
:10435000FF1FEB5CFB4E259134913093B803209303
:10436000B703FC01EF5DFB4EE491E093BF03809146
:10437000B303082E000C990BFC01E15CFB4EE491A9
:10438000F0E0EE0FFF1FEB5CFB4EA591B491B093F4
:10439000BA03A093B903FC01EF5DFB4EE491E093F7
:1043A000C0038C91E095E823EC93F7CE8091A903AC
:1043B0009091AA03892B31F08091CC039091CD0389
:1043C0000E948310E091BD03F091BE039081809123
:1043D000C20380958923808321CF8036910589F49B
:1043E0008091940390919503409739F48091B003A4
:1043F000813029F480E18093CB03C2E04BCF8FEA78
:10440000FACF80349105C9F7809194039091950378
:10441000809799F78091B003813011F480E137CF14
:104420008FEC35CFE091BD03F091BE038081909178
:10443000C203892B8083B6CD8823B9F0009118027E
:10444000109119020150110940911E0250911F0252
:1044500060911A0270911B02C8010E94E61A811134
:1044600004C010931902009318027720B9F000914C
:104470001802109119020F5F1F4F40911E025091B8
:104480001F0260911A0270911B02C8010E94E61A75
:10449000811104C01093190200931802CD2B09F06A
:1044A0008BC080910E0290910F02A0911002B091EA
:1044B0001102892B8A2B8B2B61F40E94BE0D609315
:1044C0000E0270930F0280931002909311021092CB
:1044D0000D020E94BE0D00910E0210910F0220915C
:1044E000100230911102DC01CB01801B910BA20B59
:1044F000B30B20910D02211124C08C329140A105F3
:10450000B10528F580911E0290911F02019664E08A
:1045100070E00E94DA25EC0160911A0270911B0292
:10452000AC0180911802909119020E94E61A811143
:10453000B3CDD0931F02C0931E0281E080930D0281
:10454000ABCD8C329140A105B10508F4A5CD0E94F8
:10455000BE0D0091090210910A0220910B023091C8
:104560000C02601B710B820B930B6233710581058A
:10457000910508F491CDC0911A02D0911B022196A9
:1045800040911E0250911F02BE018091180290912D
:1045900019020E94E61A811104C0D0931B02C09335
:1045A0001A020E94BE0D6093090270930A02809362
:1045B0000B0290930C0270CD10920E0210920F021B
:1045C000109210021092110210920D0265CD80918E
:1045D0001C0290911D02880F991F880F991F860D4C
:1045E000971D54E0880F991F5A95E1F76EE0F62E5B
:1045F000FC9E9001FD9E300D1124280D391D70E0A8
:1046000060E0205E3D4F4EE0469FD001479FB00DD9
:104610001124A20FB31F50E040E08C010156164F49
:10462000F801E40FF51FE491EE2349F0C631D105FE
:1046300030F4FD01E40FF51FFF24F394F0824F5F87
:104640005F4F4430510561F76F5F7F4F21960496AD
:1046500064307105C1F6609154037091550325E1F2
:1046600030E04EE0429FC001439F900D1124805ED8
:104670009D4F50E040E0FC01E40FF51FE081EE2388
:10468000F1F04F5F5F4F4E305105A9F7F9011E164B
:104690001F068CF450E040E0DC01A40FB51FED01D3
:1046A0002E97C881CC934F5F5F4F4E305105A1F7D5
:1046B00031970E97ECCF665F7F4F2F5F3F4F2150B2
:1046C000310978F670935503609354030E943E1CA1
:1046D0001FCD81E08093A2038093A303B092A10336
:1046E000A092A003B0929F03A0929E0330929B03DE
:1046F00020929A03B0929D03A0929C0343E050E065
:104700006EE471E08EE893E00E94F80D409054034F
:1047100050905503052C000C660877084AE0C30149
:10472000B20177FE0DC06DE28EE893E00E94C112E7
:1047300066277727CB0164197509860997094AE02E
:104740000E94B61B8FE59BE00E946D15EE24E3945A
:10475000F12C08E310E02CE230E049E050E06AE0A0
:1047600070E08EE893E00E94931328E5622E22E029
:10477000722E3AE0832E912CD0E0C0E0F301EC0FD2
:10478000FD1F8081882399F0BE01660F771F6C0F93
:104790007D1F655F7F4FEE24E394F12C02E010E073
:1047A00022E030E0A4018EE893E00E948714219675
:1047B000CE30D10519F79EE0690E711C23E0820E00
:1047C000911C40E484169104B9F6D0E0C0E0912C2D
:1047D000812CE0911C02F0911D02EE0FFF1FEE0FE5
:1047E000FF1F80911E0290911F02E80FF91FEE0F2C
:1047F000FF1FEE0FFF1FEC0FFD1FEE0FFF1FEE0F51
:10480000FF1FE80DF91DE156F64FE491EE2349F143
:1048100040911A0250911B024C0F5D1F44505109E8
:1048200057FD1FC0CA01880F991F480F591F465FC7
:104830005F4F6091180270911902680D791DCB01CC
:10484000880F991F680F791F655F7F4FEE24E394EF
:10485000F12C02E010E022E030E08EE893E00E94CC
:1048600087145FEF851A950A84E08816910409F091
:10487000B0CF2196C430D10509F0A9CF54CC0E9405
:10488000BE0D2B013C0180915C0390915D03A091D2
:104890005E03B0915F03B301A201481B590B6A0B81
:1048A0007B0B80915A0390915B03209158033091C8
:1048B0005903820F931F092E000CAA0BBB0B48173C
:1048C00059076A077B0708F447CC809156039091FB
:1048D00057030196873291050CF04DC09093570312
:1048E00080935603C0915603D0915703FE01E353C2
:1048F000FC4E649170E080918003909181030E944E
:10490000DA2570935B0360935A03072E000C880B23
:10491000990B0E9440266B017C012DEC3CEC4CEC89
:104920005DE30E94A4260E940826709359036093B9
:104930005803FE01EE0FFF1FE358FC4E8590949044
:1049400081149104E9F026E636E646E65FE3C70106
:10495000B6010E94A4260E940F26AB01BC01C4012F
:104960000E94080B40925C0350925D0360925E03CC
:1049700070925F03F1CB1092570310925603B2CF9F
:104980008CE00E94CC0DEECF86E291E090938F03F5
:1049900080938E038091AD039091AE03009711F048
:1049A0000C94D52708958F929F92AF92BF92CF9289
:1049B000DF92EF92FF92CF93DF93EC0168817981D0
:1049C0008A819B81611571058105910521F464E25D
:1049D00079ED8BE597E02DE133EF41E050E00E9467
:1049E000772549015A019B01AC01A7EAB1E40E9475
:1049F00096256B017C01ACEEB4EFA50194010E94F9
:104A0000A425C60ED71EE81EF91EF7FE06C081E0DB
:104A1000C81AD108E10880E8F80AC882D982EA8277
:104A2000FB82C701B6019F77DF91CF91FF90EF9096
:104A3000DF90CF90BF90AF909F908F9008958F920E
:104A40009F92AF92BF92CF92DF92EF92FF926091CE
:104A5000060170910701809108019091090161158B
:104A600071058105910521F464E279ED8BE597E00C
:104A70002DE133EF41E050E00E94772549015A01D2
:104A80009B01AC01A7EAB1E40E9496256B017C0171
:104A9000ACEEB4EFA50194010E94A425C60ED71E6A
:104AA000E81EF91EF7FE06C081E0C81AD108E10829
:104AB00080E8F80AC0920601D0920701E09208014E
:104AC000F0920901C701B6019F77FF90EF90DF9048
:104AD000CF90BF90AF909F908F9008956093060104
:104AE0007093070180930801909309010895052EA2
:104AF00097FB1EF400940E948E2557FD07D00E945C
:104B0000A92507FC03D04EF40C948E2550954095B2
:104B1000309521953F4F4F4F5F4F08959095809569
:104B2000709561957F4F8F4F9F4F08950E94CB25C1
:104B3000A59F900DB49F900DA49F800D911D1124F1
:104B40000895B7FF0C9496250E949625821B930B1F
:104B50000895A1E21A2EAA1BBB1BFD010DC0AA1FBE
:104B6000BB1FEE1FFF1FA217B307E407F50720F0D6
:104B7000A21BB30BE40BF50B661F771F881F991F51
:104B80001A9469F760957095809590959B01AC019A
:104B9000BD01CF010895A29FB001B39FC001A39FA3
:104BA000700D811D1124911DB29F700D811D112466
:104BB000911D089597FB072E16F4009407D077FDFA
:104BC00009D00E94EE2507FC05D03EF49095819512
:104BD0009F4F0895709561957F4F0895AA1BBB1B49
:104BE00051E107C0AA1FBB1FA617B70710F0A61BED
:104BF000B70B881F991F5A95A9F780959095BC010E
:104C0000CD010895EE0FFF1F0590F491E02D09945A
:104C10000E940F266894B1110C949E2608950E945C
:104C2000832688F09F5798F0B92F9927B751B0F095
:104C3000E1F0660F771F881F991F1AF0BA95C9F720
:104C400014C0B13091F00E949D26B1E008950C94FB
:104C50009D26672F782F8827B85F39F0B93FCCF3AE
:104C6000869577956795B395D9F73EF4909580959D
:104C7000709561957F4F8F4F9F4F0895E89409C0BD
:104C800097FB3EF490958095709561957F4F8F4F7F
:104C90009F4F9923A9F0F92F96E9BB279395F69595
:104CA000879577956795B795F111F8CFFAF4BB0F13
:104CB00011F460FF1BC06F5F7F4F8F4F9F4F16C077
:104CC000882311F096E911C0772321F09EE8872F01
:104CD000762F05C0662371F096E8862F70E060E0BD
:104CE0002AF09A95660F771F881FDAF7880F969536
:104CF000879597F9089557FD9058440F551F59F01F
:104D00005F3F71F04795880F97FB991F61F09F3FB8
:104D100079F087950895121613061406551FF2CFE1
:104D20004695F1DF08C0161617061806991FF1CF31
:104D300086957105610508940895E894BB27662758
:104D40007727CB0197F908950E94B7260C9428275E
:104D50000E941A2738F00E94212720F0952311F095
:104D60000C9411270C94172711240C949E260E9452
:104D70007B2670F3959FC1F3950F50E0551F629FFE
:104D8000F001729FBB27F00DB11D639FAA27F00DA4
:104D9000B11DAA1F649F6627B00DA11D661F829FCB
:104DA0002227B00DA11D621F739FB00DA11D621FB0
:104DB000839FA00D611D221F749F3327A00D611DCD
:104DC000231F849F600D211D822F762F6A2F1124AF
:104DD0009F5750409AF0F1F088234AF0EE0FFF1FE2
:104DE000BB1F661F771F881F91505040A9F79E3F39
:104DF000510580F00C9411270C949E265F3FE4F33C
:104E0000983ED4F3869577956795B795F795E7958E
:104E10009F5FC1F7FE2B880F911D9695879597F997
:104E2000089597F99F6780E870E060E008959FEF2C
:104E300080EC089500240A94161617061806090631
:104E4000089500240A941216130614060506089500
:104E5000092E0394000C11F4882352F0BB0F40F488
:104E6000BF2B11F460FF04C06F5F7F4F8F4F9F4FC8
:104E700008950F931F93CF93DF938230910510F421
:104E800082E090E0E091D003F091D10330E020E0A7
:104E9000B0E0A0E0309799F42115310509F44AC03B
:104EA000281B390B24303105D8F58A819B81611587
:104EB000710589F1FB0193838283FE0111C040815A
:104EC00051810281138148175907E0F048175907AB
:104ED00099F4109761F012960C93129713961C9305
:104EE0003296CF01DF91CF911F910F9108950093DA
:104EF000D0031093D103F4CF2115310551F042179F
:104F0000530738F0A901DB019A01BD01DF01F80167
:104F1000C1CFEF01F9CF9093D1038093D003CDCFD0
:104F2000FE01E20FF31F81939193225031093983DF
:104F30002883D7CF2091CE033091CF03232B41F488
:104F400020910C0130910D013093CF032093CE03BB
:104F500020910A0130910B012115310541F42DB743
:104F60003EB740910E0150910F01241B350BE0918B
:104F7000CE03F091CF03E217F307A0F42E1B3F0BF3
:104F80002817390778F0AC014E5F5F4F24173507BB
:104F900048F04E0F5F1F5093CF034093CE03819391
:104FA00091939FCFF0E0E0E09CCFCF93DF93009709
:104FB000E9F0FC01329713821282A091D003B091E4
:104FC000D103ED0130E020E01097A1F42081318180
:104FD000820F931F2091CE033091CF0328173907FA
:104FE00009F061C0F093CF03E093CE03DF91CF913E
:104FF0000895EA01CE17DF07E8F54A815B819E013B
:1050000041155105B1F7E901FB83EA8349915991B3
:10501000C40FD51FEC17FD0761F4808191810296C2
:10502000840F951FE90199838883828193819B83F3
:105030008A83F0E0E0E012968D919C91139700979F
:10504000B9F52D913C911197CD010296820F931FD6
:105050002091CE033091CF032817390739F63097C6
:1050600051F51092D1031092D003B093CF03A093C7
:10507000CE03BCCFD383C28340815181840F951F5F
:10508000C817D90761F44E5F5F4F88819981480F37
:10509000591F518340838A819B8193838283211589
:1050A000310509F0B0CFF093D103E093D0039ECF48
:1050B000FD01DC01C0CF13821282D7CF81E090E0E6
:1050C000F8940C946A28DC0101C06D934150504063
:1050D000E0F708951AE0CBE2DAE004C0FE010E9496
:0E50E00002262196CC32D107C9F7F894FFCFF3
:1050EE000101010101FF010000000000D203800058
:1050FE00000000001917EC16E31A560AE516D21630
:10510E00C31600000000C112F80DE31A5C16CC0F96
:10511E00560A66153E155A154E15AF15560A8710C6
:10512E008D1A3C0F850F87146A14F2139313534391
:02513E003A0035
:00000001FF
