:100000000C94D2030C94FA030C94FA030C94FA03A4
:100010000C94FA030C94FA030C94FA030C94DA137C
:100020000C94FA030C94FA030C94FA030C94FA035C
:100030000C94FA030C94FA030C94FA030C94FA034C
:100040000C9490130C94FA030C9482140C945C148A
:100050000C94FA030C94FA030C94FA030C94FA032C
:100060000C94B4140C94FA038000000000FFFC010F
:100070008007FCFFFEFFFC0183FFFEFFFF7FFE0108
:1000800083FFFE7FFF3FFF0183FFFF7FFFBFFF81F5
:1000900089FFFF3FFF9FFF818DFFFFBFFFCFFFC1A4
:1000A0008DFFFF9FFFEFFFE18CFFFFDFFFE7FFF119
:1000B0008EFFFFCFFFF7FFF18EFFFFEFFFFBFF018A
:1000C0008E7FFFEFFFE000118F7FFFE40001FFF163
:1000D0008F3F80003FFBFFF19F0007F7FFF3FFE139
:1000E0008F3FFFE7FFF7FFC18F3FFFEFFFE7FFC144
:1000F0008F7FFFEFFFEFFF818F7FFFCFFFCFFF816C
:10010000877FFFDFFFDFFF01867FFFDFFFDFFF016C
:10011000867FFF9FFFBFFE0182FFFFBFFFBFF80189
:1001200082FFFFBFFF30000182FFFF3FE0000001C0
:1001300080FFFF000600000180FFC007FE000001F5
:1001400080800E7FFC00000180003EFFFC0000016B
:1001500080001EFFFC00000180001CFFF800000171
:1001600080001DFFF800000180000DFFF00000017D
:10017000800009FFF0000001800003FFE0000001A3
:10018000800003F000000001FFFFFFFFFFFFFFFF03
:10019000EDBFFFFFFF7FF9E7ED34FFFFFE73F1E7EF
:1001A000B855FFFFF873E1E79EB3B3E3E423E3F34D
:1001B0008F1331F1F423E3F38F0771F0F233E3F19E
:1001C0008F0661F8FA01C1E1860EE0F87901C0C13D
:1001D000860CE0FC7901C001860CF0FC79008001FE
:1001E000860CF07C790080018606F07C7900800125
:1001F00086077878720080018D03387872000001DC
:100200009983B878F400000199819C71EC00000199
:100210008900FC71D80000018B007C63B0000001F4
:10022000860034E76000000180001EE64000000107
:1002300080000ECC80000001800006DB0000000181
:10024000800007D200000001800003A4000000012C
:10025000800001F800003001800000F00000300153
:10026000800000D00000000180000070000000014C
:100270008000806000000001830000600000000139
:1002800083000060000000018000006000000001A9
:100290008000006000000001800000F000000011FC
:1002A000800000C8000000018000018800000001FB
:1002B0008000018800000001800000900000000123
:1002C000800000F00800000173A223E200892220D0
:1002D00022008122202200711E21E2000922202218
:1002E000008922202200739EFBEF800000000000A6
:1002F00000000000000088B88000008C90800000A2
:100300008C908000014A9080000229908000022990
:100310009080000228BBE0004444C0446044600672
:10032000C006400E600C001C22262A32221C001C33
:10033000080808080C08003E02041820221C001CB3
:1003400022201820221C0010103E12141810001C2D
:100350002220201E023E001C22221E02041800043D
:1003600004040810203E001C22221C22221C000C27
:1003700010203C22221C000000002300260029003F
:10038000ECD1A4425CCF2443ECD1A4425CCF244303
:10039000ECD1A4425CCF2443ECD1A4425CCF2443F3
:1003A00000005C420000DC4200005C420000DC42D5
:1003B00000005C420000DC4200005C420000DC42C5
:1003C000D7A34F42F6A8CF42D7A34F42F6A8CF42B9
:1003D000D7A34F42F6A8CF42D7A34F42F6A8CF42A9
:1003E00000005C420000DC4200005C420000DC4295
:1003F00000005C42A4F0F6425CCF02435CCF244391
:100400000AD792427BD412430AD792427BD412433A
:100410000AD792427BD412430AD792427BD412432A
:10042000ECD182425CCF0243ECD182425CCF0243EA
:10043000ECD182425CCF0243ECD182425CCF0243DA
:10044000C3F57642A4F0F642C3F57642A4F0F64234
:10045000C3F57642A4F0F642C3F57642A4F0F64224
:1004600000005C420000DC4200005C420000DC4214
:1004700000005C420000DC4200005C420000DC4204
:1004800000005C42ECD1A44200005C42ECD1A442EA
:1004900000005C42ECD1A44200005C42ECD1A442DA
:1004A000D7A34F42ECD1A442D7A34F42ECD1A442F0
:1004B000D7A34F42ECD1A442D7A34F42ECD1A442E0
:1004C00000005C42ECD1A44200005C42ECD1A442AA
:1004D00000005C42ECD1A44200005C42ECD1A4429A
:1004E000D7A34F42ECD1A442D7A34F42ECD1A442B0
:1004F000D7A34F42ECD1A442D7A34F42ECD1A442A0
:1005000000005C42ECD1A44200005C42ECD1A44269
:1005100000005C42ECD1A44200005C42ECD1A44259
:10052000D7A34F42ECD1A442D7A34F42ECD1A4426F
:10053000D7A34F42ECD1A442D7A34F42ECD1A4425F
:1005400000005C42ECD1A44200005C42ECD1A44229
:1005500000005C42ECD1A44200005C42ECD1A44219
:10056000D7A34F42ECD1A442D7A34F42ECD1A4422F
:10057000D7A34F42ECD1A442D7A34F42ECD1A4421F
:1005800000D02444A4F0F64300D002441FD5124406
:1005900000D00244A4F0F6430000DC430000DC433A
:1005A00000D0024400D024441FD5124400D002449D
:1005B000A4F0F643A4F0F64300D002441FD5124441
:1005C00000D0244400D002440000DC430000DC439F
:1005D000000000001FD51244719D2E4400005C44B1
:1005E0005CFF4344719D2E4400D0244400D002445B
:1005F00000D024441FD5124400D00244A4F0F64396
:10060000A4F0F64300D002441FD5124400D0244485
:1006100000D002440000DC430000DC430000000086
:10062000A4D0A443A4D082437BD49243A4F07643C5
:10063000A4D0824300005C4366A64F43A4F07643F7
:10064000A4D0A443A4D082437BD49243A4F07643A5
:10065000A4D08243A4D0A4430000DC430000DC43C8
:1006600066A6CF43000000000000803F0000003F6E
:100670000000003F0000803F0000003F0000003FFE
:100680000000803F0000003F0000003F0000803F6E
:100690000000003F0000003F0000803F0000003FDE
:1006A0000000003F0000803F0000803F0000803FCE
:1006B0000000803F0000803F0000803F0000C03FFE
:1006C0000000003F0000803F0000003F0000003FAE
:1006D0000000C03F0000003F0000803F0000003FDE
:1006E0000000003F0000803F0000003F0000003F8E
:1006F0000000803F0000803F0000803F0000803FFE
:100700000000803F0000803F0000004000000040EB
:1007100000000040000000400000004000000040D9
:1007200000000040000000400000004000000040C9
:1007300000000040000000400000803F0000803FBB
:100740000000803F0000803F000040400000803FEC
:100750000000000800020100000304070000000080
:10076000000000000200000000250028002B00000F
:10077000000000240027002A0004040404040404E8
:100780000402020202020203030303030301020440
:100790000810204080010204081020010204081003
:1007A0002000D31511241FBECFEFD8E0DEBFCDBF90
:1007B00012E0A0E0B1E0E6EEF9E302C005900D9290
:1007C000A838B107D9F724E0A8E8B2E001C01D922B
:1007D000A539B207E1F713E0C2EDD3E004C02197D9
:1007E000FE010E94F11AC13DD107C9F70E940C1603
:1007F0000C94F11C0C94000090E0FC01E357F84FBE
:1008000024918758984FFC018491882399F090E0B7
:10081000880F991FFC01E159F84FA591B491FC0193
:10082000EB59F84F859194918FB7F894EC91E22BA6
:10083000EC938FBF08954F925F926F927F928F9249
:100840009F92AF92BF92CF92DF92EF92FF920F935F
:100850001F93CF938C014A015B0180915E028C3023
:1008600099F08F3F09F486C0CF911F910F91FF90AF
:10087000EF90DF90CF90BF90AF909F908F907F9040
:100880006F905F904F900895E4E6F7E0C491C7FD44
:10089000EBCF8CE00E94FC032801712C612CCC234F
:1008A000F1F0980150E040E0C23009F007C12801A2
:1008B0003A0160E970ED83E090E00E948E1A6901D0
:1008C0007A0181E0C81AD108E108F10883E09FEFBE
:1008D000C916D104E104F10409F00CF444C068E441
:1008E00078EE81E090E0A30192010E948E1A6901E6
:1008F0007A0181E0C81AD108E108F108CC2309F493
:1009000015C1C23009F01CC184E09FEFC916D104A3
:10091000E104F10441F13CF164E274EF80E090E025
:10092000A30192010E948E1A69017A0181E0C81A1E
:10093000D108E108F10885E09FEFC916D104E10470
:10094000F10489F080F062E17AE780E090E0A301B1
:1009500092010E948E1A69017A0181E0C81AD108B9
:10096000E108F10886E09091B100987F892B80938F
:10097000B10082C08CE080935E02E4E6F7E0C491AF
:10098000CF3F09F471CFC13019F148F0C23009F4FA
:100990003DC0C7FD69CF8CE00E94FC0382CF14BC30
:1009A00015BC84B5826084BD85B5816085BDE5E8F0
:1009B000F7E0E491F0E0EE0FFF1FEB59F84F85915F
:1009C0009491E9E9F7E0E491E0938F03C0E061CF0F
:1009D0001092800010928100809181008860809345
:1009E000810080918100816080938100E5E8F7E0DB
:1009F000E491F0E0EE0FFF1FEB59F84F85919491D1
:100A0000E9E9F7E0E491E0938E0343CF1092B00060
:100A10001092B1008091B00082608093B00080910C
:100A2000B10081608093B100E5E8F7E0E491F0E087
:100A3000EE0FFF1FEB59F84F8591949190938D0322
:100A400080938C03E9E9F7E0E491E0938B0321CFF5
:100A500062E17AE780E090E0A30192010E948E1AA1
:100A600069017A0191E0C91AD108E108F10894E01E
:100A700085B5887F892B85BDD801AA0FBB1FA5012D
:100A800094010E94AD1A28EE33E040E050E00E944D
:100A9000C01AC13049F1C230C9F1C111E5CEC7BC9D
:100AA000209398033093990340939A0350939B03A8
:100AB00080916E00826080936E00D6CE60E072E11D
:100AC0008AE790E00E948E1A69017A0181E0C81AD3
:100AD000D108E108F108C13079F680918100887F62
:100AE000816080938100C8CFD0928900C092880035
:100AF0002093940330939503409396035093970368
:100B000080916F00826080936F00AECEC092B30080
:100B10002093900330939103409392035093930357
:100B2000809170008260809370009ECE9FEFC91606
:100B3000D104E104F10411F008F08ACF93E098CFDA
:100B400084E0FACE833081F028F4813099F082304D
:100B5000A9F008958730A9F08830C9F08430B1F445
:100B6000809180008F7D03C0809180008F7780937B
:100B70008000089584B58F7784BD089584B58F7DF6
:100B8000FBCF8091B0008F778093B0000895809163
:100B9000B0008F7DF9CF1F93CF93DF93282F30E0E4
:100BA000F901E05BF84F8491F901E357F84FD491D4
:100BB000F901E758F84FC491CC23A9F0162F811101
:100BC0000E94A205EC2FF0E0EE0FFF1FEB59F84F4B
:100BD000A591B4918FB7F894EC91111108C0D095FC
:100BE000DE23DC938FBFDF91CF911F910895DE2B21
:100BF000F8CF806480937C0080917A008064809339
:100C00007A0080917A0086FDFCCF809178009091E7
:100C1000790008953FB7F8948091870390918803F5
:100C2000A0918903B0918A0326B5A89B05C02F3FE8
:100C300019F00196A11DB11D3FBFBA2FA92F982F02
:100C40008827BC01CD01620F711D811D911D42E0FD
:100C5000660F771F881F991F4A95D1F708958F92C5
:100C60009F92AF92BF92CF92DF92EF92FF926B0171
:100C70007C010E940A064B015C01C114D104E1040D
:100C8000F104B9F00E940A06681979098A099B09DA
:100C9000683E73408105910580F321E0C21AD108B6
:100CA000E108F10888EE880E83E0981EA11CB11CB3
:100CB000E4CFFF90EF90DF90CF90BF90AF909F90E8
:100CC0008F90089508950895AF92BF92CF92DF92CA
:100CD000EF92FF920F931F93CF93DF936C017B01F1
:100CE0008B01040F151FEB015E01AE18BF08C01782
:100CF000D10759F06991D601ED91FC910190F081F5
:100D0000E02DC6010995892B79F7C501DF91CF91B7
:100D10001F910F91FF90EF90DF90CF90BF90AF9019
:100D20000895FC01538D448D252F30E0842F90E0F1
:100D3000821B930B541710F0CF96089501970895D6
:100D4000FC01918D828D981761F0A28DAE0FBF2F9F
:100D5000B11D5D968C91928D9F5F9F73928F90E0F5
:100D600008958FEF9FEF0895FC01918D828D981764
:100D700031F0828DE80FF11D858D90E008958FEFA1
:100D80009FEF0895FC01918D228D892F90E0805C6A
:100D90009F4F821B91098F73992708958CEE93E0E2
:100DA0000E94C20621E0892B09F420E0822F0895D9
:100DB00080E090E0892B29F00E94CE0681110C94EE
:100DC00000000895FC01A48DA80FB92FB11DA35AEE
:100DD000BF4F2C91848D90E001968F739927848F5B
:100DE000A689B7892C93A089B1898C91837080647E
:100DF0008C93938D848D981306C00288F389E02D1F
:100E000080818F7D80830895EF92FF920F931F93CF
:100E1000CF93DF93EC0181E0888F9B8D8C8D9813AD
:100E20001AC0E889F989808185FF15C09FB7F894B9
:100E3000EE89FF896083E889F98980818370806405
:100E400080839FBF81E090E0DF91CF911F910F9150
:100E5000FF90EF900895F62E0B8D10E00F5F1F4F5F
:100E60000F731127E02E8C8D8E110CC00FB607FC6E
:100E7000FACFE889F989808185FFF5CFCE010E94FC
:100E8000E206F1CFEB8DEC0FFD2FF11DE35AFF4F82
:100E9000F0829FB7F8940B8FEA89FB89808180628A
:100EA000CFCFCF93DF93EC01888D8823B9F0AA8947
:100EB000BB89E889F9898C9185FD03C0808186FD15
:100EC0000DC00FB607FCF7CF8C9185FFF2CF808164
:100ED00085FFEDCFCE010E94E206E9CFDF91CF91F1
:100EE000089520912A03260F3327331F213231051D
:100EF000ECF42091C203FC0190E080E0243069F022
:100F000082E00895A0912A032191AC01465F5C4FD5
:100F1000A40FB52FB11D2C930196861798F38091DD
:100F20002A03680F60932A0380E0089581E0089502
:100F30001092C20381E08093C10310929C0361E090
:100F400082E10E94CB0561E083E10E94CB05E9EBE1
:100F5000F0E080818E7F808380818D7F808388E434
:100F60008093B80085E48093BC000895CF93DF930D
:100F700091E0909309038823B9F0C091B800D09113
:100F8000BA008091BC008A7B8093BC0060E082E163
:100F90000E94CB0560E083E10E94CB050E94980788
:100FA000D093BA00C093B800DF91CF910895CF924B
:100FB000DF92EF92FF920F931F93CF93DF93D09125
:100FC000EB0381E0D13208F09CC0C091EA030E949B
:100FD0000A066B017C018091C20381116CC082E022
:100FE0008093C20381E08093C1038FEF8093C0039D
:100FF0001092BF03D093BE03AAECB3E0EEE9F3E096
:1010000080E0D8138DC010929D0380919D03CC0F7A
:10101000C82BC0939D0380919C03813009F084C04C
:1010200010929C030E940A066B017C0180919D0333
:101030008093BB008091C4039091C503A091C60327
:10104000B091C703892B8A2B8B2BA1F00E940A0633
:101050000091C4031091C5032091C6033091C703CA
:101060006C197D098E099F0906171707280739078C
:1010700008F442C08091BC0083FDD8CF85EC8093FA
:10108000BC000E940A066B017C018091C203823081
:1010900009F44CC08091C0038F3F09F469C080916E
:1010A000C003803209F466C08091C003803309F424
:1010B00063C084E026C08091C4039091C503A091D1
:1010C000C603B091C703892B8A2B8B2B09F483CFDE
:1010D0000E940A060091C4031091C5032091C60323
:1010E0003091C7036C197D098E099F0906171707F0
:1010F0002807390708F06FCF8091C3030E94B60715
:1011000085E01092C9031092EB031092C803DF919F
:10111000CF911F910F91FF90EF90DF90CF900895A6
:101120009D9191938F5F6DCF85EEA9CF8091C40380
:101130009091C503A091C603B091C703892B8A2B58
:101140008B2B09F4A2CF0E940A060091C4031091D0
:10115000C5032091C6033091C7036C197D098E0920
:101160009F09061717072807390708F08ECFC4CF45
:1011700080E0C7CF82E0C5CF83E0C3CF0895E09180
:10118000520380915103E81730F4F0E0E751FD4F2E
:10119000808190E008958FEF9FEF08959091520322
:1011A000809151032FEF3FEF981748F4E92FF0E0BB
:1011B000E751FD4F208130E09F5F90935203C901BA
:1011C00008958091510390915203891B990B0895C2
:1011D000CF92DF92EF92FF920F931F93CF93DF9303
:1011E0007C01CB018A012091C803222389F0EB0105
:1011F0006B01C40ED51ECC15DD0569F06991D701D0
:10120000ED91FC910190F081E02DC7010995F3CF9C
:10121000642F0E947107C801DF91CF911F910F9138
:10122000FF90EF90DF90CF900895CF93DF931F92C0
:10123000CDB7DEB769832091C8032223F9F020914E
:10124000EB03203258F021E030E0FC0133832283AD
:1012500090E080E00F90DF91CF9108958091C903D5
:10126000E82FF0E0E653FC4F998190838F5F8093E5
:10127000C9038093EB0381E090E0ECCF61E0CE0105
:1012800001960E947107F7CF90E080E00895CF9219
:10129000DF92FF920F931F93CF93DF9360916403CC
:1012A00070916303262FE62F062E000CFF0B6F01B3
:1012B00083E0C80ED11CA72F072E000CBB0B139682
:1012C00089E1F82E822F861B422F022E000C550B2F
:1012D000C416D50644F1372FC4E08C9FC0011124F9
:1012E0008D5A9C4FF49EE001F59ED00D1124C05004
:1012F000DF4F032F071B432F032E000C550BA417A2
:10130000B5077CF0080F192F111DF801108111236A
:1013100031F04C0F5D1FFA014081413069F03F5FB1
:10132000E8CF2F5FCFCF80E0DF91CF911F910F915A
:10133000FF90DF90CF90089581E0F6CFCF92DF92BB
:10134000EF92FF920F931F93CF93DF9360917603F9
:1013500070917503262FE62F062E000CFF0B6F01F0
:1013600083E0C80ED11CA72F072E000CBB0B1396D1
:1013700039E1F32E43E0E42E822F861B422F022E0A
:10138000000C550BC416D50634F1372FC4E08C9FE2
:10139000C00111248B599C4FF49EE001F59ED00DA5
:1013A0001124C050DF4F032F071B432F032E000CC7
:1013B000550BA417B5076CF0080F192F111DF80174
:1013C0001081112321F04C0F5D1FFA01E0823F5F75
:1013D000EACF2F5FD1CF6091640370916303262F12
:1013E000E62F062E000CFF0B6F0183E0C80ED11C08
:1013F000A72F072E000CBB0B139689E1F82E92E065
:10140000E92E822F861B422F022E000C550BC4168C
:10141000D50634F1372FC4E08C9FC00111248D5ABA
:101420009C4FF49EE001F59ED00D1124C050DF4F7B
:10143000032F071B432F032E000C550BA417B507D2
:101440006CF0080F192F111DF8011081112321F0E4
:101450004C0F5D1FFA01E0823F5FEACF2F5FD1CFD3
:10146000DF91CF911F910F91FF90EF90DF90CF9080
:1014700008958F929F92AF92BF92CF92DF92EF9298
:10148000FF920F931F93CF93DF93CDB7DEB7609793
:101490000FB6F894DEBF0FBECDBFE82FE150FF0BB3
:1014A0008F01000F111F90E030E0F12CE12C085E5D
:1014B0001C4F81E0F801EE0DFF1DE491A8E0CA2E5B
:1014C000D12C51E0A92EB12CF4E03F9FD001112482
:1014D0007E2F752388248394912C8C0E9D1EA80D3D
:1014E000B91DAA0DBB1D772309F45DC08C939F5FC6
:1014F000943010F03F5F90E0550F71E0C71AD108AB
:1015000009F7EA94EF2809F04AC080E1FE0131961C
:10151000A3E5B3E001900D928A95E1F76093630330
:1015200040936403222309F442C082E1E3E5F3E03F
:10153000A5E6B3E001900D928A95E1F7842FE42FA0
:10154000F0E06F0123E0C20ED11C99E170E052E09F
:10155000A82FA41B8C151D0409F04CF5E4E0AE9FE8
:10156000D00111247B01899FE00CF11C112430E093
:1015700020E024303105C9F089010A0F1B1F0D5AE4
:101580001C4FF8011081112339F089010E0D1F1D28
:1015900000501F4FF80150832F5F3F4FEACFEE24DA
:1015A000E394F12C87CF1C92A2CF8F5FD1CF6096AE
:1015B0000FB6F894DEBF0FBECDBFDF91CF911F9164
:1015C0000F91FF90EF90DF90CF90BF90AF909F90E2
:1015D0008F90089521E030E0F901E050FF4F42E0A4
:1015E00050E082AB4F5F5F4F79964C305105C9F7A1
:1015F0002F5F3F4F2531310579F70895CF93C82FDD
:1016000081E08093C8038CE38093EA031092C903BE
:101610001092EB0360E489E894E00E9415096C2FB6
:1016200089E894E00E941509CF910C94D707CF93D5
:10163000C82F81E08093C8038CE38093EA03109263
:10164000C9031092EB0360E889E894E00E94150951
:101650006C2F89E894E00E941509CF910C94D7076C
:101660000F931F93CF93DF9380E20E94170B81E0CB
:101670000E94170B81E20E94170B80E00E94170B5B
:101680008FE70E94170B82E20E94170B80E00E94F6
:10169000170B87E00E94170B00E810E0D0E0C0E0D5
:1016A00081E0209729F080E8C730D10509F080E07B
:1016B0000E94FE0A2196C830D10591F70150110908
:1016C00069F7DF91CF911F910F910895CF93DF9329
:1016D00080E20E94170B81E00E94170B81E20E94BA
:1016E000170B80E00E94170B80E00E94170B82E22C
:1016F0000E94170B80E00E94170B87E00E94170BD7
:10170000C8E0D0E08FEF0E94FE0A2197D9F7DF9161
:10171000CF910895CF92DF92FF920F931F93CF93B3
:10172000DF93F82E80E20E94170B81E00E94170BD6
:1017300081E20E94170B82E30E94170B82E40E9451
:10174000170B82E20E94170B81E00E94170B85E0C5
:101750000E94170BD0E0C0E004E010E0CE018853F7
:101760009D4F6C0180E0F11004C0F601E00FF11F05
:1017700084910E94FE0A01501109A0F72596C035F8
:10178000D10551F781E20E94170B81E00E94170BEF
:101790008AE20E94170B82E20E94170B80E00E94EF
:1017A000170B87E00E94170BD0E0C0E007E010E0C5
:1017B000CE0188579E4F6C0180E0F11004C0F60105
:1017C000E00FF11F84910E94FE0A01501109A0F759
:1017D0002896C03481E0D80749F781E20E94170BB0
:1017E0008BE40E94170B84E70E94170B82E20E9491
:1017F000170B80E00E94170B87E00E94170BD0E0C8
:10180000C0E007E010E0CE0188599F4F6C0180E0F6
:10181000F11004C0F601E00FF11F84910E94FE0A4E
:1018200001501109A0F72896C03281E0D80749F786
:10183000DF91CF911F910F91FF90DF90CF9008958E
:101840008F929F92AF92BF92CF92DF92EF92FF92D0
:10185000CF93DF9349015A019B01AC0160E074E230
:1018600084E799E40E94691B0E94DB1B6B017C01E9
:10187000C501B401A70196010E94C01A4B01E901FC
:10188000D701C601B695A795979587957C016C0100
:10189000CC0CDD1CCC0CDD1C85E0C81AD1082097CF
:1018A000C1F061E08CE00E94CB0582E0E816F10413
:1018B00018F0C6010197F1F760E08CE00E94CB05BB
:1018C00082E0E816F10418F0C6010197F1F72197BC
:1018D000E6CF82E08816910440F0C401880F991F7A
:1018E000880F991F05970197F1F7DF91CF91FF902E
:1018F000EF90DF90CF90BF90AF909F908F90089522
:1019000085ED8093BC008091C4039091C503A091A4
:10191000C603B091C7030796A11DB11D23E0B6957C
:10192000A795979587952A95D1F72091BC0024FD1E
:1019300003C01092C20308954091C4035091C5039F
:101940006091C6037091C703452B462B472B69F363
:101950000097A105B10541F02AE22A95F1F700C0F0
:101960000197A109B109E1CF8091C3030C94B60797
:10197000CF93DF93E9EDF2E090E1DF011D929A95BC
:10198000E9F78150873008F038C0E82FF0E0E553E0
:10199000F34F0C94F11A720D630D4E0D350D250D9C
:1019A000E80CD20C90E79093D90287E08093DA029A
:1019B0009093DB028093DC029093DD028093DE0241
:1019C0008EEE8093E1028093E3028093E50215C0DE
:1019D00090E79093D90287E78093DA029093DB0235
:1019E0008093DC029093DD028093DE028EE0809390
:1019F000E2028093E4028093E60280E20E94170BE9
:101A000081E00E94170B81E20E94170B88E70E9479
:101A1000170B8FE70E94170B82E20E94170B86E0DC
:101A20000E94170B87E00E94170BC9EDD2E0888156
:101A30000E94FE0A89810E94FE0A2296B2E0C93EF7
:101A4000DB07A9F7DF91CF91089590E79093D90232
:101A500087E08093DA029093DB028093DC0290931C
:101A6000DD028093DE028EEEC2CF90E79093D90222
:101A700087E08093DA029093DB028093DC029093FC
:101A8000DD028093DE029093E1028093E202909364
:101A9000E3028093E4029093E502ADCF80E7809368
:101AA000D9028093DB028093DD028093E10297E705
:101AB0009093E2028093E3029093E4028093E50224
:101AC0009093E6029ACF80E78093D90297E79093AC
:101AD000DA028093DB029093DC028093DD02909324
:101AE000DE026FCF87E78093DD028093DE02809372
:101AF000DF028093E0028093E1028093E202809310
:101B0000E3028093E40279CF3F924F925F926F920B
:101B10007F928F929F92AF92BF92CF92DF92EF927D
:101B2000FF920F931F93CF93DF93CDB7DEB76897E4
:101B30000FB6F894DEBF0FBECDBF6B017C01342E13
:101B40007AE0472E512C612C712CB601A301920131
:101B50000E948E1A69877A878B879C87CA01B90190
:101B6000A30192010E948E1A6D877E878F87988BC2
:101B7000C701B60124E630E040E050E00E948E1A32
:101B8000CA01B901A30192010E948E1A698B7A8B56
:101B90008B8B9C8BC701B60128EE33E040E050E010
:101BA0000E948E1ACA01B901A30192010E948E1AE5
:101BB0006D8B7E8B8F8B988FC701B60120E137E24A
:101BC00040E050E00E948E1ACA01B901A3019201BF
:101BD0000E948E1A4B01E9EAF2E080E3DF011D92D8
:101BE0008A95E9F7C701B60120EA36E841E050E0FE
:101BF0000E948E1ACA01B901A30192010E948E1A95
:101C0000E3E0660F771FEA95E1F7DE0111969D018B
:101C100090E080E06A5D7C4FFB01E80FF91F449182
:101C2000F90141939F01019688309105A9F709EACE
:101C300012E09D01A801F90181919F018595FA01AA
:101C40009081892B80834A5F5F4FF2E0493D5F07B7
:101C500091F763E0880C991C6A95E1F79D0190E08B
:101C600080E0A4014A5D5C4F4A01F401E80FF91FCE
:101C70004491F90141939F01019688309105A9F79C
:101C80009D0169EA72E0F90141919F01F0E44F0280
:101C9000A0011124FB018081842B80836A5F7F4F28
:101CA000F2E0693D7F0779F79D0149EA52E0F901C9
:101CB00081919F018595FA019181892B81834A5FEA
:101CC0005F4FF2E0493D5F0791F7CD88DE8853E032
:101CD000CC0CDD1C5A95E1F79D0190E080E0A60157
:101CE0004A5D5C4F6A01F601E80FF91F4491F90162
:101CF00041939F01019688309105A9F79D0169EAFA
:101D000072E0F90141919F01F0E44F02A00111241A
:101D1000FB018181842B81836A5F7F4FF2E0693D03
:101D20007F0779F79D0149EA52E0F90181919F010E
:101D30008595FA019281892B82834A5F5F4FF2E099
:101D4000493D5F0791F789899A8943E0880F991F78
:101D50004A95E1F7AD0130E020E08A5D9C4FFC013F
:101D6000E20FF31F6491FA016193AF012F5F3F4FC0
:101D700028303105A1F79D0169EA72E0F90141912E
:101D80009F01F0E44F02A0011124FB018281842B0A
:101D900082836A5F7F4FF2E0693D7F0779F79D019B
:101DA00049EA52E0F90181919F018595FA019381F9
:101DB000892B83834A5F5F4FF2E0493D5F0791F7CC
:101DC0008D859E8533E0880F991F3A95E1F7AD0127
:101DD00030E020E08A5D9C4FFC01E20FF31F64912C
:101DE000FA016193AF012F5F3F4F28303105A1F712
:101DF000AD0169EA72E0FA012191AF01F0E42F022E
:101E000090011124FB018381822B83836A5F7F4FC2
:101E1000F2E0693D7F0779F79D0149EA52E0F90157
:101E200081919F018595FA019481892B84834A5F72
:101E30005F4FF2E0493D5F0791F789859A8523E07E
:101E4000880F991F2A95E1F7AD0130E020E08A5D07
:101E50009C4FFC01E20FF31F6491FA016193AF0103
:101E60002F5F3F4F28303105A1F7AD0169EA72E0DD
:101E7000FA012191AF01F0E42F0290011124FB013E
:101E80008481822B84836A5F7F4FF2E0693D7F0704
:101E900079F7E9EAF2E08D9185959581892B858323
:101EA000369642E0E93DF407B1F780E20E94170B55
:101EB00081E00E94170B81E20E94170B88E70E94C5
:101EC000170B8FE70E94170B82E20E94170B80E02E
:101ED0000E94170B85E00E94170BF12CE12C80E08B
:101EE000311004C0F801EE0DFF1D80810E94FE0A32
:101EF0005FEFE51AF50A86E0E816F10481F70A5F5C
:101F00001F4FA2E0093D1A0741F768960FB6F894F3
:101F1000DEBF0FBECDBFDF91CF911F910F91FF901C
:101F2000EF90DF90CF90BF90AF909F908F907F9079
:101F30006F905F904F903F9008952F923F924F92F5
:101F40005F926F927F928F929F92AF92BF92CF9249
:101F5000DF92EF92FF920F931F93CF93DF9300D006
:101F60001F92CDB7DEB781E090E09B838A8391E03A
:101F7000998387EA482E82E0582E95E9692E92E0EF
:101F8000792E28E0322E3DE8A32E32E0B32E4EE328
:101F9000242EEA81FB81E050FF4FDF018AE0D296D8
:101FA0009C91D2979250923008F079C1ADE9B2E09D
:101FB00082A98D93833009F412AA79964A165B069A
:101FC000B9F7F301232D11922A95E9F7F501232D95
:101FD00011922A95E9F780919D029FEF980F923018
:101FE00090F489EF80938D0281E080939502809137
:101FF0009E029FEF980F923060F420928E0281E053
:102000008093960208C0833091F781E080938D021F
:10201000ECCF8330A1F380919F029FEF980F923015
:10202000D0F580918E02806880938E0281E080934B
:1020300096029FE090938F02809397028091A00276
:102040009FEF980F923090F580918F02806E809371
:102050008F0281E080939702E3E0E0939002809307
:1020600098028091A1029FEF980F923050F58091D5
:102070009002886F8093900281E080939802809113
:10208000A2029FEF980F923010F52092910281E00A
:10209000809399021EC0833089F680918E028F77DB
:1020A00080938E0281E080939602C6CF8330C9F67A
:1020B00080918F028F7180938F0281E080939702CD
:1020C000CECF8330E1F6809190028770D3CF8330FA
:1020D000F1F28091A3029FEF980F923008F087C031
:1020E0008091910280688093910281E080939902AF
:1020F000FFE0F093920280939A028091A4029FEFF6
:10210000980F923008F07FC080919202806E809389
:10211000920281E080939A0223E0209393028093BD
:102120009B028091A5029FEF980F923008F077C034
:1021300080919302886F8093930281E080939B0249
:102140008091A6029FEF980F923008F06FC08EEB3F
:102150008093940281E080939C02E5E9F2E0DF0144
:1021600090E080E02D91222309F467C090938C02C7
:1021700080938B0287E090E02781222309F463C0DB
:1021800090938A028093890280E20E94170B81E07B
:102190000E94170B81E20E94170B89810E94170B86
:1021A00089818C5F0E94170B82E20E94170BE090DE
:1021B0008B02F0908C028E2D0E94170BC09089022A
:1021C000D0908A028C2D0E94170B05E010E0C70109
:1021D00083579D4F4C01C4018D589240C816D906B3
:1021E000CCF1F40181914F010E94FE0AF4CF8330BB
:1021F00009F083CF809191028F778093910281E0E3
:102200008093990278CF833009F08BCF809192022E
:102210008F718093920281E080939A0280CF833005
:1022200009F08ECF80919302877085CF833009F0BB
:1022300094CF90E8909394028DCF019688309105C9
:1022400009F090CF97CF019731978F3F980709F00A
:1022500093CF9ACF0150110909F0B9CFF981FA5FF4
:10226000F9838A819B8101969B838A83459709F034
:1022700090CE0F900F900F90DF91CF911F910F9103
:10228000FF90EF90DF90CF90BF90AF909F908F9096
:102290007F906F905F904F903F902F900895815066
:1022A000599681117CCEDACF4F925F926F927F92D6
:1022B0008F929F92AF92BF92EF92FF920F931F93D4
:1022C000CF93DF9382E1E3E5F3E0A5E6B3E001908D
:1022D0000D928A95E1F7C09163038FEF8C0F809385
:1022E00063030E944709F82E882309F4FDC182E1A7
:1022F000E5E6F3E0A3E5B3E001900D928A95E1F7FE
:1023000090916403892FAC2E0C2E000CBB08492F32
:10231000092E000C550B4D5F5F4FD9E111E0682F7E
:10232000691B282F082E000C330B421753070CF1A2
:1023300024E0629FB0011124D5018D02A00DB11DD2
:10234000112430E020E02430310589F0F901E60F56
:10235000F71FED5AFC4FE081EE2331F0F901EA0F4F
:10236000FB1FE050FF4F10832F5F3F4FECCF8F5F7D
:10237000D6CF1C160CF0C1E00C2F0C2E000C110B4C
:10238000D0E083E0A80EB11C43E0E42EA016B10615
:1023900014F1F801E050FF4FDF018AE0D2969C91E2
:1023A000D297992399F0815059968111F7CF8AE0FD
:1023B000E2AA815079968111FBCFC1E0C00FDF5FA7
:1023C0006DE470E080E090E00E942F060E949D0F77
:1023D0000F5F1F4FDBCFDD2309F470C01D2F03E01B
:1023E00032E0E32EBB24B39482E090E0FC01E150A4
:1023F000FF4F3F2D2AE042A9411130E0215079964C
:102400002111F9CF3323A9F09C01243131058CF43B
:10241000F901E050FF4F4AE052A9552341F0E1AAEB
:10242000415079964111F8CF2F5F3F4FEECF01AB6E
:10243000F7CF019685319105C9F690E080E0FC0167
:10244000EF5FFE4F2AE032A9323009F4B2AA2150E0
:1024500079962111F8CF01968731910581F71150B6
:102460000E949D0F42E350E060E070E088EE93E050
:102470000E941B046CE370E080E090E00E942F0655
:1024800042E350E060E070E080ED97E00E941B04C2
:1024900062E370E080E090E00E942F0642E350E0AB
:1024A00060E070E084EF91E00E941B046CE370E058
:1024B00080E090E00E942F06111196CFED2E0D2E98
:1024C000000CFF08D23009F460C02CF4D13019F1AF
:1024D00010E000E02BC0D33009F45EC0D430C1F767
:1024E0008091770390917803019620EB34E0829FEE
:1024F0008001839F100D929F100D112487EA0E9486
:10250000170B64E170E080E090E00E942F0686EAFD
:102510000E94170B0BC0809177039091780301966E
:1025200028E2289F8001299F100D112480917F03AC
:10253000909180034C01092E000CAA08BB08080FDB
:10254000191F2801012E000C66087708D5E08414B5
:102550009504A604B7047CF540E0C501B4010E94CF
:10256000840D20917703309178032F5F3F4FD29FE6
:10257000C001D39F900D1124092E000CAA0BBB0B98
:10258000880E991EAA1EBB1EE2CF80917703909100
:102590007803019624E6C5CF809177039091780364
:1025A00001962CE231E0829F8001839F100D929F63
:1025B000100D1124BBCF1093800300937F0340E0E4
:1025C000C301B2010E94840D8091A7029091A802DC
:1025D0008E0D9F1D9093A8028093A7020B970CF479
:1025E00049C0809177039091780301969093780386
:1025F000809377031092A8021092A70287EA0E94A4
:10260000170B64E670E080E090E00E942F0686EAF7
:102610000E94170B0AEF10E045E050E060E070E028
:10262000C8010E941B0465E070E080E090E00E9419
:102630002F0645E050E060E070E0C8019595879571
:102640000E941B046AE070E080E090E00E942F0688
:102650000C591F4F063F29E01207F1F687EA0E9446
:10266000170B64E670E080E090E00E942F0686EA97
:102670000E94170B90E080E02C2F0C2E000C330BE7
:1026800020503F4F51E04C2F480F14166CF0F901C9
:10269000E80FF91F4AE062A9611152AB41507996E7
:1026A0004111F9CF0196EFCFC0917E0320E044E0C5
:1026B00063E18C2F0E94390A0E944709882349F15F
:1026C00081E0809381030E94361A27E030E040E0E9
:1026D00050E00E948E1ADC01CB010196A11DB11DB4
:1026E00080937E030E94B80C64E670E080E090E086
:1026F0000E942F06DF91CF911F910F91FF90EF90D5
:10270000BF90AF909F908F907F906F905F904F9011
:10271000089521E044E063E18C2F0E94390AD3CF71
:102720001F920F920FB60F9211242F933F938F9306
:102730009F93AF93BF938091830390918403A09163
:102740008503B09186033091820323E0230F2D3758
:1027500058F50196A11DB11D209382038093830338
:1027600090938403A0938503B0938603809187039D
:1027700090918803A0918903B0918A030196A11DCD
:10278000B11D8093870390938803A0938903B0932E
:102790008A03BF91AF919F918F913F912F910F909D
:1027A0000FBE0F901F90189526E8230F0296A11DCB
:1027B000B11DD2CF1F920F920FB60F9211242F93FB
:1027C0003F934F935F936F937F938F939F93AF93B9
:1027D000BF93EF93FF938091900390919103A09109
:1027E0009203B0919303892B8A2B8B2BD1F190917B
:1027F0008B03E0918C03F0918D0380818927808386
:102800008091900390919103A0919203B0919303D2
:10281000181619061A061B069CF4809190039091D5
:102820009103A0919203B09193030197A109B1097B
:102830008093900390939103A0939203B09393039A
:10284000FF91EF91BF91AF919F918F917F916F9188
:102850005F914F913F912F910F900FBE0F901F905E
:10286000189580915E02E4E6F7E0E4919FEF909383
:102870005E02E13051F030F0E23069F060E00E9439
:10288000CB05DECF10926E00F9CF90916F009D7F47
:1028900090936F00F3CF909170009D7F90937000A4
:1028A00091E09093B0009091B100987F94609093E4
:1028B000B1001092B300E2CF1F920F920FB60F92A9
:1028C00011242F933F934F935F936F937F938F9335
:1028D0009F93AF93BF93EF93FF938CEE93E00E948F
:1028E000E206FF91EF91BF91AF919F918F917F9100
:1028F0006F915F914F913F912F910F900FBE0F906D
:102900001F9018951F920F920FB60F9211242F93BC
:102910008F939F93EF93FF93E091FC03F091FD035E
:102920008081E0910204F091030482FD1BC090813C
:10293000809105048F5F8F7320910604821741F008
:10294000E0910504F0E0E451FC4F958F809305047D
:10295000FF91EF919F918F912F910F900FBE0F904C
:102960001F9018958081F4CF1F920F920FB60F928F
:1029700011242F933F934F935F936F937F938F9384
:102980009F93AF93BF93EF93FF938091B900887F9C
:10299000803609F44AC0F0F5883209F4A7C018F56A
:1029A000803109F49BC0B8F4882309F4F9C0883059
:1029B00009F494C0FF91EF91BF91AF919F918F91D6
:1029C0007F916F915F914F913F912F910F900FBE2B
:1029D0000F901F901895883109F488C0803251F704
:1029E0008093C00314C0803409F49DC040F4803348
:1029F000B9F38833F9F68093C00385ECB0C0803515
:102A000009F485C0883509F496C0883499F60E9487
:102A1000800CD0CF883909F48CC038F5883729F07C
:102A200050F4883611F0803729F683E08093C20392
:102A300010924C0357C0883809F47BC0803919F0D4
:102A4000803809F0B7CF80914C03803208F071C014
:102A5000E0914C0381E08E0F80934C038091BB008A
:102A6000F0E0E45DFC4F80833DC0803B39F0E0F452
:102A7000803A09F479C0883A09F09CCF84E08093C9
:102A8000C20310922B0310922A03E0914F03F0919E
:102A90005003099580912A0381110FC081E0809332
:102AA0002A0310920A0309C0803C09F4A6CF883C8F
:102AB00009F4A3CF883B09F07DCFE0912B0381E09F
:102AC0008E0F80932B03F0E0E65FFC4F80818093B4
:102AD000BB0090912B0380912A0329C080919D0314
:102AE0008093BB0085EC8093BC0064CF9091BF03C2
:102AF0008091BE03981758F5E091BF0381E08E0FD7
:102B00008093BF03F0E0E256FC4F8081E9CFE09173
:102B1000BF0381E08E0F8093BF038091BB00F0E084
:102B2000E256FC4F80839091BF038091BE039817BB
:102B3000C8F285E8D8CFE091BF0381E08E0F809383
:102B4000BF038091BB00F0E0E256FC4F8083809190
:102B5000C10381115CCF81E080939C0384EA809360
:102B6000BC001092C20326CF85EC8093BC0010926B
:102B7000C20380914C03803230F4E0914C03F0E0CA
:102B8000E45DFC4F108260914C0370E0E0914D03D6
:102B9000F0914E038CE293E0099510924C030ACF1A
:102BA0001092C00334CFECEEF3E01382128288EE71
:102BB00093E0A0E0B0E084839583A683B78327E603
:102BC00032E03183208325EC30E03587248724EC04
:102BD00030E03787268720EC30E0318B208B21ECEA
:102BE00030E0338B228B22EC30E0358B248B26ECCB
:102BF00030E0378B268B118E128E138E148EE9E8FF
:102C0000F4E01382128284839583A683B78389E7D5
:102C100092E0918380830895CF93DF93CDB7DEB7A1
:102C2000A4970FB6F894DEBF0FBECDBF789484B5DD
:102C3000826084BD84B5816084BD85B5826085BDB8
:102C400085B5816085BD80916E00816080936E0046
:102C50001092810080918100826080938100809138
:102C600081008160809381008091800081608093E9
:102C700080008091B10084608093B1008091B000A9
:102C800081608093B00080917A00846080937A00A4
:102C900080917A00826080937A0080917A008160CE
:102CA00080937A0080917A00806880937A001092F5
:102CB000C100E091FC03F091FD0382E08083E0918C
:102CC000F803F091F9031082E091FA03F091FB030D
:102CD0008FEC808310920404E0910004F0910104D1
:102CE00086E08083E091FE03F091FF0380818061A4
:102CF0008083E091FE03F091FF03808188608083F0
:102D0000E091FE03F091FF03808180688083E09171
:102D1000FE03F091FF0380818F7D80831092520328
:102D2000109251031092C9031092EB030E9498076E
:102D300082E696E09093500380934F0383E696E0FB
:102D400090934E0380934D038CE08093B8000E94D3
:102D5000FC038DE00E94FC038EEA0E94170B64E1E5
:102D600070E080E090E00E942F068FEA0E94170B2F
:102D700064E170E080E090E00E942F0686EA0E9405
:102D8000170B64E170E080E090E00E942F068DE870
:102D90000E94170B64E170E080E090E00E942F0633
:102DA00084E10E94170B64E170E080E090E00E94F3
:102DB0002F0686EA0E94170B80E00E94EA0A87E04D
:102DC0000E94F905BC01990F880B990B61157105DB
:102DD0008105910511F00E94851A61E08DE00E9445
:102DE000CB0564E670E080E090E00E942F0660E092
:102DF0008DE00E94CB0568EC70E080E090E00E94DE
:102E00002F0661E08DE00E94CB0562E370E080E078
:102E100090E00E942F0660E08DE00E94CB059E01AD
:102E20002F5F3F4F3A8B298B1092810310928003C2
:102E300010927F0320E031E088E141E0F9019EE05B
:102E40004083915079969111FBCF81502F5F3F4F76
:102E50008111F4CF90E080E0FC01EB5EFE4F20E0BA
:102E6000108279962F5F2E30D9F701968330910525
:102E700099F782E00E94EA0A0E949D0F68EC70E0D8
:102E800080E090E00E942F0683E00E94EA0A0E9400
:102E90009D0F68EC70E080E090E00E942F060E9499
:102EA000300B0E94660B87EA0E94170B68EC70E0FB
:102EB00080E090E00E942F0686EA0E94170B0E9495
:102EC000361A27E030E040E050E00E948E1A862F4C
:102ED00021E045E064E18F5F0E94390A0E949D0F66
:102EE0000E94361A27E030E040E050E00E948E1A3F
:102EF000DC01CB010196A11DB11D80937E030E94D0
:102F0000B80C40E060E070E0CB010E94840D6CE200
:102F100071E080E090E00E942F0641E060E070E008
:102F2000CB010E94840D6CE271E080E090E00E9491
:102F30002F0640E060E070E0CB010E94840D80E04D
:102F40000E948A0B10927D0381E080937D03809123
:102F50007D03882309F422C180917D038823B9F37E
:102F6000E8E6F6E085919591A591B4911C018D015B
:102F7000188E1F8A1B8A1C8A1D8A3FE33E8B1A8E7D
:102F8000198E80917D03882311F3EF89F88DEE0F60
:102F9000FF1FEE0FFF1FFCA3EBA3E058FA4F859134
:102FA0009591A591B4918F8F98A3A9A3BAA3E98D08
:102FB000FA8DEE0FFF1FEE0FFF1FE058FC4F8590BC
:102FC0009590A590B4902B893C894D895E89B1017B
:102FD000C8010E94641B87FF4EC02B8E3C8E0D8F54
:102FE0001E8F20E034E244E759E46B8D7C8D8D8D9B
:102FF0009E8D0E94841C20E030E040E05FE30E9450
:10300000841C0E94DB1B6B017C0120E030E0A901E5
:103010006F8D78A189A19AA10E947F1C20E030E0E9
:10302000A90118160CF093C0C501B4010E947F1CC1
:10303000181654F5412C512C32014C145D046E04C9
:103040007F0450F520E438E340E050E06F8D78A134
:1030500089A19AA10E94200C20E438E340E050E0CE
:10306000C501B4010E94200CF0E84F0EF0E75F1E8E
:10307000611C711CE2CF9B899B8FAC89AC8FBD8991
:10308000BD8FEE89EE8FADCFA70196016F8D78A130
:1030900089A19AA10E94200C2B8D3C8D4D8D5E8DB7
:1030A000B101C8010E94F71A1B018C012FE632E121
:1030B00043E85AE30E94641B87FF10C02F89388DB4
:1030C0002F5F3F4F388F2F8BEBA1FCA1E459F94FB5
:1030D00085919591A591B4911C018D012B8D3C8D0D
:1030E0004D8D5E8D6B897C898D899E890E94F71A32
:1030F0006B8B7C8B8D8B9E8B2FE632E143E85AE302
:103100000E94641B87FF0AC0898D9A8D01969A8F51
:10311000898F1B8A1C8A1D8A9FE39E8BEEE5F7E050
:103120008491EBE9F7E0E490E7E8F7E0F490F11040
:1031300026C010927D038F89988DCA9709F407CF16
:10314000A98DBA8DA038B10509F01BCF00CFC501FC
:10315000B4010E947F1C18162CF4A7019601C5012A
:10316000B40198CFC701B60128EE33E040E050E04B
:103170000E94C01ACA01B9010E942F068DCF811189
:103180000E94A205EF2DF0E0EE0FFF1FEA58FC4F62
:10319000A591B4918C91E82261F2CDCF81E00E949B
:1031A0008A0B0E94300B0E94660B40E060E070E0EA
:1031B000CB010E94840D09E010E00E94361A27E03E
:1031C00030E040E050E00E948E1ADC01CB01019615
:1031D000A11DB11D80937E030E94B80C64E670E0CF
:1031E00080E090E00E942F060150110931F78EEC2B
:1031F000F82E90E1E92E23E4C22E23E0D22E809116
:1032000081038111DAC00E9454110E949E090E941C
:103210009D0F2FB7F8948091830390918403A09120
:103220008503B09186032FBF8093790390937A032F
:10323000A0937B03B0937C038FB7F89440918303F2
:103240005091840360918503709186038FBF8091B4
:10325000790390917A03A0917B03B0917C03481B82
:10326000590B6A0B7B0BE0917703F09178031F2DCC
:103270009F011203C001139F900D112488519C4F90
:10328000092E000CAA0BBB0B481759076A077B07CE
:1032900008F0B5CF80E00E94F9058830924014F51F
:1032A00082E1E3E5F3E0A5E6B3E001900D928A95B3
:1032B000E1F7809164038150809364030E94470981
:1032C000882349F082E1E5E6F3E0A3E5B3E001906D
:1032D0000D928A95E1F764E670E080E090E00E944C
:1032E0002F061BC080E00E94F9058D3192406CF0E2
:1032F00082E1E3E5F3E0A5E6B3E001900D928A9563
:10330000E1F7809164038F5FD7CF81E00E94F905D8
:103310008D3192403CF00E9454110E949E090E94FF
:103320009D0F8ACF81E00E94F9058C3291400CF00C
:1033300083CFE989FA891E2D11921A95E9F7AE011A
:103340004F5F5F4F83E593E0FA0130E020E0DC015E
:10335000A20FB31F1C966C9160832F5F3F4F349672
:1033600024303105A1F74F5F5F4F0497C816D90687
:1033700059F782E1E3E5F3E0A5E6B3E001900D92B1
:103380008A95E1F780E1FE013196A3E5B3E0019073
:103390000D928A95E1F70E944709882349F082E15E
:1033A000E5E6F3E0A3E5B3E001900D928A95E1F73D
:1033B0006CE271E080E090E092CF80E090E0892BB9
:1033C00009F432CD0E94CE06882309F42DCD0E9447
:1033D000000025CD8F929F92AF92BF92CF92DF9245
:1033E000EF92FF92CF93DF93EC01688179818A811C
:1033F0009B81611571058105910521F464E279EDE8
:103400008BE597E02DE133EF41E050E00E948E1A0A
:1034100049015A019B01AC01A7EAB1E40E94AD1A2F
:103420006B017C01ACEEB4EFA50194010E94BB1AC4
:10343000C60ED71EE81EF91EF7FE06C081E0C81AA8
:10344000D108E10880E8F80AC882D982EA82FB82C2
:10345000C701B6019F77DF91CF91FF90EF90DF908A
:10346000CF90BF90AF909F908F9008958F929F9232
:10347000AF92BF92CF92DF92EF92FF9260915F0284
:1034800070916002809161029091620261157105F4
:103490008105910521F464E279ED8BE597E02DE15A
:1034A00033EF41E050E00E948E1A49015A019B011E
:1034B000AC01A7EAB1E40E94AD1A6B017C01ACEE4D
:1034C000B4EFA50194010E94BB1AC60ED71EE81ED8
:1034D000F91EF7FE06C081E0C81AD108E10880E8AD
:1034E000F80AC0925F02D0926002E0926102F0920C
:1034F0006202C701B6019F77FF90EF90DF90CF90F7
:10350000BF90AF909F908F90089560935F027093EB
:10351000600280936102909362020895052E97FBEA
:103520001EF400940E94A51A57FD07D00E94C01AED
:1035300007FC03D04EF40C94A51A50954095309595
:1035400021953F4F4F4F5F4F08959095809570950F
:1035500061957F4F8F4F9F4F08950E94E21AA59F5C
:10356000900DB49F900DA49F800D911D112408957E
:10357000B7FF0C94AD1A0E94AD1A821B930B0895ED
:10358000A1E21A2EAA1BBB1BFD010DC0AA1FBB1F67
:10359000EE1FFF1FA217B307E407F50720F0A21BD9
:1035A000B30BE40BF50B661F771F881F991F1A9446
:1035B00069F760957095809590959B01AC01BD0170
:1035C000CF010895A29FB001B39FC001A39F700DCA
:1035D000811D1124911DB29F700D811D1124911D1B
:1035E0000895EE0FFF1F0590F491E02D09945058B7
:1035F000BB27AA270E940F1B0C94451C0E94371C56
:1036000038F00E943E1C20F039F49F3F19F426F454
:103610000C94341C0EF4E095E7FB0C942E1CE92F5F
:103620000E94561C58F3BA17620773078407950760
:1036300020F079F4A6F50C94781C0EF4E0950B2E8E
:10364000BA2FA02D0B01B90190010C01CA01A001F4
:103650001124FF27591B99F0593F50F4503E68F14F
:103660001A16F040A22F232F342F4427585FF3CF90
:10367000469537952795A795F0405395C9F77EF461
:103680001F16BA0B620B730B840BBAF09150A1F0AA
:10369000FF0FBB1F661F771F881FC2F70EC0BA0F30
:1036A000621F731F841F48F4879577956795B795B8
:1036B000F7959E3F08F0B0CF9395880F08F09927B3
:1036C000EE0F9795879508950E940A1C08F481E0F3
:1036D00008950E947D1B0C94451C0E943E1C58F0CE
:1036E0000E94371C40F029F45F3F29F00C942E1CF7
:1036F00051110C94791C0C94341C0E94561C68F3D4
:103700009923B1F3552391F3951B550BBB27AA279A
:1037100062177307840738F09F5F5F4F220F331FD4
:10372000441FAA1FA9F335D00E2E3AF0E0E832D09C
:1037300091505040E695001CCAF72BD0FE2F29D09F
:10374000660F771F881FBB1F261737074807AB0771
:10375000B0E809F0BB0B802DBF01FF2793585F4FE6
:103760003AF09E3F510578F00C942E1C0C94791C75
:103770005F3FE4F3983ED4F3869577956795B795C8
:10378000F7959F5FC9F7880F911D9695879597F9D3
:103790000895E1E0660F771F881FBB1F621773074C
:1037A0008407BA0720F0621B730B840BBA0BEE1F61
:1037B00088F7E09508950E945E1C88F09F5798F066
:1037C000B92F9927B751B0F0E1F0660F771F881F26
:1037D000991F1AF0BA95C9F714C0B13091F00E9440
:1037E000781CB1E008950C94781C672F782F8827F7
:1037F000B85F39F0B93FCCF3869577956795B39567
:10380000D9F73EF490958095709561957F4F8F4FD5
:103810009F4F0895990F0008550FAA0BE0E8FEEF9F
:1038200016161706E807F907C0F012161306E40784
:10383000F50798F0621B730B840B950B39F40A267D
:1038400061F0232B242B252B21F408950A2609F45B
:10385000A140A6958FEF811D811D089597F99F675F
:1038600080E870E060E008959FEF80EC0895002408
:103870000A941616170618060906089500240A94D5
:1038800012161306140605060895092E0394000C5B
:1038900011F4882352F0BB0F40F4BF2B11F460FFEA
:1038A00004C06F5F7F4F8F4F9F4F089557FD905813
:1038B000440F551F59F05F3F71F04795880F97FBF4
:1038C000991F61F09F3F79F08795089512161306AE
:1038D0001406551FF2CF4695F1DF08C016161706DD
:1038E0001806991FF1CF8695710561050894089512
:1038F000E894BB2766277727CB0197F908950E94A4
:103900000A1C08F48FEF08950E94971C0C94451C24
:103910000E94371C38F00E943E1C20F0952311F0C5
:103920000C942E1C0C94341C11240C94791C0E94B1
:10393000561C70F3959FC1F3950F50E0551F629F81
:10394000F001729FBB27F00DB11D639FAA27F00DF8
:10395000B11DAA1F649F6627B00DA11D661F829F1F
:103960002227B00DA11D621F739FB00DA11D621F04
:10397000839FA00D611D221F749F3327A00D611D21
:10398000231F849F600D211D822F762F6A2F112403
:103990009F5750409AF0F1F088234AF0EE0FFF1F36
:1039A000BB1F661F771F881F91505040A9F79E3F8D
:1039B000510580F00C942E1C0C94791C5F3FE4F3AD
:1039C000983ED4F3869577956795B795F795E795E3
:1039D0009F5FC1F7FE2B880F911D9695879597F9EC
:0639E0000895F894FFCFEA
:1039E60001000000000000000000000000000000D0
:1039F60000000000000000000001000000000000C0
:103A060000000000000000000000000000000000B0
:103A160000000000000000000000000000000000A0
:103A26000000000000000000000000000000000090
:103A36000000000000000000000000000000000080
:103A46000000000000000000000000000000000070
:103A56000000000000000000000000000000000060
:103A66000000000000000000000000000000000050
:103A76000000000000000000000000000000000040
:103A86000000000000000000000000000000000030
:103A96000000000000000000000000000000000020
:103AA6000000000000000000000000000000000010
:103AB6000000000000000000000000000000000000
:103AC60000000000000000000000000000000000F0
:103AD60000000000000000000000000000000000E0
:103AE60000000000000000000000000000000000D0
:103AF60000000000000000000000000000000000C0
:103B060000000000000000000000000000000000AF
:103B1600000000000000000000000000000000009F
:103B2600000000000000000000000000000000008F
:103B36000000000000000000000000000000FF017F
:103B4600000000000000000407640691065107C249
:103B560006A006B406000000001509E8084409BEE0
:083B660008E108CE08BF0800C9
:00000001FF
